:020000040800F2
:1000000090880024B1020008DF2F0008792700083B
:10001000DD2F0008E9030008B73C000800000000DD
:100020000000000000000000000000000D32000889
:10003000EB03000800000000E12F00080F32000869
:10004000CF020008CF020008CF020008CF0200084C
:10005000CF020008CF020008CF020008CF0200083C
:10006000CF020008CF020008CF020008CF0200082C
:10007000CF020008CF020008CF020008CF0200081C
:10008000CF020008CF020008CF020008CF0200080C
:10009000CF020008CF020008CF020008CF020008FC
:1000A000CF020008CF020008CF020008CF020008EC
:1000B000B1330008CF020008CF020008CF020008C9
:1000C000CF020008CF020008CF020008CF020008CC
:1000D000CF020008CF020008CF020008CF020008BC
:1000E000CF020008CF02000800000000CF02000885
:1000F000CF020008CF020008CF020008CF0200089C
:10010000CF020008CF020008CF020008CF0200088B
:10011000CF020008CF020008CF020008CF0200087B
:10012000CF020008CF020008CF020008CF0200086B
:10013000CF020008CF020008CF020008CF0200085B
:1001400000000000000000000000000000000000AF
:10015000CF020008CF020008CF020008CF0200083B
:10016000CF020008CF020008CF020008CF0200082B
:10017000CF020008CF020008CF02000800000000F4
:10018000CF020008CF020008CF020008CF0200080B
:10019000CF020008CF020008CF020008CF020008FB
:1001A000CF020008CF020008CF020008CF020008EB
:1001B000CF020008CF020008CF020008CF020008DB
:1001C000CF020008CF020008CF020008CF020008CB
:1001D000CF020008CF020008CF020008CF020008BB
:1001E000CF020008CF020008CF020008CF020008AB
:1001F000CF020008CF020008CF020008CF0200089B
:10020000CF020008CF020008CF020008CF0200088A
:10021000CF020008CF020008CF020008CF0200087A
:10022000CF020008CF020008CF0200080000000043
:10023000CF020008CF02000800000000CF02000833
:10024000CF020008CF020008CF020008CF0200084A
:10025000CF020008CF020008CF020008CF0200083A
:10026000CF020008CF020008CF020008CF0200082A
:10027000CF020008CF020008CF02000800000000F3
:10028000CF020008CF020008CF02000800000000E3
:1002900000000000CF020008DFF810D000F092F854
:1002A0000048004711490008AFF3008090880024FF
:1002B000074880470748804707480047FEE7FEE7B2
:1002C000FEE7FEE7FEE7FEE7FEE7FEE7FEE7FEE706
:1002D000F1030008B9320008990200082DE9F05F27
:1002E0000546002092469B468846064681464024A5
:1002F0001BE0284641464746224600F053F8534645
:100300005A46C01A914110D311461846224600F0B1
:100310003AF82D1A67EB01084F46224601200021CA
:1003200000F031F817EB00094E41201EA4F1010442
:10033000DFDC484631462A464346BDE8F09F40EAA6
:1003400001039B0703D009E008C9121F08C0042A53
:10035000FAD203E011F8013B00F8013B521EF9D23A
:100360007047D2B201E000F8012B491EFBD2704762
:100370000022F6E710B513460A4604461946FFF771
:10038000F0FF204610BD202A04DB203A00FA02F1DB
:10039000002070479140C2F1200320FA03F3194373
:1003A00090407047202A04DB203A21FA02F0002115
:1003B000704721FA02F3D040C2F120029140084375
:1003C00019467047064C074D06E0E06840F001030F
:1003D00094E8070098471034AC42F6D3FFF760FF6B
:1003E000D0550008F0550008FEE7704772B6FEE7EA
:1003F0000548016841F002010160034808380168BE
:100400008904FCD5704700000C48025870B50446BA
:1004100000F008F90546601C02D004480078044446
:1004200000F000F9401BA042FAD370BDBC000024CC
:100430002DE9F84F694C00224FF0B04A4FF0010B04
:100440004FF003084FF00F09C0E00BFA02F63340FB
:1004500073D00D7905F00305012D01D0022D15D1C2
:100460008768550008FA05FC27EA0C07D1F80CC08C
:100470000CFA05FC4CEA070CC0F808C04568B54307
:100480000E79C6F3001696402E4346600D79ED4373
:10049000AD0708D0C668550008FA05F7BE438F6857
:1004A000AF403743C7600D7905F00305022D11D128
:1004B000D50800EB85073E6A5507ED0E09FA05FCE5
:1004C00026EA0C06D1F810C00CFA05FC4CEA060C22
:1004D000C7F820C00668550008FA05F7BE430F7933
:1004E00007F00307AF40374307604D6815F4403FFE
:1004F0006BD03B4D2E6846F002062E602D6822F030
:10050000030606F1B04605F002050095D6F808741A
:1005100095074FEA157C09FA0CF5AF43314DA84217
:1005200001D100252EE0304DA84201D1012529E05E
:100530002E4DA84202D1022524E046E02C4DA842CF
:1005400001D103251EE02B4DA84201D1042519E05D
:10055000294DA84201D1052514E0284DA84201D11A
:1005600006250FE0264DA84201D107250AE0254DBA
:10057000A84201D1082505E0234DA84201D1092553
:1005800000E00A2505FA0CF53D43C6F80854DAF8F0
:10059000005056464F689D43FF0200D51D4335600D
:1005A00075684F689D43BF0200D51D43756065683F
:1005B0004E689D43B60300D51D43656025684E68AF
:1005C0009D43F60300D51D432560521C0B6833FA8A
:1005D00002F57FF43AAFBDE8F88F000080000058C4
:1005E000F44402580000025800040258000802585F
:1005F000000C02580010025800140258001802584B
:10060000001C0258002002580024025800690840CB
:1006100000D001207047000001480068000C7047BE
:100620000010005C0148806870470000BC00002496
:10063000024881680278114481607047BC00002440
:10064000032010B500F0D0F801F0A8F80F4A1168A7
:100650001268C1F303230E49CB5C03F01F03D8409B
:1006600002F00F02895C0B4A01F01F0120FA01F130
:100670001160094908600E2000F010F808B101204F
:1006800010BD00F075F8002010BD0000184402589D
:10069000A0550008CC000024C800002470B50D4D02
:1006A00004462A78A2B14FF47A700B49B0FBF2F0FD
:1006B0000968B1FBF0F001F007FC48B9102C07D233
:1006C00000222146501E00F06FF800206C6070BDC3
:1006D000012070BDBC000024C8000024134A4178EA
:1006E0001160124908310A6822F001020A600B1FEA
:1006F00042681A60027BC37A120742EA0362837A75
:1007000042EAC342437B42EA8342837B42EA43425A
:10071000C37B42EA0342437A42EA0322037A007827
:1007200042EA430202430A607047000098ED00E08D
:10073000BFF35F8F0448016821F4803101600249F2
:10074000002070310860704724ED00E0074940F058
:100750000100086005487038016841F4803101608B
:10076000BFF34F8FBFF36F8F7047000094ED00E031
:10077000054808B5016841F002010160006800F019
:100780000200009008BD0000F4440258002809DB74
:10079000012100F01F0291404009800000F1E0209B
:1007A000C0F80011704700000E4BF0B41B68C3F393
:1007B0000223C3F10704042C00D904241D1D072DB6
:1007C00001D2002300E0DB1E012606FA04F56D1EAF
:1007D0000D409D409E40761E164045EA0601F0BC45
:1007E00003F07DBA0CED00E0064A00F00701106846
:1007F0004FF6FF03184040EA012003490843106008
:10080000704700000CED00E00000FA05124970B5D9
:100810000A68D243520705D5096801F007018142F1
:1008200012D117E00A6822F0070202430A60FFF7BC
:10083000F9FE094D4FF47A760446083D06E0FFF7CD
:10084000F1FE001BB04201D9012070BD2868C043F1
:100850008004F4D4002070BD0C48025810B500F09C
:1008600057FF05490968054AC1F30211515C01F0BF
:100870001F01C84010BD000020440258A0550008C8
:10088000484910B50A68096802F00302454B1B1D70
:10089000C1F305311B68434C1434C3F300132468BF
:1008A000C4F3CC0414FB03F300EE103AB8EE400A94
:1008B000E9B33C4B9FED3C1A1033F7EE000A62B1EE
:1008C000DFED3A1A012A01D0022A5ED002EE101A98
:1008D000F8EE422A81EEA22A1AE0324A283A146837
:1008E000A4060DD51268C2F3C104314AE24001EEFC
:1008F000902AF8EE612A01EE901AF8EE611A05E0EE
:1009000001EE901ADFED2B2AF8EE611A82EEA12A91
:100910001968C1F3080101EE901A1968F8EE611A1E
:1009200040EE011A31EEA00A22EE000A00E033E0A8
:10093000C1F3462101EE101AB8EE411A31EE201A29
:10094000C0EE011ABCEEE11A80ED001A1968C1F37D
:10095000064101EE101AB8EE411A31EE201AC0EE2F
:10096000011ABCEEE11A80ED011A1968C1F30661A3
:1009700001EE101AB8EE411A71EE200A80EE201A2C
:10098000BCEEC10A80ED020A10BD01EE901ADFED47
:100990000A2AF8EE611AB9E700210160416081601E
:1009A00010BD000028440258000000390024744A99
:1009B0000090D0030024744C20BCBE4B484910B5B5
:1009C0000A68096802F00302454B1B1DC1F305517B
:1009D0001B68434C1C34C3F300232468C4F3CC04C9
:1009E00014FB03F300EE103AB8EE400AE9B33C4BB7
:1009F0009FED3C1A1833F7EE000A62B1DFED3A1AA8
:100A0000012A01D0022A5ED002EE101AF8EE422A24
:100A100081EEA22A1AE0324A283A1468A4060DD5BB
:100A20001268C2F3C104314AE24001EE902AF8EEA6
:100A3000612A01EE901AF8EE611A05E001EE901AB3
:100A4000DFED2B2AF8EE611A82EEA12A1968C1F3B4
:100A5000080101EE901A1968F8EE611A40EE011AC9
:100A600031EEA00A22EE000A00E033E0C1F3462195
:100A700001EE101AB8EE411A31EE201AC0EE011A3A
:100A8000BCEEE11A80ED001A1968C1F3064101EECF
:100A9000101AB8EE411A31EE201AC0EE011ABCEE5F
:100AA000E11A80ED011A1968C1F3066101EE101A0E
:100AB000B8EE411A71EE200A80EE201ABCEEC10A8F
:100AC00080ED020A10BD01EE901ADFED0A2AF8EE61
:100AD000611AB9E7002101604160816010BD00002A
:100AE00028440258000000390024744A0090D003C2
:100AF0000024744C20BCBE4B2DE9FC5F044600680A
:100B00000025FA4FC043DFF8E8832E46010104F1C7
:100B10000800019004F1280000901DD4A06E50B18F
:100B2000B0F5801F0CD0B0F5001F0ED0B0F5401FFF
:100B30001ED001250FE0386840F40030386017E01F
:100B40000198022102F04EFA03E00098022102F01F
:100B5000D3FA05000CD02E462088C043C00523D40C
:100B6000A06D05281ED2DFE800F00C11161B1B003B
:100B7000D8F80010A26E21F440111143C8F80010FB
:100B8000EAE7386840F40030386009E00198002155
:100B900002F028FA03E00098002102F0ADFA0546C1
:100BA00075B100E001252E462088C043800528D479
:100BB000E06D80281ED00CDC90B140280ED114E0EE
:100BC000D8F80010A26D21F007011143C8F80010F9
:100BD000EAE7C02813D0B0F5807F10D001250FE0E0
:100BE000386840F40030386009E00198002102F0D4
:100BF000F9F903E00098002102F07EFA05468DB174
:100C00002E462088DFF8EC92C04340052CD4D4F85F
:100C1000A800B0F5800F20D00DDCA0B1B0F5001F0A
:100C20000FD115E0D8F80010E26D21F4E071114306
:100C3000C8F80010E5E7B0F5C00F13D0B0F5000F0D
:100C400010D001250FE0386840F40030386009E02A
:100C50000198002102F0C6F903E00098002102F09B
:100C60004BFA05467DB12E462088C04300052DD4A1
:100C7000D4F8AC00B0F1007F21D00EDCA8B1B0F107
:100C8000807F10D116E0D9F80010D4F8A82021F404
:100C900060011143C9F80010E6E7B0F1407F13D0BE
:100CA000B0F1806F10D001250FE0386840F40030BB
:100CB000386009E00198002102F094F903E00098FF
:100CC000002102F019FA054675B12E462068C0438E
:100CD00080011FD4E06CD8B110280FD0202812D08A
:100CE000302815D0012514E0D9F80010D4F8AC2034
:100CF00021F0E0611143C9F80010E7E7386840F4DB
:100D00000030386004E00198022102F06BF90546DA
:100D100075B12E462088C043C0042BD4206EB0F598
:100D2000005F20D00DDCA0B1B0F5805F0FD115E0E1
:100D30006F48001F0168E26C21F03001114301602F
:100D4000E8E7B0F5405F13D0B0F5804F10D0012533
:100D50000FE0386840F40030386009E00198002165
:100D600002F040F903E00098002102F0C5F90546C1
:100D70008DB12E462088C043800429D4606EB0F522
:100D8000403F23D010DC08B3B0F5803F14D0B0F55D
:100D9000003F0FD115E0D8F80010226E21F4E04199
:100DA0001143C8F80010E5E7B0F5802F0ED0B0F57C
:100DB000A02F0BD001250AE00198012102F012F9C1
:100DC00003E00098012102F097F9054695B12E46FF
:100DD0002088C04340042AD4D4F8B000B0F1405F6A
:100DE00023D010DC08B3B0F1805F14D0B0F1005F05
:100DF0000FD115E0D8F80010626E21F4E021114304
:100E0000C8F80010E4E7B0F1804F0ED0B0F1A04F69
:100E10000BD001250AE00198012102F0E3F803E07C
:100E20000098012102F068F9054675B12E46208828
:100E3000C04300041FD4206FD8B1B0F1805F0ED042
:100E4000B0F1005F10D0012514E0D9F80010D4F8FB
:100E5000B02021F0E0411143C9F80010E7E73868FD
:100E600040F40030386004E00198012102F0BAF843
:100E7000054675B12E462068C043C0011ED4A06C43
:100E8000D0B101280ED0022811D0032814D001259A
:100E900013E0D8F80010226F21F040511143C8F838
:100EA0000010E8E7386840F40030386004E001984A
:100EB000022102F097F805467DB12E462068DFF842
:100EC00038B0C043400256D40C48016841F48071E8
:100ED0000160FFF7A7FB824618E00548001F016884
:100EE000A26C21F0030111430160E7E72C44025892
:100EF00050440258584402581044025800480258BE
:100F0000FFF790FBA0EB0A0064282CD8FE4800688D
:100F1000C005F5D545BBFD480068B4F8B41000F431
:100F2000407001F4407188420CD0F84801680268B2
:100F300021F4407142F480320260026822F480326F
:100F400002600160D4F8B400B0F5807F1AD1FFF7D9
:100F500069FB824609E0FFF765FBA0EB0A0141F25D
:100F60008830814201D9032504E0E8480068800701
:100F7000F1D53DB12E462078DFF894A3C043C007D9
:100F800020D03BE0D4F8B400C0F3012103290ED0F7
:100F9000DBF8001021F47C51CBF80010DB4801682D
:100FA000B4F8B420C2F30B0211430160E3E7DBF8AD
:100FB0000020D84B22F47C5203EA10100243CBF8F5
:100FC0000020EBE7E06F182816D005DCA0B1082858
:100FD00008D0102804D10AE020280DD028280BD0F2
:100FE00001250AE00198012101F0FCFF03E00098CF
:100FF000012102F081F8054665B12E462078C043F4
:1010000080071ED4A06F062819D2DFE800F0160C66
:1010100011161616DAF80010E26F21F038011143AC
:10102000CAF80010EAE70198012101F0DBFF03E0B4
:101030000098012102F060F805467DB100E001252D
:101040002E462078C04340071FD4D4F894000628C9
:1010500019D2DFE800F0160C11161616DAF8001097
:10106000A26F21F007011143CAF80010E9E70198C7
:10107000012101F0B7FF03E00098012102F03CF8E4
:101080000546A5B100E001252E462078C043800624
:101090002BD4D4F89000B0F1405F24D011DC10B311
:1010A000B0F1805F15D0B0F1005F10D116E0D9F833
:1010B0000010D4F8942021F007011143C9F8001062
:1010C000E3E7B0F1804F0ED0B0F1A04F0BD0012577
:1010D0000AE00198002101F085FF03E00098022159
:1010E00002F00AF8054695B12E462078C043400626
:1010F0002BD4D4F89C00B0F5406F24D011DC10B391
:10110000B0F5806F15D0B0F5006F10D116E0DAF8A9
:101110000010D4F8902021F0E0411143CAF80010EB
:10112000E3E7B0F5805F0ED0B0F5A05F0BD00125EE
:101130000AE00198002101F055FF03E00098022128
:1011400001F0DAFF054695B12E462078C04300062F
:101150002BD4D4F8A000B0F5C04F24D011DC10B3CC
:10116000B0F5005F15D0B0F5804F10D116E0D9F87A
:101170000010D4F89C2021F4E0511143C9F800106C
:10118000E3E7B0F5004F0ED0B0F5204F0BD00125AE
:101190000AE00198002101F025FF03E000980221F8
:1011A00001F0AAFF054655B12E462078C04300073E
:1011B0001ED4D4F88400B0F5805F0AD00FE0D9F8CF
:1011C0000010D4F8A02021F460411143C9F80010A8
:1011D000EBE70098022101F08FFF00B10126DAF859
:1011E0000010D4F8842021F440511143CAF80010B3
:1011F0002078C043C00613D4D4F89800B0F5807F9F
:1012000005D10098022101F077FF00B10126D9F83D
:101210000010D4F8982021F440711143C9F800104F
:101220002068C043000316D4D4F8A40038B1B0F548
:10123000803F09D0B0F5003F0BD001250AE00198AE
:10124000002101F0CFFE03E00098022101F054FFDD
:1012500005468DB12E462068C043400322D4D4F801
:101260008800B0F5801F11D0B0F5001F13D0B0F585
:10127000401F15D0012514E0D9F80010D4F8A4209F
:1012800021F440311143C9F80010E4E7386840F414
:101290000030386004E00098012101F02DFF054680
:1012A0005DB12E462068C043C0031CD4206D70B1D0
:1012B000B0F5803F10D0012514E0DAF80010D4F822
:1012C000882021F440111143CAF80010EAE7386879
:1012D00040F40030386004E00198022101F082FE01
:1012E00005462DB32E462068C043800005D40098E3
:1012F000022101F001FF00B101262068C0438003F4
:1013000024D4D4F8800007E0004802587044025802
:1013100054440258CFFFFF00B0B1B0F5807F0FD02A
:10132000B0F5007F10D0B0F5407F0DD001250CE066
:101330005A480168226D21F4803111430160D2E7DF
:10134000386840F400303860F5B32E462068C0435A
:10135000C00207D4D8F80010626F21F00041114399
:10136000C8F800102068C043C00008D4DBF80010A3
:10137000D4F8B82021F480411143CBF80010206844
:10138000C043800207D4D8F80010E26E21F08071CB
:101390001143C8F800102068C04340000CD4DBF8AB
:1013A000001021F40041CBF80010DBF80010D4F855
:1013B000BC201143CBF800102068C04308D4374844
:1013C000016821F0405100E017E0626D11430160B7
:1013D0002068C043000208D4DAF80010D4F88C204A
:1013E00021F440011143CAF8001020790025C043C0
:1013F00000F0010028430AD00FE0DAF80010D4F81A
:10140000802021F440711143CAF800109EE7019832
:10141000002101F0E7FD00B106462079C04300F04D
:101420000200284305D10198012101F0DBFD00B144
:1014300006462079C04300F00400284305D10198F6
:10144000022101F0CFFD00B106462079C04300F033
:101450000800284305D10098002101F04DFE00B19D
:1014600006462079C04300F01000284305D10098BB
:10147000012101F041FE00B106462079C04300F091
:101480002000054304D10098022101F035FE00B987
:1014900016B10120BDE8FC9F0020FBE74C44025838
:1014A0002DE9F05F04000D467ED0DFF84492D9F8B4
:1014B000000000F00F00A8420CD2D9F8001021F073
:1014C0000F012943C9F80010D9F8000000F00F00FF
:1014D000A84269D12078874E40070AD52069316833
:1014E00001F07001884204D9316821F07001014394
:1014F00031602078DFF8008200070CD56069414632
:10150000D8F8002002F07002904204D90A6822F054
:10151000700202430A602078C0060CD5A0694146DB
:10152000D8F8002002F4E062904204D90A6822F45C
:10153000E06202430A602078DFF8C0B180060CD573
:10154000E0695946DBF8002002F07002904204D9AD
:101550000A6822F0700202430A60207880070AD5E8
:10156000E068316801F00F01884204D9316821F048
:101570000F01014331602078C0073DD03068A16879
:1015800020F47060084330605A49606818390228B6
:1015900018D0032819D00968012819D04907002953
:1015A00049DADFF850A100E045E0AAF1080ADAF8CC
:1015B000001021F007010143CAF80010FFF732F8CC
:1015C000074611E009688903E9E709688901E6E748
:1015D000C905E4E7FFF726F8C11B41F288308142D4
:1015E00002D90320BDE8F09FDAF80000616800F03E
:1015F0003800B0EBC10FEDD1207880070AD5E06844
:10160000316801F00F01884204D2316821F00F01E6
:1016100001433160D9F80010484601F00F01A9429A
:101620000BD9016821F00F0129430160006800F027
:101630000F00A84201D00120D4E7207840070AD546
:101640002069316801F07001884204D2316821F0CC
:10165000700101433160207800070CD56069414674
:10166000D8F8002002F07002904204D20A6822F0FA
:10167000700202430A602078C0060CD5A069424679
:10168000D8F8001001F4E061884204D2116821F416
:10169000E06101431160207880060CD5E06959466D
:1016A000DBF8002002F07002904204D20A6822F0B7
:1016B000700202430A6000F071F83168C1F303223E
:1016C0000F498A5C02F01F02D040326802F00F021C
:1016D000895C0C4A01F01F0120FA01F111600A49EE
:1016E00008600A480068BDE8F05FFEF7D7BF000059
:1016F00000200052184402581C440258204402584A
:10170000A0550008CC000024C8000024C00000241C
:1017100000B500F043F80B4A11681268C1F30323C7
:101720000949CB5C03F01F03D84002F00F02895C2B
:10173000064A01F01F0120FA01F11160044A10600D
:10174000084600BD18440258A0550008CC000024EB
:10175000C800002400B5FFF7DBFF05490968054A0A
:10176000C1F30211515C01F01F01C84000BD00002F
:101770001C440258A055000800B5FFF7C9FF0549F1
:101780000968054AC1F30221515C01F01F01C840FC
:1017900000BD00001C440258A0550008434830B565
:1017A0000068444C10F03801414808D00211082963
:1017B00003D010290BD018290BD0104630BD21685A
:1017C0008906FBD52168C1F3C101C84030BD3A4844
:1017D00030BD364918310A68096802F00302334BFC
:1017E0001C33C1F305111B68304D03F00103243590
:1017F0002D68C5F3CC0515FB03F300EE103AB8EEE7
:10180000400AE9B3294BDFED2D0A2033B7EE001A69
:1018100062B1DFED2B1A012A01D0022A3CD002EE80
:10182000101AF8EE422A81EEA22A17E022689206E8
:101830000CD52268C2F3C102D04001EE900AF8EE46
:10184000612A01EE901AF8EE611A05E001EE901A95
:10185000DFED1C2AF8EE611A82EEA12A1868C0F3A7
:10186000080001EE900A1868F8EE611A40EE201A9E
:1018700031EE810A22EE000AC0F34620401C00E04F
:1018800011E000EE900AF8EE600A80EE201ABCEE3D
:10189000C10A10EE100A30BD01EE901ADFED0A2ADF
:1018A000F8EE611AD8E7002030BD0000104402585D
:1018B0000090D0030044025840787D0100000039B8
:1018C0000024744A0024744C20BCBE4B2DE9F05F08
:1018D000040079D02078DFF8F8A3FE4EFE4DC00753
:1018E00047D0DAF80000316800F03800102815D031
:1018F000182803D101F0030002280FD06068B0F56A
:10190000803F12D010B1B0F5A02F18D0286820F475
:1019100080302860286820F4802009E0286880034F
:1019200027D560680028D4D023E0286840F48030B0
:101930002860606888B1FEF775FE074609E02868F0
:1019400040F480202860F0E7FEF76CFEC01B64289E
:1019500072D828688003F7D50BE0FEF763FE0746D0
:1019600004E0FEF75FFEC01B6428F1D828688003FE
:10197000F7D4207841F20309D84F800766D5DAF80A
:101980000000316810F038000ED0182801D1880707
:101990000AD0E06880B3296821F019010143296069
:1019A000FEF740FE80462EE02868400702D5E0683A
:1019B00000288ED02868E16820F0190008432860CC
:1019C000FEF730FE804606E0D8E0FEF72BFEA0EBE7
:1019D00008000228BCD828684007F6D5FEF71CFE90
:1019E00048451AD82069402811D0396821F47C3143
:1019F00041EA0030386029E016E0FEF713FEA0EB64
:101A000008000228A4D828684007F6D5E6E7386819
:101A100020F47C3040F40030ECE73868217C20F082
:101A2000FE4040EA0160E5E7286820F001002860F8
:101A3000FEF7F8FD804606E000E1FEF7F3FDA0EBBF
:101A40000800022884D828684007F6D42078C00609
:101A50005AD5DAF80000316800F03800DFF870B2CB
:101A60000828ABF1040B10D0182803D101F00300B3
:101A700001280AD0E0690028286836D040F08000AC
:101A80002860FEF7CFFD804621E02868C00521D5FB
:101A9000E069802872D11DE0206A20281FD03968B3
:101AA00021F0F84141EA806038602DE0DBF8001059
:101AB00094F8202021F07C5141EA0261CBF800101B
:101AC00022E0FEF7AFFDA0EB080002289AD82868B4
:101AD000C005F6D5FEF7A0FD4845E7D8DCE7386835
:101AE00020F0F84040F08040DEE720F080002860E1
:101AF000FEF798FD074604E0FEF794FDC01B0228A0
:101B0000A0D82868C005F7D42078000728D57149E7
:101B100060694C31002888460846096810D041F0B9
:101B200001010160FEF77EFD074604E0FEF77AFD45
:101B3000C01B022886D8D8F800008007F6D50FE031
:101B400021F001010160FEF76DFD074604E0FEF79C
:101B500069FDC01B022871D8D8F800008007F6D4B0
:101B60002078800623D5A0690028286810D040F48A
:101B700080502860FEF756FD074605E038E1FEF785
:101B800051FDC01B022859D828688004F7D50EE003
:101B900020F480502860FEF745FD074604E0FEF77C
:101BA00041FDC01B022849D828688004F7D420785A
:101BB00040074DD5DFF82881D8F8001041F4807136
:101BC000C8F80010FEF72EFD074604E0FEF72AFDD8
:101BD000C01B642832D8D8F80000C005F6D53D4FA8
:101BE000A068483701280AD008B1052813D0386802
:101BF00020F001003860386820F0040002E0386806
:101C000040F001003860A06841F2883990B1FEF7D9
:101C100009FD80460AE0386840F004003860EEE7CD
:101C2000FEF700FDA0EB0801494507D8386880079A
:101C3000F6D50DE0FEF7F6FC804606E083E0FEF701
:101C4000F1FCA0EB080149457DD838688007F6D43F
:101C5000616AD9B3DAF800004FF6F87BDFF87480D8
:101C600008F10808C0F3C200032808F10409A8F12C
:101C7000040A69D02868022920F08070286003D007
:101C8000FEF7D0FC044688E0FEF7CCFC074604E0F3
:101C9000FEF7C8FCC01B02287CD828688001F7D456
:101CA000306840F2F3318843E16A40EA0110A16AEA
:101CB0000843306094F83400218E4002491EA0F59C
:101CC000007080B2C1F3080108430BE0B3E00000EC
:101CD0001044025828440258004402580444025850
:101CE00000480258218F4FF4FE02491E02EA0141CA
:101CF000084394F83C101202491E02EA01610843AD
:101D0000C8F80000DAF80010504621F00101CAF8C6
:101D10000010D9F80020A36C22EA0B0242EAC302A9
:101D2000C9F80020DAF80010226C21F00C011143F0
:101D3000CAF80010DAF80010626C21F002011143B9
:101D40000160016801E025E02BE041F48031016091
:101D5000016841F400310160016841F480210160B3
:101D6000016841F001010160286840F0807028603E
:101D7000FEF758FC044604E0FEF754FC001B022862
:101D800008D828688001F7D555E0FEF74BFC001B0A
:101D9000022802D90320BDE8F09F28688001F4D40E
:101DA00049E03268D8F80000012921D0A36A02F086
:101DB000030199421CD1E16AC2F30512914217D185
:101DC000216BC0F30802491E8A4211D1616BC0F336
:101DD0004622491E91420BD1A16BC0F30642491E17
:101DE000914205D1E16BC0F30660491E814201D0EA
:101DF0000120D0E7D9F800004F46A16CC0F3CC0019
:101E0000814218D0DAF80000564620F00100CAF8E6
:101E10000000FEF707FC0546FEF704FCA842FBD0D5
:101E20003868A16C20EA0B0040EAC10038603068D5
:101E300040F0010030600020ADE700002DE9F041E6
:101E400004001D4616460F4603D0D4F8880018B18A
:101E500008E00120BDE8F081002084F884002046DD
:101E600000F0D2FA2420C4F888002068016821F02C
:101E700001010160A06A10B1204601F021FC20465A
:101E800001F002FD0128E5D02068816841F480411D
:101E900081602068816821F40041394381607005C8
:101EA00040EA054120680268064B1A400A43026076
:101EB0002068016841F0010101602046BDE8F04161
:101EC00001F062BCFFFF00FC401EB0F1807F10B546
:101ED00001D3012010BD4FF0E02460610F21601795
:101EE00001F0FDFE0020A06107202061002010BD50
:101EF0007047704770470000F0B590F83C20012A09
:101F00003CD0012580F83C50022280F83D20036837
:101F10005A689C681A4E1B4FB34201D0BB4204D191
:101F200022F4700C4A6842EA0C0222F0700C0A6833
:101F300042EA0C025A600268B24213D0B2F1804FFA
:101F400010D0114B9A420DD0104B9A420AD0104B30
:101F50009A4207D0BA4205D00E4B9A4202D00E4B9D
:101F60009A4204D1896824F080031943916080F873
:101F70003D50002180F83C100846F0BD0220F0BD25
:101F8000000001400004014000040040000800403F
:101F9000000C0040001800400040014010B5040053
:101FA00003D094F83D0010B107E0012010BD0020DF
:101FB00084F83C00204600F023F8022084F83D001D
:101FC0002068211D01F0FAF9012084F8480084F806
:101FD0003E0084F83F0084F8400084F8410084F813
:101FE000420084F8430084F8440084F8450084F8F3
:101FF000460084F8470084F83D00002010BD000032
:1020000008B50068B0F1804F12D10A48016841F06C
:1020100001010160006800220F2100F00100009022
:102020001C20FEF7C1FBBDE808401C20FEF7AEBB3C
:1020300008BD0000E844025890F83D10012901D085
:1020400001207047022180F83D100168CA6842F003
:102050000102CA6000681349884214D0B0F1804F71
:1020600011D0114988420ED0104988420BD0104936
:10207000884208D00F49884205D00F49884202D0D3
:102080000E49884207D181680D4A1140062906D0C1
:10209000B1F5803F03D0016841F0010101600020EB
:1020A00070470000000001400004004000080040AC
:1020B000000C0040000401400018004000400140B6
:1020C0000700010070B5044690F83C000025012887
:1020D00015D0012684F83C60022084F83D00206879
:1020E0008268364B1A4022F47F428260086870286A
:1020F00002462FD010DC10F00F0F03D022E04FF07B
:10210000020070BD4FEA201007281BD2DFE800F064
:10211000535353534B394100B0F1101F4BD009DCDE
:10212000B0F5805F0FD0B0F5005F1ED0B0F5801F16
:1021300008D140E02038B0F580103CD010283AD0CB
:10214000202838D0012584F83D60002084F83C0028
:10215000284670BD4A682068D1E9021301F092F95F
:102160002068816841F0770109E04A682068D1E978
:10217000021301F087F92068816841F48041816091
:10218000E1E7CA684968206801F090F920685021A9
:1021900006E0CA684968206801F099F92068602162
:1021A00001F07AF9CFE7CA684968206801F07EF942
:1021B00020684021F4E720681146F1E788FFCEFF50
:1021C00070472DE9F04104460068C66805694FF084
:1021D0000007A90713D5B10711D5F91E0161012028
:1021E0002077206880698007204602D0FFF7E8FF4B
:1021F00004E000F08BF8204600F089F827776807A4
:1022000016D5700714D521686FF00400086102200C
:1022100020772068806910F4407F204602D0FFF7C5
:10222000CFFF04E000F072F8204600F070F8277746
:10223000280715D5300713D521686FF0080008610D
:10224000042020772068C0698007204602D0FFF76D
:10225000B7FF04E000F05AF8204600F058F827775E
:10226000E80616D5F00614D521686FF01000086155
:10227000082020772068C06910F4407F204602D0F3
:10228000FFF79EFF04E000F041F8204600F03FF821
:102290002777E80708D0F00706D021686FF0010023
:1022A0000861204600F034F8280601D4A80408D5B7
:1022B000300606D521686FF4025008612046FFF70A
:1022C00018FEE80508D5300606D521686FF4807041
:1022D00008612046FFF70CFE680608D5700606D593
:1022E00021686FF040000861204600F01DF8A80644
:1022F0000AD5B00608D521686FF020000861204695
:10230000BDE8F041FFF7F6BDBDE8F08170477047CA
:1023100010B50068B0F1804F05D100F0A7FCBDE812
:10232000104001F0E7B810BD704790F88410012903
:1023300018D0012180F884102421C0F88810016889
:102340000A680B6823F001030B6022F000510022A1
:102350004266036819602021C0F8881080F8842044
:10236000104670470220704770B5044690F884000C
:1023700001281DD0012084F884002420C4F888009E
:1023800020680568026822F0010202602068826805
:1023900022F060620A438260204601F06FF92068F3
:1023A00005602020C4F88800002084F8840070BDF7
:1023B000022070BD70B5044690F8840001281DD03D
:1023C000012084F884002420C4F88800206805686F
:1023D000026822F0010202602068826822F06042F6
:1023E0000A438260204601F049F9206805602020F8
:1023F000C4F88800002084F8840070BD022070BDFD
:10240000D0F89000704700002DE9F043B7B00446C3
:10241000142130A8FDF7ACFFC0216846FDF7A8FFE6
:1024200020680225694C4FF000086749674E083C58
:10243000DFF89C91884231D10021CDF878800220CC
:10244000CDE900016846FEF757FB08B1FDF7CEFF66
:10245000306840F400203060306800F4002035908F
:10246000206840F001002060206830A94C4600F050
:102470000100359048F2010081E821010820CDE9F2
:1024800033804846FDF7D4FF30A94FF4006081E85F
:1024900021010620CDE93380204629E04D49072758
:1024A00088422AD10020CDF878800221CDE90010A1
:1024B0006846FEF721FB08B1FDF798FF306840F051
:1024C00080403060306800F080403590206840F0F7
:1024D00010002060206830A9CDF8C88000F01000FE
:1024E00035904FF46070CDE930053B48CDE9338736
:1024F000FDF79EFF37B0BDE8F0833849884239D1F7
:102500000020CDF87C800121CDE900106846FEF75F
:10251000F3FA08B1FDF76AFF2C480830016841F072
:1025200010010160006800F010003590206840F054
:1025300002002060206800F002003590206840F022
:1025400001002060206830A900F0010035904FF4B0
:10255000404081E821010420CDE933802048FDF787
:1025600067FF30A94FF4805081E82101CDE933871E
:102570004846BDE71B498842BCD10021CDF8788090
:102580000220CDE900016846FEF7B6FA08B1FDF772
:102590002DFF306840F400303060306800F40030C7
:1025A0003590206840F001002060206830A9CDF807
:1025B000C88000F0010035900E20CDE93005CDE94E
:1025C0003387484694E70000004C0040E844025836
:1025D000000002580078004000100258001001402E
:1025E00000040258004400402DE9F84F0446D0F89A
:1025F0008C00994617460E46202802D00220BDE8DE
:10260000F88FC6B1BFB10025C4F890502220C4F89D
:102610008C00E5662034FEF705F8A7878346E78738
:10262000FF2354F8180C203C4FF48052904207D1FD
:10263000216911B118E00120E1E740F2FF1119E032
:102640007F2178B1B0F1805F11D0A4F86050904242
:10265000B4F860704FF0200A01D1206968B13546A6
:1026600000260BE025692DB9A4F86030EFE7236957
:1026700003B13F21A4F86010E9E7002507F0FF0847
:10268000B4F85E00E8B100225B4620212046CDF878
:10269000009001F0C7FA18B1C4F88CA00320AEE78F
:1026A0002068406A4DB100EA080005F8010BB4F853
:1026B0005E00401EA4F85E00E2E7384026F8020BF8
:1026C000F5E7C4F88CA0002099E72DE9F84304460B
:1026D000D0F888001F4615460E46202802D002205A
:1026E000BDE8F883AEB1A5B10020C4F89000212068
:1026F000C4F888001834FDF795FFA5878146E58763
:102700004FF0200854F8100C183CB0F5805F02D050
:1027100003E00120E4E7206910B13546002610E00F
:1027200000250EE08021204601F07CFAB8B9D5B131
:1027300015F8010B21688862B4F85600401EA4F811
:102740005600B4F856004B464FF0000200970028A0
:10275000E8D14FF04001204601F064FA40B1C4F8DE
:1027600088800320BCE736F8020BC0F30800E1E7DD
:10277000C4F888800020B3E7FEE7000010B5364BB0
:102780000021364A04462DED028B82B09FED308A3F
:10279000DFED308A00900120F0EE480AB0EE680AC2
:1027A00000F062F801212C4B2C4A0846F0EE480A52
:1027B000B0EE680A009400F057F8274B0021274A32
:1027C0000220F0EE480AB0EE680A009400F04CF8DF
:1027D000214B0121214A0220F0EE480AB0EE680A9E
:1027E000009400F041F81C4B00211C4A0320F0EE3D
:1027F000480AB0EE680A009400F036F8164B012142
:10280000164A0320F0EE480AB0EE680A009400F081
:102810002BF89FED138ADFED138A0F4B00210F4A2F
:102820000420F0EE480AB0EE680A009400F01CF8AC
:10283000094B0121094A0420F0EE480AB0EE680A6B
:10284000009400F011F802B0BDEC028B10BD000046
:10285000CDCCCC3D5839B43C04260024A406002439
:102860006F12833A3D0A573E2DE9F047F0EE601AA9
:10287000B0EE401A0E4604469FED520A0020DDF8E5
:1028800020C0012C8246F0EE400A1BD0022C1CD046
:10289000032C1DD0042C74D1DFF82CA14B4D02EB7E
:1028A0008C0203EB8C034A4902F5C05803F5C0596A
:1028B00002F5A05703F5A05C6EB1012E40D0042CA8
:1028C00079D067E04348444DE9E74448444DE6E7A2
:1028D0004448454DE3E7012C06D0022C0DD0032CD3
:1028E00018D0042C56D122E098EDDD0AD1ED000A73
:1028F00030EE200AD9EDDD0A4CE002F58052D1ED30
:10290000020A92EDE70A03F5805330EE200AD3ED78
:10291000E70A3FE002F50062D1ED040A92EDF10A08
:1029200003F5006330EEC00AD3EDF10A19E097ED2C
:10293000E20AD1ED060A30EE200ADCEDE20A3AE0C6
:10294000012C06D0022C0FD0032C1BD0042C21D13B
:1029500029E097EDE20AD1ED010A30EEC00ADCED84
:10296000E20AF1EE600A15E002F54062D1ED030AD9
:1029700092EDEC0A03F5406330EEC00AD3EDEC0AA9
:10298000EFE71DE092ED000AD1ED050A30EE200AD6
:10299000D3ED000A314602F077F821462846BDE81B
:1029A000F04702F055BA98EDDD0AD1ED070A30EE96
:1029B000200AD9EDDD0A3146504601F071FFECE7FF
:1029C000BDE8F087000000009C0100244046002480
:1029D00010000024D40000246847002416010024BD
:1029E000FC47002458010024D446002470B5234D30
:1029F00095ED000A01F02CFD10EE100A204CA042CB
:102A000037DD95ED010A01F023FD10EE100AA0421A
:102A10002FDD95ED020A01F01BFD10EE100AA04219
:102A200027DD95ED030A01F013FD10EE100AA04218
:102A30001FDD95ED040A01F00BFD10EE100AA04217
:102A400017DD95ED050A01F003FD10EE100AA04216
:102A50000FDD95ED060A01F0FBFC10EE100AA04216
:102A600007DD95ED070A01F0F3FC10EE100AA04215
:102A700001DC002070BD012070BD000010000024AA
:102A8000BD37863510B52DED028B86E09FED478A68
:102A900047480021B0EE480A02F0FCF84548012101
:102AA00002F0D6F94448454C406E20600520FDF701
:102AB000ADFC3F480121B0EE480A02F0EBF83D487A
:102AC000012102F0C5F93E48406E60600520FDF727
:102AD0009DFC3C480021B0EE480A02F0DBF83A4881
:102AE000022102F0B5F93948406EA0600520FDF7DB
:102AF0008DFC34480121B0EE480A02F0CBF8324890
:102B0000022102F0A5F93248406EE0600520FDF791
:102B10007DFC30480021B0EE480A02F0BBF82E4898
:102B2000032102F095F92D48406E20610520FDF744
:102B30006DFC28480121B0EE480A02F0ABF82648A7
:102B4000032102F085F92648406E60610520FDF7FB
:102B50005DFC24480021B0EE480A01F0C7FE22487F
:102B6000042102F075F92148D0ED050A0520C4EDD5
:102B7000060AFDF74BFC1B480121B0EE480A01F0A4
:102B8000B5FE1948042102F063F9194890ED050AD1
:102B9000052084ED070AFDF739FCFFF727FF002821
:102BA0003FF474AFBDEC028B10BD000000000000CC
:102BB000D4000024684700244002002410000024B0
:102BC000CC02002416010024FC47002458030024F2
:102BD000E403002458010024D44600247004002497
:102BE000FC0400249C01002440460024C801002469
:102BF000040200240148407870470000300000249F
:102C00000148007870470000300000241648012376
:102C1000817C60380129027813D0002A10D0124933
:102C20005439897C01291BD00F493839897C012905
:102C300018D00D491C39897C012901D1032141702B
:102C40007047002132B1017041708180C1800181E3
:102C500083707047037041708180C1800181DEE71D
:102C6000437070470221EAE790000024094810B53C
:102C700000F012F807481C3000F00EF80548383014
:102C800000F00AF80348543000F006F8BDE81040A0
:102C9000FFF7BCBF3C00002470B581880446006883
:102CA000FDF7B4FCD8B10025FDF7BCFC0023A374EC
:102CB000217EA94205D0616999B1411A142901D335
:102CC000257663610125217EA27962B10226012A5F
:102CD00010D0022A21D0032A36D0A37170BD01255D
:102CE000E2E76061EEE70029F8D0A571A0602374E7
:102CF000637470BDA26840F2DC53821A9A4204D316
:102D00000320A0716574A07470BD0029FCD1A67168
:102D1000E060207C401C207470BDE268821AB2F52D
:102D2000967F0CD3207C012802D0022802D002E03A
:102D3000A57400E0A674A3712374E36070BD00293C
:102D4000FCD0A571A06070BD0029FCD1A3712374D3
:102D500070BD000000B587B014216846FDF708FB80
:102D60001648016841F010010160016801F010018E
:102D70000591016841F080010160016801F0800166
:102D80000591016841F001010160016801F0010154
:102D90000591016841F0020101600068694600F098
:102DA000020005903C20009000200190012002903C
:102DB0000348FDF73DFB07B000BD0000E0440258AA
:102DC0000010025810B588B0174800244FF0804119
:102DD0000094019402940394049405940694016071
:102DE000EF21C0E9011444F61F61C0E903148021FA
:102DF0008161FFF7D3F808B1FDF7F8FA4FF480507E
:102E0000009009486946FFF75DF908B1FDF7EEFA51
:102E1000054804A904940694FFF76EF8002801D031
:102E2000FDF7E4FA08B010BDF445002418480C2260
:102E3000164910B5016017494160002181600B46B9
:102E4000C160C0E9041281610A46C1610162416248
:102E50008162FEF7F3FF08B1FDF7C8FA0C480021C4
:102E6000FFF7A8FA08B1FDF7C1FA09480021FFF7FA
:102E70007BFA08B1FDF7BAFA0548FFF756FA0028C1
:102E800003D0BDE81040FDF7B1BA10BD004C0040C2
:102E90004046002400093D0018480C22164910B590
:102EA000016017494160002181600B46C160C0E9A3
:102EB000041281610A46C161016241628162FEF7CA
:102EC000BDFF08B1FDF792FA0C480021FFF772FA36
:102ED00008B1FDF78BFA09480021FFF745FA08B160
:102EE000FDF784FA0548FFF720FA002803D0BDE873
:102EF0001040FDF77BBA10BD00780040D446002496
:102F0000003E490018480C22164910B501601749C7
:102F10004160002181600B46C160C0E904128161FB
:102F20000A46C161016241628162FEF787FF08B112
:102F3000FDF75CFA0C480021FFF73CFA08B1FDF7F9
:102F400055FA09480021FFF70FFA08B1FDF74EFACC
:102F50000548FFF7EAF9002803D0BDE81040FDF767
:102F600045BA10BD0010014068470024003E4900EA
:102F700018480C22164910B501601749416000211C
:102F800081600B46C160C0E9041281610A46C161DB
:102F9000016241628162FEF751FF08B1FDF726FA36
:102FA0000C480021FFF706FA08B1FDF71FFA09489F
:102FB0000021FFF7D9F908B1FDF718FA0548FFF726
:102FC000B4F9002803D0BDE81040FDF70FBA10BDDA
:102FD00000440040FC470024003E4900FEE7FEE7B5
:102FE000704700002DE9F047DFF8088104460E46DF
:102FF0004FF00009D8F80000C043800709D03D4DCC
:10300000283D286820F080602860FDF70BFB07460C
:1030100007E00120BDE8F087FDF704FBC01B022894
:1030200060D828680001F7D4D8F80010226821F48D
:103030007C3141EA0231C8F80010207A4FF4FE02D8
:10304000A1884002491EA0F5007080B2C1F30801BA
:103050000843A189491E02EA01410843217C12026A
:10306000491E02EA016108432249103108602148E3
:10307000001D0168626921F0C0011143016001680F
:10308000A26921F0200111430160016821F01001C3
:103090000160184914310A684FF6F8739A43E369DE
:1030A00042EAC3020A60016841F0100101606EB19A
:1030B0000168012E0ED041F400110160286840F033
:1030C00080602860FDF7AEFA04460DE0016841F427
:1030D0000021F2E741F48011EFE7FDF7A3FA001BAE
:1030E000022801D9032095E728680001F5D5484654
:1030F00090E70000284402582DE9F047DFF80881E6
:1031000004460E464FF00009D8F80000C04380077F
:1031100009D03D4D283D286820F080502860FDF7FB
:1031200081FA074607E00120BDE8F087FDF77AFA4B
:10313000C01B022860D828688000F7D4D8F8001097
:10314000228821F07C7141EA0251C8F80010207AEF
:103150004FF4FE02A1884002491EA0F5007080B223
:10316000C1F308010843A189491E02EA014108434D
:10317000217C1202491E02EA0161084322491831EA
:1031800008602148001D0168626921F44061114313
:1031900001600168A26921F40071114301600168B6
:1031A00021F48071016018491C310A684FF6F873E8
:1031B0009A43E36942EAC3020A60016841F48071FC
:1031C00001606EB10168012E0ED041F08071016086
:1031D000286840F080502860FDF724FA04460DE08E
:1031E000016841F48001F2E741F40001EFE7FDF7E7
:1031F00019FA001B022801D9032095E728688000EE
:10320000F5D5484690E70000284402587047FDF77E
:103210000FBA000030B59DB04C216846FDF7A8F804
:10322000202113A8FDF7A4F80220FDF7EFFA2048AB
:103230000024016841F44041016001681D490A68A9
:1032400042F001020A60096801F001011B91016866
:103250008904FCD501200090052100040190022082
:103260000990CDE90A01C0210E90CDE90C10082586
:103270000F90CDE9105468461294FEF727FB08B171
:1032800072B6FEE714A93F201390032081E83100B5
:10329000402017901A900101CDE91801042113A8CC
:1032A000FEF7FEF8002801D072B6FEE71DB030BD73
:1032B000184802582C040058334810B5016841F4EE
:1032C00070010160314A106800F00F00072804D235
:1032D000106820F00F00C01D10602D49086840F0F4
:1032E000010008602A4B0020103318600B68294C3D
:1032F00023400B60136803F00F03072B04D91368F6
:1033000023F00F03DB1D1360214A18321060121DD9
:103310001060121D10601E4B1F4A28331A601B1DBF
:103320001E4A1A601B1D1E4A1A601B1D18601B1DB9
:103330001A601B1D18601B1D1A601A1D10600A6898
:1033400022F480220A601249603108601548006842
:103350006FF30F00B0F1005F03D213480121C0F8F2
:1033600008110B48D4300168C9040BD4016841F43A
:10337000805101600D4A43F2D2011160016821F4CD
:103380008051016010BD000088ED00E00020005277
:10339000004402587FEDF6EA000202020000FF013D
:1033A000800201010010005C0080005100400052CA
:1033B0000148FEF706BF0000F44500242DE9F04760
:1033C00002684FF0804A274C274D284EA042284FD4
:1033D000284B09D0504507D0A84205D0B04203D0B1
:1033E000B84201D0984204D122F0700C4A6842EAF7
:1033F0000C02DFF884C0DFF88480A042DFF8809000
:103400000FD050450DD0A8420BD0B04209D0B842E1
:1034100007D0984205D0604503D0404501D04845CB
:1034200003D122F44075CA682A434D6922F0800214
:103430002A438D68C5620D688562A04207D0984214
:1034400005D0604503D0404501D0484501D1096908
:103450000163016841F004010160012141610260E2
:10346000BDE8F08700000140000400400008004073
:10347000000C0040000401400040014000440140B5
:103480000048014010B5846842EA03220A4324F44C
:103490007F442243826010BD8268034B1A400A4376
:1034A00042F00701816070478FFFCFFF10B5046ABB
:1034B000036A23F001030362836923F0F00343EA04
:1034C0000213836124F00A020A43026210BD10B5A0
:1034D000036A046A24F010040462846923F0A003E0
:1034E00043EA011124F4704444EA02328261016229
:1034F00010BD000010B55F4CA6B02078002808D0A1
:103500006078012807D002283BD0032871D0002022
:10351000607026B010BDE08821890843F9D1A088E9
:1035200030BB5549182202A8FCF709FF524918225E
:1035300008A81831FCF703FF18210EA8FCF718FFA4
:10354000182114A8FCF714FF18211AA8FCF710FF83
:10355000182120A8FCF70CFF20A914A8B1EE040A3A
:10356000CDE9000108AB1AAA0EA902A800F088FE56
:10357000A088FB28CDD221780029CAD0401CA08089
:10358000C7E7A08821890843C3D1E08838BB3A49FE
:10359000182202A83031FCF7D2FE3749182208A8B9
:1035A0004831FCF7CCFE18210EA8FCF7E1FE1821EB
:1035B00014A8FCF7DDFE18211AA8FCF7D9FE182183
:1035C00020A8FCF7D5FE20A914A8B1EE040ACDE985
:1035D000000108AB1AAA0EA902A800F051FEE0886B
:1035E000FB2896D22178002993D0401CE08090E7F8
:1035F000FFE7A088E188084336D1208948BB1E49EF
:1036000001201822E070603102A8FCF798FE1A49E8
:10361000182208A87831FCF792FE18210EA8FCF7B2
:10362000A7FE182114A8FCF7A3FE18211AA8FCF77E
:103630009FFE182120A8FCF79BFE20A914A8B1EE3C
:10364000040ACDE9000108AB1AAA0EA902A800F0ED
:1036500017FE2089FB2807D2217829B1FFF78EF8C1
:103660002089401C208154E726B0BDE8104001F0BD
:1036700039BB000030000024E854000830B5416E2A
:10368000B9B1026891689268C1F342610B4C520F64
:10369000A35C1D0104F108039A5CB5FBF2F2A0F8EB
:1036A0006A20625C595C1201B2FBF1F1A0F868106B
:1036B00030BD0121A0F86A10F8E70000905500081D
:1036C00090F82810090706D501684A68836B22F430
:1036D00000421A434A6090F82810C90706D00168D2
:1036E0004A68C36A22F400321A434A6090F82810EC
:1036F000890706D501684A68036B22F480321A43B1
:103700004A6090F82810490706D501684A68436B5B
:1037100022F480221A434A6090F82810C90606D580
:1037200001688A68C36B22F480521A438A6090F859
:103730002810890606D501688A68036C22F40052B5
:103740001A438A6090F82810490611D501684A6822
:10375000436C22F480121A434A60416CB1F5801F19
:1037600006D101684A68836C22F4C0021A434A6099
:1037700090F82810090606D501684A68C06C22F442
:10378000002202434A6070472DE9F84300250446B1
:10379000C0F89050FCF746FF8046206800686FF044
:1037A0007E474FF02006000713D500224346310420
:1037B0002046009700F036FA58B1206850E8001F04
:1037C00021F0800140E80012002AF6D1C4F8886098
:1037D00021E020680068400722D5002243464FF4CC
:1037E00080012046009700F01DFAC8B1206850E81B
:1037F000001F21F4907140E80012002AF6D12068E1
:10380000083050E8001F21F0010140E80012002AB2
:10381000F5D1C4F88C60032084F88450BDE8F883A7
:10382000C4F88860C4F88C60E5662567002084F8D9
:103830008450F3E710B5016851E8002F22F490722C
:1038400041E80023002BF6D10E4B0168083151E806
:10385000002F1A4041E80024002CF6D1C16E012946
:1038600008D1016851E8002F22F0100241E800233E
:10387000002BF6D12021C0F88C100021C1664167D1
:1038800010BD0000FEFFFFEF2DE9F0430446006885
:103890000025DFF8548387B02269A168E3691143EA
:1038A00062691A4311430268D04B1A400A4302600E
:1038B00020684168E26821F4405111434160216869
:1038C000A069414501D0226A10438A68C84B1A405A
:1038D00002438A602068C16A626A21F00F011143C5
:1038E000C162C4492268C4488A420ED1006800F00F
:1038F0003800182873D047DCB8B3082879D01028CE
:103900006FD178E028287ED17BE0BC498A4209D17A
:10391000006800F00700062875D2DFE800F0546A5E
:103920006C6E7072B6498A4209D1006800F00700D7
:10393000062868D2DFE800F0475D5F616365B14942
:103940008A4209D1006800F0070006285BD2DFE850
:1039500000F03A5052545658AB498A420BD1006895
:1039600000F0070006284ED200E010E0DFE800F08B
:103970002B4143454749A5498A420AD1006800F0D6
:103980003800182839D0B7DD2028BBD137E0012115
:103990003AE09F498A4209D1006800F007000628F2
:1039A00031D2DFE800F01026282A2C2E99498A42CD
:1039B0000BD1006800F00700062824D2DFE800F0F1
:1039C00003191B1D1F2100211EE042451BD18A48FF
:1039D000001D006800F00700062814D202E00CE089
:1039E00007E010E0DFE800F0030507090B0D0221F6
:1039F0000AE0042108E0082106E0102104E020216B
:103A000002E0402100E0802183487B4B4FF4004CD2
:103A1000824E4FF000090711543B42454DD1102909
:103A200019D006DC022909D004290AD008297DD141
:103A30000CE020293DD0402978D13CE0FCF70EFF76
:103A400010E06846FCF71CFF01980BE003A8FCF7A8
:103A5000B5FF049806E01968890605D51968C1F311
:103A6000C101C840002823D0616A36F81120666879
:103A7000B0FBF2F106EB46038B4257D8B1EB063FA1
:103A800054D800234F461946FCF728FC09020202CD
:103A900041EA106170081018324679410023FCF7A2
:103AA0001DFC5F4AA0F5407191423FD82168C86073
:103AB00086E03846D8E76046D6E7E2694FF6EF7809
:103AC000624545D1082918D005DC59B101290CD02F
:103AD000042974D10CE0102914D0202934D04029B5
:103AE0006DD133E0FDF736FE13E0FDF745FE10E043
:103AF0006846FCF7C5FE01980BE003A8FCF75EFFE3
:103B0000049806E01968890604D51968C1F3C10153
:103B1000C84080B3616A36F81110B0FBF1F0410083
:103B2000606801EB5001B1FBF0F000E047E0A0F16C
:103B30001002424543D84FF6F0710140C0F34200F5
:103B400001432068C1603BE03846E3E76046E1E7B7
:103B5000082919D005DC59B101290DD004292ED12D
:103B60000DE0102915D0202937D0402927D136E083
:103B7000FDF7F0FD14E023E0FDF7FEFD10E06846E0
:103B8000FCF77EFE01980BE003A8FCF717FF0498F2
:103B900006E01968890604D51968C1F3C101C84057
:103BA00070B1616A36F81110B0FBF1F1606801EB99
:103BB0005001B1FBF0F0A0F11001414511D90125F0
:103BC0000120A4F86A00A4F868002846C4F874909C
:103BD000C4F8789007B0BDE8F0833846E1E7604666
:103BE000DFE780B262E70000000C0058F369FFCF06
:103BF000FFF4FF11001001405444025800440040FB
:103C000000480040004C00400050004000140140BB
:103C100000780040007C00400090D00378550008F8
:103C2000FFFC0F002DE9F0471F4690460D46044665
:103C3000089E4FF0000932E0701C30D0FCF7F2FC17
:103C4000C01BB04218D8BEB120680168490726D50C
:103C5000802D24D0402D22D0C169C94309070DD43D
:103C6000082505622046FFF7E5FDC4F890500120C5
:103C700084F88490BDE8F0870320FBE7C069C04367
:103C800000050CD421684FF4006008622046FFF75D
:103C9000D1FD2020C4F8900084F88490ECE72068DF
:103CA000C06935EA000004D000204045C4D000209F
:103CB000E0E70120F9E7FEE74100080218BF042011
:103CC0000A0E18BF40F001004FF07F4232EA0101B6
:103CD00008BF40F00200012808BF0520704709070F
:103CE000090E002804DB00F1E02080F80014704782
:103CF00000F00F0000F1E02080F8141D7047000074
:103D000010EE101A08B5434A6846B2EB410F26D9A7
:103D10004FF0E640B0EB410F94BF00204FF0FF3072
:103D200000900098DFED3C0A002860DB10F0010FE6
:103D300046D060EE000ADFED391A9FED391A10F017
:103D4000020F00EEE11ADFED371A40EE811A21EE84
:103D5000A01AF0EE400A40EE010A2ED041E0324BAC
:103D600021F0004293423FD911F0004FDFED2F0ABE
:103D700020EE201ADFED2E0A19BF31EE601A71EE27
:103D8000200A31EE201A71EE600ABDEEE01A11EE43
:103D9000100A9FED281A00F0030000EEC10A9FED03
:103DA000261A009000EEC10A9FED241A00EEC10A07
:103DB0009FED231A00EEC10AB3E7F1EE600A10E0AE
:103DC00020EE000A9FED1F1ADFED1F1A10F0020F00
:103DD00040EE011A9FED1D1A00EE211A40EE010A75
:103DE000EBD1B0EE600A08BD00F02CF999E710EEB7
:103DF000100A4000B0F17F4FF3D307D14FF001001C
:103E000000F0DAF9BDE8084000F00CB9BDE8084060
:103E100000F005B9B61F927E0000803F336D4C392B
:103E2000DA82083CA0AA2ABE490E494683F9223FFD
:103E30000000004B0000C93F00A0FD390020A23364
:103E40001A61342CB93AB2BACA9F2A3DDDFFFFBECF
:103E500000B510EE101A2DED028B81B0524A684663
:103E6000B2EB410F2ED94FF0E640B0EB410F94BFBB
:103E700000204FF0FF3000900098B0EE408A0028FC
:103E80006ADB10F0010F4BD068EE080A9FED471A6D
:103E90009FED470A00EE810A9FED461A00EE801A58
:103EA0009FED450A10F0020F00EE810A02BF01B03B
:103EB000BDEC028B00BD00BF01B0B1EE400ABDEC0D
:103EC000028B00BD3D4B21F00042934241D911F0DD
:103ED000004FDFED3B0A20EE201ADFED3A0A19BF52
:103EE00031EE601A71EE200A31EE201A71EE600A8E
:103EF000BDEEE01A11EE100A9FED331A00F0030038
:103F000000EEC10A9FED311A009000EEC10A9FED4C
:103F1000301A00EEC10A9FED2F1A00EEC10AABE77E
:103F200028EE080A9FED2C1ADFED2C0A10F0020F84
:103F300040EE410A9FED2A1A00EE201A61EE000AB7
:103F4000B0EE480A08EE200AB6D101B0BDEC028BF3
:103F500000BD00F077F88FE718EE100A4000B0F1CE
:103F60007F4F0DD218EE100AFFF7A6FE042808BFF7
:103F700000F060F8B0EE480A01B0BDEC028B00BD65
:103F800009D1012000F018F901B0BDEC028B5DF8F9
:103F900004EB00F047B801B0B0EE480ABDEC028B6C
:103FA0005DF804EB00F03BB8B61F927EB93AB2BAA6
:103FB000CA9F2A3DDDFFFFBE0000803F490E4946F3
:103FC00083F9223F0000004B0000C93F00A0FD39EB
:103FD0000020A2331A61342C336D4C39DA82083C4C
:103FE000A0AA2ABE10B52DED028BB1EEC08A18EE44
:103FF000100A20F00040C0F1FF40C00F0AD010EEC0
:10400000100A20F00040C0F1FF40C00F04BF0120A3
:1040100000F0D2F8B0EE480ABDEC028B10BD30EED5
:10402000000A7047DFED020A80EEA00A7047000028
:10403000000000009FED020A20EE000A7047000019
:10404000000000102DE9F0014FF07F42B2EB410F6C
:104050009FBF4FF0FF310160BDE8F00170474FF0A6
:10406000004242EA0123C1F3C752783A551112F0D7
:104070001F0C434CCCF120067C44C1F3C752A2F183
:1040800078024FEA621204EB820254F8254008BF1E
:10409000D2E9015612D0556804FA0CF425FA06F755
:1040A0003C43976805FA0CF527FA06F8D26807FA38
:1040B0000CFCF24045EA08054CEA0206A4FB034C5E
:1040C000A5FB0352A6FB03631D449D4234BF01269A
:1040D00000261319334416B1934202D903E09342E8
:1040E00001D2012200E00022624402F1200C92067B
:1040F000DC0C42EA443200EE102A5B03DFED210AB9
:10410000F8EEC01A00EE103A4FEA9C1C11F0004F76
:10411000B8EE400AC0F800C020EE201A00EE105A97
:10412000DFED190AB8EE400A20EE200A71EE810A8E
:1041300070EE800A10EE902A02F500626FF30B0217
:1041400000EE902A70EEE11A31EEC11ADFED101A7E
:1041500030EE411A9FED0D0A20EE800A01EE210A91
:104160009FED0C1A00EE810A04BFBDE8F001704714
:10417000CCF180510160BDE8F001B1EE400A70471A
:1041800034150000000000360000802C22AAFD2912
:10419000DB0FC92F0000C92F02E008C8121F08C199
:1041A000002AFAD170477047002001E001C1121FB8
:1041B000002AFBD1704700000149086070470000E9
:1041C000D0000024B2EE045AF1EE085A61EE856A7E
:1041D000B6EE007A63EE033A21EE071A40EE456A26
:1041E000B1EE005A63EE834A22EE055A24EE834A6A
:1041F00045EE436A20EEA55A24EE036A45EE436A73
:1042000022EE875A41EE636A45EE236A86EEA47A6F
:10421000FAEE0E4AF2EE0E6A61EEA44A61EEA51ABB
:1042200040EE264AF1EE0C6A40EE651A62EE266A0E
:1042300046EE834AF2EE006A80ED037A60EEA66AEB
:1042400046EE834A41EE234A42EEE34AC4EE842A14
:10425000C0ED042A80EC030AB0EE080A22EE002A20
:1042600020EE800A42EE431A40EE431A41EE631AF2
:1042700045EE231A81EE860A80ED050A704700009C
:104280007CB5F0EE400A9FED051ADDE906459FED8D
:10429000040ACDE9004500F0DFF87CBD0AD7A33C55
:1042A00000000000F0B50E4E00244FF0004E07460F
:1042B0004FF0FF3010E057F82450002372460028DA
:1042C0004FEA400000DA7040154200D070405208BA
:1042D0005B1C202BF3D3641C8C42ECD3F0BD00009C
:1042E000B71DC10410B514460B4603E013F8011BBB
:1042F00000F004F8641EF9D210BD0000034A4140EA
:10430000C9B232F8111081EA10207047E852000853
:1043100091ED010AD2ED020A92ED011A20EE200A77
:10432000D1ED020A00EEC10A80ED000A91ED020A09
:10433000D2ED000A92ED021A20EE200AD1ED000A19
:1043400000EEC10A80ED010A91ED000AD2ED010AEA
:1043500092ED001A20EE200AD1ED010A00EEC10A0A
:1043600080ED020A7047000070B5044690F82C00FA
:104370000025FD2803D194F82D00EE2801D0A56179
:1043800070BD0E22002004F12C01FFF7ABFF20844A
:10439000618F814208D0E56225636563A563A561ED
:1043A000A06A401CA06270BD94F82E0000F00F01BE
:1043B0002170C0F30210607094F93700606094F8C7
:1043C000380000F00700A060B4F9310000EE100AD8
:1043D000F8EEC00A9FED190A20EE801ADFED180AE8
:1043E00061EE201A9FED171A61EE811AC4ED041ACE
:1043F000B4F92F0001EE900AF8EEE11A21EE800ADE
:10440000C0EE011AC4ED031AD4F8330000EE100A0E
:10441000B8EEC00A20EE200ADFED0B0A20EE200ADB
:10442000DFED0A0A20EE200A84ED050A208FC0F392
:10443000CB00E0610120A06170BD00000000803B66
:10444000D00FC9405C8FCA4000000038CFD2104165
:10445000B0EEC00A704700002DE9F04FBE4C0027B7
:104460001D461646884681462DED0E8BF9B0B0EEFE
:1044700040AAF0EE41AA30EECA8ADDE990BAB0EE69
:10448000483A0AEB8700D0ED002A0BEB870090ED4D
:10449000002A05EB8700D0ED001A06EB870090EDAF
:1044A000001A08EB8700D0ED000A09EB870090EDB9
:1044B000000A07EB470004EBC000FFF783FE7F1CF8
:1044C000FFB2062FDBD3A54F0025B0EE00CAF0EEF9
:1044D00008CAB1EE00DAF1EE04DA9FEDA1BADFED21
:1044E000A1BA07F120089FEDA09A0DF5E47ADFED5F
:1044F0009F9A07F5FC59984A00EE105AB0EE4A8A86
:1045000000205646B8EE400A60AB00EE2A8A28EE3C
:10451000081A61EE080A20EE880A60EE084A00EBED
:10452000400102EBC10191ED004AD1ED011A91ED7C
:10453000022AD1ED032A01EE884A91ED043AD1ED29
:10454000053A03EB800102EE014A22EE0C2A42EE0C
:10455000081A02EEA04A22EEAC2A42EE011A03EE3D
:10456000004A23EE0D2A42EE201A03EEA44A23EE5F
:10457000AD2A81ED004A42EE001A06EB8001401C94
:10458000C0B20628C1ED001AC9D360A890EC030A96
:1045900030A800F05DF963A890EC030A40A800F091
:1045A000EBF840AA30A950A800F040FADFF8C0B1FB
:1045B0000024DFED70EAB2466E466D4850A98030A7
:1045C00000EB041000F0FAFB0BEB0410B0EE40EA35
:1045D000D0ED001AB0EE608AF0EE418A31EEC00AEA
:1045E0008DED690A90ED010A30EE600A8DED6A0AE0
:1045F00090ED020A69A830EE410A8DED6B0A00F0D9
:1046000085FD1DB907EB840080ED000A07EB8400EF
:10461000D0ED000A70EE600A24B1032C02D080EEC7
:10462000891A01E080EEA91A04EB8400C0EB042192
:1046300066AA08EB810000EB85006FA9C1EE0B0AAA
:1046400060EEAB0AC0ED000ADDED690A6CA880EEF1
:10465000801A8DED661ADDED6A0A80EE801A8DED06
:10466000671ADDED6B0A80EE801A8DED681A9DEDFC
:10467000600A3EEE400A8DED6F0A9DED610A38EE4C
:10468000400A8DED700A9DED620A38EEC00A8DED8C
:10469000710AFFF73DFE04EB440053469DED660AA8
:1046A00006EBC00204EB840082ED000A9DED670A70
:1046B000C0EB042182ED010A9DED680A09EB81003F
:1046C00082ED020A9DED6C0A00EB850182ED030A82
:1046D0009DED6D0A002082ED040A9DED6E0A82EDCB
:1046E000050AC1ED00EA94B1032C10D002EB800C56
:1046F0009CED000A03EB800CDCED000A20EE200AA2
:10470000C0EE090A91ED000A30EE600A0FE002EBFC
:10471000800C9CED000A03EB800CDCED000A60EEDF
:10472000200A80EEA90AD1ED000A30EEC00A401C32
:10473000C0B2062881ED000AD5D3641CE4B2082C6F
:10474000FFF43BAF6D1CADB2FB2DFFF4D4AE79B0DE
:10475000BDEC0E8BBDE8F08F644500248406002478
:10476000DA0F4940000034435C8F423D60E5503D24
:10477000285100080000000010B504462DED088BFC
:10478000B0EE41BAF0EE608AB0EE408AC0B0FFF7FA
:10479000B7FAB0EE40AAB0EE480AFFF759FBF0EEC8
:1047A000409AB0EE680AFFF7ABFAB0EE409AB0EE6E
:1047B000680AFFF74DFBF0EE408AB0EE4B0AFFF7B8
:1047C0009FFAF0EE40AAB0EE4B0AFFF741FB1F49FB
:1047D0004022B0EE408A6846FBF7B1FDCDED00AA5D
:1047E000B1EE480A194940228DED010A8DED048A87
:1047F0004031CDED05AA10A8FBF7A1FD8DED109A73
:1048000012494022CDED128AB1EE680A8DED180AE8
:1048100080318DED1A9A20A8FBF791FD8DED25AA28
:10482000B1EE690A8DED260ACDED299A8DED2AAA01
:1048300010AA694630A800F0F9F820AA204630A94D
:1048400000F0F4F840B0BDEC088B10BD2852000811
:10485000B7EE002ADFED111A80ED002AC0ED011A33
:10486000C0ED021A80ED030AC0ED041A80ED052A9E
:10487000C0ED061AC0ED070AC0ED081AC0ED091A0E
:1048800080ED0A2A80ED0B1AC0ED0C1AC0ED0D1A4E
:10489000C0ED0E1A80ED0F2A7047000000000000E6
:1048A00001800121418080ED041A9FED0C1A9FEDDB
:1048B0000C2AC0ED051A20EE010AC0EE021A9FED87
:1048C000090A21EE800A80ED030A20EE810A80EDBC
:1048D000020A9FED050A80ED010A70475C8FCA400D
:1048E00000003443DA0F494000000000DFED070A02
:1048F000018001214180C0ED040AC0ED050AC0ED30
:10490000030AC0ED020A80ED010A704700000000B2
:104910001FB500250095019502950395FBF708FF4B
:1049200001208DF80C001F218DF8081087218DF8CB
:1049300009108DF80D008DF8000068468DF80A50BA
:104940008DF80E508DF8015001958DF80B508DF8B3
:104950000F50FBF7C3FE0420FBF7F8FEFBF770FED9
:10496000FEF758FCFEF7F6F9FEF72CFAFEF7CAFA46
:10497000FEF7FEFAFEF75AFAFEF78EFAFEF782F815
:104980001E48FDF759FB1E4CA570E570FEF738F97F
:104990002070FEF72FF96070FBF744FE606020780E
:1049A00040B36078E8B917480078012819D1174852
:1049B0009FED150A80ED000A154880ED000A1548A4
:1049C00080ED000A144880ED000A144880ED000ACA
:1049D000134880ED000A134880ED000A124880ED6C
:1049E000000AFEF74FF8FBF71DFEA0606168401A51
:1049F000E060CBE700F076F9C8E70000F44500245A
:104A0000AC0000243200002400000000100000244C
:104A100014000024180000241C000024200000249E
:104A200024000024280000242C000024F0B5DFED31
:104A3000151A0025002401EB051700EB051C0CEBF3
:104A400084060023C6ED001A07EB830E96ED000ADC
:104A5000DEED000A02EB031E0EEB840E5B1C9EEDE6
:104A6000001ADBB2042B00EE810A86ED000AEBD3BC
:104A7000641CE4B2042CE2D36D1CEDB2042DD9D336
:104A8000F0BD000000000000B7EEC02A9FED0F3B14
:104A90002222C0F822200A220285C18422EE032BA2
:104AA000B7EEC20B10EE101AC0F8321010EE901ACA
:104AB000C0F82E100021C0F82A1011EE101AC0F80C
:104AC000361011EE901AC0F83A107047F9978C38EA
:104AD0005F54C43F10B50446FE202076EE20607679
:104AE00000212088C0B10F2801D30F2020806088CA
:104AF000A0B1072801D30720608094ED040ADFED00
:104B0000520A52499FED521AB5EEC00AF1EE10FA60
:104B100006D8C4ED040A09E02180E8E76180ECE7EB
:104B200010EE100A884201DB84ED041A94ED050AA8
:104B3000B5EEC00AF1EE10FA02D8C4ED050A05E0A0
:104B400010EE100A884201DB84ED051A41496068C5
:104B5000884202D39FED400A04E04049884203DBCB
:104B60009FED3F0A84ED010A3E49A068884202D3C6
:104B70009FED3D0A04E03D49884203DB9FED3C0A7E
:104B800084ED020A3B49E068884202D39FED3A0A6D
:104B900004E03A49884203DB9FED390A84ED030AB9
:104BA00021780F22A07E9FED371A61F30300A178D0
:104BB00061F30610A07694ED040A04F11801C0EE2A
:104BC000010A9FED310A60EE800AFDEEE00A10EE68
:104BD000900AA4F82300D4ED051AC1EE810A60EE14
:104BE000800AFDEEE00A10EE900ADFED280AA4F834
:104BF0002500D4ED031A81EEA01A21EE000ABDEEC5
:104C0000C00A10EE100AC4F81F0094ED021A81EEDB
:104C1000200ADFED1F0A20EE200ABDEEC00A10EECA
:104C2000100AA4F81D0094ED010A20EE200ABDEE42
:104C3000C00A10EE100AA4F81B000020FFF752FB78
:104C4000A4F8270010BD000000000000C1CACC413C
:104C5000C1CACC41E1FAFFC2E1FAFFC2E1FAFF4268
:104C6000E1FAFF42000049C4000049C40000494481
:104C700000004944C00FC9C8C00FC9C8C00FC94807
:104C8000C00FC948CDCCCC4100000047D00FC9406F
:104C9000000080432222C0F822200A22028510EE62
:104CA000102A0E4BC1840021DFED0B0AC0F8321030
:104CB0009A42C0F82E1001DDB0EE600A9FED081A8E
:104CC000C0EE010A10EE902AC0F82A20C0F8361073
:104CD000C0F83A10704700000000000000002041BA
:104CE0009A99114110B5304800212DED028B9FEDAE
:104CF0002D8AB0EE480AFFF7CDFF2C48012100F0C5
:104D0000A7F829480121B0EE480AFFF7C3FF27485A
:104D1000012100F09DF824480021B0EE480A4230FD
:104D2000FFF7B8FF2248022100F092F81E48012147
:104D3000B0EE480A4230FFF7ADFF1D48022100F0F7
:104D400087F819480021B0EE480A8430FFF7A2FF27
:104D50001848032100F07CF813480121B0EE480AFE
:104D60008430FFF797FF1348032100F071F80E48D5
:104D70000021B0EE480AC830FFF7B8FD0E48042104
:104D800000F066F808480121B0EE480AC830FFF785
:104D9000ADFDBDEC028B04210748BDE8104000F0DA
:104DA00057B8000000000000D40000246847002429
:104DB000FC470024D446002440460024D0ED001ACD
:104DC00091ED000A90ED012AD1ED010A21EE800A51
:104DD000D0ED022A90ED033A91ED051A02EE200A79
:104DE000D1ED020AD1ED093A02EEA00AD1ED030A93
:104DF00003EE200AD1ED040A61EEA00A42EE010A98
:104E000091ED061A42EE810A91ED071A43EE010A6E
:104E100091ED081A21EE811A02EE231AD1ED0A3A19
:104E200002EEA31AD1ED0B3A03EE231AD1ED0C3AA0
:104E300061EEA31AD1ED0D3A42EE231A91ED0E2A3E
:104E400042EE821A91ED0F2A43EE021A70470000DB
:104E50002DE9F34FDFF878820429A3B00E46A8F1BC
:104E6000040B7DD0012E7CD0022E7BD1994C04F511
:104E70009865274604F2422A04F2CE208146FE209D
:104E80002070EE20607094F82600A0700020E07082
:104E900094F828102171FF216171A071E071A06068
:104EA000D4F82A1000EE101ADFED8B0A20EE200A4B
:104EB000BDEEC00A10EE101AA181D4F82E1000EE3B
:104EC000101ADFED860A20EE200ABDEEC00A10EEB1
:104ED000101AE181D4F8321000EE101A9FED801AFA
:104EE000C0EE010A9FED7F0A20EE800ABDEEC00AE7
:104EF00010EE101A2161D4F8361000EE101ADFED12
:104F00007A0A20EE200ABDEEC00A10EE101AA18225
:104F1000D4F83A1000EE101ADFED740A20EE200AE1
:104F2000BDEEC00A10EE101AE182072120766076ED
:104F3000D4F83E00C4F81A002046FFF7B3F9C4F8CD
:104F40001E000123239822223946FDF7BEFB08EB01
:104F5000060101234E2201F8010C2946239802E0A4
:104F60008BE07CE078E0FDF73FFB0BEB060101F8FE
:104F7000010C2398FDF744FA5549091F88602398CE
:104F8000B0F85E00C0F14E00C860A8788DF802004D
:104F90002E798DF8046095F906308DF80630EC799D
:104FA0008DF80740A9890AB2ADF80C20E98900EE16
:104FB000102A09B2ADF80E106F8BB8EEC00A3FB2DE
:104FC000ADF81A7095F8218095F81EC04CEA086C6F
:104FD00095F82080ED7F4FEA084848EA05254CEA1D
:104FE000050CCDF81EC08DF852008DF85360DFED32
:104FF000400ACDE9153420EE200ADFED3E0A20EE0E
:10500000200A8DED170A00EE101AB8EEC00A9FEDC7
:105010003A1A9FED3A2B20EE010A80EE201A8DED10
:10502000181ADDF81E1000EE101AB8EEC00AB7EE1E
:10503000C01A81EE020B9FED331B20EE010BB7EE81
:10504000C00B8DED190A1B9798B1012804D18C2251
:1050500069464846FBF773F925B0BDE8F08F1D4C53
:10506000423C04F2B445274604F5B67A04F5FC70D8
:1050700004E78C2269465046ECE71648863000F17A
:105080002C0600F1680500F11804FFF723FD2398B2
:10509000012311222146FDF718FB88F803000123A4
:1050A000239810220BA9FDF79FFA8BF8030068469E
:1050B000FFF75AF99DF800004FF03C0269460128BD
:1050C00003D03046FBF73BF9C6E72846FAE7000075
:1050D0000400002416010024000080430000004367
:1050E000F90FC940000080460000004500008044E0
:1050F0000000803B9A9911410000003CF5DA7A8E5D
:10510000315FA440E2FBF7BB5A2F194090ED000A33
:10511000D0ED010A20EE000A00EEA00AD0ED020A4E
:1051200000EEA00AFEF75EBF9643CBBE54E3A53E59
:1051300085EB513F0000803F9643CBBE54E3A5BEB4
:1051400085EB513F0000803F9643CB3E54E3A5BE24
:1051500085EB513F0000803F9643CB3E54E3A53E94
:1051600085EB513F0000803F9643CBBE54E3A53E04
:10517000560E2D3E0000803F9643CBBE54E3A5BEA5
:10518000560E2D3E0000803F9643CB3E54E3A5BE15
:10519000560E2D3E0000803F9643CB3E54E3A53E85
:1051A000560E2D3E0000803FCDCC4CBDCDCC4C3DAD
:1051B000CDCC4CBD0000803FCDCC4CBDCDCC4CBD4A
:1051C000CDCC4CBD0000803FCDCC4C3DCDCC4CBDBA
:1051D000CDCC4CBD0000803FCDCC4C3DCDCC4C3D2A
:1051E000CDCC4CBD0000803FCDCC4CBDCDCC4C3D9A
:1051F000CDCC4C3D0000803FCDCC4CBDCDCC4CBD8A
:10520000CDCC4C3D0000803FCDCC4C3DCDCC4CBDF9
:10521000CDCC4C3D0000803FCDCC4C3DCDCC4C3D69
:10522000CDCC4C3D0000803F00000000000000009D
:10523000000000000000000000000000000000006E
:10524000000000000000000000000000000000005E
:105250000000803F0000000000000000000000008F
:10526000000000000000803F00000000000000007F
:105270000000000000000000000000000000803F6F
:10528000000000000000000000000000000000001E
:10529000000000000000000000000000000000000E
:1052A000000000000000803F0000803F0000000080
:1052B00000000000000000000000000000000000EE
:1052C00000000000000000000000000000000000DE
:1052D00000000000000000000000000000000000CE
:1052E000000000000000803F0000891112239B3263
:1052F0002446AD573665BF74488CC19D5AAFD3BEA6
:105300006CCAE5DB7EE9F7F88110080193331A22B5
:10531000A5562C47B7753E64C99C408DDBBF52AE85
:10532000EDDA64CBFFF976E802218B301002991395
:105330002667AF763444BD554AADC3BC588ED19F65
:105340006EEBE7FA7CC8F5D983310A209112180375
:10535000A7772E66B5543C45CBBD42ACD99E508F45
:10536000EFFB66EAFDD874C904428D5316619F7045
:105370002004A9153227BB364CCEC5DF5EEDD7FC25
:105380006888E1997AABF3BA85520C4397711E6035
:10539000A1142805B3373A26CDDE44CFDFFD56EC05
:1053A000E9986089FBBB72AA06638F7214409D5115
:1053B0002225AB343006B9174EEFC7FE5CCCD5DDE5
:1053C0006AA9E3B8788AF19B87730E6295501C41F5
:1053D000A3352A24B1163807CFFF46EEDDDC54CDC5
:1053E000EBB962A8F99A708B088481951AA793B6D5
:1053F0002CC2A5D33EE1B7F04008C919522BDB3AC5
:10540000644EED5F766DFF7C899400859BB712A694
:10541000ADD224C3BFF136E0C1184809D33B5A2AA4
:10542000E55E6C4FF77D7E6C0AA583B41886919774
:105430002EE3A7F23CC0B5D14229CB38500AD91B84
:10544000666FEF7E744CFD5D8BB502A49996108754
:10545000AFF326E2BDD034C1C3394A28D11A580B64
:10546000E77F6E6EF55C7C4D0CC685D71EE597F424
:105470002880A1913AA3B3B2444ACD5B5669DF7844
:10548000600CE91D722FFB3E8DD604C79FF516E414
:10549000A9902081BBB332A2C55A4C4BD7795E6824
:1054A000E11C680DF33F7A2E0EE787F61CC495D5F4
:1054B0002AA1A3B03882B193466BCF7A5448DD5904
:1054C000622DEB3C700EF91F8FF706E69DD414C5D4
:1054D000ABB122A0B9923083C77B4E6AD5585C49E4
:1054E000E33D6A2CF11E780F000000000000000070
:1054F000713D0A3E000000000000000000000000B6
:105500000000803E0000803E1F85AB3E0000000092
:10551000000000000000000000000000000000008B
:10552000713D0A3E00000000000000000000000085
:10553000000080BE000080BE1F85AB3E0000000062
:10554000000000000000000000000000000000005B
:10555000713D0A3E00000000000000000000000055
:10556000000080BE000080BE5C8F223F0000000073
:10557000000000000000000001000200040006001E
:1055800008000A000C00100020004000800000010C
:1055900001010103070100000804020408010101E0
:1055A00000000000010203040102030406070809C9
:1055B000000000006E83F9A22915444ED15727FC44
:1055C000C0DD34F5999562DB4190433CAB6351FEFD
:1055D000F055000800000024D400000098410008A5
:1055E000C4560008D4000024BC870000A84100086D
:1055F00000000000000000000000000000000000AB
:10560000000000000000000000000000000000009A
:10561000000000000000000000000000000000008A
:10562000000001000000000000000000001002580F
:105630000400000000000000000000000000000066
:1056400000000000000000000010025808000000E8
:10565000000000000000000000000000000000004A
:1056600000000000001002581000000000000000C0
:10567000000000000000000000000000000000002A
:105680000010025820000000000000000000000090
:10569000000000000000000000000000000000000A
:1056A00000000000000000000000000001000000F9
:1056B00010000000000000000090D0030090D00314
:0456C00000000000E6
:040000050800029954
:00000001FF
