:020000040800F2
:10000000D0C90024B1020008EF360008CD2800084E
:10001000ED3600083F040008AD460008000000006F
:10002000000000000000000000000000353900085A
:100030004104000800000000F136000837390008CC
:10004000CF020008CF020008CF020008CF0200084C
:10005000CF020008CF020008CF020008CF0200083C
:10006000CF020008CF020008CF020008CF0200082C
:10007000CF020008CF020008CF020008CF0200081C
:10008000CF020008CF020008CF020008CF0200080C
:10009000CF020008CF020008CF020008CF020008FC
:1000A000CF020008CF020008CF020008CF020008EC
:1000B000DD3A0008CF020008CF020008CF02000896
:1000C000CF020008CF020008CF020008CF020008CC
:1000D000CF020008CF020008CF020008CF020008BC
:1000E000CF020008CF02000800000000CF02000885
:1000F000CF020008CF020008CF020008CF0200089C
:10010000CF020008CF020008CF020008CF0200088B
:10011000CF020008CF020008CF020008CF0200087B
:10012000CF020008CF020008CF020008CF0200086B
:10013000CF020008CF020008CF020008CF0200085B
:1001400000000000000000000000000000000000AF
:10015000CF020008CF020008CF020008CF0200083B
:10016000CF020008CF020008CF020008CF0200082B
:10017000CF020008CF020008CF02000800000000F4
:10018000CF020008CF020008CF020008CF0200080B
:10019000CF020008CF020008CF020008CF020008FB
:1001A000CF020008CF020008CF020008CF020008EB
:1001B000CF020008CF020008CF020008CF020008DB
:1001C000CF020008CF020008CF020008CF020008CB
:1001D000CF020008CF020008CF020008CF020008BB
:1001E000CF020008CF020008CF020008CF020008AB
:1001F000CF020008CF020008CF020008CF0200089B
:10020000CF020008CF020008CF020008CF0200088A
:10021000CF020008CF020008CF020008CF0200087A
:10022000CF020008CF020008CF0200080000000043
:10023000CF020008CF02000800000000CF02000833
:10024000CF020008CF020008CF020008CF0200084A
:10025000CF020008CF020008CF020008CF0200083A
:10026000CF020008CF020008CF020008CF0200082A
:10027000CF020008CF020008CF02000800000000F3
:10028000CF020008CF020008CF02000800000000E3
:1002900000000000CF020008DFF810D000F092F854
:1002A00000480047C55B0008AFF30080D0C90024B8
:1002B000074880470748804707480047FEE7FEE7B2
:1002C000FEE7FEE7FEE7FEE7FEE7FEE7FEE7FEE706
:1002D00049040008E5390008990200082DE9F05F9B
:1002E0000546002092469B468846064681464024A5
:1002F0001BE0284641464746224600F053F8534645
:100300005A46C01A914110D311461846224600F0B1
:100310003AF82D1A67EB01084F46224601200021CA
:1003200000F031F817EB00094E41201EA4F1010442
:10033000DFDC484631462A464346BDE8F09F40EAA6
:1003400001039B0703D009E008C9121F08C0042A53
:10035000FAD203E011F8013B00F8013B521EF9D23A
:100360007047D2B201E000F8012B491EFBD2704762
:100370000022F6E710B513460A4604461946FFF771
:10038000F0FF204610BD202A04DB203A00FA02F1DB
:10039000002070479140C2F1200320FA03F3194373
:1003A00090407047202A04DB203A21FA02F0002115
:1003B000704721FA02F3D040C2F120029140084375
:1003C00019467047064C074D06E0E06840F001030F
:1003D00094E8070098471034AC42F6D3FFF760FF6B
:1003E00084690008A469000870B58C1810F8015BD6
:1003F00015F0070301D110F8013B2A1106D110F8BE
:10040000012B03E010F8016B01F8016B5B1EF9D1C1
:100410002B0705D40023521E0DD401F8013BFAE747
:1004200010F8013BCB1A921C03E013F8015B01F8B2
:10043000015B521EF9D5A142D8D3002070BDFEE762
:10044000704772B6FEE700000548054908390268A2
:1004500042F00202026008688004FCD57047000088
:100460000C48025870B5044600F030F90546601C8F
:1004700002D004480078044400F028F9401BA04250
:10048000FAD370BDE40100242DE9F84F03247D4D1B
:1004900000234FF001094FF0B04B4FF00F0AE9E095
:1004A00009FA03F73A4076D00E7906F00306012EDA
:1004B00001D0022E18D1D0F808C04FEA430ECE6802
:1004C00004FA0EF82CEA080C06FA0EF646EA0C06B8
:1004D0008660D0F804C00E792CEA070CC6F300162B
:1004E0009E4046EA0C0646600E79F643B6070BD0EE
:1004F000C6684FEA43088F6804FA08FC26EA0C062F
:1005000007FA08F73743C7600E7906F00306022E94
:1005100012D1DE080F694FEA437C00EB8606B6462F
:10052000366A4FEADC6C0AFA0CF807FA0CF726EA8E
:1005300008063743CEF820700F7906684FEA430863
:1005400007F0030704FA08FC07FA08F726EA0C0686
:10055000374307604E6816F4403F1CD04A4E376858
:1005600047F00207376036689F0706F002060096DC
:1005700023F0030606F1B046B6463F0FD6F80864EE
:10058000DFF808810AFA07FC404526EA0C0603D189
:100590004FF0000C41E06CE0DFF8F4C0604502D1A0
:1005A0004FF0010C39E0DFF8ECC0604502D14FF0AC
:1005B000020C32E0DFF8E0C0604502D14FF0030CDE
:1005C0002BE0DFF8D8C0604502D14FF0040C24E0E6
:1005D000DFF8CCC0604502D14FF0050C1DE0DFF81C
:1005E000C4C0604502D14FF0060C16E0DFF8B8C079
:1005F000604502D14FF0070C0FE0DFF8B0C0604556
:1006000002D14FF0080C08E0DFF8A4C0604502D129
:100610004FF0090C01E04FF00A0C0CFA07FC4CEA11
:10062000060CCEF808C44F68DBF80060FF0226EA2B
:10063000020600D516435F46CBF80060D1F804C02F
:10064000DBF804605FEA8C2C26EA020600D516432C
:100650007E606E684F6826EA0206BF0300D5164327
:100660006E602E684F6826EA0206FF0300D5164327
:100670002E605B1C0A6832FA03F67FF411AFBDE806
:10068000F88F000080000058F4440258000002581F
:100690000004025800080258000C025800100258CA
:1006A0000014025800180258001C0258002002587A
:1006B000002402580069084000D001207047000063
:1006C00001480068000C70470010005C0148806819
:1006D00070470000E4010024024881680278114458
:1006E00081607047E4010024032010B500F0D4F8C5
:1006F00001F0AEF80F4A104914681368C4F30322DE
:1007000003F00F038A5CC95C02F01F0201F01F01B5
:10071000D0400A4A20FA01F11160094908600E2010
:1007200000F010F808B1012010BD00F079F80020A9
:1007300010BD00001844025854690008F401002458
:10074000F001002470B50D4D04462878A0B14FF497
:100750007A71B1FBF0F00A490968B1FBF0F001F0E1
:100760001BFC48B9102C07D200222146501E00F075
:1007700073F800206C6070BD012070BDE40100249E
:10078000F0010024154BF0B5083B427813491A607C
:100790000B680A1F23F001030B6043681360057B9D
:1007A000C67A827A437B2D07847B45EA0665C77B40
:1007B00090F809C0067A90F800E045EAC24040EAA5
:1007C000834040EA444040EA074040EA0C2040EAC7
:1007D000460040EA0E000860F0BD0000A0ED00E019
:1007E000BFF35F8F044800210368034A23F480337A
:1007F000036070321160704724ED00E0074A40F05A
:100800000100064970321060086840F480300860CA
:10081000BFF34F8FBFF36F8F7047000024ED00E0F0
:10082000054808B5016841F002010160006800F068
:100830000200009008BD0000F4440258002809DBC3
:10084000410900F01F028900012001F1E0219040E0
:10085000C1F80001704700000E4BF0B41B680D4654
:10086000C3F30223C3F10706042E00D90426191D81
:10087000072901D2002300E0DB1E012404FA06F15F
:100880009C40491E2940641E994014402143F0BCFD
:1008900003F020BF0CED00E0064900F0070210B5A0
:1008A0004FF6FF040868044B204040EA022018433A
:1008B000086010BD0CED00E00000FA05134970B5AA
:1008C0000A68D243520705D5096801F00701814241
:1008D00013D118E00A6822F0070202430A60FFF70A
:1008E000F5FE0A4D4FF47A760446083D07E000BF56
:1008F000FFF7ECFE001BB04201D9012070BD286853
:10090000C0438004F4D4002070BD00000C4802589D
:1009100010B500F057FF05490968054AC1F30211F7
:10092000515C01F01F01C84010BD00002044025876
:1009300054690008494930B5484C0B1D0A68143405
:1009400009681D68246802F00303C5F30012C1F3AF
:100950000531C4F3CC04002914FB02F200EE102A86
:10096000F8EE400A75D03F4A9FED3D1AB7EE000AF7
:100970006BB1DFED3D1A012B01D0022B64D002EEEA
:10098000101A1168F8EE422A81EEA22A21E0334CB7
:10099000283C23689B0612D5344B246801EE901A3C
:1009A0001168C4F3C104F8EE612AE34001EE903A05
:1009B000C1F30801F8EE611A81EEA22A0BE001EE04
:1009C000901ADFED2B2A00BFF8EE611A116882EE53
:1009D000A12AC1F3080101EE901A1168F8EE611A1C
:1009E00040EE811A71EE800A62EE200AC1F34621C0
:1009F00001EE101AB8EE411A31EE001AC0EE811A5B
:100A0000BCEEE11A80ED001A1168C1F3064101EE57
:100A1000101AB8EE411A31EE001AC0EE811ABCEE7F
:100A2000E11A80ED011A1168C1F3066101EE101A96
:100A3000B8EE411A31EE000A80EE801ABCEEC10A0F
:100A400080ED020A30BD04E001EE901ADFED092AC4
:100A5000BAE70021016041608160F3E72844025851
:100A600000000039384402580024744A0090D00332
:100A70000024744C20BCBE4B494930B5484C0B1D7A
:100A80000A681C3409681D68246802F00303C5F372
:100A90000022C1F30551C4F3CC04002914FB02F277
:100AA00000EE102AF8EE400A75D03F4A9FED3D1A3D
:100AB000B7EE000A6BB1DFED3D1A012B01D0022B1E
:100AC00064D002EE101A1168F8EE422A81EEA22AD2
:100AD00021E0334C283C23689B0612D5344B246814
:100AE00001EE901A1168C4F3C104F8EE612AE340E4
:100AF00001EE903AC1F30801F8EE611A81EEA22AE4
:100B00000BE001EE901ADFED2B2A00BFF8EE611A20
:100B1000116882EEA12AC1F3080101EE901A116852
:100B2000F8EE611A40EE811A71EE800A62EE200A38
:100B3000C1F3462101EE101AB8EE411A31EE001A47
:100B4000C0EE811ABCEEE11A80ED001A1168C1F303
:100B5000064101EE101AB8EE411A31EE001AC0EE4D
:100B6000811ABCEEE11A80ED011A1168C1F3066129
:100B700001EE101AB8EE411A31EE000A80EE801A2A
:100B8000BCEEC10A80ED020A30BD04E001EE901A0D
:100B9000DFED092ABAE70021016041608160F3E7D7
:100BA0002844025800000039404402580024744A86
:100BB0000090D0030024744C20BCBE4B2DE9FE4FA6
:100BC0000546DFF8E48350F8081B0024F64FC943BC
:100BD000019005F12800264608F12408009008013C
:100BE0001DD4A86E50B1B0F5801F0CD0B0F5001F19
:100BF0000ED0B0F5401F1ED001240FE0386840F43D
:100C00000030386017E00198022102F073FD03E024
:100C10000098022102F0FEFD04000CD02646288830
:100C2000C043C00523D4A86D05281ED2DFE800F01C
:100C30000C11161B1B00AA6ED8F8001021F44011ED
:100C40001143C8F80010EAE7386840F40030386013
:100C500009E00198002102F04DFD03E00098002119
:100C600002F0D8FD044674B100E00124264628882D
:100C7000C043800528D4E86D80281ED00CDC90B1DC
:100C800040280ED114E0AA6DD8F8001021F0070119
:100C90001143C8F80010EAE7C02813D0B0F5807FF0
:100CA00010D001240FE0386840F40030386009E0CB
:100CB0000198002102F01EFD03E00098002102F0DF
:100CC000A9FD04469CB126462888DFF8DC92C04383
:100CD00009F12C0940052CD4D5F8A800B0F5800FF7
:100CE00020D00DDCA0B1B0F5001F0FD115E0EA6DEA
:100CF000D8F8001021F4E0711143C8F80010E3E7C0
:100D0000B0F5C00F13D0B0F5000F10D001240FE0E4
:100D1000386840F40030386009E00198002102F0A2
:100D2000E9FC03E00098002102F074FD04467CB168
:100D300026462888C04300052DD4D5F8AC00B0F174
:100D4000007F21D00EDCA8B1B0F1807F10D116E079
:100D5000D5F8A820D9F8001021F460011143C9F892
:100D60000010E6E7B0F1407F13D0B0F1806F10D0F3
:100D700001240FE0386840F40030386009E0019841
:100D8000002102F0B7FC03E00098002102F042FDD0
:100D9000044674B126462868C04380011FD4E86C1D
:100DA000D8B110280FD0202812D0302815D0012417
:100DB00014E0D5F8AC20D9F8001021F0E06111431F
:100DC000C9F80010E7E7386840F40030386004E004
:100DD0000198022102F08EFC044674B12646288850
:100DE000C043C0042BD4286EB0F5005F20D00DDCCA
:100DF000A0B1B0F5805F0FD115E06B48EA6C2030F0
:100E0000016821F0300111430160E8E7B0F5405F6F
:100E100013D0B0F5804F10D001240FE0386840F4B3
:100E20000030386009E00198002102F063FC03E023
:100E30000098002102F0EEFC04468CB1264628887A
:100E4000C043800429D4686EB0F5403F23D010DC45
:100E500008B3B0F5803F14D0B0F5003F0FD115E0D6
:100E60002A6ED8F8001021F4E0411143C8F80010B0
:100E7000E5E7B0F5802F0ED0B0F5A02F0BD0012400
:100E80000AE00198012102F035FC03E000980121FD
:100E900002F0C0FC044694B126462888C0434004B2
:100EA0002AD4D5F8B000B0F1405F23D010DC08B3ED
:100EB000B0F1805F14D0B0F1005F0FD115E06A6E21
:100EC000D8F8001021F4E0211143C8F80010E4E73D
:100ED000B0F1804F0ED0B0F1A04F0BD001240AE04A
:100EE0000198012102F006FC03E00098012102F0C4
:100EF00091FC044674B126462888C04300041FD4E0
:100F0000286FD8B1B0F1805F0ED0B0F1005F10D083
:100F1000012414E0D5F8B020D9F8001021F0E04108
:100F20001143C9F80010E7E7386840F40030386032
:100F300004E00198012102F0DDFB044674B126466D
:100F40002868C043C0011ED4A86CD0B101280ED0BF
:100F5000022811D0032814D0012413E02A6FD8F8F6
:100F6000001021F040511143C8F80010E8E738683C
:100F700040F40030386004E00198022102F0BAFB2E
:100F80000446ACB126462868DFF81CB0C043ABF17C
:100F90001C0B400252D40548016841F48071016085
:100FA000FFF794FB824611E02C4402580048025897
:100FB000FA48AA6C016821F0030111430160E2E7DD
:100FC000FFF784FBA0EB0A00642835D8F4480068DA
:100FD000C005F5D58CBBDFF8C4A3B5F8B4100AF191
:100FE000240ADAF8000001F4407100F440708842ED
:100FF00011D0DAF80010DAF8002021F4407142F440
:101000008032CAF80020DAF8002022F48032CAF8D0
:101010000020CAF80010D5F8B400B0F5807F1AD1CE
:10102000FFF754FB029012E0FFF750FB0299411AC0
:1010300041F2883081420AD9032426462878DFF815
:101040005CA3C0430AF1080AC00721D03CE0DAF8EB
:1010500000008007E8D5D5F8B410C1F301200328BB
:1010600058460DD0016821F47C510160B5F8B420D8
:10107000DAF80010C2F30B021143CAF80010DDE7E2
:10108000C84A036802EA111223F47C511143ECE7C9
:10109000E86F182816D005DCA0B1082808D0102861
:1010A00004D10AE020280DD028280BD001240AE022
:1010B0000198012102F01EFB03E00098012102F0DB
:1010C000A9FB044664B126462878C04380071ED495
:1010D000A86F062819D2DFE800F0160C11161616B4
:1010E000EA6FDAF8001021F038011143CAF8001055
:1010F000EAE70198012102F0FDFA03E000980121DE
:1011000002F088FB04467CB100E0012426462878E2
:10111000C04340071FD4D5F89400062819D2DFE851
:1011200000F0160C11161616AA6FDAF8001021F04E
:1011300007011143CAF80010E9E70198012102F004
:10114000D9FA03E00098012102F064FB0446A4B13F
:1011500000E0012426462878C04380062BD4D5F829
:101160009000B0F1405F24D011DC10B3B0F1805F8B
:1011700015D0B0F1005F10D116E0D5F89420D9F861
:10118000001021F007011143C9F80010E3E7B0F1A6
:10119000804F0ED0B0F1A04F0BD001240AE001988F
:1011A000002102F0A7FA03E00098022102F032FBCE
:1011B000044694B126462878C04340062BD4D5F87F
:1011C0009C00B0F5406F24D011DC10B3B0F5806FF7
:1011D00015D0B0F5006F10D116E0D5F89020DAF8F0
:1011E000001021F0E0411143CAF80010E3E7B0F528
:1011F000805F0ED0B0F5A05F0BD001240AE001980B
:10120000002102F077FA03E00098022102F002FBCD
:10121000044694B126462878C04300062BD4D5F85E
:10122000A000B0F5C04F24D011DC10B3B0F5005FC2
:1012300015D0B0F5804F10D116E0D5F89C20D9F824
:10124000001021F4E0511143C9F80010E3E7B0F5B4
:10125000004F0ED0B0F5204F0BD001240AE00198CA
:10126000002102F047FA03E00098022102F0D2FACE
:10127000044654B126462878C04300071ED4D5F84A
:101280008400B0F5805F0AD00FE0D5F8A020D9F82F
:10129000001021F460411143C9F80010EBE70098F9
:1012A000022102F0B7FA00B10126D5F88420DAF85D
:1012B000001021F440511143CAF800102878C043AF
:1012C000C00613D4D5F89800B0F5807F05D10098FA
:1012D000022102F09FFA00B10126D5F89820D9F832
:1012E000001021F440711143C9F800102868C04370
:1012F000000316D4D5F8A40038B1B0F5803F09D06A
:10130000B0F5003F0BD001240AE00198002102F063
:10131000F1F903E00098022102F07CFA04468CB156
:1013200026462868C043400322D4D5F88800B0F58B
:10133000801F11D0B0F5001F13D0B0F5401F15D09D
:10134000012414E0D5F8A420D9F8001021F440318C
:101350001143C9F80010E4E7386840F40030386001
:1013600004E00098012102F055FA04465CB12646DB
:101370002868C043C00323D4286DA8B1B0F5803FCE
:1013800017D001241BE0D5F88820DAF8001021F4EA
:1013900040111143CAF80010EAE700004C4402581B
:1013A00000480258CFFFFF00386840F40030386032
:1013B00004E00198022102F09DF90446E4B12646BA
:1013C0002868C043800005D40098022102F022FA68
:1013D00000B101262868C04380031BD4D5F88000E3
:1013E000B0B1B0F5807F0FD0B0F5007F10D0B0F570
:1013F000407F0DD001240CE05A482A6D016821F489
:10140000803111430160DBE7386840F40030386018
:10141000ECB326462868C043C00207D46A6FD8F8E8
:10142000001021F000411143C8F800102868C043A3
:10143000C00008D4D5F8B820DBF8001021F48041B2
:101440001143CBF800102868C043800207D4EA6E2D
:10145000D8F8001021F080711143C8F800102868F6
:10146000C04340000CD4DBF8001021F40041CBF85D
:101470000010DBF80010D5F8BC201143CBF80010A9
:101480002868C04308D437486A6D016800E018E056
:1014900021F04051114301602868C043000208D484
:1014A000D5F88C20DAF8001021F440011143CAF875
:1014B000001028790024C04300F0010020430AD026
:1014C0000FE0D5F88020DAF8001021F440711143C4
:1014D000CAF800109EE70198002102F00BF900B154
:1014E00006462879C04300F00200204305D1019848
:1014F000012102F0FFF800B106462879C04300F050
:101500000400204305D10198022102F0F3F800B154
:1015100006462879C04300F00800204305D1009812
:10152000002102F077F900B106462879C04300F0A7
:101530001000204305D10098012102F06BF900B1A1
:1015400006462879C04300F02000044304D10098E7
:10155000022102F05FF900B916B10120BDE8FE8F4B
:101560000020FBE74C4402582DE9F05F04000F46D1
:101570007ED0DFF83882D8F8000000F00F00B842C3
:101580000CD2D8F8001021F00F013943C8F8001030
:10159000D8F8000000F00F00B84269D12078844DDF
:1015A00040070AD52069296801F07001884204D9F2
:1015B000296821F070010143296020787C4E361D96
:1015C00000070AD56069316801F07001884204D9CA
:1015D000316821F07001014331602078C0060AD5DE
:1015E000A069316801F4E061884204D9316821F4CE
:1015F000E061014331602078DFF8B4B180060BF17F
:10160000080B0CD5E1695846DBF8002002F07002A7
:10161000914204D9026822F070020A4302602078E5
:1016200080070AD5E068296801F00F01884204D9D3
:10163000296821F00F01014329602078C0073ED0BE
:101640005B49A2682868183920F47060104328604C
:101650006068022818D0032819D00968012819D019
:10166000490700294ADADFF848A1AAF1080A00E090
:1016700044E0DAF8002022F007020243CAF8002012
:10168000FFF724F8814612E009688903E9E7096851
:101690008901E6E7C905E4E7FFF718F8A0EB0901BF
:1016A00041F28830814202D90320BDE8F09F616891
:1016B000DAF8000000F03800B0EBC10FECD1207870
:1016C00080070AD5E068296801F00F01884204D23A
:1016D000296821F00F0101432960D8F80010404625
:1016E00001F00F01B9420BD9016821F00F01394314
:1016F0000160006800F00F00B84201D00120D4E77B
:10170000207840070AD52069296801F070018842D5
:1017100004D2296821F07001014329602078000774
:101720000AD56069316801F07001884204D23168DD
:1017300021F07001014331602078C0060AD5A0690C
:10174000316801F4E061884204D2316821F4E0613B
:1017500001433160207880060CD5E1695846DBF8FA
:10176000002002F07002914204D2026822F070025E
:101770000A43026000F06CF80E492A682B68C2F335
:10178000032203F00F038A5CC95C02F01F0201F020
:101790001F01D040084A20FA01F111600749086092
:1017A00007480068BDE8F05FFEF7CCBF002000529C
:1017B0001844025854690008F4010024F001002480
:1017C000E801002430B500F043F80B4A0B490C4BFC
:1017D00015681468C5F3032204F00F048A5C095DE0
:1017E00002F01F0201F01F01D040064A20FA01F169
:1017F00019601060084630BD18440258546900084A
:10180000F4010024F001002400B5FFF7DBFF0549D7
:101810000968054AC1F30211515C01F01F01C8407B
:1018200000BD00001C4402585469000800B5FFF7D1
:10183000C9FF05490968054AC1F30221515C01F05D
:101840001F01C84000BD00001C4402585469000834
:10185000454970B545480968434B103B11F03802C3
:1018600008D00111082A03D0102A0BD0182A0BD057
:10187000084670BD19688906FBD51968C1F3C10116
:10188000C84070BD3A4870BD3749374D18310C1DFE
:1018900024350A68096826682D6802F0030406F0FA
:1018A0000102C1F30511C5F3CC0515FB02F200EEF0
:1018B000102AB8EE400AE9B32F4ADFED2E0AB7EE40
:1018C000001A6CB1DFED2D1A012C01D0022C43D08F
:1018D00002EE101A1068F8EE422A81EEA22A1EE0EB
:1018E0001C68A40611D51B6801EE901A1168C3F399
:1018F000C103F8EE612AD84001EE900AC1F3080056
:10190000F8EE611A81EEA22A0BE001EE901ADFEDEB
:101910001C2A00BFF8EE611A106882EEA12AC0F3FB
:10192000080001EE900AF8EE611A40EE201A31EE3E
:10193000810A00E015E022EE000A1068C0F346209C
:10194000401C00EE900AF8EE600A80EE201ABCEE11
:10195000C10A10EE100A70BD01EE901ADFED092ADF
:10196000D8E7002070BD0000104402580090D0035A
:1019700040787D0100000039304402580024744A48
:101980000024744C20BCBE4B2DE9F05F04007DD0D8
:10199000FF4F2078FE4D1837DFF8F493103DC00755
:1019A00048D0D9F80000396800F03800102815D068
:1019B000182803D101F0030002280FD06068B0F5A9
:1019C000803F12D010B1B0F5A02F18D0286820F4B5
:1019D00080302860286820F4802009E0286880038F
:1019E00028D560680028D2D024E0286840F48030F0
:1019F0002860606888B1FEF769FE064609E028683D
:101A000040F480202860F0E7FEF760FE801B642829
:101A10006FD828688003F7D50CE0FEF757FE06461E
:101A200005E000BFFEF752FE801B6428F0D828684E
:101A30008003F7D4207841F20308D54E0C3E80078E
:101A400069D5D9F80000396810F038000ED0182890
:101A500001D188070AD0E06890B3296821F0190104
:101A600001432960FEF732FE824631E028684007D4
:101A700002D5E06800288AD0E168286820F01900C3
:101A800008432860FEF722FE824607E0DFE000BF41
:101A9000FEF71CFEA0EB0A000228B9D82868400710
:101AA000F6D500BFFEF70CFE40451BD82069402844
:101AB00012D0316821F47C3141EA003030602AE0F4
:101AC00018E000BFFEF702FEA0EB0A0002289FD834
:101AD00028684007F6D5E5E7306820F47C3040F40C
:101AE0000030EBE7207C316821F0FE4141EA0060E4
:101AF000E4E70DE1286820F001002860FEF7E6FD2C
:101B0000824605E0FEF7E2FDA0EB0A0002288DD830
:101B100028684007F6D42078C0065DD5D9F80000C3
:101B2000DFF86CB2396800F03800ABF1040B08281C
:101B300010D0182803D101F0030001280AD0E06971
:101B40000028286838D040F080002860FEF7BEFDED
:101B5000824623E02868C00523D5E069802876D135
:101B60001FE0206A202821D0316821F0F84141EAA5
:101B70008060306030E000BF94F82010DBF8002077
:101B800022F07C5242EA0161CBF8001024E000BF51
:101B9000FEF79CFDA0EB0A00022898D82868C00533
:101BA000F6D5FEF78DFD4045E6D8DAE7306820F03F
:101BB000F84040F08040DCE720F080002860FEF72D
:101BC00085FD064605E000BFFEF780FD801B02286C
:101BD0009DD82868C005F7D42078000729D56C481F
:101BE0006169643000298046016811D041F001012B
:101BF0000160FEF76BFD064605E000BFFEF766FDDF
:101C0000801B0228C9D8D8F800008007F6D510E05C
:101C100021F001010160FEF759FD064605E000BF15
:101C2000FEF754FD801B022872D8D8F80000800708
:101C3000F6D42078800623D5A0690028286810D023
:101C400040F480502860FEF741FD064605E036E18D
:101C5000FEF73CFD801B02285AD828688004F7D57F
:101C60000EE020F480502860FEF730FD064604E0C8
:101C7000FEF72CFD801B02284AD828688004F7D480
:101C8000207840074FD5DFF80C81D8F8001041F4D8
:101C90008071C8F80010FEF719FD064605E000BF88
:101CA000FEF714FD801B642832D8D8F80000C00568
:101CB000F6D5374EA068603601280AD008B105284D
:101CC00013D0306820F001003060306820F004004C
:101CD00002E0306840F001003060A06841F2883ACC
:101CE00090B1FEF7F3FC80460AE0306840F0040053
:101CF0003060EEE7FEF7EAFCA0EB0801514507D89B
:101D000030688007F6D50EE0FEF7E0FC804607E07D
:101D100084E000BFFEF7DAFCA0EB080151457DD856
:101D200030688007F6D4606AB0B3DFF86480D9F811
:101D3000001008F120084FF6F87B08F10409C1F300
:101D4000C2010329A8F1040A69D00228286820F0FA
:101D50008070286003D0FEF7B9FC044684E0FEF7EB
:101D6000B5FC064605E000BFFEF7B0FC801B02286C
:101D700077D828688001F7D4E26A40F2F3313868F6
:101D800054F8283F884340EA02101843386004E0C2
:101D90001044025800480258B5E0217B434622898E
:101DA0004FF4FE0C208A4FF0FE474902267D521E5A
:101DB000401EA1F50071C2F308088AB2761E0CEA33
:101DC000004042EA08020243504607EA06610A431D
:101DD0001A60DAF8002022F00102CAF80020D9F8CF
:101DE0000020266A22EA0B0242EAC602C9F8002055
:101DF000DAF80010A26921F00C011143CAF80010B2
:101E00000168E26921F0020111430160016841F4B7
:101E100080310160016841F4003101E021E027E0F8
:101E20000160016841F480210160016841F0010115
:101E30000160286840F080702860FEF747FC044687
:101E400005E000BFFEF742FC001B022809D8286805
:101E50008001F7D557E000BFFEF738FC001B0228D1
:101E600002D90320BDE8F09F28688001F4D44AE03D
:101E700039680128D8F8000021D0A26A01F00303D4
:101E800093421CD1E26AC1F305118A4217D1216B3A
:101E9000C0F30802491E8A4211D1616BC0F3462289
:101EA000491E91420BD1A16BC0F30642491E9142DB
:101EB00005D1E16BC0F30660491E814201D00120CB
:101EC000D0E7A16C4E46D9F80000C0F3CC008142A7
:101ED00019D0DAF80000554620F00100CAF80000D9
:101EE000FEF7F4FB4FEA0007FEF7F0FBB842FBD029
:101EF000A26C306820EA0B0040EAC200306028681B
:101F000040F0010028600020ACE700002DE9F0411E
:101F100004001D4616460F4603D0D4F8880018B1B9
:101F200008E00120BDE8F081002084F8840020460C
:101F300000F0D0FA2420C4F888002068016821F05D
:101F400001010160A06A10B1204602F0ABF8204602
:101F500002F08CF90128E5D0206871050D4A41EAAC
:101F60000541836843F4804383602068836823F4D9
:101F700000433B4383602068036813400B430360C6
:101F80002068016841F0010101602046BDE8F04190
:101F900002F0ECB8FFFF00FC401EB0F1807F10B5EE
:101FA00001D3012010BD4FF0E02460610F216017C4
:101FB00002F090FB0020A0610721216110BD704755
:101FC00070477047F0B590F83C20012A3BD01F4E77
:101FD000012480F83C40022280F83D2002681C4D1C
:101FE0005368B242D2F808C001D0AA4203D14F6868
:101FF00023F470033B430F6823F070031F435760C3
:102000000268B24213D0B2F1804F10D0114B9A4205
:102010000DD0114B9A420AD0104B9A4207D0AA42D7
:1020200005D00F4B9A4202D00E4B9A4204D18968D8
:102030002CF0800319439160002180F83D4080F826
:102040003C100846F0BD0220F0BD00000000014039
:10205000000401400004004000080040000C004063
:10206000001800400040014010B5040003D094F86F
:102070003D0010B107E0012010BD002084F83C00B5
:10208000204600F023F8022084F83D002068211D3E
:1020900001F02AFD012084F8480084F83E0084F80D
:1020A0003F0084F8400084F8410084F8420084F83E
:1020B000430084F8440084F8450084F8460084F81E
:1020C000470084F83D00002010BD000008B50068FE
:1020D000B0F1804F12D10A48016841F0010101605E
:1020E000006800220F2100F0010000901C20FEF784
:1020F000B3FBBDE808401C20FEF7A0BB08BD0000F4
:10210000E844025890F83D10012901D001207047A1
:10211000174A022180F83D100168CB6843F00103A3
:10212000CB600068904214D0B0F1804F11D01149BB
:1021300088420ED0104988420BD01049884208D0FE
:102140000F49884205D00F49884202D00E49884283
:1021500007D181680D4A1140062906D0B1F5803FAC
:1021600003D0016841F001010160002070470000C8
:10217000000001400004004000080040000C004046
:102180000004014000180040004001400700010029
:1021900070B5044690F83C000025012814D03A4B55
:1021A000012684F83C60022084F83D002268906893
:1021B000184020F47F409060086870282FD010DC11
:1021C00010F00F0F03D022E04FF0020070BD4FEA75
:1021D0002012072A1BD2DFE802F0535353534B3926
:1021E0004100B0F1101F4BD009DCB0F5805F0FD07B
:1021F000B0F5005F1ED0B0F5801F08D140E0A0F51B
:10220000801120393CD010293AD0202938D001251E
:1022100084F83D60002084F83C00284670BD4A6880
:102220002068D1E9021301F0C5FC2068816841F003
:10223000770109E04A682068D1E9021301F0BAFC8D
:102240002068816841F480418160E1E7CA6849689B
:10225000206801F0C3FC2068502106E0CA68496884
:10226000206801F0CCFC2068602101F0ADFCCFE7D4
:10227000CA684968206801F0B1FC20684021F4E791
:10228000226801461046F0E788FFCEFF70472DE92F
:10229000F041044600680027C6680569A90713D500
:1022A000B10711D5FA1E02610121217720688069EA
:1022B0008007204602D0FFF7E9FF04E000F08BF82A
:1022C000204600F089F82777680716D5700714D5DF
:1022D000226802206FF00401116120772068806974
:1022E00010F4407F204602D0FFF7D0FF04E000F05A
:1022F00072F8204600F070F82777280715D53007C8
:1023000013D5226804206FF008011161207720683E
:10231000C0698007204602D0FFF7B8FF04E000F054
:102320005AF8204600F058F82777E80616D5F00648
:1023300014D5226808206FF0100111612077206801
:10234000C06910F4407F204602D0FFF79FFF04E0F1
:1023500000F041F8204600F03FF82777E80708D062
:10236000F00706D021686FF001000861204600F0F8
:1023700034F8280601D4A80408D5300606D521680B
:102380006FF4025008612046FFF71AFEE80508D5F1
:10239000300606D521686FF4807008612046FFF78B
:1023A0000EFE680608D5700606D521686FF040005D
:1023B0000861204600F01DF8A8060AD5B00608D529
:1023C00021686FF0200008612046BDE8F041FFF76A
:1023D000F8BDBDE8F0817047704710B50068B0F1F6
:1023E000804F05D100F0BEFFBDE8104001F01ABCDF
:1023F00010BD704730B590F88410012918D0012223
:1024000080F884202421C0F888100022202401684C
:102410000B680D6823F0005325F001050D6042663E
:1024200001680B60C0F8884080F88420104630BDF9
:10243000022030BD70B5044690F8840001281DD0FC
:10244000012284F884202420C4F8880020680568CC
:10245000026822F0010202602068826822F0606255
:102460000A438260204601F0FBFD22682021002003
:102470001560C4F8881084F8840070BD022070BD17
:1024800070B5044690F8840001281DD0012284F81C
:1024900084202420C4F8880020680568026822F09F
:1024A000010202602068826822F060420A43826072
:1024B000204601F0D5FD2268202100201560C4F8D7
:1024C000881084F8840070BD022070BDD0F89000A0
:1024D000704700002DE9F04FB7B08046142130A8B6
:1024E000FDF746FFC0216846FDF742FF884D0127F2
:1024F00089490224D8F80000083D854E4FF4004A6F
:10250000DFF810B288424FF008094FF0000836D1CA
:102510000020CDF878800222CDE900206846FEF741
:102520004DFB08B1FDF78DFF306840F400203060AE
:10253000306800F400203590286840F001002860E1
:10254000286830A9CDE9307400F001004D46CDE98E
:1025500032845E46CDE934905846FDF795FF30AAA7
:1025600006214FF4006082E89100CDE9334130A9A3
:102570003046FDF789FFCDE930A432943DE067494C
:10258000884244D10021CDF8788002226846CDE906
:102590000021FEF713FB08B1FDF753FF306840F050
:1025A00000403060306800F000403590286840F00E
:1025B00008002860286800F008003590286840F07E
:1025C00010002860286830A9CDE930A400F0100080
:1025D0004D4632943394CDE934905148FDF754FF81
:1025E000504E30A9CDE9307432973046CDE93345AD
:1025F000FDF74AFF3094CDE93148CDE9334530A9A4
:10260000304600BFFDF740FF37B0BDE8F08F4649C8
:10261000884244D10020CDF87C800121CDE9001012
:102620006846FEF7CBFA08B1FDF70BFF38480830D3
:10263000016841F010010160006800F01000359061
:10264000286840F002002860286800F002003590F9
:10265000286840F0010028602868042530A9334E1E
:1026600000F001003590280381E81101CDE93345E0
:102670003046FDF709FFCDF8C0A030A9CDE93147BC
:10268000CDE933453046FDF7FFFEA902329407201D
:10269000CDE9301430A9CDE933405846B2E724499A
:1026A0008842B1D10021CDF8788002226846CDE978
:1026B0000021FEF783FA08B1FDF7C3FE306840F44D
:1026C00000303060306800F400303590286840F009
:1026D0000100286028680725309430A900F0010027
:1026E0005E4631943294CDE9345058463394FDF728
:1026F000CBFE30A9042081E81101CDE933453046F5
:10270000FDF7C2FECDF8C090CDE9314775E7000076
:10271000E844025800000258004C0040007C004091
:10272000000C02580010025800100140000402582A
:10273000004400402DE9F84F0446D0F88C009B4639
:1027400016460D46202802D00220BDE8F88FC5B1FC
:10275000BEB10027C4F890702220C4F88C00E76650
:102760002034FDF7B3FF824654F8180CA6874FF4C7
:102770008053E687FF21203C984207D1226912B19D
:1027800019E00120E1E740F2FF1114E04FF07F0271
:1027900078B1B0F1805F11D0A4F860709842B4F8BD
:1027A00060704FF0200801D1206970B12E460025DD
:1027B0000CE0266936B9A4F86010EFE7216909B189
:1027C0003F21F8E7A4F86020E8E7002607F0FF09BA
:1027D000B4F85E00F0B10022534620212046CDF827
:1027E00000B001F019FF18B1C4F88C800320ACE7E9
:1027F0002068406A56B100EA090006F8010B00BFE4
:10280000B4F85E00401EA4F85E00E1E7384025F809
:10281000020BF5E7C4F88C80002096E72DE9F84319
:102820000446D0F88800984616460D46202802D067
:102830000220BDE8F883A5B19EB10021C4F8901034
:102840002120C4F888001834FDF740FF814654F871
:10285000100CA687E6872027183CB0F5805F02D0D1
:1028600003E00120E5E7206910B12E46002510E0C5
:1028700000260EE08021204601F0CEFEC0B9DEB178
:1028800016F8010B21688862B4F85600401EA4F8BF
:102890005600B4F856004B464FF00002CDF80080C9
:1028A0000028E7D14FF04001204601F0B5FE48B1C5
:1028B000C4F888700320BCE735F8020B2168C0F328
:1028C0000800E0E7C4F888700020B2E7FEE70000E7
:1028D00010B5364B0021364A04462DED028B82B0EE
:1028E0009FED308ADFED308A00900120F0EE480A3B
:1028F000B0EE680A00F0D8F801212C4B2C4A0846AB
:10290000F0EE480AB0EE680A009400F0CDF8274BCC
:102910000021274A0220F0EE480AB0EE680A00942F
:1029200000F0C2F8214B0121214A0220F0EE480AB2
:10293000B0EE680A009400F0B7F81C4B00211C4A66
:102940000320F0EE480AB0EE680A009400F0ACF8FC
:10295000164B0121164A0320F0EE480AB0EE680A31
:10296000009400F0A1F89FED138ADFED138A0F4B5E
:1029700000210F4A0420F0EE480AB0EE680A0094E5
:1029800000F092F8094B0121094A0420F0EE480AB0
:10299000B0EE680A009400F087F802B0BDEC028B3C
:1029A00010BD0000CDCCCC3DCDCCCC3C2C270024A0
:1029B000CC0700246F12833A9A99993E10B5364B92
:1029C0000021364A04462DED028B82B09FED308AFD
:1029D000DFED308A00900120F0EE480AB0EE680A80
:1029E00000F0B8FB01212C4B2C4A0846F0EE480AB7
:1029F000B0EE680A009400F0ADFB274B0021274A97
:102A00000220F0EE480AB0EE680A009400F0A2FB43
:102A1000214B0121214A0220F0EE480AB0EE680A5B
:102A2000009400F097FB1C4B00211C4A0320F0EEA1
:102A3000480AB0EE680A009400F08CFB164B0121A6
:102A4000164A0320F0EE480AB0EE680A009400F03F
:102A500081FB9FED138ADFED138A0F4B00210F4A94
:102A60000420F0EE480AB0EE680A009400F072FB11
:102A7000094B0121094A0420F0EE480AB0EE680A29
:102A8000009400F067FB02B0BDEC028B10BD0000AB
:102A9000CDCCCC3D5839B43C7C6600241C47002486
:102AA0006F12833A3D0A573E2DE9F041F0EE601A6D
:102AB000B0EE401A04469FED530A0128069F4FF0DE
:102AC0000000F0EE400A064613D0022C14D0032C6E
:102AD00015D0042C72D14C4E4C4D00BF02EB870236
:102AE00003EB87034A4F69B1012944D0042C41D03C
:102AF0006DE04848484DF1E74848494DEEE7494800
:102B0000494DEBE7012C06D0022C11D0032C1CD030
:102B1000042C5CD120E002F58052D7ED010A92ED41
:102B2000E70A03F5805330EE200AD3EDE70A4EE0C2
:102B300002F5C052D7ED030A92EDDD0A03F5C0534A
:102B400030EE200AD3EDDD0A41E092EDFB0AD3ED31
:102B5000FB0A97ED052A2CE002F5006203F50063FD
:102B600092EDF10A97ED072AD3EDF10A32EE400A11
:102B7000F1EE600A3FE0012C06D0022C0FD0032CAE
:102B80001DD0042C23D12AE002F5406203F54063F6
:102B900092EDEC0A97ED022AD3EDEC0A09E002F57A
:102BA000A05203F5A05392EDE20A97ED042AD3ED6B
:102BB000E20A32EE400AF1EE600A08E01FE092ED10
:102BC000000A97ED062AD3ED000A30EE020A03F060
:102BD000F9F821462846BDE8F04103F01BBB02F599
:102BE0008062D7ED080A92EDF60A03F5806330EEB5
:102BF000200AD3EDF60A304602F08AFFE9E7BDE885
:102C0000F081000000000000C40200247C87002442
:102C10001C010024FC010024A48800243E0200249E
:102C200038890024800200241088002470B5234CC9
:102C300094ED010A02F0DCFA10EE100A204DA842D1
:102C400037DD94ED020A02F0D3FA10EE100AA84222
:102C50002FDD94ED030A02F0CBFA10EE100AA84221
:102C600027DD94ED040A02F0C3FA10EE100AA84220
:102C70001FDD94ED050A02F0BBFA10EE100AA8421F
:102C800017DD94ED060A02F0B3FA10EE100AA8421E
:102C90000FDD94ED070A02F0ABFA10EE100AA8421D
:102CA00007DD94ED080A02F0A3FA10EE100AA8421C
:102CB00001DC002070BD012070BD00001C0100245B
:102CC000BD37863510B52DED028B86E09FED478A26
:102CD00047480021B0EE480A03F09EF9454801211B
:102CE00003F098FA4448454C406E60600520FDF7BB
:102CF000B9FB3F480121B0EE480A03F08DF93D4889
:102D0000012103F087FA3E48406EA0600520FDF7E0
:102D1000A9FB3C480021B0EE480A03F07DF93A488F
:102D2000022103F077FA3948406EE0600520FDF794
:102D300099FB34480121B0EE480A03F06DF932489E
:102D4000022103F067FA3248406E20610520FDF74A
:102D500089FB30480021B0EE480A03F05DF92E48A7
:102D6000032103F057FA2D48406E60610520FDF7FE
:102D700079FB28480121B0EE480A03F04DF92648B6
:102D8000032103F047FA2648406EA0610520FDF7B5
:102D900069FB24480021B0EE480A02F0FBFE2248FD
:102DA000042103F037FA214890ED050A052084ED4F
:102DB000070AFDF757FB1B480121B0EE480A02F055
:102DC000E9FE1948042103F025FA194890ED050A97
:102DD000052084ED080AFDF745FBFFF727FF0028D3
:102DE0003FF474AFBDEC028B10BD0000000000008A
:102DF000FC010024A4880024680300241C01002492
:102E0000F40300243E0200243889002480040024B6
:102E10000C0500248002002410880024980500245A
:102E200024060024C40200247C870024F00200242D
:102E30002C03002410B52DED028B86E09FED478A10
:102E400047480021B0EE480A03F0C8F84548012180
:102E500003F0E0F94448454C406E60600520FDF702
:102E600001FB3F480121B0EE480A03F0B7F83D48A6
:102E7000012103F0CFF93E48406EA0600520FDF728
:102E8000F1FA3C480021B0EE480A03F0A7F83A48AE
:102E9000022103F0BFF93948406EE0600520FDF7DC
:102EA000E1FA34480121B0EE480A03F097F83248BD
:102EB000022103F0AFF93248406E20610520FDF792
:102EC000D1FA30480021B0EE480A03F087F82E48C6
:102ED000032103F09FF92D48406E60610520FDF746
:102EE000C1FA28480121B0EE480A03F077F82648D5
:102EF000032103F08FF92648406EA0610520FDF7FD
:102F0000B1FA24480021B0EE480A02F027FE224818
:102F1000042103F07FF9214890ED050A052084ED96
:102F2000070AFDF79FFA1B480121B0EE480A02F09C
:102F300015FE1948042103F06DF9194890ED050AB2
:102F4000052084ED080AFDF78DFAFFF76FFE0028D3
:102F50003FF474AFBDEC028B10BD00000000000018
:102F6000FC010024A4880024680300241C01002420
:102F7000F40300243E020024388900248004002445
:102F80000C050024800200241088002498050024E9
:102F900024060024C40200247C870024F0020024BC
:102FA0002C0300242DE9F05F584F594C594D5A4ECF
:102FB000DFF86881DFF86891DFF868A1DFF868B1B1
:102FC0002DED028BD8B1786E2060686E6060706EF7
:102FD000A060D8F86400E060D9F864002061DAF8F5
:102FE0006400606151489BED050A84ED060A90ED8E
:102FF000050A84ED070ABDEC028BBDE8F09F9FED4A
:103000004C8A4C480021B0EE480A02F0E7FF4A48DB
:10301000012103F0FFF8786E20600520FDF722FA09
:1030200044480121B0EE480A02F0D8FF424801218D
:1030300003F0F0F8686E60600520FDF713FA3F4872
:103040000021B0EE480A02F0C9FF3D48022103F01A
:10305000E1F8706EA0600520FDF704FA3748012101
:10306000B0EE480A02F0BAFF3548022103F0D2F868
:10307000D8F86400E0600520FDF7F4F9314800213C
:10308000B0EE480A02F0AAFF2F48032103F0C2F86D
:10309000D9F8640020610520FDF7E4F929480121F1
:1030A000B0EE480A02F09AFF2748032103F0B2F875
:1030B000DAF8640060610520FDF7D4F923480021A7
:1030C000B0EE480A02F04AFD2148042103F0A2F8BC
:1030D0009BED050A052084ED060AFDF7C3F91B48A0
:1030E0000121B0EE480A02F039FD1948042103F02D
:1030F00091F80E4890ED050A052084ED070ABDEC15
:10310000028BBDE8F05FFDF7ADB900006803002455
:10311000D4860024F4030024800400240C05002439
:103120009805002424060024F00200242C03002427
:1031300000000000FC010024A48800243E020024BA
:10314000388900248002002410880024C40200244E
:103150007C8700242DE9F041F0EE601AB0EE401AB1
:1031600004469FED520A0128069F4FF00000F0EE42
:10317000400A064613D0022C14D0032C15D0042C80
:103180007DD14B4E4B4D00BF02EB870203EB870313
:10319000494F69B1012942D0042C3FD06AE0474829
:1031A000474DF1E74748484DEEE74848484DEBE7C3
:1031B000012C06D0022C0BD0032C16D0042C59D194
:1031C00020E092ED000A97ED002AD3ED000A35E0E9
:1031D00002F58062D7ED020A92EDF60A03F58063EC
:1031E00030EE200AD3EDF60A44E002F54062D7ED56
:1031F000040A92EDEC0A03F5406330EE200AD3EDA9
:10320000EC0A37E002F5A052D7ED060A92EDE20A89
:1032100003F5A05330EE200AD3EDE20A40E0012C82
:1032200006D0022C0DD0032C18D0042C22D12BE078
:1032300092EDFB0A97ED012AD3EDFB0A30EE020A6C
:1032400018E002F50062D7ED030A92EDF10A03F5EA
:10325000006330EE200AD3EDF10A0BE002F5805254
:10326000D7ED050A92EDE70A03F5805330EE200A08
:10327000D3EDE70A02F0A6FD2146284600E013E060
:10328000BDE8F04102F0C6BF02F5C052D7ED070A13
:1032900092EDDD0A03F5C05330EE200AD3EDDD0ACE
:1032A000304602F035FCE7E7BDE8F08100000000A1
:1032B000C40200247C870024F4860024FC0100243E
:1032C000A48800243E0200243889002480020024BF
:1032D0001088002401491C22FDF731B84C0100245C
:1032E0001E48012310B5A0F16001847C00200A78FB
:1032F000012C0DD00AB3194A543A927C012A1BD0F2
:10330000164B383B9B7C012B18D0032A18D019E0B0
:10331000002A134A07D0087048708880C880088146
:10332000488110700EE00B7048708880C88008815A
:1033300048818B701070DEE74B7003E0022200E0E2
:1033400004224A70054A1C3A927C012A05D10322C4
:103350004A708880C8800881488110BDA00100247F
:1033600018010024094810B500F012F807481C3075
:1033700000F00EF80548383000F00AF803485430E1
:1033800000F006F8BDE81040FFF7AABF4C0100248A
:1033900070B5818804460068FDF78CF9E0B100251E
:1033A000FDF794F9227E01460020A074AA4205D0C0
:1033B00062699AB18A1A142A01D3257660610123C1
:1033C000A679227E66B10225012E10D0022E1FD0D2
:1033D000032E34D0A07170BD0125E1E76161EEE7F5
:1033E000002AF8D0A160A3712074607470BDA06839
:1033F000081AB0F57A7F04D30320A0716374A07417
:1034000070BD002AFCD1207CE160401CA57119E050
:10341000E6688E1BB6F5967F0CD3217C012902D07D
:10342000022902D002E0A37400E0A574A071207408
:10343000E06070BD002AFCD0A160A37170BD002ABD
:10344000FCD1A071207470BD00B587B0142168460E
:10345000FCF78EFF1948016841F010010160016816
:1034600001F010010591016841F0800101600168DF
:1034700001F080010591016841F0010101600168DE
:1034800001F001010591016841F00201016001684C
:1034900001F002010591016841F008010160006836
:1034A0000021012200F0080005903C208DE8070073
:1034B00003486946FCF7E8FF07B000BDE044025846
:1034C0000010025830B587B01748002444F61F6337
:1034D000EF2200944FF080410194802502940394E0
:1034E00004940594069480E816008561C0E90334CD
:1034F000FEF7BAFD08B1FCF7A4FF4FF4805000902E
:1035000009486946FEF744FE08B1FCF79AFF0648F1
:1035100004A904940694FEF755FD002801D0FCF799
:1035200090FF07B030BD000030870024184800210C
:1035300010B5164C0C22174B0460C0E90131C16074
:103540000B46C0E9041281610A46C1610162416211
:103550008162FEF7DBFC08B1FCF773FF0C48002129
:10356000FEF78EFF08B1FCF76CFF09480021FEF75B
:1035700061FF08B1FCF765FF0548FEF73BFF002837
:1035800003D0BDE81040FCF75CBF10BD004C00400C
:103590007C87002400093D0070B51C480C221C4C9F
:1035A0000021194BC0E9003481603023C1604FF421
:1035B0008054C0E9041281616500C1610162C0E903
:1035C00009130023C0E90F451A461946FEF79EFC71
:1035D00008B1FCF736FF0D480021FEF751FF08B196
:1035E000FCF72FFF09480021FEF724FF08B1FCF784
:1035F00028FF0648FEF7FEFE002803D0BDE8704015
:10360000FCF71FBF70BD0000007C00401088002444
:10361000003E49001848002110B5164C0C22174BEB
:103620000460C0E90131C1600B46C0E90412816148
:103630000A46C161016241628162FEF767FC08B11E
:10364000FCF7FFFE0C480021FEF71AFF08B1FCF75B
:10365000F8FE09480021FEF7EDFE08B1FCF7F1FE87
:103660000548FEF7C7FE002803D0BDE81040FCF770
:10367000E8BE10BD00100140A4880024003E4900AF
:103680001848002110B5164C0C22174B0460C0E9F5
:103690000131C1600B46C0E9041281610A46C16173
:1036A000016241628162FEF731FC08B1FCF7C9FE9C
:1036B0000C480021FEF7E4FE08B1FCF7C2FE094801
:1036C0000021FEF7B7FE08B1FCF7BBFE0548FEF788
:1036D00091FE002803D0BDE81040FCF7B2BE10BD3B
:1036E0000044004038890024003E4900FEE7FEE720
:1036F000704700002DE9F047454D044689464FF0DC
:10370000000A2868C04380070AD0414E283E30682E
:1037100020F080603060FCF7D9FF0746B04608E033
:103720000120BDE8F08700BFFCF7D0FFC01B0228D6
:1037300067D8D8F800000001F6D4206829684FF453
:10374000FE0721F47C313E0241EA00302860207AF5
:10375000A389B4F804C040022D4D2D495B1E227C84
:10376000ACF1010C1035091DA0F5007080B2521E9D
:10377000CCF3080C07EA034340EA0C00184306EABE
:103780000262104328600868626920F0C00010439C
:1037900008600A68A06922F0200202430A60281D1E
:1037A0000A6822F010020A6002684FF6F873E469B2
:1037B0009A4342EAC40202600868B9F1000F40F07F
:1037C00010020A6011D00868B9F1010F11D040F45D
:1037D00000100860D8F80000444640F08060C8F847
:1037E0000000FCF773FF05460DE0086840F4002078
:1037F000EFE740F48010ECE7FCF768FF401B02287D
:1038000001D903208DE720680001F5D5504688E7EF
:10381000284402582DE9F047454D044689464FF0AB
:10382000000A2868C04380070AD0414E283E30680D
:1038300020F080503060FCF749FF0746B04608E0B2
:103840000120BDE8F08700BFFCF740FFC01B022845
:1038500067D8D8F800008000F6D4208829684FF493
:10386000FE0721F07C713E0241EA00502860207A78
:10387000A389B4F804C040022D4D2D495B1E227C63
:10388000ACF1010C1835091DA0F5007080B2521E74
:10389000CCF3080C07EA034340EA0C00184306EA9D
:1038A0000262104328600868626920F44060104397
:1038B00008600A68A06922F4007202430A60281DA9
:1038C0000A6822F480720A6002684FF6F873E469AD
:1038D0009A4342EAC40202600868B9F1000F40F45A
:1038E00080720A6011D00868B9F1010F11D040F060
:1038F00080700860D8F80000444640F08050C8F856
:103900000000FCF7E3FE05460DE0086840F4800087
:10391000EFE740F40000ECE7FCF7D8FE401B02287C
:1039200001D903208DE720688000F5D5504688E74F
:10393000284402587047FCF7CFBE000070B59CB019
:103940004C216846FCF714FD202113A8FCF710FD5C
:103950000220FCF7B3FF214800242149026842F409
:103960004042026002680A6842F001020A60096887
:1039700001F001011B9101688904FCD50DF1280CAF
:10398000022009900521C0228CE80700C6030F9091
:1039900008250D9001230E90CDE91054CDE9003695
:1039A00068461294FDF7F0FF08B172B6FEE74020BA
:1039B0001A903F210301CDE916500322CDE91803E7
:1039C00013AB13A883E816000421FDF7CDFD0028F2
:1039D00001D072B6FEE71CB070BD00001848025856
:1039E0002C0400583348F0B5334A016841F47001A3
:1039F0000160106800F00F00072804D2106820F062
:103A00000F00C01D10602D4900202C4C10340B6895
:103A10002B4D43F001030B6020600B682B400B60C3
:103A2000136803F00F03072B04D9136823F00F0367
:103A3000DB1D1360214C234A1834234B261D371DF0
:103A400020601E4C214D28343060261D3860371D03
:103A500023603B1D35601C1D3A60251D2E1D18601E
:103A6000331D22602860326018600A68134B184CBE
:103A700022F4802260330A60186020686FF30F0020
:103A8000B0F1005F03D213490120C1F808010B48CF
:103A9000D4300168C9040BD4026843F2D2010E4B42
:103AA00042F4805202601960016821F48051016083
:103AB000F0BD000088ED00E00020005200440258F4
:103AC0007FEDF6EA80020101000202020000FF0120
:103AD0000010005C00800051004000520148FEF7D9
:103AE000D6BB0000308700242DE9F047294B4FF06A
:103AF000804A294D02689842284E294F294C09D006
:103B0000504507D0A84205D0B04203D0B84201D0FA
:103B1000A04205D1D1F804C022F070024CEA0202A2
:103B2000DFF884C0DFF884809842DFF884900FD0FB
:103B300050450DD0A8420BD0B04209D0B84207D0B2
:103B4000A04205D0604503D0404501D0484503D18F
:103B5000CD6822F440722A438E684D6922F08002BB
:103B6000C6620E682A439842866207D0A04205D0FA
:103B7000604503D0404501D0484501D10969016342
:103B80000368012143F00403036041610260BDE862
:103B9000F0870000000001400004004000080040E1
:103BA000000C00400004014000400140004401407E
:103BB0000048014042EA032283680A4323F47F411C
:103BC0000A43826070470000034B82681A400A4330
:103BD00042F00701816070478FFFCFFF10B5036A85
:103BE000046A23F00A0324F00104046284690B438D
:103BF00024F0F00141EA02118161036210BD10B5A9
:103C0000036A046A23F0A00324F0100404628469A8
:103C100043EA011124F4704343EA023282610162F3
:103C200010BD00002DE9F04FF04C00252DED048B68
:103C3000A7B02078002871D09FEDED8A6078ED4E16
:103C4000ED4F0128DFF8B483DFF8B493DFF8B4A3B5
:103C5000DFF8B4B304D0022867D004285ED12DE188
:103C6000E088618908435DD1A088E0BBE74800781F
:103C700006287DD286ED008A87ED008A88ED008ACD
:103C8000E34889ED008A8AED008A8BED008A80ED99
:103C9000008AE04880ED008AFFF7CCF8DB48182264
:103CA000DD49007800EB400001EBC00102A80E46A0
:103CB000FCF745FB182206F1180108A8FCF73FFBAA
:103CC00018210EA8FCF754FB182114A8FCF750FB90
:103CD00018211AA8FCF74CFB182120A8FCF748FB78
:103CE00020A914A800E00EE0CDE90001B1EE040A1D
:103CF00008AB1AAA0EA902A800F0C4FF012000F028
:103D0000D3FF00287BD0A088FB2808D22178002987
:103D10002ED0FEF7DDFDA088401CA08033E1BB481B
:103D2000A58038E102F0A4F92DE1A0880028F9D19E
:103D3000E078C0B30128DFEDB98A9FEDB99A5FD072
:103D400002285BD3E188FB297DD3401CE070FA2078
:103D5000E580FEF7BDFDB348406E3060B248406E6E
:103D60003860B248406EC8F80000B148406E00E0CC
:103D7000AFE0C9F80000AF48406ECAF80000AE4896
:103D8000406ECBF80000AD4890ED050AA04880EDEC
:103D9000000AAB4890ED050A9E4880ED000AE078E5
:103DA000032863D07AE0FFE70120E070A5491822DC
:103DB00002A8E580FCF7C3FAA249182208A8183126
:103DC000FCF7BDFA18210EA8FCF7D2FA182114A8A6
:103DD000FCF7CEFA18211AA8FCF7CAFA182120A875
:103DE000FCF7C6FA20A914A8B1EE040ACDE9000137
:103DF00008AB1AAA0EA902A800F044FF52E08FE017
:103E0000E088FB2853D30220E070E58086ED008A2D
:103E100087ED008A88ED008A7D4889ED008A8AED69
:103E2000008A8BED008A80ED008A7A4880ED008A56
:103E3000FFF700F8F0EE484AB0EE484AF0EE683A74
:103E4000B0EE483A00E032E0F0EE482AB0EE482A00
:103E5000DFED7D1A6548B0EE491A7C30F1EE040AB8
:103E6000B0EE480A01F05AFB012018E0F0EE484A93
:103E7000B0EE484AF0EE683AB0EE483AF0EE482A22
:103E8000B0EE482ADFED711A5848B0EE491A7C307E
:103E9000F1EE040AB0EE480A01F040FB022000F007
:103EA00003FFE8B3E088FB2813D2207888B1E088CC
:103EB000FEF70EFDE088401CE08064E0E088A18809
:103EC00008437FF42FAF608958BB6148007803280E
:103ED00003D3FA20FEF7FCFC55E086ED008A87ED5F
:103EE000008A88ED008A4A4889ED008A8AED008AB6
:103EF0008BED008A80ED008A464880ED008AFEF74F
:103F000099FF534818225349007800EB400001EB19
:103F1000C00602A83146FCF712FA06F1180101E0CA
:103F200030E023E0182208A8FCF709FA18210EA8AF
:103F3000FCF71EFA182114A8FCF71AFA18211AA87F
:103F4000FCF716FA182120A8FCF712FA20A914A8E9
:103F5000B1EE040ACDE9000108AB1AAA0EA902A825
:103F600000F090FE012000F09FFE58B16089FB2810
:103F70000FD221780029ACD0FEF7AAFC6089401C42
:103F8000608100E02570607803281FD1208930B15E
:103F900014E02F4865810178491C017099E7A580DC
:103FA0000020E580FEF7FEFF2B492C48B1EE040A05
:103FB00002F05CF8032000F077FE60B12089FB2856
:103FC0000BD2FEF7FBFC2089401C208127B0BDEC02
:103FD000048BBDE8F08F2570F8E727B0401EBDECDC
:103FE000048B80B2BDE8F04FFEF7E8BC400100242E
:103FF00000000000200100242401002428010024E6
:104000002C01002430010024340100241801002474
:10401000380100243C01002410000024DB0FC940BB
:104020000AD7A33C68030024F4030024800400247E
:104030000C0500249805002424060024F002002426
:104040002C030024FC680008CDCC4C3ECDCCCC3DEC
:1040500019010024B8000024F4860024D48600242A
:1040600030B5416EB9B101680D4B03F108048A689F
:104070008968C2F34262490F5D5C615C2D01B5FB4A
:10408000F1F1A0F86A10995CA25C0901B1FBF2F1B0
:10409000A0F8681030BD0121A0F86A10F8E7000010
:1040A0004469000890F82810090706D50168836B59
:1040B0004A6822F400421A434A6090F82810C9075F
:1040C00006D00168C36A4A6822F400321A434A6083
:1040D00090F82810890706D50168036B4A6822F416
:1040E00080321A434A6090F82810490706D50168C3
:1040F000436B4A6822F480221A434A6090F82810E1
:10410000C90606D50168C36B8A6822F480521A4337
:104110008A6090F82810890606D50168036C8A68C1
:1041200022F400521A438A6090F82810490611D5EB
:104130000168436C4A6822F480121A434A60416C59
:10414000B1F5801F06D10168836C4A6822F4C00271
:104150001A434A6090F82810090606D50168C26C17
:10416000486820F400201043486070472DE9F84368
:1041700000250446C0F89050FCF7A8FA8046206855
:1041800020266FF07E470068000713D500224346C3
:1041900031042046009700F03FFA58B1216851E8F9
:1041A000000F20F0800041E80002002AF6D1C4F898
:1041B000886021E020680068400722D5002243463D
:1041C0004FF480012046009700F026FAC8B120681D
:1041D00050E8001F21F4907140E80012002AF6D147
:1041E0002068083050E8001F21F0010140E800126B
:1041F000002AF5D1C4F88C60032084F88450BDE80F
:10420000F883C4F88860C4F88C60E56625670020F0
:1042100084F88450F3E7000010B5026852E8001FEC
:1042200021F4907142E80013002BF6D10E4B026886
:10423000083252E8001F194042E80014002CF6D161
:10424000C16E012908D1026852E8001F21F0100157
:1042500042E80013002BF6D100212022C0F88C2068
:10426000C166416710BD0000FEFFFFEF2DE9F0437E
:1042700004468068D84E87B0D84B2168D4E904271B
:10428000D4F81CC010430A68002547EA0C073843DD
:10429000324002430A602068E268416821F44051DC
:1042A000114341602268A1699A4201D0206A01430A
:1042B0009768DFF82CC3CB4ECB4807EA0C070F43B7
:1042C00097602168676ACA6A22F00F023A43CA629D
:1042D0002268B2420ED1006800F03800182873D06E
:1042E00047DCB8B3082879D010286FD178E02828A7
:1042F0007ED17BE0BD498A4209D1006800F0070009
:10430000062875D2DFE800F0546A6C6E7072B84906
:104310008A4209D1006800F00700062868D2DFE869
:1043200000F0475D5F616365B2498A4209D1006868
:1043300000F0070006285BD2DFE800F03A50525444
:104340005658AD498A420BD1006800F00700062894
:104350004ED200E010E0DFE800F02B414345474932
:10436000A6498A420AD1006800F03800182839D0DE
:10437000B7DD2028BBD13CE001203AE0A0498A42C9
:1043800009D1006800F00700062831D2DFE800F00C
:104390001026282A2C2E9B498A420BD1006800F057
:1043A0000700062824D2DFE800F003191B1D1F2197
:1043B00000201EE09A421BD18B48001D006800F0CF
:1043C0000700062814D202E00CE007E010E0DFE866
:1043D00000F0030507090B0D02200AE0042008E0A5
:1043E000082006E0102004E0202002E0402000E049
:1043F00080208549DFF814829A42854A4FF40043B1
:104400004FEA21174FF000064ED110281AD006DCD3
:10441000022809D004280BD008287CD10DE02028E0
:104420003ED0402877D13DE0FCF772FA014610E01B
:104430006846FCF77FFA01990BE003A8FCF71CFB28
:10444000049906E01068800605D51068C0F3C10025
:10445000C140002970D0606A676838F8102007EB07
:104460004703B1FBF2F0834255D8B0EB073F52D877
:10447000002308461946FBF731FF02467808130E61
:10448000120243EA012110183A4671410023FBF75A
:1044900025FF604AA0F5407191423CD821688FE029
:1044A0003946D8E71946D6E7D4F81CC04FF6EF795D
:1044B0009C4546D1082819D005DC58B101280CD0FC
:1044C000042875D10DE0102815D0202835D04028BB
:1044D0006ED134E0FDF798F901E0FDF7A7F9014648
:1044E00010E06846FCF726FA01990BE003A8FCF7F8
:1044F000C3FA049906E01068800604D51068C0F37A
:10450000C100C140C1B1636A606838F81330B1FBC3
:10451000F3F1490000E04BE001EB5001B1FBF0F09A
:10452000A0F11001494543D84FF6F0732168C0F35C
:1045300042021840104343E043E03946E3E719469E
:10454000E1E7082819D005DC58B101280CD004286F
:104550002ED10DE0102815D020282BD0402827D1AF
:104560002AE0FDF751F901E0FDF760F9014610E09E
:104570006846FCF7DFF901990BE003A8FCF77CFA29
:10458000049906E01068800604D51068C0F3C100E5
:10459000C140B1B1636A606838F81330B1FBF3F120
:1045A00001EB5001B1FBF0F0A0F11001494505D934
:1045B000012506E03946EDE71946EBE7216880B2B0
:1045C000C8600120A4F86A00A4F86800284666675D
:1045D000A66707B0BDE8F083F369FFCF000C005871
:1045E000FFF4FF1100100140544402580044004001
:1045F00000480040004C00400050004000140140C2
:1046000000780040007C00400090D0032C69000836
:1046100000440258FFFC0F002DE9F0479946174669
:104620000D460446089E4FF0000833E0701C31D060
:10463000FCF74CF8A0EB0900B04218D8BEB12068D6
:104640000168490726D5802D24D0402D22D0C1698C
:10465000C94309070DD4082505622046FFF7DCFD94
:10466000C4F89050012084F88480BDE8F0870320CE
:10467000FBE7C069C04300050CD421684FF400601B
:1046800008622046FFF7C8FD2021C4F8901084F886
:104690008480ECE72068C06935EA000004D000207F
:1046A000B842C3D00020E0E70120F9E7FEE741006F
:1046B000080218BF04200A0E18BF40F001004FF096
:1046C0007F4232EA010108BF40F00200012808BF22
:1046D00005207047090700284FEA116104DB00F14B
:1046E000E02080F80014704700F00F0000F1E02097
:1046F00080F8141D7047000010EE101A08B5434AE8
:104700006846B2EB410F26D94FF0E640B0EB410FBF
:1047100094BF00204FF0FF3000900098DFED3C0A7E
:10472000002860DB10F0010F46D060EE000ADFEDDC
:10473000391A9FED391A10F0020F00EEE11ADFED81
:10474000371A40EE811A21EEA01AF0EE400A40EE30
:10475000010A2ED041E0324B21F0004293423FD972
:1047600011F0004FDFED2F0A20EE201ADFED2E0AA8
:1047700019BF31EE601A71EE200A31EE201A71EE87
:10478000600ABDEEE01A11EE100A9FED281A00F043
:10479000030000EEC10A9FED261A009000EEC10A48
:1047A0009FED241A00EEC10A9FED231A00EEC10A04
:1047B000B3E7F1EE600A10E020EE000A9FED1F1A49
:1047C000DFED1F1A10F0020F40EE011A9FED1D1AC7
:1047D00000EE211A40EE010AEBD1B0EE600A08BDEE
:1047E00000F02CF999E710EE100A4000B0F17F4F6D
:1047F000F3D307D14FF0010000F0DAF9BDE808402B
:1048000000F00CB9BDE8084000F005B9B61F927E73
:104810000000803F336D4C39DA82083CA0AA2ABEE2
:10482000490E494683F9223F0000004B0000C93F72
:1048300000A0FD390020A2331A61342CB93AB2BA73
:10484000CA9F2A3DDDFFFFBE00B510EE101A2DED08
:10485000028B81B0524A6846B2EB410F2ED94FF01D
:10486000E640B0EB410F94BF00204FF0FF300090C6
:104870000098B0EE408A00286ADB10F0010F4BD0A0
:1048800068EE080A9FED471A9FED470A00EE810A7D
:104890009FED461A00EE801A9FED450A10F0020FB8
:1048A00000EE810A02BF01B0BDEC028B00BD00BF6B
:1048B00001B0B1EE400ABDEC028B00BD3D4B21F0D2
:1048C0000042934241D911F0004FDFED3B0A20EE48
:1048D000201ADFED3A0A19BF31EE601A71EE200A94
:1048E00031EE201A71EE600ABDEEE01A11EE100AE8
:1048F0009FED331A00F0030000EEC10A9FED311A5C
:10490000009000EEC10A9FED301A00EEC10A9FED43
:104910002F1A00EEC10AABE728EE080A9FED2C1A09
:10492000DFED2C0A10F0020F40EE410A9FED2A1A2B
:1049300000EE201A61EE000AB0EE480A08EE200AE6
:10494000B6D101B0BDEC028B00BD00F077F88FE767
:1049500018EE100A4000B0F17F4F0DD218EE100A89
:10496000FFF7A5FE042808BF00F060F8B0EE480A83
:1049700001B0BDEC028B00BD09D1012000F018F997
:1049800001B0BDEC028B5DF804EB00F047B801B05C
:10499000B0EE480ABDEC028B5DF804EB00F03BB8CA
:1049A000B61F927EB93AB2BACA9F2A3DDDFFFFBE5A
:1049B0000000803F490E494683F9223F0000004B2A
:1049C0000000C93F00A0FD390020A2331A61342C39
:1049D000336D4C39DA82083CA0AA2ABE10B52DED01
:1049E000028BB1EEC08A18EE100A20F00040C0F130
:1049F000FF40C00F0AD010EE100A20F00040C0F1B6
:104A0000FF40C00F04BF012000F0D2F8B0EE480A0A
:104A1000BDEC028B10BD30EE000A7047DFED020ADC
:104A200080EEA00A70470000000000009FED020A1F
:104A300020EE000A70470000000000102DE9F00190
:104A40004FF07F42B2EB410F9FBF4FF0FF3101604B
:104A5000BDE8F00170474FF0004242EA0123C1F384
:104A6000C752783A551112F01F0C434CCCF1200676
:104A70007C44C1F3C752A2F178024FEA621204EB00
:104A8000820254F8254008BFD2E9015612D0556879
:104A900004FA0CF425FA06F73C43976805FA0CF57E
:104AA00027FA06F8D26807FA0CFCF24045EA080536
:104AB0004CEA0206A4FB034CA5FB0352A6FB0363CE
:104AC0001D449D4234BF012600261319334416B1FC
:104AD000934202D903E0934201D2012200E0002276
:104AE000624402F1200C9206DC0C42EA443200EEF1
:104AF000102A5B03DFED210AF8EEC01A00EE103A2F
:104B00004FEA9C1C11F0004FB8EE400AC0F800C0FC
:104B100020EE201A00EE105ADFED190AB8EE400A16
:104B200020EE200A71EE810A70EE800A10EE902AC3
:104B300002F500626FF30B0200EE902A70EEE11AAC
:104B400031EEC11ADFED101A30EE411A9FED0D0A59
:104B500020EE800A01EE210A9FED0C1A00EE810A78
:104B600004BFBDE8F0017047CCF180510160BDE8A1
:104B7000F001B1EE400A7047F01E00000000003660
:104B80000000802C22AAFD29DB0FC92F0000C92FAD
:104B900002E008C8121F08C1002AFAD17047704706
:104BA000002001E001C1121F002AFBD17047000064
:104BB0000149086070470000F8010024B1EE007A56
:104BC000F1EE0C6AF2EE003A62EE077AF2EE045A67
:104BD00022EE267A60EEA36A61EEA53ABAEE0E4A9C
:104BE000F1EE084A21EE844A40EE653A61EEA41ADD
:104BF0002DED028BF2EE0E8AB0EE086A00EE284A26
:104C000040EE641A47EEC33A22EE068A20EEA42A4A
:104C1000B6EE005A07EE034A48EE431A80EC020A49
:104C200042EE433A20EE866A61EE050A23EE030A5D
:104C300006EE834A46EE431A62EE854A40EEC03ADB
:104C400020EE031AC0ED020A00EE804A40EEC01AC0
:104C500021EE032A44EE803A02EEC04A44EE801A66
:104C600062EE030A83EE810A84EE021A80ED030AE3
:104C700081EEA02A80ED041A80ED052ABDEC028B9E
:104C8000704700007CB5F0EE400A9FED051ADDE9A3
:104C900006459FED040ACDE9004500F0ADFA7CBD64
:104CA0000AD7A33C000000002DE9F05FDFA1E34C30
:104CB000DFF880830128E04D04F12009D1E9006785
:104CC000DFF87CA34FF0000B04D002287DD003282E
:104CD0007CD139E10020FEF765F9F2B24046D5ED0E
:104CE000010A02EB8203C3EB0222C6F3072108EBA1
:104CF000820201EB810392ED000AC3EB0123C6F3AC
:104D0000074230EE200A08EB8303310E84ED000ADF
:104D100093ED000AD5ED020A02EB8206C6EB0222F1
:104D200030EE200A00EB820201EB810384ED010AE0
:104D300092ED000AD5ED030AC3EB0121FAB230EE81
:104D4000200A00EB810102EB820384ED020A91ED5F
:104D5000000AD5ED040AC3EB0223C7F3072130EEA6
:104D6000200A00EB830301EB810684ED030A93ED37
:104D7000000AD5ED050AC6EB0121C7F3074230EE64
:104D8000200A00EB810102EB820384ED040A91ED1D
:104D9000000AD5ED060AC3EB0222390E30EE200AD6
:104DA00000EB820201EB810384ED050A92ED000A1B
:104DB000D5ED070AC3EB012130EE200A08EB810094
:104DC00084ED060A90ED000A01E023E01AE0D5ED3B
:104DD000080A00204A46534630EE200A84ED070AAE
:104DE00002EB800104EB800691ED000AD6ED000A8B
:104DF00030EE600AB0EEC00A10EE101A994204DDDF
:104E000085F800B00020BDE8F09F401CC0B2082823
:104E1000E6D307E10120FEF7C5F8F2B24046D5ED32
:104E2000010A02EB8203C3EB0222C6F3072108EB5F
:104E3000820201EB810392ED000AC3EB0123C6F36A
:104E4000074230EE200A08EB8303310E84ED000A9E
:104E500093ED000AD5ED020A02EB8206C6EB0222B0
:104E600030EE200A00EB820201EB810384ED010A9F
:104E700092ED000AD5ED030AC3EB0121FAB230EE40
:104E8000200A00EB810102EB820384ED020A91ED1E
:104E9000000AD5ED040AC3EB0223C7F3072130EE65
:104EA000200A00EB830301EB810684ED030A93EDF6
:104EB000000AD5ED050AC6EB0121C7F3074230EE23
:104EC000200A00EB810102EB820384ED040A91EDDC
:104ED000000AD5ED060AC3EB0222390E30EE200A95
:104EE00000EB820201EB810384ED050A92ED000ADA
:104EF000D5ED070AC3EB01214A46534630EE200A9E
:104F000008EB810084ED060A90ED000AD5ED080A51
:104F10005FF0000030EE200A84ED070A02EB80010A
:104F200004EB800691ED000AD6ED000A30EE600A2F
:104F3000B0EEC00A10EE101A99423FF761AF401C64
:104F4000C0B20828EAD36DE00020FEF72BF83B48FA
:104F50003C49403001F580620E4691ED000AD0EDEB
:104F6000000A01F500630F4606F540668C4630EEF8
:104F7000200A07F5805788460CF5A05C84ED000AEE
:104F800091EDFB0AD0ED010A08F5C05830EE200A79
:104F900084ED010A92EDF60AD0ED020A4A4630EE9F
:104FA000200A84ED020A93EDF10AD0ED030A53467C
:104FB00030EE200A84ED030A96EDEC0AD0ED040AE7
:104FC00030EE200A84ED040A97EDE70AD0ED050AD9
:104FD00030EE200A84ED050A9CEDE20AD0ED060AC7
:104FE00030EE200A84ED060A98EDDD0AD0ED070ABE
:104FF0005FF0000030EE200A84ED070A02EB80012A
:1050000004EB800691ED000AD6ED000A30EE600A4E
:10501000B0EEC00A10EE101A99428EDC401CC0B2ED
:105020000828EBD301202870EDE6000005040706F0
:1050300001000302CC0700241C010024B4860024D4
:10504000000040401C470024F0B50D4D8646EF0798
:10505000F817002311E000BF5EF8236000243A46F1
:1050600000284FEA400000DA6840164200D068404D
:105070005208641C202CF3D35B1C8B42ECD3F0BD94
:10508000B71DC10410B514460B4603E013F8011B0D
:1050900000F004F8641EF9D210BD0000034A41403C
:1050A000C9B232F8111081EA10207047FC6600087E
:1050B00091ED010AD2ED021AD1ED020A92ED011A28
:1050C00020EE210A00EEC10A80ED000A91ED020AED
:1050D000D2ED001AD1ED000A92ED021A20EE210A5B
:1050E00000EEC10A80ED010A91ED000AD2ED011A2D
:1050F000D1ED010A92ED001A20EE210A00EEC10A5C
:1051000080ED020A7047000070B5044690F82C004C
:105110000025FD2803D194F82D00EE2801D0A561CB
:1051200070BD0E22002004F12C01FFF7ABFF618F50
:105130002084814208D0A06AE5622563401C656333
:10514000A563A561A06270BD94F8381094F82E0094
:1051500001F0070694F93750228F00F00F03C0F3D7
:105160000210C4E901562370C2F3CB026070012122
:10517000B4F93100DFED190A01EE900A9FED181A1B
:105180009FED180AF8EEE11A9FED172ADFED172AB6
:1051900061EEA01A61EE811A81EE803A84ED043A44
:1051A000B4F92F0001EE900AF8EEE11A61EEA00AC0
:1051B00020EE800A84ED030AD4F83300C4E9061215
:1051C00000EE100AB8EEC00A20EE010A20EE020A34
:1051D00020EE220A84ED050A70BD00000000803B2D
:1051E000D00FC9405C8FCA4000000038CFD21041B8
:1051F000B0EEC00A704700002DE9F04FBF4C002709
:105200001D4692460E4681462DED0E8BF0EE408AED
:10521000FFB030EEE88AF0EE41AADDF85CB200BFE4
:105220000BEB8700969905EB8702D0ED002A01EB86
:1052300087010AEB870306EB870809EB870C07EB6E
:10524000470091ED002AD2ED001A93ED001AD8ED37
:10525000000A9CED000AB0EE483A04EBC000FFF7EC
:10526000ADFC7F1CFFB2062FDAD3A54F0025B0EEB0
:1052700000BAF0EE08BAB1EE00CAF1EE04CA9FED32
:10528000A19ADFEDA19A07F120089FEDA0DA54AEB4
:10529000E9469FED9FAA07F5FC5A00BF00EE105AA1
:1052A000B0EE688A954A5FF00000B8EE400A31AC73
:1052B00000EE2A8A68EE082A22EE882A62EE081A90
:1052C00021EE884A00EB400106EB800C02EBC101A5
:1052D000431CD1ED000A91ED010A91ED021A91ED06
:1052E000033A40EE080A21EE0B5A63EE2B5AD1ED39
:1052F000043AD1ED054A05EE080A41EE220A23EEF2
:105300008C6A64EEAC6A04EB8001D8B205EEA20AA6
:1053100043EE020A062806EE020A43EEA10A06EE52
:10532000A10A44EE840AC1ED000A8CED000AC9D33B
:1053300031A890EC030A5DA800F0C2FB34A890EC01
:10534000030A6DA800F050FB6DAA5DA944A800F007
:1053500007FDDFF8C0B10024DFED6FEA6D4844A916
:10536000803000EB041000F007FF0BEB0410B0EEF0
:1053700040EAD0ED001AF0EE60DAB0EE418A31EE8C
:10538000C00A8DED400A90ED010A30EE600A8DED05
:10539000410A90ED020A40A830EE410A8DED420A22
:1053A00001F0BEF81DB907EB840080ED000A07EBA1
:1053B0008400022CD0ED000A70EE600A06D0032CA7
:1053C00004D080EE8D1A04EB840003E080EE8A1A8C
:1053D00004EB8400C0EB04213CAA08EB810000EB45
:1053E00085005AA9C1EE090A60EEA90AC0ED000ABB
:1053F000DDED400A39A880EE801A8DED3C1ADDED16
:10540000410A80EE801A8DED3D1ADDED420A80EEF4
:10541000801A8DED3E1A9DED310A3EEE400A8DED6B
:105420005A0A9DED320A3DEEC00A8DED5B0A9DEDF4
:10543000330A38EE400A8DED5C0AFFF739FE04EBC3
:1054400044019DED3C0A09EBC10104EB840381EDAD
:10545000000A9DED3D0AC3EB042081ED010A9DED9C
:105460003E0A0AEB800081ED020A9DED390A00EB4D
:10547000850281ED030A9DED3A0A002081ED040AC0
:105480009DED3B0A81ED050AC2ED00EA022C10D029
:10549000032C0ED001EB800306EB800CD3ED000A49
:1054A0009CED001A92ED000A60EE810A80EE8D1AE2
:1054B0000DE001EB800306EB800CD3ED000A9CEDC0
:1054C000001A92ED000A60EE810A80EE8A1A401CF2
:1054D000C0B2062830EE410A82ED000AD6D3641C21
:1054E000E4B2082CFFF43AAF6D1CADB2FB2DFFF413
:1054F000D5AE7FB0BDEC0E8BBDE8F08F8C4600249E
:10550000AC070024DA0F4940000034435C8F423D71
:1055100060E5503D3C650008000000002DE9F04FBB
:105520005FF0000406462DED108BB0EE408AB0EE21
:10553000649A70EEC88AF0EE449AF0EE63AAB0EE78
:1055400043BAF0EE62BAB0EE42CAB0EE61AAF0EE33
:1055500041EAFDB0C448B0EE683AF0EE492AB0EE38
:10556000692AF0EE6A1AB0EE4B1AF0EE6B0AB0EE52
:105570004C0AFFF723FB641CE4B2062CEAD3DFF8E5
:10558000ECA20025BA4F9FEDBBFADFEDBBFA07F1A5
:1055900020099FEDBA9A0DF5BE7BDFEDB9DAB1EEC9
:1055A0004AEA00BF00EE105AAF48F0EE004AF8EEAB
:1055B000400AB0EE480AD0ED009AD0ED018A00EE24
:1055C000AE0AD0ED021A90ED031AB0EE084A61EE71
:1055D000A44A21EE044A48EE809A60EE000A44EEA6
:1055E000808AD0ED042AF1EE003A90ED052A41EED2
:1055F000A09A60EE801A44EE208A62EEA33AB1EEE1
:10560000043A41EE219A21EE801A43EEA18A22EE5D
:10561000033A21EE000A42EE819A43EE018A42EEFD
:10562000009AB0EE690AFFF767F8D6ED00AA4AEED5
:1056300000AAB0EE690AFFF707F9D6ED01BA96EDB8
:1056400002BA96ED03DA4AEE00BAD6ED04CA96ED38
:1056500005CAB0EE690AFFF7F7F820EE0E0A20EE51
:10566000280A8DED5F0AB0EE690AFFF745F820EED3
:105670000A0AB0EE4B1AF0EE6B0A69A820EE280A6F
:105680008DED600A8DED619A8DED629A8DED639AD4
:105690008DED649AB0EE6A0A00F012FAB0EE4C1A80
:1056A000F0EE6C0AB0EE4D0A4FA800F09DF94FAA3B
:1056B00069A93EA800F054FB00246C483EA9803044
:1056C00000EB041000F058FD0AEB0410B0EE40CAE5
:1056D000D0ED001AF0EE609AF0EE418A31EEC00A89
:1056E0008DED380A90ED010A30EE600A8DED390A31
:1056F00090ED020A38A830EE410A8DED3A0A00F02A
:105700000FFF1DB907EB840080ED000A07EB840052
:10571000022CD0ED000A70EE600A0CD0032C0AD0E7
:105720009FED581A04EB8400C0EB0421C0EE811AEF
:10573000C1EE8F0A07E080EEAD1A04EB8400C0EBE7
:105740000421C1EE0F0A09EB810000EB850079EE20
:10575000EB1A38EECB2A31AA3BA960EEAF0AC0EDB6
:10576000000A9DED381A7CEE6A0A34A8C1EE002AC0
:10577000CDED312A9DED391AC1EE002ACDED322A48
:105780009DED3A1AC1EE002ACDED332ACDED3B0A4C
:10579000CDED3C1A8DED3D2AFFF78AFC04EB440168
:1057A00068469DED310A00EBC101374A04EB8403E2
:1057B00081ED000A9DED320AC3EB04205B4681EDCA
:1057C000010A9DED330A02EB800081ED020A9DED96
:1057D000340A00EB850281ED030A9DED350A0020B5
:1057E00081ED040A9DED360A81ED050A82ED009AED
:1057F000022C14D0032C12D001EB800C03EB800898
:105800009CED001AD8ED001A9FED1E0AD2ED000A99
:1058100021EE211AC1EE001A30EEE10A0FE001EB91
:10582000800C03EB8008DCED000A98ED001A92ED85
:10583000000A60EE810A80EEAD1A30EE410A401C8B
:10584000C0B2062882ED000AD2D3641CE4B2082C50
:10585000FFF433AF6D1CADB2FB2DFFF4A3AE7DB0F2
:10586000BDEC108BBDE8F08F9C8600243C650008E1
:10587000AC070024DA0F4940000034430000000068
:1058800060E5503D5C8F423D2C2700242DE9F0411E
:105890000E4607462DED068BB0EE408AB5EEC08A67
:1058A000F1EE10FA7ED9DFED4A8A4A4C5FF000052E
:1058B000B0EE483A07EB850006EB8502D0ED000A12
:1058C00092ED000A05EB4501F9EE041A30EEC00A2C
:1058D000F0EE680A04EBC100F0EE602AB0EE602A38
:1058E000B0EE601AFFF76AF96D1CEDB2082DDFD338
:1058F0003A4E00209FED380A9FED395AB0EE007AFB
:10590000C8EE003A9FED378AF0EE087AF1EE005AC1
:10591000B1EE044A06F5FB5500EE100A5FF00001F7
:10592000B8EE400A60EE230A60EEA02A22EEA02A1A
:1059300062EE201A61EEA06A01EB410201EB8107E1
:1059400004EBC2034A1CD3ED028A93ED010A93EDE6
:10595000001A28EE879A93ED036A00EE201AD3ED21
:10596000044A09EE200A66EE279A24EEA5AA93EDD2
:10597000053A08EEA21AC7EB012109EEA20A63EE6E
:1059800004AA05EB810306EB810706EE021AD1B2E9
:105990000AEE020A082907EB800203EB80030AEEF5
:1059A000A10A00E010E004EEA11AC0EE054A03EEE1
:1059B000261A82ED001A24EE880A83ED000ABBD372
:1059C000401C80B2FB28A7D3BDEC068BBDE8F0815C
:1059D00000000000DC85002400007A431C470024FE
:1059E00000003443DA0F494010B504462DED068B14
:1059F000F0EE41AAF0EE609AF0EE408AC0B0FEF7F9
:105A00007BFEB0EE408AB0EE680AFEF71DFFF0EEB6
:105A1000408AB0EE690AFEF76FFEB0EE409AB0EE33
:105A2000690AFEF711FFF0EE409AB0EE6A0AFEF73F
:105A300063FEB0EE40AAB0EE6A0AFEF705FF1F490A
:105A40004022F0EE40AA6846FAF779FCB1EE6A0A05
:105A50008DED00AA194940228DED010ACDED04AA71
:105A600040318DED05AA10A8FAF769FC8DED109A6A
:105A700012494022B1EE690ACDED129A8DED180A55
:105A800080318DED1A9A20A8FAF759FCB1EE680A18
:105A90008DED258A8DED260ACDED298A8DED2A8A98
:105AA00010AA694630A800F05BF920AA204630A968
:105AB00000F056F940B0BDEC068B10BD3C66000806
:105AC00080ED030AC0ED070AB7EE002ADFED0F1ADA
:105AD00080ED0B1A80ED002AC0ED011AC0ED021A0C
