:020000040800F2
:1000000050C80024B10200080F3100085128000830
:100010000D310008E9030008393F00080000000026
:100020000000000000000000000000005533000840
:10003000EB030008000000001131000857330008EE
:10004000CF020008CF020008CF020008CF0200084C
:10005000CF020008CF020008CF020008CF0200083C
:10006000CF020008CF020008CF020008CF0200082C
:10007000CF020008CF020008CF020008CF0200081C
:10008000CF020008CF020008CF020008CF0200080C
:10009000CF020008CF020008CF020008CF020008FC
:1000A000CF020008CF020008CF020008CF020008EC
:1000B000FD340008CF020008CF020008CF0200087C
:1000C000CF020008CF020008CF020008CF020008CC
:1000D000CF020008CF020008CF020008CF020008BC
:1000E000CF020008CF02000800000000CF02000885
:1000F000CF020008CF020008CF020008CF0200089C
:10010000CF020008CF020008CF020008CF0200088B
:10011000CF020008CF020008CF020008CF0200087B
:10012000CF020008CF020008CF020008CF0200086B
:10013000CF020008CF020008CF020008CF0200085B
:1001400000000000000000000000000000000000AF
:10015000CF020008CF020008CF020008CF0200083B
:10016000CF020008CF020008CF020008CF0200082B
:10017000CF020008CF020008CF02000800000000F4
:10018000CF020008CF020008CF020008CF0200080B
:10019000CF020008CF020008CF020008CF020008FB
:1001A000CF020008CF020008CF020008CF020008EB
:1001B000CF020008CF020008CF020008CF020008DB
:1001C000CF020008CF020008CF020008CF020008CB
:1001D000CF020008CF020008CF020008CF020008BB
:1001E000CF020008CF020008CF020008CF020008AB
:1001F000CF020008CF020008CF020008CF0200089B
:10020000CF020008CF020008CF020008CF0200088A
:10021000CF020008CF020008CF020008CF0200087A
:10022000CF020008CF020008CF0200080000000043
:10023000CF020008CF02000800000000CF02000833
:10024000CF020008CF020008CF020008CF0200084A
:10025000CF020008CF020008CF020008CF0200083A
:10026000CF020008CF020008CF020008CF0200082A
:10027000CF020008CF020008CF02000800000000F3
:10028000CF020008CF020008CF02000800000000E3
:1002900000000000CF020008DFF810D000F092F854
:1002A00000480047E94C0008AFF3008050C8002424
:1002B000074880470748804707480047FEE7FEE7B2
:1002C000FEE7FEE7FEE7FEE7FEE7FEE7FEE7FEE706
:1002D000F103000805340008990200082DE9F05FD9
:1002E0000546002092469B468846064681464024A5
:1002F0001BE0284641464746224600F053F8534645
:100300005A46C01A914110D311461846224600F0B1
:100310003AF82D1A67EB01084F46224601200021CA
:1003200000F031F817EB00094E41201EA4F1010442
:10033000DFDC484631462A464346BDE8F09F40EAA6
:1003400001039B0703D009E008C9121F08C0042A53
:10035000FAD203E011F8013B00F8013B521EF9D23A
:100360007047D2B201E000F8012B491EFBD2704762
:100370000022F6E710B513460A4604461946FFF771
:10038000F0FF204610BD202A04DB203A00FA02F1DB
:10039000002070479140C2F1200320FA03F3194373
:1003A00090407047202A04DB203A21FA02F0002115
:1003B000704721FA02F3D040C2F120029140084375
:1003C00019467047064C074D06E0E06840F001030F
:1003D00094E8070098471034AC42F6D3FFF760FF6B
:1003E000A0590008C0590008FEE7704772B6FEE742
:1003F000054805490839026842F0020202600868AF
:100400008004FCD5704700000C4802582DE9F84FD5
:1004100003247D4D00234FF001094FF0B04B4FF006
:100420000F0AE9E009FA03F73A4076D00E7906F0B0
:100430000306012E01D0022E18D1D0F808C04FEAD1
:10044000430ECE6804FA0EF82CEA080C06FA0EF6F3
:1004500046EA0C068660D0F804C00E792CEA070C38
:10046000C6F300169E4046EA0C0646600E79F64337
:10047000B6070BD0C6684FEA43088F6804FA08FC39
:1004800026EA0C0607FA08F73743C7600E7906F02C
:100490000306022E12D1DE080F694FEA437C00EBFF
:1004A0008606B646366A4FEADC6C0AFA0CF807FA9A
:1004B0000CF726EA08063743CEF820700F79066855
:1004C0004FEA430807F0030704FA08FC07FA08F7A5
:1004D00026EA0C06374307604E6816F4403F1CD0EE
:1004E0004A4E376847F00207376036689F0706F0C4
:1004F0000206009623F0030606F1B046B6463F0F0B
:10050000D6F80864DFF808810AFA07FC404526EAB5
:100510000C0603D14FF0000C41E06CE0DFF8F4C0B2
:10052000604502D14FF0010C39E0DFF8ECC06045C6
:1005300002D14FF0020C32E0DFF8E0C0604502D19A
:100540004FF0030C2BE0DFF8D8C0604502D14FF02C
:10055000040C24E0DFF8CCC0604502D14FF0050C5C
:100560001DE0DFF8C4C0604502D14FF0060C16E074
:10057000DFF8B8C0604502D14FF0070C0FE0DFF89C
:10058000B0C0604502D14FF0080C08E0DFF8A4C00D
:10059000604502D14FF0090C01E04FF00A0C0CFA53
:1005A00007FC4CEA060CCEF808C44F68DBF8006084
:1005B000FF0226EA020600D516435F46CBF800602C
:1005C000D1F804C0DBF804605FEA8C2C26EA02064E
:1005D00000D516437E606E684F6826EA0206BF03A8
:1005E00000D516436E602E684F6826EA0206FF03A8
:1005F00000D516432E605B1C0A6832FA03F67FF4BE
:1006000011AFBDE8F88F000080000058F444025894
:10061000000002580004025800080258000C02585A
:10062000001002580014025800180258001C02580A
:1006300000200258002402580069084000D0012020
:100640007047000001480068000C70470010005C13
:100650000148806870470000BC000024024881689F
:100660000278114481607047BC000024032010B55B
:1006700000F0D4F801F0AEF80F4A1049146813687E
:10068000C4F3032203F00F038A5CC95C02F01F026B
:1006900001F01F01D0400A4A20FA01F11160094916
:1006A00008600E2000F010F808B1012010BD00F025
:1006B00079F8002010BD0000184402587059000855
:1006C000CC000024C800002470B50D4D04462878E5
:1006D000A0B14FF47A71B1FBF0F00A490968B1FB9F
:1006E000F0F001F01BFC48B9102C07D20022214683
:1006F000501E00F073F800206C6070BD012070BDCA
:10070000BC000024C8000024154BF0B5083B42781B
:1007100013491A600B680A1F23F001030B6043683A
:100720001360057BC67A827A437B2D07847B45EA7A
:100730000665C77B90F809C0067A90F800E045EAA4
:10074000C24040EA834040EA444040EA074040EA71
:100750000C2040EA460040EA0E000860F0BD0000B0
:10076000A0ED00E0BFF35F8F044800210368034A57
:1007700023F48033036070321160704724ED00E091
:10078000074A40F00100064970321060086840F4E2
:1007900080300860BFF34F8FBFF36F8F704700004A
:1007A00024ED00E0054808B5016841F00201016050
:1007B000006800F00200009008BD0000F4440258F8
:1007C000002809DB410900F01F028900012001F126
:1007D000E0219040C1F80001704700000E4BF0B4DA
:1007E0001B680D46C3F30223C3F10706042E00D98C
:1007F0000426191D072901D2002300E0DB1E012475
:1008000004FA06F19C40491E2940641E9940144098
:100810002143F0BC03F0A4BB0CED00E0064900F05E
:10082000070210B54FF6FF040868044B204040EA69
:1008300002201843086010BD0CED00E00000FA052E
:10084000134970B50A68D243520705D5096801F00B
:100850000701814213D118E00A6822F0070202431F
:100860000A60FFF7F5FE0A4D4FF47A760446083D1C
:1008700007E000BFFFF7ECFE001BB04201D90120EA
:1008800070BD2868C0438004F4D4002070BD00000F
:100890000C48025810B500F057FF05490968054A91
:1008A000C1F30211515C01F01F01C84010BD0000EE
:1008B0002044025870590008494930B5484C0B1D76
:1008C0000A68143409681D68246802F00303C5F33C
:1008D0000012C1F30531C4F3CC04002914FB02F269
:1008E00000EE102AF8EE400A75D03F4A9FED3D1AFF
:1008F000B7EE000A6BB1DFED3D1A012B01D0022BE0
:1009000064D002EE101A1168F8EE422A81EEA22A93
:1009100021E0334C283C23689B0612D5344B2468D5
:1009200001EE901A1168C4F3C104F8EE612AE340A5
:1009300001EE903AC1F30801F8EE611A81EEA22AA5
:100940000BE001EE901ADFED2B2A00BFF8EE611AE2
:10095000116882EEA12AC1F3080101EE901A116814
:10096000F8EE611A40EE811A71EE800A62EE200AFA
:10097000C1F3462101EE101AB8EE411A31EE001A09
:10098000C0EE811ABCEEE11A80ED001A1168C1F3C5
:10099000064101EE101AB8EE411A31EE001AC0EE0F
:1009A000811ABCEEE11A80ED011A1168C1F30661EB
:1009B00001EE101AB8EE411A31EE000A80EE801AEC
:1009C000BCEEC10A80ED020A30BD04E001EE901ACF
:1009D000DFED092ABAE70021016041608160F3E799
:1009E0002844025800000039384402580024744A50
:1009F0000090D0030024744C20BCBE4B494930B554
:100A0000484C0B1D0A681C3409681D68246802F0F4
:100A10000303C5F30022C1F30551C4F3CC0400293C
:100A200014FB02F200EE102AF8EE400A75D03F4A9D
:100A30009FED3D1AB7EE000A6BB1DFED3D1A012BB9
:100A400001D0022B64D002EE101A1168F8EE422A8F
:100A500081EEA22A21E0334C283C23689B0612D564
:100A6000344B246801EE901A1168C4F3C104F8EE07
:100A7000612AE34001EE903AC1F30801F8EE611AF1
:100A800081EEA22A0BE001EE901ADFED2B2A00BFC7
:100A9000F8EE611A116882EEA12AC1F3080101EE95
:100AA000901A1168F8EE611A40EE811A71EE800A10
:100AB00062EE200AC1F3462101EE101AB8EE411A87
:100AC00031EE001AC0EE811ABCEEE11A80ED001A78
:100AD0001168C1F3064101EE101AB8EE411A31EE69
:100AE000001AC0EE811ABCEEE11A80ED011A1168FD
:100AF000C1F3066101EE101AB8EE411A31EE000A98
:100B000080EE801ABCEEC10A80ED020A30BD04E01E
:100B100001EE901ADFED092ABAE700210160416079
:100B20008160F3E72844025800000039404402582D
:100B30000024744A0090D0030024744C20BCBE4BA7
:100B40002DE9FE4F0546DFF8E48350F8081B00242A
:100B5000F64FC943019005F12800264608F1240804
:100B6000009008011DD4A86E50B1B0F5801F0CD0C4
:100B7000B0F5001F0ED0B0F5401F1ED001240FE0CD
:100B8000386840F40030386017E00198022102F024
:100B9000C1FA03E00098022102F04CFB04000CD0E3
:100BA00026462888C043C00523D4A86D05281ED238
:100BB000DFE800F00C11161B1B00AA6ED8F800101D
:100BC00021F440111143C8F80010EAE7386840F4F6
:100BD0000030386009E00198002102F09BFA03E040
:100BE0000098002102F026FB044674B100E00124C5
:100BF00026462888C043800528D4E86D80281ED06A
:100C00000CDC90B140280ED114E0AA6DD8F8001089
:100C100021F007011143C8F80010EAE7C02813D0FB
:100C2000B0F5807F10D001240FE0386840F4003028
:100C3000386009E00198002102F06CFA03E00098A6
:100C4000002102F0F7FA04469CB126462888DFF816
:100C5000DC92C04309F12C0940052CD4D5F8A8003A
:100C6000B0F5800F20D00DDCA0B1B0F5001F0FD182
:100C700015E0EA6DD8F8001021F4E0711143C8F8CE
:100C80000010E3E7B0F5C00F13D0B0F5000F10D09F
:100C900001240FE0386840F40030386009E0019822
:100CA000002102F037FA03E00098002102F0C2FAB6
:100CB00004467CB126462888C04300052DD4D5F8CB
:100CC000AC00B0F1007F21D00EDCA8B1B0F1807F84
:100CD00010D116E0D5F8A820D9F8001021F4600151
:100CE0001143C9F80010E6E7B0F1407F13D0B0F12E
:100CF000806F10D001240FE0386840F40030386075
:100D000009E00198002102F005FA03E000980021B3
:100D100002F090FA044674B126462868C043800168
:100D20001FD4E86CD8B110280FD0202812D030285A
:100D300015D0012414E0D5F8AC20D9F8001021F02A
:100D4000E0611143C9F80010E7E7386840F400306B
:100D5000386004E00198022102F0DCF9044674B125
:100D600026462888C043C0042BD4286EB0F5005F07
:100D700020D00DDCA0B1B0F5805F0FD115E06B483D
:100D8000EA6C2030016821F0300111430160E8E78E
:100D9000B0F5405F13D0B0F5804F10D001240FE0C4
:100DA000386840F40030386009E00198002102F012
:100DB000B1F903E00098002102F03CFA04468CB13E
:100DC00026462888C043800429D4686EB0F5403F89
:100DD00023D010DC08B3B0F5803F14D0B0F5003F4D
:100DE0000FD115E02A6ED8F8001021F4E04111432C
:100DF000C8F80010E5E7B0F5802F0ED0B0F5A02FB1
:100E00000BD001240AE00198012102F083F903E0EC
:100E10000098012102F00EFA044694B12646288873
:100E2000C04340042AD4D5F8B000B0F1405F23D0CD
:100E300010DC08B3B0F1805F14D0B0F1005F0FD1C7
:100E400015E06A6ED8F8001021F4E0211143C8F8CB
:100E50000010E4E7B0F1804F0ED0B0F1A04F0BD0FE
:100E600001240AE00198012102F054F903E00098FE
:100E7000012102F0DFF9044674B126462888C043F8
:100E800000041FD4286FD8B1B0F1805F0ED0B0F14C
:100E9000005F10D0012414E0D5F8B020D9F800107C
:100EA00021F0E0411143C9F80010E7E7386840F449
:100EB0000030386004E00198012102F02BF904466B
:100EC00074B126462868C043C0011ED4A86CD0B1B6
:100ED00001280ED0022811D0032814D0012413E0D9
:100EE0002A6FD8F8001021F040511143C8F80010C3
:100EF000E8E7386840F40030386004E001980221E7
:100F000002F008F90446ACB126462868DFF81CB0A8
:100F1000C043ABF11C0B400252D40548016841F4B8
:100F200080710160FFF794FB824611E02C44025867
:100F300000480258FA48AA6C016821F003011143E5
:100F40000160E2E7FFF784FBA0EB0A00642835D8D4
:100F5000F4480068C005F5D58CBBDFF8C4A3B5F82C
:100F6000B4100AF1240ADAF8000001F4407100F428
:100F70004070884211D0DAF80010DAF8002021F42D
:100F8000407142F48032CAF80020DAF8002022F4DE
:100F90008032CAF80020CAF80010D5F8B400B0F5C5
:100FA000807F1AD1FFF754FB029012E0FFF750FB4D
:100FB0000299411A41F2883081420AD90324264617
:100FC0002878DFF85CA3C0430AF1080AC00721D0E3
:100FD0003CE0DAF800008007E8D5D5F8B410C1F39A
:100FE0000120032858460DD0016821F47C5101608E
:100FF000B5F8B420DAF80010C2F30B021143CAF8B6
:101000000010DDE7C84A036802EA111223F47C519C
:101010001143ECE7E86F182816D005DCA0B10828CA
:1010200008D0102804D10AE020280DD028280BD0A1
:1010300001240AE00198012102F06CF803E0009815
:10104000012102F0F7F8044664B126462878C0432F
:1010500080071ED4A86F062819D2DFE800F0160C0E
:1010600011161616EA6FDAF8001021F03801114354
:10107000CAF80010EAE70198012102F04BF803E0FA
:101080000098012102F0D6F804467CB100E001246A
:1010900026462878C04340071FD4D5F89400062878
:1010A00019D2DFE800F0160C11161616AA6FDAF83E
:1010B000001021F007011143CAF80010E9E7019878
:1010C000012102F027F803E00098012102F0B2F8B4
:1010D0000446A4B100E0012426462878C0438006D7
:1010E0002BD4D5F89000B0F1405F24D011DC10B3C0
:1010F000B0F1805F15D0B0F1005F10D116E0D5F8E7
:101100009420D9F8001021F007011143C9F800100C
:10111000E3E7B0F1804F0ED0B0F1A04F0BD0012427
:101120000AE00198002101F0F5FF03E00098022198
:1011300002F080F8044694B126462878C043400661
:101140002BD4D5F89C00B0F5406F24D011DC10B33F
:10115000B0F5806F15D0B0F5006F10D116E0D5F85E
:101160009020DAF8001021F0E0411143CAF8001095
:10117000E3E7B0F5805F0ED0B0F5A05F0BD001249F
:101180000AE00198002101F0C5FF03E00098022168
:1011900002F050F8044694B126462878C043000671
:1011A0002BD4D5F8A000B0F5C04F24D011DC10B37B
:1011B000B0F5005F15D0B0F5804F10D116E0D5F82E
:1011C0009C20D9F8001021F4E0511143C9F8001017
:1011D000E3E7B0F5004F0ED0B0F5204F0BD001245F
:1011E0000AE00198002101F095FF03E00098022138
:1011F00002F020F8044654B126462878C043000780
:101200001ED4D5F88400B0F5805F0AD00FE0D5F881
:10121000A020D9F8001021F460411143C9F8001052
:10122000EBE70098022102F005F800B10126D5F89D
:101230008420DAF8001021F440511143CAF800105C
:101240002878C043C00613D4D5F89800B0F5807F45
:1012500005D10098022101F0EDFF00B10126D5F87B
:101260009820D9F8001021F440711143C9F80010FA
:101270002868C043000316D4D5F8A40038B1B0F5EF
:10128000803F09D0B0F5003F0BD001240AE001985F
:10129000002101F03FFF03E00098022101F0CAFFA6
:1012A00004468CB126462868C043400322D4D5F8B2
:1012B0008800B0F5801F11D0B0F5001F13D0B0F535
:1012C000401F15D0012414E0D5F8A420D9F800104F
:1012D00021F440311143C9F80010E4E7386840F4C4
:1012E0000030386004E00098012101F0A3FF0446BB
:1012F0005CB126462868C043C00323D4286DA8B13A
:10130000B0F5803F17D001241BE0D5F88820DAF82B
:10131000001021F440111143CAF80010EAE7000060
:101320004C44025800480258CFFFFF00386840F490
:101330000030386004E00198022101F0EBFE044621
:10134000E4B126462868C043800005D400980221F5
:1013500001F070FF00B101262868C04380031BD450
:10136000D5F88000B0B1B0F5807F0FD0B0F5007F28
:1013700010D0B0F5407F0DD001240CE05A482A6D02
:10138000016821F4803111430160DBE7386840F4E3
:1013900000303860ECB326462868C043C00207D44A
:1013A0006A6FD8F8001021F000411143C8F800100E
:1013B0002868C043C00008D4D5F8B820DBF8001076
:1013C00021F480411143CBF800102868C04380020B
:1013D00007D4EA6ED8F8001021F080711143C8F8E4
:1013E00000102868C04340000CD4DBF8001021F442
:1013F0000041CBF80010DBF80010D5F8BC201143F9
:10140000CBF800102868C04308D437486A6D0168DB
:1014100000E018E021F04051114301602868C0430A
:10142000000208D4D5F88C20DAF8001021F440012D
:101430001143CAF8001028790024C04300F00100CD
:1014400020430AD00FE0D5F88020DAF8001021F40C
:1014500040711143CAF800109EE70198002101F085
:1014600059FE00B106462879C04300F0020020432F
:1014700005D10198012101F04DFE00B10646287901
:10148000C04300F00400204305D10198022101F07F
:1014900041FE00B106462879C04300F00800204311
:1014A00005D10098002101F0C5FE00B1064628795B
:1014B000C04300F01000204305D10098012101F045
:1014C000B9FE00B106462879C04300F0200004436D
:1014D00004D10098022101F0ADFE00B916B101203F
:1014E000BDE8FE8F0020FBE74C4402582DE9F05F79
:1014F00004000F467ED0DFF83882D8F8000000F0F4
:101500000F00B8420CD2D8F8001021F00F01394377
:10151000C8F80010D8F8000000F00F00B84269D1F8
:101520002078844D40070AD52069296801F07001B0
:10153000884204D9296821F070010143296020788C
:101540007C4E361D00070AD56069316801F07001D4
:10155000884204D9316821F070010143316020785C
:10156000C0060AD5A069316801F4E061884204D957
:10157000316821F4E061014331602078DFF8B4B1D3
:1015800080060BF1080B0CD5E1695846DBF800200A
:1015900002F07002914204D9026822F070020A43FC
:1015A0000260207880070AD5E068296801F00F0101
:1015B000884204D9296821F00F010143296020786D
:1015C000C0073ED05B49A2682868183920F47060D3
:1015D000104328606068022818D0032819D00968D1
:1015E000012819D0490700294ADADFF848A1AAF1F1
:1015F000080A00E044E0DAF8002022F00702024383
:10160000CAF80020FFF724F8814612E00968890330
:10161000E9E709688901E6E7C905E4E7FFF718F893
:10162000A0EB090141F28830814202D90320BDE8D4
:10163000F09F6168DAF8000000F03800B0EBC10FED
:10164000ECD1207880070AD5E068296801F00F0105
:10165000884204D2296821F00F0101432960D8F89B
:101660000010404601F00F01B9420BD9016821F08A
:101670000F0139430160006800F00F00B84201D04B
:101680000120D4E7207840070AD52069296801F0B5
:101690007001884204D2296821F070010143296059
:1016A000207800070AD56069316801F0700188422E
:1016B00004D2316821F07001014331602078C00606
:1016C0000AD5A069316801F4E061884204D231682A
:1016D00021F4E06101433160207880060CD5E16996
:1016E0005846DBF8002002F07002914204D20268F2
:1016F00022F070020A43026000F06CF80E492A687A
:101700002B68C2F3032203F00F038A5CC95C02F06A
:101710001F0201F01F01D040084A20FA01F11160B8
:101720000749086007480068BDE8F05FFEF7CCBFD6
:10173000002000521844025870590008CC000024C0
:10174000C8000024C000002430B500F043F80B4A64
:101750000B490C4B15681468C5F3032204F00F0401
:101760008A5C095D02F01F0201F01F01D040064AA9
:1017700020FA01F119601060084630BD1844025883
:1017800070590008CC000024C800002400B5FFF701
:10179000DBFF05490968054AC1F30211515C01F0FC
:1017A0001F01C84000BD00001C44025870590008C9
:1017B00000B5FFF7C9FF05490968054AC1F30221D1
:1017C000515C01F01F01C84000BD00001C440258DC
:1017D00070590008454970B545480968434B103BAE
:1017E00011F0380208D00111082A03D0102A0BD0BA
:1017F000182A0BD0084670BD19688906FBD51968F0
:10180000C1F3C101C84070BD3A4870BD3749374D7A
:1018100018310C1D24350A68096826682D6802F005
:10182000030406F00102C1F30511C5F3CC0515FB55
:1018300002F200EE102AB8EE400AE9B32F4ADFEDBB
:101840002E0AB7EE001A6CB1DFED2D1A012C01D073
:10185000022C43D002EE101A1068F8EE422A81EEF4
:10186000A22A1EE01C68A40611D51B6801EE901A7E
:101870001168C3F3C103F8EE612AD84001EE900A63
:10188000C1F30800F8EE611A81EEA22A0BE001EE26
:10189000901ADFED1C2A00BFF8EE611A106882EE84
:1018A000A12AC0F3080001EE900AF8EE611A40EE9A
:1018B000201A31EE810A00E015E022EE000A1068DD
:1018C000C0F34620401C00EE900AF8EE600A80EE5D
:1018D000201ABCEEC10A10EE100A70BD01EE901A7B
:1018E000DFED092AD8E7002070BD0000104402583F
:1018F0000090D00340787D01000000393044025848
:101900000024744A0024744C20BCBE4B2DE9F05FC7
:1019100004007DD0FF4F2078FE4D1837DFF8F49398
:10192000103DC00748D0D9F80000396800F03800F1
:10193000102815D0182803D101F0030002280FD079
:101940006068B0F5803F12D010B1B0F5A02F18D06C
:10195000286820F480302860286820F4802009E07E
:101960002868800328D560680028D2D024E0286841
:1019700040F480302860606888B1FEF769FE064652
:1019800009E0286840F480202860F0E7FEF760FE58
:10199000801B64286FD828688003F7D50CE0FEF719
:1019A00057FE064605E000BFFEF752FE801B642886
:1019B000F0D828688003F7D4207841F20308D54E88
:1019C0000C3E800769D5D9F80000396810F038005E
:1019D0000ED0182801D188070AD0E06890B3296892
:1019E00021F0190101432960FEF732FE824631E001
:1019F0002868400702D5E06800288AD0E168286896
:101A000020F0190008432860FEF722FE824607E016
:101A1000DFE000BFFEF71CFEA0EB0A000228B9D8E9
:101A200028684007F6D500BFFEF70CFE40451BD8DE
:101A30002069402812D0316821F47C3141EA00301D
:101A400030602AE018E000BFFEF702FEA0EB0A00BB
:101A500002289FD828684007F6D5E5E7306820F4CB
:101A60007C3040F40030EBE7207C316821F0FE410F
:101A700041EA0060E4E70DE1286820F001002860F9
:101A8000FEF7E6FD824605E0FEF7E2FDA0EB0A0068
:101A900002288DD828684007F6D42078C0065DD586
:101AA000D9F80000DFF86CB2396800F03800ABF10B
:101AB000040B082810D0182803D101F003000128D6
:101AC0000AD0E0690028286838D040F080002860FB
:101AD000FEF7BEFD824623E02868C00523D5E069F5
:101AE000802876D11FE0206A202821D0316821F09B
:101AF000F84141EA8060306030E000BF94F8201087
:101B0000DBF8002022F07C5242EA0161CBF80010A1
:101B100024E000BFFEF79CFDA0EB0A00022898D845
:101B20002868C005F6D5FEF78DFD4045E6D8DAE712
:101B3000306820F0F84040F08040DCE720F0800082
:101B40002860FEF785FD064605E000BFFEF780FD34
:101B5000801B02289DD82868C005F7D4207800078C
:101B600029D56C486169643000298046016811D02C
:101B700041F001010160FEF76BFD064605E000BF84
:101B8000FEF766FD801B0228C9D8D8F80000800740
:101B9000F6D510E021F001010160FEF759FD06467F
:101BA00005E000BFFEF754FD801B022872D8D8F86C
:101BB00000008007F6D42078800623D5A06900288D
:101BC000286810D040F480502860FEF741FD06469A
:101BD00005E036E1FEF73CFD801B02285AD8286854
:101BE0008004F7D50EE020F480502860FEF730FD29
:101BF000064604E0FEF72CFD801B02284AD8286820
:101C00008004F7D4207840074FD5DFF80C81D8F84E
:101C1000001041F48071C8F80010FEF719FD064667
:101C200005E000BFFEF714FD801B642832D8D8F809
:101C30000000C005F6D5374EA068603601280AD0EE
:101C400008B1052813D0306820F0010030603068FA
:101C500020F0040002E0306840F001003060A0682D
:101C600041F2883A90B1FEF7F3FC80460AE0306812
:101C700040F004003060EEE7FEF7EAFCA0EB08015C
:101C8000514507D830688007F6D50EE0FEF7E0FC36
:101C9000804607E084E000BFFEF7DAFCA0EB080115
:101CA00051457DD830688007F6D4606AB0B3DFF85C
:101CB0006480D9F8001008F120084FF6F87B08F18D
:101CC0000409C1F3C2010329A8F1040A69D002285A
:101CD000286820F08070286003D0FEF7B9FC044625
:101CE00084E0FEF7B5FC064605E000BFFEF7B0FC59
:101CF000801B022877D828688001F7D4E26A40F276
:101D0000F331386854F8283F884340EA02101843FA
:101D1000386004E01044025800480258B5E0217BC6
:101D2000434622894FF4FE0C208A4FF0FE474902B9
:101D3000267D521E401EA1F50071C2F308088AB22A
:101D4000761E0CEA004042EA08020243504607EAC7
:101D500006610A431A60DAF8002022F00102CAF88C
:101D60000020D9F80020266A22EA0B0242EAC602C5
:101D7000C9F80020DAF80010A26921F00C01114323
:101D8000CAF800100168E26921F002011143016004
:101D9000016841F480310160016841F4003101E0E3
:101DA00021E027E00160016841F4802101600168C1
:101DB00041F001010160286840F080702860FEF762
:101DC00047FC044605E000BFFEF742FC001B02286A
:101DD00009D828688001F7D557E000BFFEF738FC26
:101DE000001B022802D90320BDE8F09F286880016B
:101DF000F4D44AE039680128D8F8000021D0A26A5A
:101E000001F0030393421CD1E26AC1F305118A4237
:101E100017D1216BC0F30802491E8A4211D1616BB0
:101E2000C0F34622491E91420BD1A16BC0F306427A
:101E3000491E914205D1E16BC0F30660491E814203
:101E400001D00120D0E7A16C4E46D9F80000C0F3C4
:101E5000CC00814219D0DAF80000554620F001008C
:101E6000CAF80000FEF7F4FB4FEA0007FEF7F0FBAC
:101E7000B842FBD0A26C306820EA0B0040EAC200F6
:101E80003060286840F0010028600020ACE70000C6
:101E90002DE9F04104001D4616460F4603D0D4F844
:101EA000880018B108E00120BDE8F081002084F826
:101EB0008400204600F0D0FA2420C4F8880020686E
:101EC000016821F001010160A06A10B1204601F013
:101ED0002FFD204601F010FE0128E5D02068710595
:101EE0000D4A41EA0541836843F4804383602068DA
:101EF000836823F400433B438360206803681340F6
:101F00000B4303602068016841F001010160204635
:101F1000BDE8F04101F070BDFFFF00FC401EB0F1D4
:101F2000807F10B501D3012010BD4FF0E024606127
:101F30000F21601702F014F80020A0610721216131
:101F400010BD704770477047F0B590F83C20012AEB
:101F50003BD01F4E012480F83C40022280F83D20F7
:101F600002681C4D5368B242D2F808C001D0AA42A0
:101F700003D14F6823F470033B430F6823F07003D1
:101F80001F4357600268B24213D0B2F1804F10D0A5
:101F9000114B9A420DD0114B9A420AD0104B9A42E3
:101FA00007D0AA4205D00F4B9A4202D00E4B9A425C
:101FB00004D189682CF0800319439160002180F8D6
:101FC0003D4080F83C100846F0BD0220F0BD000006
:101FD00000000140000401400004004000080040EF
:101FE000000C0040001800400040014010B5040003
:101FF00003D094F83D0010B107E0012010BD00208F
:1020000084F83C00204600F023F8022084F83D00CC
:102010002068211D01F078FA012084F8480084F836
:102020003E0084F83F0084F8400084F8410084F8C2
:10203000420084F8430084F8440084F8450084F8A2
:10204000460084F8470084F83D00002010BD0000E1
:1020500008B50068B0F1804F12D10A48016841F01C
:1020600001010160006800220F2100F001000090D2
:102070001C20FEF7B3FBBDE808401C20FEF7A0BB08
:1020800008BD0000E844025890F83D10012901D035
:1020900001207047174A022180F83D100168CB6883
:1020A00043F00103CB600068904214D0B0F1804F40
:1020B00011D0114988420ED0104988420BD01049E6
:1020C000884208D00F49884205D00F49884202D083
:1020D0000E49884207D181680D4A1140062906D071
:1020E000B1F5803F03D0016841F00101016000209B
:1020F000704700000000014000040040000800405C
:10210000000C004000040140001800400040014065
:102110000700010070B5044690F83C000025012836
:1021200014D03A4B012684F83C60022084F83D002C
:1021300022689068184020F47F40906008687028FA
:102140002FD010DC10F00F0F03D022E04FF0020070
:1021500070BD4FEA2012072A1BD2DFE802F053536A
:1021600053534B394100B0F1101F4BD009DCB0F58F
:10217000805F0FD0B0F5005F1ED0B0F5801F08D192
:1021800040E0A0F5801120393CD010293AD0202918
:1021900038D0012584F83D60002084F83C002846B2
:1021A00070BD4A682068D1E9021301F013FA206873
:1021B000816841F0770109E04A682068D1E902139B
:1021C00001F008FA2068816841F480418160E1E70C
:1021D000CA684968206801F011FA2068502106E0B9
:1021E000CA684968206801F01AFA2068602101F085
:1021F000FBF9CFE7CA684968206801F0FFF9206859
:102200004021F4E7226801461046F0E788FFCEFF40
:1022100070472DE9F041044600680027C66805694B
:10222000A90713D5B10711D5FA1E02610121217743
:10223000206880698007204602D0FFF7E9FF04E0AC
:1022400000F08BF8204600F089F82777680716D54C
:10225000700714D5226802206FF004011161207705
:102260002068806910F4407F204602D0FFF7D0FF3D
:1022700004E000F072F8204600F070F82777280795
:1022800015D5300713D5226804206FF008011161BD
:1022900020772068C0698007204602D0FFF7B8FF8A
:1022A00004E000F05AF8204600F058F82777E806D6
:1022B00016D5F00614D5226808206FF010011161C0
:1022C00020772068C06910F4407F204602D0FFF7D5
:1022D0009FFF04E000F041F8204600F03FF8277728
:1022E000E80708D0F00706D021686FF00100086108
:1022F000204600F034F8280601D4A80408D530069A
:1023000006D521686FF4025008612046FFF71AFED7
:10231000E80508D5300606D521686FF4807008619D
:102320002046FFF70EFE680608D5700606D5216820
:102330006FF040000861204600F01DF8A8060AD59D
:10234000B00608D521686FF0200008612046BDE87E
:10235000F041FFF7F8BDBDE8F0817047704710B558
:102360000068B0F1804F05D100F00AFDBDE81040D3
:1023700001F068B910BD704730B590F8841001299C
:1023800018D0012280F884202421C0F8881000226F
:10239000202401680B680D6823F0005325F0010527
:1023A0000D60426601680B60C0F8884080F88420A8
:1023B000104630BD022030BD70B5044690F8840050
:1023C00001281DD0012284F884202420C4F888002C
:1023D00020680568026822F00102026020688268B5
:1023E00022F060620A438260204601F07FFA226890
:1023F000202100201560C4F8881084F8840070BD86
:10240000022070BD70B5044690F8840001281DD0EC
:10241000012284F884202420C4F8880020680568FC
:10242000026822F0010202602068826822F06042A5
:102430000A438260204601F059FA226820210020D8
:102440001560C4F8881084F8840070BD022070BD47
:10245000D0F89000704700002DE9F04FB7B08046EB
:10246000142130A8FDF784FFC0216846FDF780FFE6
:10247000884D012789490224D8F80000083D854E7F
:102480004FF4004ADFF810B288424FF008094FF0CD
:10249000000836D10020CDF878800222CDE9002056
:1024A0006846FEF74DFB08B1FDF7A0FF306840F429
:1024B00000203060306800F400203590286840F03B
:1024C00001002860286830A9CDE9307400F00100CF
:1024D0004D46CDE932845E46CDE934905846FDF74D
:1024E00095FF30AA06214FF4006082E89100CDE903
:1024F000334130A93046FDF789FFCDE930A432944D
:102500003DE06749884244D10021CDF8788002221D
:102510006846CDE90021FEF713FB08B1FDF766FF21
:10252000306840F000403060306800F00040359086
:10253000286840F008002860286800F008003590FE
:10254000286840F010002860286830A9CDE930A440
:1025500000F010004D4632943394CDE93490514848
:10256000FDF754FF504E30A9CDE930743297304614
:10257000CDE93345FDF74AFF3094CDE93148CDE947
:10258000334530A9304600BFFDF740FF37B0BDE806
:10259000F08F4649884244D10020CDF87C8001214B
:1025A000CDE900106846FEF7CBFA08B1FDF71EFF33
:1025B00038480830016841F010010160006800F0FF
:1025C00010003590286840F002002860286800F06C
:1025D00002003590286840F0010028602868042532
:1025E00030A9334E00F001003590280381E8110135
:1025F000CDE933453046FDF709FFCDF8C0A030A93D
:10260000CDE93147CDE933453046FDF7FFFEA9025C
:1026100032940720CDE9301430A9CDE93340584633
:10262000B2E724498842B1D10021CDF87880022256
:102630006846CDE90021FEF783FA08B1FDF7D6FE22
:10264000306840F400303060306800F4003035907D
:10265000286840F00100286028680725309430A9D8
:1026600000F001005E4631943294CDE93450584672
:102670003394FDF7CBFE30A9042081E81101CDE9A8
:1026800033453046FDF7C2FECDF8C090CDE9314765
:1026900075E70000E844025800000258004C004072
:1026A000007C0040000C025800100258001001404D
:1026B00000040258004400402DE9F84F0446D0F8C9
:1026C0008C009B4616460D46202802D00220BDE80D
:1026D000F88FC5B1BEB10027C4F890702220C4F8AD
:1026E0008C00E7662034FDF7B3FF824654F8180CDF
:1026F000A6874FF48053E687FF21203C984207D1FC
:10270000226912B119E00120E1E740F2FF1114E063
:102710004FF07F0278B1B0F1805F11D0A4F8607003
:102720009842B4F860704FF0200801D1206970B170
:102730002E4600250CE0266936B9A4F86010EFE7B4
:10274000216909B13F21F8E7A4F86020E8E70026F5
:1027500007F0FF09B4F85E00F0B1002253462021D3
:102760002046CDF800B001F09DFB18B1C4F88C8074
:102770000320ACE72068406A56B100EA090006F879
:10278000010B00BFB4F85E00401EA4F85E00E1E754
:10279000384025F8020BF5E7C4F88C80002096E756
:1027A0002DE9F8430446D0F88800984616460D46B1
:1027B000202802D00220BDE8F883A5B19EB10021F7
:1027C000C4F890102120C4F888001834FDF740FFA9
:1027D000814654F8100CA687E6872027183CB0F5F0
:1027E000805F02D003E00120E5E7206910B12E46AA
:1027F000002510E000260EE08021204601F052FB6B
:10280000C0B9DEB116F8010B21688862B4F8560031
:10281000401EA4F85600B4F856004B464FF0000294
:10282000CDF800800028E7D14FF04001204601F0AC
:1028300039FB48B1C4F888700320BCE735F8020BB7
:102840002168C0F30800E0E7C4F888700020B2E710
:10285000FEE7000010B5364B0021364A04462DED48
:10286000028B82B09FED308ADFED308A009001202C
:10287000F0EE480AB0EE680A00F0D8F801212C4BBF
:102880002C4A0846F0EE480AB0EE680A009400F0C0
:10289000CDF8274B0021274A0220F0EE480AB0EE7F
:1028A000680A009400F0C2F8214B0121214A02205D
:1028B000F0EE480AB0EE680A009400F0B7F81C4B3E
:1028C00000211C4A0320F0EE480AB0EE680A00948A
:1028D00000F0ACF8164B0121164A0320F0EE480A2E
:1028E000B0EE680A009400F0A1F89FED138ADFEDC6
:1028F000138A0F4B00210F4A0420F0EE480AB0EE75
:10290000680A009400F092F8094B0121094A04205A
:10291000F0EE480AB0EE680A009400F087F802B0C2
:10292000BDEC028B10BD0000CDCCCC3D5839B43C81
:1029300004260024A40600246F12833A3D0A573E61
:1029400010B5364B0021364A04462DED028B82B07D
:102950009FED308ADFED308A00900120F0EE480ACA
:10296000B0EE680A00F026F901212C4B2C4A0846EB
:10297000F0EE480AB0EE680A009400F01BF9274B0D
:102980000021274A0220F0EE480AB0EE680A0094BF
:1029900000F010F9214B0121214A0220F0EE480AF3
:1029A000B0EE680A009400F005F91C4B00211C4AA7
:1029B0000320F0EE480AB0EE680A009400F0FAF83E
:1029C000164B0121164A0320F0EE480AB0EE680AC1
:1029D000009400F0EFF89FED138ADFED138A0F4BA0
:1029E00000210F4A0420F0EE480AB0EE680A009475
:1029F00000F0E0F8094B0121094A0420F0EE480AF2
:102A0000B0EE680A009400F0D5F802B0BDEC028B7D
:102A100010BD0000CDCCCC3D5839B43C54650024E9
:102A2000F44500246F12833A3D0A573E2DE9F041E8
:102A3000F0EE601AB0EE401A04469FED530A0128EA
:102A4000069F4FF00000F0EE400A064613D0022C1D
:102A500014D0032C15D0042C72D14C4E4C4D00BF19
:102A600002EB870203EB87034A4F69B1012944D087
:102A7000042C41D06DE04848484DF1E74848494DA5
:102A8000EEE74948494DEBE7012C06D0022C11D066
:102A9000032C1CD0042C5CD120E002F58052D7ED31
:102AA000000A92EDE70A03F5805330EE200AD3EDD9
:102AB000E70A4EE002F5C052D7ED020A92EDDD0AB8
:102AC00003F5C05330EE200AD3EDDD0A41E092ED6C
:102AD000FB0AD3EDFB0A97ED042A2CE002F5006215
:102AE00003F5006392EDF10A97ED062AD3EDF10AA2
:102AF00032EE400AF1EE600A3FE0012C06D0022CD3
:102B00000FD0032C1DD0042C23D12AE002F5406203
:102B100003F5406392EDEC0A97ED012AD3EDEC0A40
:102B200009E002F5A05203F5A05392EDE20A97EDF9
:102B3000032AD3EDE20A32EE400AF1EE600A08E021
:102B40001FE092ED000A97ED052AD3ED000A30EE62
:102B5000020A02F087F921462846BDE8F04102F05A
:102B60006DBB02F58062D7ED070A92EDF60A03F518
:102B7000806330EE200AD3EDF60A304602F07CF88E
:102B8000E9E7BDE8F0810000000000009C0100249E
:102B90000086002410000024D4000024288700248C
:102BA00016010024BC8700245801002494860024C8
:102BB000704700002DE9F041F0EE601AB0EE401AC7
:102BC00004469FED460A0128069F4FF00000F0EEF4
:102BD000400A064612D0022C13D0032C14D0042C29
:102BE0007AD13F4E3F4D00BF02EB870203EB8703D4
:102BF00069B1012938D0042C69D058E03A483B4DDE
:102C0000F2E73B483B4DEFE73B483C4DECE7012CFE
:102C100006D0022C09D0032C10D0042C47D116E08A
:102C200092ED000AD3ED000A41E002F5806203F55F
:102C3000806392EDF60AD3EDF60A38E002F54062C1
:102C400003F5406392EDEC0AD3EDEC0A22E002F5C5
:102C5000A05203F5A05392EDE20AD3EDE20AB1EEE1
:102C6000400AF1EE600A32E0012C06D0022C09D0B5
:102C7000032C14D0042C1AD121E092EDFB0AD3EDE1
:102C8000FB0A07E002F5006203F5006392EDF10A2A
:102C9000D3EDF10AB1EE400AF1EE600A07E002F569
:102CA000805203F5805392EDE70AD3EDE70A02F074
:102CB000D9F821462846BDE8F04102F0BFBA02F536
:102CC000C05203F5C05392EDDD0AD3EDDD0A304664
:102CD00001F0D2FFEDE7FFE7BDE8F0810000000062
:102CE0009C01002400860024D400002428870024AE
:102CF00016010024BC870024580100249486002477
:102D000001484078704700003000002401480078F6
:102D100070470000300000241848002110B501223F
:102D2000847C6038012C03780BD0CBB1134B543B1F
:102D30009B7C012B13D0114A383A927C012A1BD07C
:102D40000EE02BB1017041708180C180018107E0EC
:102D5000027041708180C18001818270E6E742701B
:102D6000064A1C3A927C012A05D103224270017066
:102D70008180C180018110BD0222F0E79000002413
:102D8000094810B500F012F807481C3000F00EF8A2
:102D90000548383000F00AF80348543000F006F8CF
:102DA000BDE81040FFF7B8BF3C00002470B5818833
:102DB00004460068FDF740FCE0B10025FDF748FC43
:102DC000227E01460020A074AA4205D062699AB111
:102DD0008A1A142A01D3257660610123A679227EFE
:102DE00066B10225012E10D0022E20D0032E35D040
:102DF000A07170BD0125E1E76161EEE7002AF8D01E
:102E0000A160A3712074607470BDA66840F2DC50AC
:102E10008E1B864204D30320A0716374A07470BD1E
:102E2000002AFCD1207CE160401CA57119E0E66815
:102E30008E1BB6F5967F0CD3217C012902D0022986
:102E400002D002E0A37400E0A574A0712074E060D9
:102E500070BD002AFCD0A160A37170BD002AFCD116
:102E6000A071207470BD000000B587B014216846C1
:102E7000FDF77EFA1948016841F010010160016810
:102E800001F010010591016841F0800101600168C5
:102E900001F080010591016841F0010101600168C4
:102EA00001F001010591016841F002010160016832
:102EB00001F002010591016841F00801016000681C
:102EC0000021012200F0080005903C208DE8070059
:102ED00003486946FDF79AFA07B000BDE04402587E
:102EE0000010025830B587B01748002444F61F631D
:102EF000EF2200944FF080410194802502940394C6
:102F000004940594069480E816008561C0E90334B2
:102F1000FFF76CF808B1FDF769FA4FF480500090A4
:102F200009486946FFF7F6F808B1FDF75FFA064869
:102F300004A904940694FFF707F8002801D0FDF7D0
:102F400055FA07B030BD0000B485002418480021B0
:102F500010B5164C0C22174B0460C0E90131C1605A
:102F60000B46C0E9041281610A46C16101624162F7
:102F70008162FEF78DFF08B1FDF738FA0C48002199
:102F8000FFF740FA08B1FDF731FA09480021FFF7D1
:102F900013FA08B1FDF72AFA0548FFF7EDF9002802
:102FA00003D0BDE81040FDF721BA10BD004C004031
:102FB0000086002400093D0070B51C480C221C4C02
:102FC0000021194BC0E9003481603023C1604FF407
:102FD0008054C0E9041281616500C1610162C0E9E9
:102FE00009130023C0E90F451A461946FEF750FFA2
:102FF00008B1FDF7FBF90D480021FFF703FA08B10E
:10300000FDF7F4F909480021FFF7D6F908B1FDF7FB
:10301000EDF90648FFF7B0F9002803D0BDE870408D
:10302000FDF7E4B970BD0000007C004094860024E8
:10303000003E49001848002110B5164C0C22174BD1
:103040000460C0E90131C1600B46C0E9041281612E
:103050000A46C161016241628162FEF719FF08B14F
:10306000FDF7C4F90C480021FFF7CCF908B1FDF7D2
:10307000BDF909480021FFF79FF908B1FDF7B6F93E
:103080000548FFF779F9002803D0BDE81040FDF7A7
:10309000ADB910BD0010014028870024003E490052
:1030A0001848002110B5164C0C22174B0460C0E9DB
:1030B0000131C1600B46C0E9041281610A46C16159
:1030C000016241628162FEF7E3FE08B1FDF78EF90D
:1030D0000C480021FFF796F908B1FDF787F9094878
:1030E0000021FFF769F908B1FDF780F90548FFF7FE
:1030F00043F9002803D0BDE81040FDF777B910BDB3
:1031000000440040BC870024003E4900FEE7FEE783
:10311000704700002DE9F047454D044689464FF0C1
:10312000000A2868C04380070AD0414E283E306814
:1031300020F080603060FDF78BFA0746B04608E06B
:103140000120BDE8F08700BFFDF782FAC01B02280E
:1031500067D8D8F800000001F6D4206829684FF439
:10316000FE0721F47C313E0241EA00302860207ADB
:10317000A389B4F804C040022D4D2D495B1E227C6A
:10318000ACF1010C1035091DA0F5007080B2521E83
:10319000CCF3080C07EA034340EA0C00184306EAA4
:1031A0000262104328600868626920F0C000104382
:1031B00008600A68A06922F0200202430A60281D04
:1031C0000A6822F010020A6002684FF6F873E46998
:1031D0009A4342EAC40202600868B9F1000F40F065
:1031E00010020A6011D00868B9F1010F11D040F443
:1031F00000100860D8F80000444640F08060C8F82D
:103200000000FDF725FA05460DE0086840F40020AF
:10321000EFE740F48010ECE7FDF71AFA401B0228B4
:1032200001D903208DE720680001F5D5504688E7D5
:10323000284402582DE9F047454D044689464FF091
:10324000000A2868C04380070AD0414E283E3068F3
:1032500020F080503060FDF7FBF90746B04608E0EB
:103260000120BDE8F08700BFFDF7F2F9C01B02287E
:1032700067D8D8F800008000F6D4208829684FF479
:10328000FE0721F07C713E0241EA00502860207A5E
:10329000A389B4F804C040022D4D2D495B1E227C49
:1032A000ACF1010C1835091DA0F5007080B2521E5A
:1032B000CCF3080C07EA034340EA0C00184306EA83
:1032C0000262104328600868626920F4406010437D
:1032D00008600A68A06922F4007202430A60281D8F
:1032E0000A6822F480720A6002684FF6F873E46993
:1032F0009A4342EAC40202600868B9F1000F40F440
:1033000080720A6011D00868B9F1010F11D040F045
:1033100080700860D8F80000444640F08050C8F83B
:103320000000FDF795F905460DE0086840F48000BF
:10333000EFE740F40000ECE7FDF78AF9401B0228B4
:1033400001D903208DE720688000F5D5504688E735
:10335000284402587047FDF781B9000070B59CB051
:103360004C216846FDF704F8202113A8FDF700F86A
:103370000220FDF765FA214800242149026842F441
:103380004042026002680A6842F001020A6009686D
:1033900001F001011B9101688904FCD50DF1280C95
:1033A000022009900521C0228CE80700C6030F9077
:1033B00008250D9001230E90CDE91054CDE900367B
:1033C00068461294FEF7A2FA08B172B6FEE74020F2
:1033D0001A903F210301CDE916500322CDE91803CD
:1033E00013AB13A883E816000421FEF77FF800282A
:1033F00001D072B6FEE71CB070BD0000184802583C
:103400002C0400583348F0B5334A016841F4700188
:103410000160106800F00F00072804D2106820F047
:103420000F00C01D10602D4900202C4C10340B687B
:103430002B4D43F001030B6020600B682B400B60A9
:10344000136803F00F03072B04D9136823F00F034D
:10345000DB1D1360214C234A1834234B261D371DD6
:1034600020601E4C214D28343060261D3860371DE9
:1034700023603B1D35601C1D3A60251D2E1D186004
:10348000331D22602860326018600A68134B184CA4
:1034900022F4802260330A60186020686FF30F0006
:1034A000B0F1005F03D213490120C1F808010B48B5
:1034B000D4300168C9040BD4026843F2D2010E4B28
:1034C00042F4805202601960016821F48051016069
:1034D000F0BD000088ED00E00020005200440258DA
:1034E0007FEDF6EA80020101000202020000FF0106
:1034F0000010005C00800051004000520148FEF7BF
:1035000088BE0000B48500242DE9F047294B4FF018
:10351000804A294D02689842284E294F294C09D0EB
:10352000504507D0A84205D0B04203D0B84201D0E0
:10353000A04205D1D1F804C022F070024CEA020288
:10354000DFF884C0DFF884809842DFF884900FD0E1
:1035500050450DD0A8420BD0B04209D0B84207D098
:10356000A04205D0604503D0404501D0484503D175
:10357000CD6822F440722A438E684D6922F08002A1
:10358000C6620E682A439842866207D0A04205D0E0
:10359000604503D0404501D0484501D10969016328
:1035A0000368012143F00403036041610260BDE848
:1035B000F0870000000001400004004000080040C7
:1035C000000C004000040140004001400044014064
:1035D0000048014042EA032283680A4323F47F4102
:1035E0000A43826070470000034B82681A400A4316
:1035F00042F00701816070478FFFCFFF10B5036A6B
:10360000046A23F00A0324F00104046284690B4372
:1036100024F0F00141EA02118161036210BD10B58E
:10362000036A046A23F0A00324F01004046284698E
:1036300043EA011124F4704343EA023282610162D9
:1036400010BD000030B5A04C00252DED028BA7B0B9
:10365000207800287FD06078012803D0022841D04C
:1036600065707BE0E0882189084338D1A08830BBB1
:103670009649182202A8FCF762FE9449182208A86D
:103680001831FCF75CFE18210EA8FCF771FE18211A
:1036900014A8FCF76DFE18211AA8FCF769FE182182
:1036A00020A8FCF765FE20A914A8B1EE040ACDE914
:1036B000000108AB1AAA0EA902A800F029FFA088F1
:1036C000FB2807D2217829B1FFF7C4F8A088401C55
:1036D000A08040E0401E80B2FFF7BCF83BE001F064
:1036E000F3FC38E0A08821890843F8D1E08838BB92
:1036F0007649182202A83031FCF721FE73491822BE
:1037000008A84831FCF71BFE18210EA8FCF730FE74
:10371000182114A8FCF72CFE18211AA8FCF728FE83
:10372000182120A8FCF724FE20A914A8B1EE040A51
:10373000CDE9000108AB1AAA0EA902A800F0E8FE24
:10374000E088FB28C6D221780029C3D0FFF782F891
:10375000E088401CE0806078032806D027B0BDECEC
:10376000028BBDE8304001F0AFBC208900287DD13C
:10377000DFED578AF0EE680A9FED568A564B00211E
:10378000564A0120B0EE480A0095FFF74FF9012193
:10379000514B524A0846F0EE680AB0EE480A0095CE
:1037A000FFF744F94C4B00214C4A0220F0EE680A26
:1037B000B0EE480A0095FFF739F9474B0121474A17
:1037C0000220F0EE680AB0EE480A0095FFF72EF9E5
:1037D000414B0021414A0320F0EE680AB0EE480A4E
:1037E0000095FFF723F93C4B01213C4A0320F0EE02
:1037F000680AB0EE480A0095FFF718F9DFED388A3D
:10380000354B0021354A0420F0EE680AB0EE480A34
:103810000095FFF70BF9304B0121304A0420F0EE00
:10382000680AB0EE480A0095FFF700F90021012070
:10383000FFF7BEF92B4D0121084685ED000AFFF781
:10384000B7F90021022085ED010AFFF7B1F9012146
:10385000022085ED020AFFF7ABF90021032085ED78
:10386000030AFFF7A5F985ED040A00E017E001213E
:103870000320FFF79DF90021042085ED050AFFF7DD
:1038800097F90121042085ED060AFFF791F985EDEE
:10389000070A15492846B1EE040A01F013FC2089F5
:1038A000FB2808D2FFF74CF82089401C208127B064
:1038B000BDEC028B30BD27B0401EBDEC028B80B248
:1038C000BDE83040FFF73CB830000024E85800085D
:1038D000CDCCCC3D0000000004260024A40600242A
:1038E000A69B443B748500249485002430B5416E2A
:1038F000B9B101680D4B03F108048A688968C2F305
:103900004262490F5D5C615C2D01B5FBF1F1A0F8ED
:103910006A10995CA25C0901B1FBF2F1A0F8681091
:1039200030BD0121A0F86A10F8E7000060590008D6
:1039300090F82810090706D50168836B4A6822F4BD
:1039400000421A434A6090F82810C90706D001685F
:10395000C36A4A6822F400321A434A6090F8281079
:10396000890706D50168036B4A6822F480321A433E
:103970004A6090F82810490706D50168436B4A68E9
:1039800022F480221A434A6090F82810C90606D50E
:103990000168C36B8A6822F480521A438A6090F8E7
:1039A0002810890606D50168036C8A6822F4005243
:1039B0001A438A6090F82810490611D50168436CB3
:1039C0004A6822F480121A434A60416CB1F5801FA4
:1039D00006D10168836C4A6822F4C0021A434A6027
:1039E00090F82810090606D50168C26C486820F4D2
:1039F00000201043486070472DE9F8430025044635
:103A0000C0F89050FCF724FE8046206820266FF016
:103A10007E470068000713D5002243463104204644
:103A2000009700F03FFA58B1216851E8000F20F0EC
:103A3000800041E80002002AF6D1C4F8886021E045
:103A400020680068400722D5002243464FF48001D9
:103A50002046009700F026FAC8B1206850E8001F01
:103A600021F4907140E80012002AF6D12068083055
:103A700050E8001F21F0010140E80012002AF5D1B2
:103A8000C4F88C60032084F88450BDE8F883C4F83F
:103A90008860C4F88C60E5662567002084F884504F
:103AA000F3E7000010B5026852E8001F21F490719E
:103AB00042E80013002BF6D10E4B0268083252E8A0
:103AC000001F194042E80014002CF6D1C16E0129F4
:103AD00008D1026852E8001F21F0100142E80013EB
:103AE000002BF6D100212022C0F88C20C16641674E
:103AF00010BD0000FEFFFFEF2DE9F0430446806893
:103B0000D84E87B0D84B2168D4E90427D4F81CC01C
:103B100010430A68002547EA0C0738433240024345
:103B20000A602068E268416821F440511143416015
:103B30002268A1699A4201D0206A01439768DFF8A0
:103B40002CC3CB4ECB4807EA0C070F439760216884
:103B5000676ACA6A22F00F023A43CA622268B24216
:103B60000ED1006800F03800182873D047DCB8B3D5
:103B7000082879D010286FD178E028287ED17BE002
:103B8000BD498A4209D1006800F00700062875D2B5
:103B9000DFE800F0546A6C6E7072B8498A4209D14D
:103BA000006800F00700062868D2DFE800F0475DF3
:103BB0005F616365B2498A4209D1006800F007007D
:103BC00006285BD2DFE800F03A5052545658AD490F
:103BD0008A420BD1006800F0070006284ED200E0B0
:103BE00010E0DFE800F02B4143454749A6498A42EF
:103BF0000AD1006800F03800182839D0B7DD202835
:103C0000BBD13CE001203AE0A0498A4209D10068DA
:103C100000F00700062831D2DFE800F01026282A3D
:103C20002C2E9B498A420BD1006800F00700062821
:103C300024D2DFE800F003191B1D1F2100201EE025
:103C40009A421BD18B48001D006800F0070006282F
:103C500014D202E00CE007E010E0DFE800F003051A
:103C600007090B0D02200AE0042008E0082006E006
:103C7000102004E0202002E0402000E08020854960
:103C8000DFF814829A42854A4FF400434FEA211725
:103C90004FF000064ED110281AD006DC022809D0B9
:103CA00004280BD008287CD10DE020283ED04028E5
:103CB00077D13DE0FCF7EEFD014610E06846FCF7E9
:103CC000FBFD01990BE003A8FCF798FE049906E0C0
:103CD0001068800605D51068C0F3C100C1400029F6
:103CE00070D0606A676838F8102007EB4703B1FBB3
:103CF000F2F0834255D8B0EB073F52D80023084674
:103D00001946FCF7EBFA02467808130E120243EA52
:103D1000012110183A4671410023FCF7DFFA604A8E
:103D2000A0F5407191423CD821688FE03946D8E730
:103D30001946D6E7D4F81CC04FF6EF799C4546D11A
:103D4000082819D005DC58B101280CD0042875D1F9
:103D50000DE0102815D0202835D040286ED134E051
:103D6000FDF714FD01E0FDF723FD014610E0684674
:103D7000FCF7A2FD01990BE003A8FCF73FFE0499B4
:103D800006E01068800604D51068C0F3C100C14089
:103D9000C1B1636A606838F81330B1FBF3F14900D0
:103DA00000E04BE001EB5001B1FBF0F0A0F110019D
:103DB000494543D84FF6F0732168C0F342021840DA
:103DC000104343E043E03946E3E71946E1E70828BA
:103DD00019D005DC58B101280CD004282ED10DE0F3
:103DE000102815D020282BD0402827D12AE0FDF715
:103DF000CDFC01E0FDF7DCFC014610E06846FCF775
:103E00005BFD01990BE003A8FCF7F8FD049906E0BF
:103E10001068800604D51068C0F3C100C140B1B17C
:103E2000636A606838F81330B1FBF3F101EB5001BD
:103E3000B1FBF0F0A0F11001494505D9012506E0DC
:103E40003946EDE71946EBE7216880B2C8600120EA
:103E5000A4F86A00A4F8680028466667A66707B059
:103E6000BDE8F083F369FFCF000C0058FFF4FF11A9
:103E700000100140544402580044004000480040F3
:103E8000004C004000500040001401400078004009
:103E9000007C00400090D0034859000800440258BC
:103EA000FFFC0F002DE9F047994617460D460446E2
:103EB000089E4FF0000833E0701C31D0FCF7C8FBBF
:103EC000A0EB0900B04218D8BEB1206801684907CC
:103ED00026D5802D24D0402D22D0C169C9430907A1
:103EE0000DD4082505622046FFF7DCFDC4F890508C
:103EF000012084F88480BDE8F0870320FBE7C069D7
:103F0000C04300050CD421684FF4006008622046CD
:103F1000FFF7C8FD2021C4F8901084F88480ECE7F6
:103F20002068C06935EA000004D00020B842C3D040
:103F30000020E0E70120F9E7FEE74100080218BF92
:103F400004200A0E18BF40F001004FF07F4232EA11
:103F5000010108BF40F00200012808BF052070479A
:103F6000090700284FEA116104DB00F1E02080F826
:103F70000014704700F00F0000F1E02080F8141DDD
:103F80007047000010EE101A08B5434A6846B2EBBD
:103F9000410F26D94FF0E640B0EB410F94BF00200F
:103FA0004FF0FF3000900098DFED3C0A002860DB06
:103FB00010F0010F46D060EE000ADFED391A9FEDD8
:103FC000391A10F0020F00EEE11ADFED371A40EE59
:103FD000811A21EEA01AF0EE400A40EE010A2ED01E
:103FE00041E0324B21F0004293423FD911F0004FA3
:103FF000DFED2F0A20EE201ADFED2E0A19BF31EE79
:10400000601A71EE200A31EE201A71EE600ABDEEE0
:10401000E01A11EE100A9FED281A00F0030000EEDE
:10402000C10A9FED261A009000EEC10A9FED241AE6
:1040300000EEC10A9FED231A00EEC10AB3E7F1EECC
:10404000600A10E020EE000A9FED1F1ADFED1F1A34
:1040500010F0020F40EE011A9FED1D1A00EE211A1A
:1040600040EE010AEBD1B0EE600A08BD00F02CF979
:1040700099E710EE100A4000B0F17F4FF3D307D15B
:104080004FF0010000F0DAF9BDE8084000F00CB98B
:10409000BDE8084000F005B9B61F927E0000803FE1
:1040A000336D4C39DA82083CA0AA2ABE490E494633
:1040B00083F9223F0000004B0000C93F00A0FD39FA
:1040C0000020A2331A61342CB93AB2BACA9F2A3DF1
:1040D000DDFFFFBE00B510EE101A2DED028B81B092
:1040E000524A6846B2EB410F2ED94FF0E640B0EB92
:1040F000410F94BF00204FF0FF3000900098B0EEC9
:10410000408A00286ADB10F0010F4BD068EE080AE5
:104110009FED471A9FED470A00EE810A9FED461A70
:1041200000EE801A9FED450A10F0020F00EE810AA2
:1041300002BF01B0BDEC028B00BD00BF01B0B1EE0B
:10414000400ABDEC028B00BD3D4B21F00042934282
:1041500041D911F0004FDFED3B0A20EE201ADFEDD0
:104160003A0A19BF31EE601A71EE200A31EE201AB8
:1041700071EE600ABDEEE01A11EE100A9FED331ADF
:1041800000F0030000EEC10A9FED311A009000EE2E
:10419000C10A9FED301A00EEC10A9FED2F1A00EE02
:1041A000C10AABE728EE080A9FED2C1ADFED2C0AB6
:1041B00010F0020F40EE410A9FED2A1A00EE201A7D
:1041C00061EE000AB0EE480A08EE200AB6D101B04E
:1041D000BDEC028B00BD00F077F88FE718EE100AF7
:1041E0004000B0F17F4F0DD218EE100AFFF7A5FE88
:1041F000042808BF00F060F8B0EE480A01B0BDEC3A
:10420000028B00BD09D1012000F018F901B0BDEC0E
:10421000028B5DF804EB00F047B801B0B0EE480A3D
:10422000BDEC028B5DF804EB00F03BB8B61F927E4C
:10423000B93AB2BACA9F2A3DDDFFFFBE0000803FF7
:10424000490E494683F9223F0000004B0000C93F58
:1042500000A0FD390020A2331A61342C336D4C3993
:10426000DA82083CA0AA2ABE10B52DED028BB1EE71
:10427000C08A18EE100A20F00040C0F1FF40C00FC5
:104280000AD010EE100A20F00040C0F1FF40C00F2D
:1042900004BF012000F0D2F8B0EE480ABDEC028B5A
:1042A00010BD30EE000A7047DFED020A80EEA00A72
:1042B00070470000000000009FED020A20EE000A97
:1042C00070470000000000102DE9F0014FF07F4220
:1042D000B2EB410F9FBF4FF0FF310160BDE8F0012D
:1042E00070474FF0004242EA0123C1F3C752783AC7
:1042F000551112F01F0C434CCCF120067C44C1F345
:10430000C752A2F178024FEA621204EB820254F81B
:10431000254008BFD2E9015612D0556804FA0CF4C2
:1043200025FA06F73C43976805FA0CF527FA06F8D4
:10433000D26807FA0CFCF24045EA08054CEA02068E
:10434000A4FB034CA5FB0352A6FB03631D449D4243
:1043500034BF012600261319334416B1934202D903
:1043600003E0934201D2012200E00022624402F104
:10437000200C9206DC0C42EA443200EE102A5B0369
:10438000DFED210AF8EEC01A00EE103A4FEA9C1C4D
:1043900011F0004FB8EE400AC0F800C020EE201A1D
:1043A00000EE105ADFED190AB8EE400A20EE200A9E
:1043B00071EE810A70EE800A10EE902A02F500621A
:1043C0006FF30B0200EE902A70EEE11A31EEC11A83
:1043D000DFED101A30EE411A9FED0D0A20EE800A33
:1043E00001EE210A9FED0C1A00EE810A04BFBDE820
:1043F000F0017047CCF180510160BDE8F001B1EEF1
:10440000400A704780160000000000360000802C33
:1044100022AAFD29DB0FC92F0000C92F02E008C81E
:10442000121F08C1002AFAD170477047002001E02E
:1044300001C1121F002AFBD170470000014908602A
:1044400070470000D0000024B1EE007AF1EE0C6A53
:10445000F2EE003A62EE077AF2EE045A22EE267A83
:1044600060EEA36A61EEA53ABAEE0E4AF1EE084A92
:1044700021EE844A40EE653A61EEA41A2DED028BDE
:10448000F2EE0E8AB0EE086A00EE284A40EE641A98
:1044900047EEC33A22EE068A20EEA42AB6EE005A70
:1044A00007EE034A48EE431A80EC020A42EE433A12
:1044B00020EE866A61EE050A23EE030A06EE834AC1
:1044C00046EE431A62EE854A40EEC03A20EE031AE9
:1044D000C0ED020A00EE804A40EEC01A21EE032A27
:1044E00044EE803A02EEC04A44EE801A62EE030ABD
:1044F00083EE810A84EE021A80ED030A81EEA02A7F
:1045000080ED041A80ED052ABDEC028B7047000097
:104510007CB5F0EE400A9FED051ADDE906459FEDFA
:10452000040ACDE9004500F0D9F87CBD0AD7A33CC8
:1045300000000000F0B50D4D8646EF07F817002388
:1045400011E000BF5EF8236000243A4600284FEADD
:10455000400000DA6840164200D068405208641CEF
:10456000202CF3D35B1C8B42ECD3F0BDB71DC104F0
:1045700010B514460B4603E013F8011B00F004F8D5
:10458000641EF9D210BD0000034A4140C9B232F89E
:10459000111081EA10207047E856000891ED010AD9
:1045A000D2ED021AD1ED020A92ED011A20EE210A93
:1045B00000EEC10A80ED000A91ED020AD2ED001A68
:1045C000D1ED000A92ED021A20EE210A00EEC10A96
:1045D00080ED010A91ED000AD2ED011AD1ED010A38
:1045E00092ED001A20EE210A00EEC10A80ED020AC7
:1045F0007047000070B5044690F82C000025FD2897
:1046000003D194F82D00EE2801D0A56170BD0E22D3
:10461000002004F12C01FFF7ABFF618F2084814261
:1046200008D0A06AE5622563401C6563A563A561A7
:10463000A06270BD94F8381094F82E0001F00706BF
:1046400094F93750228F00F00F03C0F30210C4E931
:1046500001562370C2F3CB0260700121B4F931001E
:10466000DFED190A01EE900A9FED180A9FED181A66
:10467000F8EEE11A9FED172ADFED172A61EEA01A76
:1046800061EE801A61EE811AC4ED041AB4F92F00AC
:1046900001EE900AF8EEE11A61EEA00AC0EE811A6E
:1046A000C4ED031AD4F83300C4E9061200EE900AF0
:1046B000F8EEE00A20EE800A20EE020A20EE220A3E
:1046C00084ED050A70BD00000000803BD00FC9409A
:1046D0005C8FCA4000000038CFD210412DE9F04F66
:1046E000BE4C00271D4692460E4681462DED0E8B90
:1046F000F0EE408AFFB030EEE88AF0EE41AADDF835
:104700005CB200BF0BEB8700969905EB8702D0EDFA
:10471000002A01EB87010AEB870306EB870809EB08
:10472000870C07EB470091ED002AD2ED001A93EDBC
:10473000001AD8ED000A9CED000AB0EE483A04EBEE
:10474000C000FFF781FE7F1CFFB2062FDAD3A44F13
:104750000025B0EE00BAF0EE08BAB1EE00CAF1EEF4
:1047600004CA9FEDA09ADFEDA09A07F120089FED03
:104770009FDA54AEE9469FED9EAA07F5FC5A00BFAA
:1047800000EE105AB0EE688A944A5FF00000B8EE6E
:10479000400A31AC00EE2A8A68EE082A22EE882A06
:1047A00062EE081A21EE884A00EB400106EB800C0D
:1047B00002EBC101431CD1ED000A91ED010A91ED1C
:1047C000021A91ED033A40EE080A21EE0B5A63EE0D
:1047D0002B5AD1ED043AD1ED054A05EE080A41EE17
:1047E000220A23EE8C6A64EEAC6A04EB8001D8B234
:1047F00005EEA20A43EE020A062806EE020A43EE7E
:10480000A10A06EEA10A44EE840AC1ED000A8CED6D
:10481000000AC9D331A890EC030A5DA800F004FA9D
:1048200034A890EC030A6DA800F092F96DAA5DA976
:1048300044A800F0E5FADFF8BCB10024DFED6EEA31
:104840006C4844A9803000EB041000F0A9FC0BEB8D
:104850000410B0EE40EAD0ED001AF0EE60DAB0EEEF
:10486000418A31EEC00A8DED400A90ED010A30EE2A
:10487000600A8DED410A90ED020A40A830EE410A2F
:104880008DED420A00F042FE1DB907EB840080ED79
:10489000000A07EB8400D0ED000A70EE600A34B124
:1048A000032C04D080EE8D1A04EB840003E080EE2C
:1048B0008A1A04EB8400C0EB04213CAA08EB8100B7
:1048C00000EB85005AA9C1EE090A60EEA90AC0ED05
:1048D000000ADDED400A39A880EE801A8DED3C1A01
:1048E000DDED410A80EE801A8DED3D1ADDED420AC4
:1048F00080EE801A8DED3E1A9DED310A3EEE400AA3
:104900008DED5A0A9DED320A3DEEC00A8DED5B0A2F
:104910009DED330A38EE400A8DED5C0AFFF73EFE4E
:1049200004EB44019DED3C0A09EBC10104EB840357
:1049300081ED000A9DED3D0AC3EB042081ED010AE3
:104940009DED3E0A0AEB800081ED020A9DED390AD9
:1049500000EB850281ED030A9DED3A0A002081ED0E
:10496000040A9DED3B0A81ED050AC2ED00EA84B11F
:10497000032C0ED001EB800306EB800CD3ED000A74
:104980009CED001A92ED000A60EE810A80EE8D1A0D
:104990000DE001EB800306EB800CD3ED000A9CEDEB
:1049A000001A92ED000A60EE810A80EE8A1A401C1D
:1049B000C0B2062830EE410A82ED000AD7D3641C4B
:1049C000E4B2082CFFF43CAF6D1CADB2FB2DFFF43C
:1049D000D7AE7FB0BDEC0E8BBDE8F08F64450024F0
:1049E00084060024DA0F4940000034435C8F423DC6
:1049F00060E5503D28550008000000002DE9F04119
:104A00000E4607462DED068BB0EE408AB5EEC08A05
:104A1000F1EE10FA7ED9DFED488A484C5FF00005D0
:104A2000B0EE483AF0EE680A07EB850006EB850227
:104A300005EB450190ED000AD2ED001AF0EE602A78
:104A4000B0EE602AB0EE601A04EBC100FFF7FCFC88
:104A50006D1CEDB2082DE3D33A4E00209FED380ACD
:104A60009FED395AB0EE007AC8EE003A9FED378AD2
:104A7000F0EE087AF1EE005AB1EE044A06F5FB5565
:104A800000EE100A5FF00001B8EE400A60EE230A63
:104A900060EEA02A22EEA02A62EE201A61EEA06A41
:104AA00001EB410201EB810704EBC2034A1CD3ED89
:104AB000028A93ED010A93ED001A28EE879A93ED8E
:104AC000036A00EE201AD3ED044A09EE200A66EECE
:104AD000279A24EEA5AA93ED053A08EEA21AC7EB91
:104AE000012109EEA20A63EE04AA05EB810306EB9D
:104AF000810706EE021AD1B20AEE020A082907EB74
:104B0000800203EB800304EEA11A0AEEA10AC0EEB4
:104B1000054A00E00CE003EE261A24EE880A82ED36
:104B2000001A83ED000ABBD3401C80B2FB28A7D338
:104B3000BDEC068BBDE8F08100000000B4840024C9
:104B400000007A43F445002400003443DA0F494062
:104B500010B504462DED068BF0EE41AAF0EE609AFA
:104B6000F0EE408AC0B0FFF70DFAB0EE408AB0EE2A
:104B7000680AFFF7AFFAF0EE408AB0EE690AFFF775
:104B800001FAB0EE409AB0EE690AFFF7A3FAF0EE30
:104B9000409AB0EE6A0AFFF7F5F9B0EE40AAB0EE1F
:104BA0006A0AFFF797FA1F494022F0EE40AA6846CA
:104BB000FBF7C5FBB1EE6A0A8DED00AA1949402248
:104BC0008DED010ACDED04AA40318DED05AA10A8A6
:104BD000FBF7B5FB8DED109A12494022B1EE690A40
:104BE000CDED129A8DED180A80318DED1A9A20A81C
:104BF000FBF7A5FBB1EE680A8DED258A8DED260A3F
:104C0000CDED298A8DED2A8A10AA694630A800F0D8
:104C1000F7F820AA204630A900F0F2F840B0BDEC29
:104C2000068B10BD2856000880ED030AC0ED070A68
:104C3000B7EE002ADFED0F1A80ED0B1A80ED002A87
:104C4000C0ED011AC0ED021AC0ED041A80ED052A6C
:104C5000C0ED061AC0ED081AC0ED091A80ED0A2A47
:104C6000C0ED0C1AC0ED0D1AC0ED0E1A80ED0F2A22
:104C700070470000000000009FED0E2ADFED0E2AB5
:104C80000180012220EE020A80ED041A9FED0B3A0A
:104C9000DFED0B3A80EE221AC0ED051A60EE820AB3
:104CA0004280C0ED013AC0ED020A21EE030A80ED18
:104CB000030A70475C8FCA4000003443DA0F494052
:104CC0000000000001800122DFED060A80ED010AEC
:104CD0004280C0ED040AC0ED050AC0ED030AC0ED34
:104CE000020A7047000000001FB5002500950195DD
:104CF00002950395FBF736FD01208DF80C001F216E
:104D00008DF8081087228DF809208DF80D008DF898
:104D1000000068468DF80A508DF80E508DF801504D
:104D200001958DF80B508DF80F50FBF7EDFC04202A
:104D3000FBF726FDFBF79AFCFEF710FBFEF794F855
:104D4000FEF7D0F8FEF776F9FEF7AAF9FEF7FEF8BF
:104D5000FEF732F91E48FDF797F91E4C1E4EA5705E
:104D600084F80350FDF7D2FF2070FDF7C9FF607093
:104D7000FBF76EFC6060207830B36078E8B930787B
:104D800001281AD116489FED150A80ED000A154832
:104D900080ED000A144880ED000A144880ED000AF6
:104DA000134880ED000A134880ED000A124880ED98
:104DB000000A124880ED000A3570FBF749FCA0603C
:104DC0006168401AE060CDE700F07EF9CAE70000B4
:104DD000B4850024AC000024320000240000000050
:104DE0001000002414000024180000241C000024DB
:104DF0002000002424000024280000242C0000248B
:104E00002DE9F0439FED160A002489465FF0000368
:104E100009EB041600EB041707EB83055FF00001B4
:104E200085ED000A02EB011806EB810C08EB830804
:104E3000D5ED000A9CED001AD8ED001A491CC9B244
:104E400041EE210A0429C5ED000AEBD35B1CDBB25D
:104E5000042BE1D3641CE4B2042CD7D3BDE8F08367
:104E600000000000B7EEC02A9FED103B10EE902A24
:104E7000F0B52227C0F8227022EE030B0A25058523
:104E8000C184002611EE103A11EE904AB7EEC00B25
:104E900010EE105AC0F83250C0F82E20C0F82A6028
:104EA000C0F83630C0F83A40F0BD0000F9978C38B1
:104EB0005F54C43F10B504460188FE20EE222076E0
:104EC00000206276C1B10F2901D30F2121806188B2
:104ED00011B1072901D30720608094ED040ADFEDAA
:104EE000510A51489FED511AB5EEC00AF1EE10FA81
:104EF00004D8C4ED040A07E02080E8E710EE101A99
:104F0000814201DB84ED041A94ED050AB5EEC00A76
:104F1000F1EE10FA02D8C4ED050A05E010EE101A01
:104F2000814201DB84ED051A41496068884202D361
:104F30009FED400A04E04049884203DB9FED3F0AB1
:104F400084ED010A3E49A068884202D39FED3D0AE4
:104F500004E03D49884203DB9FED3C0A84ED020AF0
:104F60003B49E068884202D39FED3A0A04E03A499F
:104F7000884203DB9FED390A84ED030AD4ED042A4D
:104F8000DFED370A9FED370A2278C2EEA01AA07E25
:104F9000A1789FED351A62F303009FED342A61F387
:104FA0000610A0760F2261EE801AFDEEE11A11EED6
:104FB000901AA4F8231004F11801D4ED051AC1EEDB
:104FC000A02A62EE800AFDEEE00A10EE900AA4F834
:104FD0002500D4ED030AC0EE811A21EE800ABDEE51
:104FE000C00A10EE100AC4F81F0094ED020AC0EEC9
:104FF000010A20EE820ABDEEC00A10EE100AA4F8E3
:105000001D0094ED010A20EE020ABDEEC00A10EE6A
:10501000100AA4F81B000020FFF7AAFAA4F8270042
:1050200010BD000000000000C1CACC41C1CACC4183
:10503000E1FAFFC2E1FAFFC2E1FAFF42E1FAFF4200
:10504000000049C4000049C400004944000049442C
:10505000C00FC9C8C00FC9C8C00FC948C00FC948D0
:10506000CDCCCC4100000047D00FC94000008043A8
:1050700070B52224C0F822400A25058522300E4E44
:1050800010EE103A00228180DFED0C0A0261B3427B
:10509000C260A0F1220001DDB0EE600A9FED081AA7
:1050A000C0EE010A10EE901AC0F82A10C0F836209F
:1050B000C0F83A2070BD0000000020410000000050
:1050C0009A991141FFF79ABC10B5304800212DED97
:1050D000028B9FED2D8AB0EE480AFFF7C9FF2C48DE
:1050E000012100F0ABF829480121B0EE480AFFF792
:1050F000BFFF2748012100F0A1F824480021B0EEAD
:10510000480A4230FFF7B4FF2248022100F096F827
:105110001E480121B0EE480A4230FFF7A9FF1D48A2
:10512000022100F08BF819480021B0EE480A8430C3
:10513000FFF79EFF1848032100F080F81348012173
:10514000B0EE480A8430FFF793FF1348032100F0C4
:1051500075F80E480021B0EE480AC830FFF7B2FDDE
:105160000E48042100F06AF808480121B0EE480A10
:10517000C830FFF7A7FDBDEC028B04210748BDE84E
:10518000104000F05BB8000000000000D4000024D4
:1051900028870024BC8700249486002400860024ED
:1051A0002DED048BD0ED001A91ED000AD1ED040A2B
:1051B00091ED081AD1ED0C9A90ED013A21EE800A9A
:1051C00061EEA00A21EE811A61EEA91A91ED019A11
:1051D000D1ED058A91ED098AD1ED0D7A90ED022A83
:1051E00003EE090A43EE280A03EE081A43EE271AD3
:1051F00091ED027AD1ED066A91ED0A6AD1ED0E5A6F
:10520000D0ED032A02EE070A42EE260A02EE061A43
:1052100042EE251A91ED035AD1ED074A91ED0B4A62
:10522000D1ED0F3A02EE850A42EEA40A02EE841A8C
:1052300042EEA31ABDEC048B704700002DE9F34F3A
:10524000DFF88C820429A3B00E46A8F1040B7CD0B1
:10525000012E0CD0022E14D0032E77D19D4C04F5D4
:105260004670274604F2CC4500F18C0112E0994CBF
:10527000843C04F5B670274604F2B44500F18C0175
:1052800008E0944C423C04F24220274604F598651D
:1052900000F18C018246FE202070EE22627094F8AC
:1052A00026200020A2708946E070FF2194F8282073
:1052B00022716171A071E071A0609FED873ADFED0E
:1052C000872ADFED871A9FED872A9FED871ADFED8A
:1052D000870AD4F82A1000EE101A20EE030ABDEE59
:1052E000C00A10EE101AA181D4F82E1000EE101A88
:1052F00020EE220ABDEEC00A10EE101AE181D4F8A9
:10530000321000EE101AC0EE212A22EE820ABDEE03
:10531000C00A10EE101A2161D4F8361000EE101AEF
:1053200020EE010ABDEEC00A10EE101AA182D4F8D8
:105330003A1000EE101A20EE200ABDEEC00A10EE60
:10534000101AE1822076607601E096E08EE0D4F8D3
:105350003E000721C4F81A002046FFF7EBF8C4F816
:105360001E000123239822223946FDF719FA08EB83
:10537000060101234E2201F8010C29462398FDF76E
:105380009BF90BEB060101F8010C2398FDF760F87F
:105390004F49091FDFED561ADFED560A9FED561AE9
:1053A0009FED562B9FED573B88602398B0F85E0029
:1053B000C0F14E00C860A8788DF802002C798DF8F5
:1053C000044095F906208DF80620EB798DF807301A
:1053D000B5F90C10ADF80C1000EE101AB5F90E105E
:1053E000ADF80E10B8EEC04A00EE101AB5F91A105A
:1053F000ADF81A10F8EEC04A24EE010A95F82060C4
:1054000095F821C064EEA11A95F81F803604AF7F8D
:1054100020EE200A81EEA01A47EA0C6546EA08262B
:105420003543CDF81E508DF852008DF85340CDE92C
:1054300015238DED170A8DED181ADDF81E2000EEEC
:10544000102AB8EEC00AB7EEC00A80EE021B21EEA9
:10545000030BB7EEC00B8DED190A1B9148B1012863
:1054600004D18C2269464846FAF769FF25B0BDE8A9
:10547000F08F8C2269465046F6E71648443000F11A
:105480002C0600F1680500F11804FFF713FD2398BE
:10549000012311222146FDF783F988F80300012337
:1054A000239810220BA9FDF707F98BF80300684633
:1054B000FFF7A0F89DF800004FF03C026946012874
:1054C00003D03046FAF73BFFD0E72846FAE7000062
:1054D0000400002458010024000080430000004321
:1054E000F90FC940000080460000004500008044DC
:1054F0000000003C9A9911410000803BF5DA7A8E59
:10550000315FA440E2FBF7BB5A2F194090ED000A2F
:10551000D0ED010A90ED021A20EE000A00EEA00A7A
:1055200001EE010AFEF7A0BE9643CBBE54E3A53EB2
:1055300085EB513F0000803F9643CBBE54E3A5BEB0
:1055400085EB513F0000803F9643CB3E54E3A5BE20
:1055500085EB513F0000803F9643CB3E54E3A53E90
:1055600085EB513F0000803F9643CBBE54E3A53E00
:10557000560E2D3E0000803F9643CBBE54E3A5BEA1
:10558000560E2D3E0000803F9643CB3E54E3A5BE11
:10559000560E2D3E0000803F9643CB3E54E3A53E81
:1055A000560E2D3E0000803FCDCC4CBDCDCC4C3DA9
:1055B000CDCC4CBD0000803FCDCC4CBDCDCC4CBD46
:1055C000CDCC4CBD0000803FCDCC4C3DCDCC4CBDB6
:1055D000CDCC4CBD0000803FCDCC4C3DCDCC4C3D26
:1055E000CDCC4CBD0000803FCDCC4CBDCDCC4C3D96
:1055F000CDCC4C3D0000803FCDCC4CBDCDCC4CBD86
:10560000CDCC4C3D0000803FCDCC4C3DCDCC4CBDF5
:10561000CDCC4C3D0000803FCDCC4C3DCDCC4C3D65
:10562000CDCC4C3D0000803F000000000000000099
:10563000000000000000000000000000000000006A
:10564000000000000000000000000000000000005A
:105650000000803F0000000000000000000000008B
:10566000000000000000803F00000000000000007B
:105670000000000000000000000000000000803F6B
:10568000000000000000000000000000000000001A
:10569000000000000000000000000000000000000A
:1056A000000000000000803F0000803F000000007C
:1056B00000000000000000000000000000000000EA
:1056C00000000000000000000000000000000000DA
:1056D00000000000000000000000000000000000CA
:1056E000000000000000803F0000891112239B325F
:1056F0002446AD573665BF74488CC19D5AAFD3BEA2
:105700006CCAE5DB7EE9F7F88110080193331A22B1
:10571000A5562C47B7753E64C99C408DDBBF52AE81
:10572000EDDA64CBFFF976E802218B301002991391
:105730002667AF763444BD554AADC3BC588ED19F61
:105740006EEBE7FA7CC8F5D983310A209112180371
:10575000A7772E66B5543C45CBBD42ACD99E508F41
:10576000EFFB66EAFDD874C904428D5316619F7041
:105770002004A9153227BB364CCEC5DF5EEDD7FC21
:105780006888E1997AABF3BA85520C4397711E6031
:10579000A1142805B3373A26CDDE44CFDFFD56EC01
:1057A000E9986089FBBB72AA06638F7214409D5111
:1057B0002225AB343006B9174EEFC7FE5CCCD5DDE1
:1057C0006AA9E3B8788AF19B87730E6295501C41F1
:1057D000A3352A24B1163807CFFF46EEDDDC54CDC1
:1057E000EBB962A8F99A708B088481951AA793B6D1
:1057F0002CC2A5D33EE1B7F04008C919522BDB3AC1
:10580000644EED5F766DFF7C899400859BB712A690
:10581000ADD224C3BFF136E0C1184809D33B5A2AA0
:10582000E55E6C4FF77D7E6C0AA583B41886919770
:105830002EE3A7F23CC0B5D14229CB38500AD91B80
:10584000666FEF7E744CFD5D8BB502A49996108750
:10585000AFF326E2BDD034C1C3394A28D11A580B60
:10586000E77F6E6EF55C7C4D0CC685D71EE597F420
:105870002880A1913AA3B3B2444ACD5B5669DF7840
:10588000600CE91D722FFB3E8DD604C79FF516E410
:10589000A9902081BBB332A2C55A4C4BD7795E6820
:1058A000E11C680DF33F7A2E0EE787F61CC495D5F0
:1058B0002AA1A3B03882B193466BCF7A5448DD5900
:1058C000622DEB3C700EF91F8FF706E69DD414C5D0
:1058D000ABB122A0B9923083C77B4E6AD5585C49E0
:1058E000E33D6A2CF11E780F00000000000000006C
:1058F000713D0A3E000000000000000000000000B2
:1059000000000000000000001F85AB3E000000000A
:105910000000000000000000000000000000000087
:10592000713D0A3E00000000000000000000000081
:10593000000080BE000080BE1F85AB3E000000005E
:10594000000000000000000001000200040006004A
:1059500008000A000C001000200040008000000138
:10596000010101030701000008040204080101010C
:1059700000000000010203040102030406070809F5
:10598000000000006E83F9A22915444ED15727FC70
:10599000C0DD34F5999562DB4190433CAB6351FE29
:1059A000C059000800000024D40000001C44000876
:1059B000945A0008D40000247CC700002C4400083E
:1059C00000000000000000000000000000000000D7
:1059D00000000000000000000000000000000000C7
:1059E00000000000000000000000000000000000B7
:1059F000000001000000000000000000001002583C
:105A00000400000000000000000000000000000092
:105A10000000000000000000001002580800000014
:105A20000000000000000000000000000000000076
:105A300000000000001002581000000000000000EC
:105A40000000000000000000000000000000000056
:105A500000100258200000000000000000000000BC
:105A60000000000000000000000000000000000036
:105A70000000000000000000000000000100000025
:105A800010000000000000000090D0030090D00340
:045A90000000000012
:040000050800029954
:00000001FF
