:020000040800F2
:1000000058C80024B1020008BD4500087535000835
:10001000B9450008E90300089D56000800000000EB
:100020000000000000000000000000008D480008F3
:10003000ED03000800000000C14500088F480008DB
:10004000CF020008CF020008CF020008CF0200084C
:10005000CF020008CF020008CF020008CF0200083C
:10006000CF020008CF020008CF020008CF0200082C
:10007000CF020008CF020008CF020008CF0200081C
:10008000CF020008CF020008CF020008CF0200080C
:10009000CF020008CF020008CF020008CF020008FC
:1000A000CF020008CF020008CF020008CF020008EC
:1000B000914A0008CF020008CF020008CF020008D2
:1000C000CF020008CF020008CF020008CF020008CC
:1000D000CF020008CF020008CF020008CF020008BC
:1000E000CF020008CF02000800000000CF02000885
:1000F000CF020008CF020008CF020008CF0200089C
:10010000CF020008CF020008CF020008CF0200088B
:10011000CF020008CF020008CF020008CF0200087B
:10012000CF020008CF020008CF020008CF0200086B
:10013000CF020008CF020008CF020008CF0200085B
:1001400000000000000000000000000000000000AF
:10015000CF020008CF020008CF020008CF0200083B
:10016000CF020008CF020008CF020008CF0200082B
:10017000CF020008CF020008CF02000800000000F4
:10018000CF020008CF020008CF020008CF0200080B
:10019000CF020008CF020008CF020008CF020008FB
:1001A000CF020008CF020008CF020008CF020008EB
:1001B000CF020008CF020008CF020008CF020008DB
:1001C000CF020008CF020008CF020008CF020008CB
:1001D000CF020008CF020008CF020008CF020008BB
:1001E000CF020008CF020008CF020008CF020008AB
:1001F000CF020008CF020008CF020008CF0200089B
:10020000CF020008CF020008CF020008CF0200088A
:10021000CF020008CF020008CF020008CF0200087A
:10022000CF020008CF020008CF0200080000000043
:10023000CF020008CF02000800000000CF02000833
:10024000CF020008CF020008CF020008CF0200084A
:10025000CF020008CF020008CF020008CF0200083A
:10026000CF020008CF020008CF020008CF0200082A
:10027000CF020008CF020008CF02000800000000F3
:10028000CF020008CF020008CF02000800000000E3
:1002900000000000CF020008DFF810D000F092F854
:1002A000004800473D680008AFF3008058C80024AC
:1002B000074880470748804707480047FEE7FEE7B2
:1002C000FEE7FEE7FEE7FEE7FEE7FEE7FEE7FEE706
:1002D000F503000869490008990200082DE9F05F5C
:1002E0000546002092469B468846064681464024A5
:1002F0001BE0284641464746224600F053F8534645
:100300005A46C01A914110D311461846224600F0B1
:100310003AF82D1A67EB01084F46224601200021CA
:1003200000F031F817EB00094E41201EA4F1010442
:10033000DFDC484631462A464346BDE8F09F40EAA6
:1003400001039B0703D009E008C9121F08C0042A53
:10035000FAD203E011F8013B00F8013B521EF9D23A
:100360007047D2B201E000F8012B491EFBD2704762
:100370000022F6E710B513460A4604461946FFF771
:10038000F0FF204610BD202A04DB203A00FA02F1DB
:10039000002070479140C2F1200320FA03F3194373
:1003A00090407047202A04DB203A21FA02F0002115
:1003B000704721FA02F3D040C2F120029140084375
:1003C00019467047064C074D06E0E06840F001030F
:1003D00094E8070098471034AC42F6D3FFF760FF6B
:1003E0000C7700082C77000800BFFEE7704772B654
:1003F00000BFFEE70748006840F0020005490860BA
:1004000000BF04480838006800F400500028F8D005
:10041000704700000C48025870B5044600F01CF903
:1004200006462546681C10B104480078054400BF04
:1004300000F012F9801BA842FAD370BDCC00002452
:10044000F8B502460B4600216F4DD7E001278F40DB
:100450001E6806EA0704002C72D01E7906F0030617
:10046000012E04D01E7906F00306022E13D19068E7
:100470004F000326BE40B0434F00DE68BE4030430D
:100480009060506801268E40B0431E79C6F3001676
:100490008E40304350601E7906F00306032E09D0CB
:1004A000D0684F000326BE40B0434F009E68BE4058
:1004B0003043D0601E7906F00306022E13D1CF0818
:1004C00002F1200656F827004E07F70E0F26BE4011
:1004D000B0434F07FF0E1E69BE403043CF0802F104
:1004E000200646F8270010684F000326BE40B043A0
:1004F0001E7906F003064F00BE40304310605E6870
:1005000006F44036002E78D000BF404E366846F0E4
:1005100002063E4F3E603E46366806F002060096F2
:1005200000BF00BF3A4E8F0856F827008E07370FDE
:100530000F26BE40B043374EB24202D100262EE015
:100540005BE0354EB24201D1012628E0334EB24283
:1005500001D1022623E0324EB24201D103261EE031
:10056000304EB24201D1042619E02F4EB24201D1E1
:10057000052614E02D4EB24201D106260FE02C4E86
:10058000B24201D107260AE02A4EB24201D1082622
:1005900005E0294EB24201D1092600E00A268F0764
:1005A0003F0FBE4030431A4E8F0846F827004FF0E9
:1005B000B0463068A0435E6806F4801606B120435A
:1005C0004FF0B04630607068A0435E6806F40016D5
:1005D00006B120434FF0B04670606868A0435E6883
:1005E00006F4003606B1204368602868A0435E68C0
:1005F00006F4803606B120432860491C1E68CE40B0
:10060000002E7FF423AFF8BD80000058F444025858
:10061000080400580000025800040258000802585C
:10062000000C02580010025800140258001802581A
:10063000001C025800200258002402580246136988
:100640000B400BB1012000E000207047014800681A
:10065000000C70470010005C014800687047000003
:10066000C40000240348006803490978084401498C
:1006700008607047C4000024CC00002410B503209B
:1006800000F020F901F032FC10490968C1F30321A0
:100690000F4A515C01F01F0120FA01F40B48006879
:1006A00000F00F001146085C00F01F0024FA00F073
:1006B00008490860084804600E2000F00FF808B1EF
:1006C000012010BD00F09AF80020FAE71844025803
:1006D000DC760008D4000024D000002470B5044665
:1006E0001148007808B9012070BD0F4800784FF418
:1006F0007A71B1FBF0F00D490968B1FBF0F52846BD
:1007000002F082F908B10120EEE7102C07D2002296
:100710002146501E00F098F80548046001E00120D1
:10072000E2E70020E0E70000CC000024D000002435
:10073000C80000244178154A11601449083109683D
:1007400021F00101114A08321160121F4168116045
:10075000017B0907C27A41EA0261827A41EAC24119
:10076000427B41EA8241827B41EA4241C27B41EACB
:100770000241427A41EA0221027A41EA42010278C8
:100780001143024A083211607047000098ED00E002
:1007900000BF00BF00BFBFF35F8F00BF00BF00BF3F
:1007A0000548006820F480300349086000200249B1
:1007B000703108607047000024ED00E040F0010156
:1007C0000D4A11600C497039096841F480310A4AB8
:1007D000703A116000BF00BF00BFBFF34F8F00BF72
:1007E00000BF00BF00BF00BF00BFBFF36F8F00BFDF
:1007F00000BF00BF7047000094ED00E008B500BFE7
:100800000648006840F00200044908600846006895
:1008100000F00200009000BF00BF08BDF444025881
:100820000146084600280DDB00BF00BF00F01F0393
:1008300001229A4043099B0003F1E023C3F8002101
:1008400000BF00BF00BF70472DE9F05F80460D4636
:10085000164604F039FF074639462A46334601F06A
:100860000700C0F1070ABAF1040F02D94FF0040AD9
:1008700001E0C0F1070AD14600F1040ABAF1070FFE
:1008800002D24FF0000A01E0A0F1030AD4464FF073
:10089000010A0AFA09FAAAF1010A0AEA020A0AFA9C
:1008A0000CFA4FF0010B0BFA0CFBABF1010B0BEA4E
:1008B000030B4AEA0B042146404604F00DFFBDE855
:1008C000F09F000000BF00F00702064B19684FF6CA
:1008D000FF031940044B0B4343EA0221014B19600B
:1008E00000BF70470CED00E00000FA0570B504464B
:1008F00015480068C0F3800048B91348006800F04C
:100900000700A04201D0012070BD0020FCE70E4886
:10091000006820F0070020430B490860FFF79CFEA9
:10092000054607E0FFF798FE401BB0F57A7F01D936
:100930000120E9E7044808380068C0F34030002887
:10094000F0D00020E0E700000C48025810B501F09C
:1009500083FA05490968C1F30211044A515C01F0A8
:100960001F01C84010BD000020440258DC7600087A
:1009700070B50146844D2D6805F00303824D2D6846
:10098000C5F30530804D2D1D2D68C5F300147E4D37
:1009900014352D68C5F3CC0515FB04F501EE105A8E
:1009A000B8EE411AF0EE410A00286FD023B1012BB6
:1009B0004ED0022B6BD16BE0734D283D2D68C5F3F3
:1009C00040153DB3704D283D2D68C5F3C1066F4DF0
:1009D00025FA06F201EE102AF8EE411A01EE100A8D
:1009E000B8EE411A81EE812A9FED691AC0EE811A94
:1009F000654D10352D68C5F3080501EE105AB8EEA7
:100A0000411A31EE811AF7EE001A31EE211A22EE68
:100A1000010A1CE001EE100AB8EE411ADFED5D1A82
:100A200081EE812A9FED5A1AC0EE811A564D10357B
:100A30002D68C5F3080501EE105AB8EE411A31EEE3
:100A4000811AF7EE001A31EE211A22EE010A5BE05C
:100A500001EE100AB8EE411ADFED4F1A81EE812A3D
:100A60009FED4B1AC0EE811A474D10352D68C5F326
:100A7000080501EE105AB8EE411A31EE811AF7EE70
:100A8000001A31EE211A22EE010A3DE077E01DE066
:100A900001EE100AB8EE411A9FED402AC2EE011A8B
:100AA0009FED3B1A80EE812A374D10352D68C5F336
:100AB000080501EE105AB8EE411A32EE011AB7EEEF
:100AC000002A31EE021A21EE810A1DE001EE100A21
:100AD000B8EE411ADFED301A81EE812A9FED2C1A13
:100AE000C0EE811A284D10352D68C5F3080501EEBA
:100AF000105AB8EE411A31EE811AF7EE001A31EEB3
:100B0000211A22EE010A00BF00BF1F4D10352D68CB
:100B1000C5F3462501EE105AB8EE411AF7EE001A59
:100B200031EE211AC0EE011ABCEEE11A81ED001A75
:100B3000154D10352D68C5F3064501EE105AB8EE77
:100B4000411AF7EE001A31EE211AC0EE011ABCEE7E
:100B5000E11A81ED011A0C4D10352D68C5F30665BB
:100B600001EE105AB8EE411AF7EE001A31EE211AD2
:100B7000C0EE011ABCEEE11A81ED021A03E0002575
:100B80000D604D608D6070BD284402580090D00308
:100B9000000000460024744C0024744A20BCBE4B64
:100BA00070B50146844D2D6805F00303824D2D6814
:100BB000C5F30550804D2D1D2D68C5F300247E4DD5
:100BC0001C352D68C5F3CC0515FB04F501EE105A54
:100BD000B8EE411AF0EE410A00286FD023B1012B84
:100BE0004ED0022B6BD16BE0734D283D2D68C5F3C1
:100BF00040153DB3704D283D2D68C5F3C1066F4DBE
:100C000025FA06F201EE102AF8EE411A01EE100A5A
:100C1000B8EE411A81EE812A9FED691AC0EE811A61
:100C2000654D18352D68C5F3080501EE105AB8EE6C
:100C3000411A31EE811AF7EE001A31EE211A22EE36
:100C4000010A1CE001EE100AB8EE411ADFED5D1A50
:100C500081EE812A9FED5A1AC0EE811A564D183541
:100C60002D68C5F3080501EE105AB8EE411A31EEB1
:100C7000811AF7EE001A31EE211A22EE010A5BE02A
:100C800001EE100AB8EE411ADFED4F1A81EE812A0B
:100C90009FED4B1AC0EE811A474D18352D68C5F3EC
:100CA000080501EE105AB8EE411A31EE811AF7EE3E
:100CB000001A31EE211A22EE010A3DE077E01DE034
:100CC00001EE100AB8EE411A9FED402AC2EE011A59
:100CD0009FED3B1A80EE812A374D18352D68C5F3FC
:100CE000080501EE105AB8EE411A32EE011AB7EEBD
:100CF000002A31EE021A21EE810A1DE001EE100AEF
:100D0000B8EE411ADFED301A81EE812A9FED2C1AE0
:100D1000C0EE811A284D18352D68C5F3080501EE7F
:100D2000105AB8EE411A31EE811AF7EE001A31EE80
:100D3000211A22EE010A00BF00BF1F4D18352D6891
:100D4000C5F3462501EE105AB8EE411AF7EE001A27
:100D500031EE211AC0EE011ABCEEE11A81ED001A43
:100D6000154D18352D68C5F3064501EE105AB8EE3D
:100D7000411AF7EE001A31EE211AC0EE011ABCEE4C
:100D8000E11A81ED011A0C4D18352D68C5F3066581
:100D900001EE105AB8EE411AF7EE001A31EE211AA0
:100DA000C0EE011ABCEEE11A81ED021A03E0002543
:100DB0000D604D608D6070BD284402580090D003D6
:100DC000000000460024744C0024744A20BCBE4B32
:100DD0002DE9F04104460025A8464FF00062D4E911
:100DE000001011400020134659404040014331D1CA
:100DF000A06E48B1B0F5801F0DD0B0F5001F11D026
:100E0000B0F5401F16D114E0F948006840F40030F6
:100E1000F749086010E0022104F1080003F0D2FB5A
:100E2000054609E0022104F1280003F07DFC054697
:100E300002E001E0012500BF00BF55B9EC482430B5
:100E4000006820F44010A16E0843E949243108608D
:100E500000E0A8464FF48073D4E900101940002048
:100E60005940404001432ED1A06D05281BD2DFE838
:100E700000F0030A11181900DD48006840F4003042
:100E8000DB49086011E0002104F1080003F09AFB3F
:100E900005460AE0002104F1280003F045FC054660
:100EA00003E002E001E0012500BF00BF55B9D048D2
:100EB0002430006820F00700A16D0843CC4924319C
:100EC000086000E0A8464FF40073D4E90010194010
:100ED000002059404040014334D1E06D802818D0B3
:100EE00003DC40B140281DD10CE0C02818D0B0F57B
:100EF000807F17D115E0BE48006840F40030BC493F
:100F0000086011E0002104F1080003F05BFB0546D6
:100F10000AE0002104F1280003F006FC054603E086
:100F200002E001E0012500BF00BF55B9B048243000
:100F3000006820F4E070E16D0843AD492431086099
:100F400000E0A8464FF48063D4E900101940002067
:100F500059404040014339D1D4F8A800B0F5800F82
:100F60001AD004DC50B1B0F5001F1ED10DE0B0F571
:100F7000C00F18D0B0F5000F17D115E09C480068DD
:100F800040F400309A49086011E0002104F10800A3
:100F900003F018FB05460AE0002104F1280003F0E5
:100FA000C3FB054603E002E001E0012500BF00BFEE
:100FB0005DB98F482C30006820F46000D4F8A81088
:100FC00008438B492C31086000E0A8464FF40062CA
:100FD000D4E900101140002013465940404001431D
:100FE00039D1D4F8AC00B0F1007F1AD004DC50B194
:100FF000B0F1807F1ED10DE0B0F1407F18D0B0F18C
:10100000806F17D115E07A48006840F400307849C5
:10101000086011E0002104F1080003F0D3FA05464E
:101020000AE0002104F1280003F07EFB054603E0FE
:1010300002E001E0012500BF00BF5DB96C482C3023
:10104000006820F0E060D4F8AC10084368492C3107
:10105000086000E0A8464FF00073D4E90001184092
:10106000002158404940084328D1E06CA8B110281D
:1010700004D0202809D0302810D10DE05C48006849
:1010800040F400305A4908600AE0022104F10800E7
:1010900003F098FA054603E002E001E0012500BFF5
:1010A00000BF55B952482030006820F03000E16C94
:1010B00008434F492031086000E0A8464FF48053B0
:1010C000D4E900101940002059404040014337D175
:1010D000206EB0F5005F1AD004DC50B1B0F5805F2F
:1010E0001ED10DE0B0F5405F18D0B0F5804F17D19C
:1010F00015E03F48006840F400303D49086011E0C9
:10110000002104F1080003F05DFA05460AE0002121
:1011100004F1280003F008FB054603E002E001E0CB
:10112000012500BF00BF55B931482430006820F4C4
:10113000E040216E08432E492431086000E0A846B3
:101140004FF40053D4E900101940002059404040AA
:10115000014335D1606EB0F5403F1ED007DC68B169
:10116000B0F5803F0BD0B0F5003F19D10EE0B0F5DF
:10117000802F13D0B0F5A02F12D110E012E0012182
:1011800004F1080003F01EFA05460BE0012104F10A
:10119000280003F0C9FA054604E003E002E001E09C
:1011A000012500BF00BF55B911482430006820F464
:1011B000E020616E08430E492431086000E0A84633
:1011C0004FF48043D4E900011840002158404940C1
:1011D000084337D1D4F8B000B0F1405F20D009DC2B
:1011E00078B1B0F1805F0DD0B0F1005F1BD110E09D
:1011F0002C440258B0F1804F13D0B0F1A04F12D15F
:1012000010E012E0012104F1080003F0DBF90546CB
:101210000BE0012104F1280003F086FA054604E002
:1012200003E002E001E0012500BF00BF4DB9FE4828
:10123000006820F0E040D4F8B0100843FA49086094
:1012400000E0A8464FF40042D4E90010114000200D
:10125000134659404040014329D1206FB0B1B0F14D
:10126000805F03D0B0F1005F11D108E0EE482C3868
:10127000006840F40030EC492C39086009E0012195
:1012800004F1080003F09EF9054602E001E00125A3
:1012900000BF00BF55B9E4480838006820F040504E
:1012A000216F0843E0490839086000E0A8464FF084
:1012B0008072D4E90010114000201346594040408C
:1012C00001432AD1A06CB8B1012804D002280BD068
:1012D000032812D10FE0D4482C38006840F40030C5
:1012E000D1492C3908600AE0022104F1080003F01A
:1012F00069F9054603E002E001E0012500BF00BFF7
:1013000055B9C9480C38006820F00300A16C0843A7
:10131000C5490C39086000E0A8464FF48002D4E9C2
:1013200000011040002113465840494008437DD138
:10133000BE48006840F48070BC490860FFF78CF933
:10134000064606E0FFF788F9801B642801D90325CB
:1013500005E0B648006800F480700028F2D000BFB5
:1013600085BBB1481830006800F44070B4F8B41080
:1013700001F44071884213D0AB481830006820F463
:101380004077A9481830006840F48030A6491831E9
:1013900008600846006820F480300860084607604E
:1013A000D4F8B400B0F5807F15D1FFF755F90646A3
:1013B00009E0FFF751F9801B41F28831884202D9D8
:1013C000032507E038E0984818300068C0F3400073
:1013D0000028EED000BF55BB00BFB4F8B40000F445
:1013E0004070B0F5407F0ED18F484838006820F437
:1013F0007C518F4AD4F8B400104041EA10108A4959
:101400004839086007E088484838006820F47C5074
:10141000854948390860844818300068B4F8B41029
:10142000C1F30B0108438049183101E005E001E0F8
:10143000086002E0A84600E0A8460122D4E90001C5
:1014400010400021134658404940084330D1E06F16
:1014500018281AD005DC48B1082808D0102817D160
:101460000CE0202812D0282812D110E012E001212F
:1014700004F1080003F0A6F805460BE0012104F191
:10148000280003F051F9054604E003E002E001E022
:10149000012500BF00BF55B96348001F006820F058
:1014A0003800E16F08436049091F086000E0A84662
:1014B0000222D4E90001104000211346584049405F
:1014C000084329D1A06F062816D2DFE800F00304F4
:1014D0000B12131412E0012104F1080003F072F85A
:1014E00005460BE0012104F1280003F01DF9054633
:1014F00004E003E002E001E0012500BF00BF55B9B0
:101500004948001F006820F00700A16F08434649C2
:10151000091F086000E0A8460423D4E90010194020
:10152000002059404040014329D1D4F894000628B6
:1015300016D2DFE800F003040B12131412E00121AD
:1015400004F1080003F03EF805460BE0012104F128
:10155000280003F0E9F8054604E003E002E001E0BA
:10156000012500BF00BF4DB92F48006820F00700DB
:10157000D4F8941008432C49086000E0A8462023C2
:10158000D4E900011840002158404940084337D1B0
:10159000D4F89000B0F1405F1ED007DC68B1B0F124
:1015A000805F0BD0B0F1005F19D10EE0B0F1804F39
:1015B00013D0B0F1A04F12D110E012E0002104F1DD
:1015C000080002F0FFFF05460BE0022104F12800AD
:1015D00003F0AAF8054604E003E002E001E001257B
:1015E00000BF00BF5DB91048001F006820F0E04058
:1015F000D4F8901008430C49091F086000E0A84681
:101600004023D4E9001019400020594040400143D4
:101610003CD1D4F89C00B0F5406F25D00EDCA0B1D1
:10162000B0F5806F12D005E05844025800480258C7
:10163000FFFCFF0FB0F5006F19D10EE0B0F5805F31
:1016400013D0B0F5A05F12D110E012E0002104F138
:10165000080002F0B7FF05460BE0022104F1280064
:1016600003F062F8054604E003E002E001E0012532
:1016700000BF00BF4DB9FE48006820F4E050D4F828
:101680009C100843FA49086000E0A8468023D4E98A
:1016900000101940002059404040014335D1D4F892
:1016A000A000B0F5C04F1ED007DC68B1B0F5005FF8
:1016B0000BD0B0F5804F19D10EE0B0F5004F13D02C
:1016C000B0F5204F12D110E012E0002104F1080023
:1016D00002F078FF05460BE0022104F1280003F038
:1016E00023F8054604E003E002E001E0012500BF25
:1016F00000BF4DB9DE48006820F46040D4F8A01067
:101700000843DB49086000E0A8460823D4E900103C
:101710001940002059404040014317D1D4F88400BB
:10172000B0F5805F07D1022104F1280002F0FCFF30
:1017300008B14FF00108CE48001F006820F4405067
:10174000D4F884100843CA49091F08601023D4E95B
:1017500000101940002059404040014315D1D4F8F1
:101760009800B0F5807F07D1022104F1280002F033
:10177000DBFF08B14FF00108BD48006820F440705D
:10178000D4F898100843BA4908604FF40022D4E90D
:10179000000110400021134658404940084327D11A
:1017A000D4F8A40030B1B0F5803F0AD0B0F5003FC6
:1017B0000FD10DE0002104F1080002F003FF0546FF
:1017C00009E0022104F1280002F0AEFF054602E024
:1017D00001E0012500BF00BF4DB9A548006820F415
:1017E0004030D4F8A4100843A149086000E0A8469E
:1017F0004FF48023D4E900011840002158404940AB
:1018000008432DD1D4F88800B0F5801F06D0B0F57C
:10181000001F0CD0B0F5401F11D10FE094482C38B8
:10182000006840F4003092492C39086009E0012139
:1018300004F1280002F078FF054602E001E00125EE
:1018400000BF00BF5DB98A48001F006820F4401047
:10185000D4F8881008438649091F086000E0A846AC
:101860004FF48032D4E90001104000211346584063
:101870004940084325D1206D18B1B0F5803F10D103
:1018800008E07B482C38006840F4003078492C3957
:10189000086008E0022104F1080002F093FE05460A
:1018A00001E0012500BF00BF55B971480C38006840
:1018B00020F48030216D08436D490C39086000E048
:1018C000A8464FF00052D4E9001011400020134602
:1018D00059404040014307D1022104F1280002F0A1
:1018E00023FF08B14FF001084FF40033D4E90001A1
:1018F0001840002158404940084329D1D4F88000BD
:10190000A0B1B0F5807F06D0B0F5007F0CD0B0F567
:10191000407F0CD109E056482C38006840F4003074
:1019200053492C39086004E003E002E001E001259E
:1019300000BF00BF5DB94E48001F006820F4407032
:10194000D4F8801008434A49091F086000E0A846FF
:101950004FF48012D4E90010114000201346594082
:101960004040014309D142480838006820F0004057
:10197000616F08433E49083908604FF08052D4E94E
:1019800000101140002013465940404001430AD145
:1019900037484838006820F48040D4F8B81008432D
:1019A0003349483908604FF40012D4E9001011405F
:1019B0000020134659404040014309D12C480838C3
:1019C000006820F08070E16E0843294908390860FA
:1019D0004FF08042D4E900101140002013465940D6
:1019E0004040014311D100BF21484838006820F42D
:1019F00000401F494839086008460068D4F8BC1008
:101A000008431B494839086000BF4FF00042D4E941
:101A1000001011400020134659404040014309D1B5
:101A200013480C38006820F04050616D084310499D
:101A30000C3908604FF40002D4E900101140002076
:101A400013465940404001430AD10948001F00682D
:101A500020F44000D4F88C1008430549091F0860A1
:101A6000012300216068184001224940504001E0F4
:101A700058440258014306D104F1080002F0A2FDC7
:101A8000054605B1A8460222002160681040494081
:101A90005040014307D1012104F1080002F092FDFA
:101AA000054605B1A84604230020616819400422B8
:101AB00040405140084307D1022104F1080002F0E0
:101AC00081FD054605B1A84608230021606818403D
:101AD000082249405040014306D104F1280002F099
:101AE00023FE054605B1A84610220021606810407B
:101AF00049405040014307D1012104F1280002F080
:101B000013FE054605B1A846202200206168114059
:101B100040405140084307D1022104F1280002F05F
:101B200003FE054605B1A846B8F1000F02D100201A
:101B3000BDE8F0810120FBE72DE9F04104460D46A8
:101B400014B90120BDE8F081BD48006800F00F0025
:101B5000A8420ED2BA48006820F00F002843B849C6
:101B600008600846006800F00F00A84201D001207C
:101B7000E8E7207800F0040004280ED1B14920697C
:101B8000096801F07001884207D9AE48006820F06A
:101B9000700021690843AB490860207800F0080014
:101BA000082811D1A749091D6069096801F0700171
:101BB000884209D9A348001D006820F070006169BF
:101BC0000843A049091D0860207800F01000102883
:101BD00011D19C49091DA069096801F4E06188429E
:101BE00009D99848001D006820F4E060A169084305
:101BF0009449091D0860207800F02000202811D1A8
:101C000090490831E069096801F07001884209D9FA
:101C10008C480830006820F07000E1690843894969
:101C200008310860207800F0020002280ED18549B2
:101C3000E068096801F00F01884207D9814800680F
:101C400020F00F00E16808437E490860207800F02A
:101C50000100002850D07B48006820F47060A16823
:101C60000843784908606068022807D17548183829
:101C70000068C0F34040F8B9012063E760680328BA
:101C800007D1704818380068C0F34060A0B901203F
:101C900058E76068012807D16A4818380068C0F31F
:101CA000002048B901204DE7664818380068C0F3A5
:101CB000800008B9012045E762480838006820F034
:101CC0000700616808435F4908390860FEF7C4FCF3
:101CD000064608E0FEF7C0FC801B41F288318842CE
:101CE00001D903202EE757480838006800F0380073
:101CF0006168B0EBC10FEDD1207800F0020002283E
:101D00000ED15049E068096801F00F01884207D2FE
:101D10004C48006820F00F00E1680843494908601A
:101D20004748006800F00F00A8420ED944480068F8
:101D300020F00F002843424908600846006800F080
:101D40000F00A84201D00120FCE6207800F004003A
:101D500004280ED13B492069096801F070018842CE
:101D600007D23848006820F07000216908433549DF
:101D70000860207800F00800082811D13149091DB9
:101D80006069096801F07001884209D22D48001D80
:101D9000006820F07000616908432A49091D086045
:101DA000207800F01000102811D12649091DA069E3
:101DB000096801F4E061884209D22248001D0068E8
:101DC00020F4E060A16908431E49091D08602078DD
:101DD00000F02000202811D11A490831E069096873
:101DE00001F07001884209D216480830006820F0DE
:101DF0007000E169084313490831086000F076F883
:101E000010490968C1F303210F4A515C01F01F0119
:101E100020FA01F70B48006800F00F001146085C3B
:101E200000F01F0027FA00F0084908600848076022
:101E300008480068FEF752FC8046404682E60000F3
:101E40000020005218440258DC760008D400002418
:101E5000D0000024C800002410B500F047F80D4958
:101E60000968C1F303210C4A515C01F01F0120FAFB
:101E700001F40848006800F00F001146085C00F00B
:101E80001F0024FA00F00549086005480460084670
:101E9000006810BD18440258DC760008D400002405
:101EA000D000002400B5FFF7D7FF05490968C1F34A
:101EB0000211044A515C01F01F01C84000BD00003E
:101EC0001C440258DC76000800B5FFF7C5FF054941
:101ED0000968C1F30221044A515C01F01F01C840A6
:101EE00000BD00001C440258DC760008F0B5824EAC
:101EF000366806F0380636B1082E15D0102E15D0EB
:101F0000182E7DD114E07C4E103E3668C6F3401684
:101F100046B1794E103E3668C6F3C107774E26FAB1
:101F200007F000E07548E5E07548E3E07548E1E05A
:101F3000714E1836366806F003046F4E1836366850
:101F4000C6F305116C4E1C36366806F001056A4E64
:101F500024363668C6F3CC0616FB05F601EE106A89
:101F6000B8EE410A002971D024B1012C50D0022CC6
:101F70006DD16DE0604E103E3668C6F340163EB33C
:101F80005D4E103E3668C6F3C1075C4E26FA07F375
:101F900001EE103AF8EE411A01EE101AB8EE411AAD
:101FA00081EE812A9FED581AC0EE011A524E20365A
:101FB0003668C6F3080601EE106AB8EE411A31EE33
:101FC000811AF7EE001A31EE211A62EE010A1EE0C4
:101FD00001EE101AB8EE411ADFED4C1A81EE812A9B
:101FE0009FED491AC0EE011A434E20363668C6F3FB
:101FF000080601EE106AB8EE411A31EE811A00E0CF
:1020000076E0F7EE001A31EE211A62EE010A5BE08B
:1020100001EE101AB8EE411A9FED3D2AC2EE011AE8
:102020009FED391A80EE012A334E20363668C6F30A
:10203000080601EE106AB8EE411A32EE011AB7EE48
:10204000002A31EE021A61EE810A3DE04EE01DE009
:1020500001EE101AB8EE411ADFED2E1A81EE812A38
:102060009FED291AC0EE011A234E20363668C6F3BA
:10207000080601EE106AB8EE411A31EE811AF7EE49
:10208000001A31EE211A62EE010A1DE001EE101A6B
:10209000B8EE411A9FED1E2AC2EE011A9FED1A1AE0
:1020A00080EE012A144E20363668C6F3080601EE8B
:1020B000106AB8EE411A32EE011AB7EE002A31EE7C
:1020C000021A61EE810A00BF00BF0B4E203636684F
:1020D000C6F34626721C01EE102AB8EE411AC0EE75
:1020E000811ABCEEE11A11EE100A00E0002001E0B6
:1020F000034800BF00BFF0BD104402580090D00359
:1021000000093D0040787D01000000460024744C29
:102110000024744A20BCBE4B2DE9F047044614B994
:102120000120BDE8F087207800F00100002870D081
:10213000FA48006800F03808F8481830D0F80090E5
:10214000B8F1100F06D0B8F1180F0FD109F0030045
:1021500002280BD1F14810380068C0F34040002835
:102160006AD06068002867D10120DAE700BF6068A4
:10217000B0F5803F08D1E9481038006840F480305D
:10218000E649103908602EE0606868B9E348103805
:10219000006820F48030E149103908600846006882
:1021A00020F4802008601EE06068B0F5A02F0DD1FB
:1021B000DA481038006840F48020D84910390860A7
:1021C0000846006840F4803008600CE0D3481038BE
:1021D000006820F48030D149103908600846006852
:1021E00020F48020086000BF606898B1FEF734FAE0
:1021F000054606E0FEF730FA401B642801D90320AB
:102200008FE7C64810380068C0F340400028F1D07E
:1022100012E012E0FEF720FA054606E0FEF71CFA8F
:10222000401B642801D903207BE7BC4810380068B4
:10223000C0F340400028F1D100BF207800F0020038
:10224000022874D1B548006800F03808B348183047
:10225000D0F80090B8F1000F05D0B8F1180F56D1A2
:1022600009F00300D0BBAD4810380068C0F380000F
:1022700018B1E06808B9012053E7A8481038006891
:1022800020F01900E1680843A44910390860FEF7FE
:10229000E3F9054606E0FEF7DFF9401B022801D905
:1022A00003203EE79D4810380068C0F380000028F6
:1022B000F1D000BFFEF7CAF941F2030188421AD8F3
:1022C000206940280BD195480C38006820F47C30F8
:1022D00040F4003091490C39086017E017E08F484E
:1022E0000C38006820F47C30216940EA01308B49C9
:1022F0000C3908600AE089480C38006820F0FE407C
:10230000217C40EA016085490C39086066E0E0689C
:1023100088B382481038006820F01900E16808434B
:102320007E4910390860FEF797F9054607E056E048
:10233000FEF792F9401B022801D90320F1E6774805
:1023400010380068C0F380000028F1D000BFFEF70D
:102350007DF941F2030188421AD8206940280BD147
:102360006E480C38006820F47C3040F400306B4933
:102370000C39086017E017E068480C38006820F452
:102380007C30216940EA013064490C3908600AE078
:1023900062480C38006820F0FE40217C40EA016071
:1023A0005E490C39086019E05C481038006820F07C
:1023B00001005A4910390860FEF74EF9054606E05B
:1023C000FEF74AF9401B022801D90320A9E6534829
:1023D00010380068C0F380000028F1D100BF2078D9
:1023E00000F0100010287CD14C48006800F038083C
:1023F0004A481830D0F80090B8F1080F06D0B8F16C
:10240000180F3DD109F00300012839D14348103895
:102410000068C0F3002020B1E069802801D00120CD
:102420007FE600BFFEF712F941F2030188421AD895
:10243000206A20280AD139480C38006820F0F8407A
:1024400040F0804035490C39086018E033480C38BA
:10245000006820F0F84094F8201040EA81602F498D
:102460000C3908600BE02D48001F006820F07C50FC
:1024700094F8201040EA01602849091F086066E0CE
:10248000E06978B325481038006840F0800023499F
:1024900010390860FEF7E0F8054606E0FEF7DCF8C4
:1024A000401B022801D903203BE61C481038006875
:1024B000C0F300200028F1D000BFFEF7C7F841F2BA
:1024C000030188421CD8206A20280CD113480C38FC
:1024D000006820F0F84040F0804010490C39086056
:1024E0001AE035E01CE00D480C38006820F0F84098
:1024F00094F8201040EA816008490C3908600BE02C
:102500000648001F006820F07C5094F8201040EA34
:1025100001600249091F086019E0000010440258D8
:10252000FA48006820F08000F8490860FEF794F847
:10253000054606E0FEF790F8401B022801D903206B
:10254000EFE5F2480068C0F300200028F2D100BF98
:10255000207800F00800082836D16069D0B1EB4837
:102560007430006840F00100E84974310860FEF7FB
:1025700073F8054606E0FEF76FF8401B022801D904
:102580000320CEE5E14874300068C0F34000002825
:10259000F1D019E0DD487430006820F00100DB491B
:1025A00074310860FEF758F8054606E0FEF754F867
:1025B000401B022801D90320B3E5D44874300068D9
:1025C000C0F340000028F1D1207800F0200020283E
:1025D00030D1A069B8B1CD48006840F48050CB49F3
:1025E0000860FEF739F8054606E0FEF735F8401BAF
:1025F000022801D9032094E5C4480068C0F34030A4
:102600000028F2D016E0C148006820F48050BF498D
:102610000860FEF721F8054606E0FEF71DF8401BAE
:10262000022801D903207CE5B8480068C0F3403097
:102630000028F2D1207800F0040004287DD1B448AD
:10264000006840F48070B2490860FEF705F805465E
:1026500006E0FEF701F8401B642801D9032060E57D
:10266000AB48006800F480700028F2D000BFA0687A
:10267000012808D1A5487030006840F00100A34946
:10268000703108602DE0A06868B9A048703000681B
:1026900020F001009D49703108600846006820F074
:1026A000040008601DE0A06805280DD1974870302F
:1026B000006840F0040095497031086008460068E1
:1026C00040F0010008600CE090487030006820F095
:1026D00001008E49703108600846006820F004004F
:1026E000086000BFA068A0B1FDF7B6FF054608E08E
:1026F000FDF7B2FF401B41F28831884201D9032027
:102700000FE5824870300068C0F340000028EFD029
:1027100013E0FDF7A1FF054608E0FDF79DFF401B14
:1027200041F28831884201D90320FAE477487030B9
:102730000068C0F340000028EFD1606A00287DD017
:1027400072481030006800F03800182877D0606AAE
:10275000022875D16D48006820F080706B490860D0
:10276000FDF77AFF054606E0FDF776FF401B0228DD
:1027700001D90320D5E465480068C0F34060002813
:10278000F2D100BFD4E90A1041EA00105F492831B4
:10279000096840F2F332914308435C4928310860EC
:1027A000208E401EC0F30800616B491E4FF47E422C
:1027B00002EA41210843218F491ED20102EA014168
:1027C00008433C21095D491E120202EA01610843E7
:1027D0004E493031086000BF081F006820F001003A
:1027E000091F08604948343000684FF6F871884383
:1027F000A16C40EAC10045493431086043482C309F
:10280000006820F00C00216C084340492C3108601E
:102810000846006820F00200616C08433B492C31F7
:1028200008600846006840F4803008600846006888
:1028300040F4003008600846006802E093E038E0A9
:102840001FE040F4802008600846006840F0010066
:1028500008602E48006840F080702C490860FDF741
:10286000FBFE054606E0FDF7F7FE401B022801D9F6
:10287000032056E425480068C0F340600028F2D0E9
:1028800071E02248006820F0807020490860FDF760
:10289000E3FE054606E0FDF7DFFE401B022801D9F6
:1028A00003203EE419480068C0F340600028F2D1DC
:1028B00059E0164828300768144830300668606AC6
:1028C000012821D007F00301A06A81421CD1C7F37F
:1028D0000511E06A884217D1C6F30801206B401E3B
:1028E000814211D1606B401EC6F3462188420BD154
:1028F000A06B401EC6F30641884205D1E06B401E26
:10290000C6F30661884205D001200AE4004402585B
:102910000048025815480068C0F3CC07A06CB842C4
:1029200021D012480838006820F001000F4908390A
:102930000860FDF791FE054600BFFDF78DFE401BC8
:10294000FBD00A4800684FF6F8718843A16C40EA52
:10295000C1000649086005480838006840F00100D9
:1029600002490839086000204AE400003444025853
:102970002DE9F04104460D4616461F4614B90120C4
:10298000BDE8F081D4F8880028B9002084F88400DC
:10299000204600F06DFB2420C4F888002068006801
:1029A00020F0010021680860A06A10B1204602F002
:1029B00031FA204602F056FB012800D1E0E72068FA
:1029C000806840F48040216888602068806820F436
:1029D00000402843216888604FEA465848EA074883
:1029E000206800680749084040EA0800216808603C
:1029F0002068006840F0010021680860204602F06D
:102A000085FABDE7FFFF00FC70B504462546681E49
:102A1000B0F1807F01D301200FE0681E4FF0E0216C
:102A200048610F214FF0FF3002F056FE00204FF0BA
:102A3000E021886107200861002070BD7047704761
:102A40007047000030B502460B4600BF92F83C00CC
:102A5000012801D1022030BD012082F83C0000BFD6
:102A6000022082F83D001068416810688468214D9A
:102A70001068A84203D0204D1068A84203D121F469
:102A800070015868014321F0700118680143106813
:102A90004160184D1068A8421BD01068B0F1804FFB
:102AA00017D0164D1068A84213D0154D1068A842D3
:102AB0000FD0144D1068A8420BD00F4D1068A842DB
:102AC00007D0114D1068A84203D0104D1068A842DD
:102AD00005D124F0800498680443106884600120C4
:102AE00082F83D0000BF002082F83C0000BF00BF1C
:102AF000B1E7000000000140000401400004004074
:102B000000080040000C0040001800400040014058
:102B100010B504460CB9012010BD94F83D0028B949
:102B2000002084F83C00204600F02AF8022084F8B7
:102B30003D00211D206801F0B3FF012084F848000A
:102B400000BF84F83E0001213F200155402001557F
:102B500041200155422001554320015500BF00BFCF
:102B6000012084F8440045200155462001554720A6
:102B7000015500BF012084F83D000020CCE7000093
:102B800038B504462068B0F1804F15D100BF0B481E
:102B9000006840F00100094908600846006800F03C
:102BA0000100009000BF00BF00220F211C20FDF794
:102BB0004BFE1C20FDF734FE38BD0000E8440258EF
:102BC000014691F83D00012801D001207047022004
:102BD00081F83D000868C06840F001000B68D860CB
:102BE0001C4B086898421BD00868B0F1804F17D082
:102BF000194B0868984213D0184B086898420FD0B8
:102C0000174B086898420BD0164B0868984207D0BB
:102C1000154B0868984203D0144B0868984210D1AD
:102C200008688068124B00EA0302062A0FD0B2F54A
:102C3000803F0CD00868006840F001000B68186005
:102C400005E00868006840F001000B68186000208B
:102C5000BCE7000000000140000400400008004004
:102C6000000C0040000401400018004000400140FA
:102C7000070001002DE9F04104460D46002700BF82
:102C800094F83C00012802D10220BDE8F081012027
:102C900084F83C0000BF022084F83D00206886686C
:102CA0004048064026F47F462068866028687028E1
:102CB00026D00CDC00F00F01002966D10011072896
:102CC00063D2DFE800F0555657584B374100B0F15A
:102CD000101F52D009DCB0F5805F10D0B0F5005F56
:102CE0001BD0B0F5801F50D146E0A0F580102038F1
:102CF000002843D0102842D0202846D140E046E0AA
:102D0000D5E902136A68206801F034FF20688668FC
:102D100046F077062068866039E0D5E902136A68D4
:102D2000206801F027FF2068806840F48040216817
:102D300088602CE0EA686968206801F033FF502160
:102D4000206801F023FF22E0EA686968206801F04A
:102D50003CFF6021206801F019FF18E0EA6869680B
:102D6000206801F01FFF4021206801F00FFF0EE0F6
:102D700000BF00BF00BF00BF00BF00BF00BF00BF5B
:102D80002968206801F002FF01E0012700BF00BFB1
:102D9000012084F83D0000BF002084F83C0000BF03
:102DA000384672E788FFCEFF704770B5044620684A
:102DB000C6682068056905F00200022819D106F0EE
:102DC0000200022815D1401F2168086101202077E8
:102DD0002068806900F0030018B12046FFF7E4FF87
:102DE00005E0204600F0ADF8204600F0ABF80020EA
:102DF000207705F00400042819D106F00400042807
:102E000015D1C043216808610220207720688069BD
:102E100000F4407018B12046FFF7C6FF05E02046D9
:102E200000F08FF8204600F08DF80020207705F0A4
:102E30000800082819D106F00800082815D1C04359
:102E400021680861042020772068C06900F0030031
:102E500018B12046FFF7A8FF05E0204600F071F802
:102E6000204600F06FF80020207705F010001028B1
:102E700019D106F01000102815D1C043216808614F
:102E8000082020772068C06900F4407018B12046FF
:102E9000FFF78AFF05E0204600F053F8204600F0D7
:102EA00051F80020207705F0010048B106F001003C
:102EB00030B16FF0010021680861204600F043F84E
:102EC00005F08000802804D005F40050B0F5005FC4
:102ED0000AD106F08000802806D16FF402502168E4
:102EE00008612046FFF7ABFD05F48070B0F5807FE8
:102EF0000AD106F08000802806D16FF48070216826
:102F000008612046FFF79AFD05F04000402809D1EE
:102F100006F04000402805D1C043216808612046E2
:102F200000F01CF805F02000202809D106F0200050
:102F3000202805D1C043216808612046FFF780FDA5
:102F400070BD7047704710B504462068B0F1804FDF
:102F500003D101F0FFF801F04DFE10BD70470146AE
:102F600000BF91F88400012801D1022070470120A0
:102F700081F8840000BF2420C1F888000868026836
:102F80000868006820F001000B68186022F0005209
:102F900000204866086802602020C1F8880000BF51
:102FA000002081F8840000BF00BFDFE770B5044651
:102FB0000D4600BF94F88400012801D1022070BDA5
:102FC000012084F8840000BF2420C4F88800206811
:102FD00006682068006820F0010021680860206809
:102FE000806820F06060284321688860204601F0F6
:102FF000E5FE206806602020C4F8880000BF00209D
:1030000084F8840000BF00BFD9E770B504460D46C0
:1030100000BF94F88400012801D1022070BD012076
:1030200084F8840000BF2420C4F888002068066863
:103030002068006820F0010021680860206880682E
:1030400020F06040284321688860204601F0B6FEE9
:10305000206806602020C4F8880000BF002084F8A3
:10306000840000BF00BFD9E70146D1F89000704747
:1030700010B5B8B00446142132A8FDF779F9C02183
:1030800002A8FDF775F9BD492068884253D1022195
:103090000020CDE90210209002A8FDF799FE08B1AA
:1030A000FDF7A5F900BFB648006840F40020B44918
:1030B00008600846006800F40020019000BF00BFCF
:1030C00000BFAF480838006840F00100AC4908393B
:1030D00008600846006800F00100019000BF00BFD2
:1030E000012032900220339000203490022035904D
:1030F0000820369032A9A348FDF7A2F94FF40060EA
:103100003290022033900120349002203590062026
:10311000369032A99B48FDF793F94FF40040329066
:1031200002203390349035900820369032A995488B
:10313000FDF786F91FE19449206888425ED102219B
:103140000020CDE90210209002A8FDF741FE08B151
:10315000FDF74DF900BF8A48006840F000408849FB
:1031600008600846006800F00040019000BF00BF02
:1031700000BF83480838006840F0080080490839DB
:1031800008600846006800F00800019000BF00BF1A
:1031900000BF0846006840F010000860084600685C
:1031A00000F01000019000BF00BF4FF400403290CB
:1031B00002203390349035900820369032A973481D
:1031C000FDF73EF901203290022033900120349027
:1031D000022035900820369032A96D48FDF730F96D
:1031E0000220329033900020349002203590082045
:1031F000369032A96648FDF723F9BCE0654920689E
:10320000884264D101200021CDE9020100202190F3
:1032100002A8FDF7DDFD08B1FDF7E9F800BF584849
:103220000830006840F01000554908310860084631
:10323000006800F01000019000BF00BF00BF5048C0
:103240000838006840F002004D4908390860084617
:10325000006800F00200019000BF00BF00BF0846F8
:10326000006840F0010008600846006800F00100B6
:10327000019000BF00BF4FF4804032900220339095
:1032800000203490022035900420369032A9424824
:10329000FDF7D6F84FF40040329002203390012021
:1032A0003490022035900420369032A93A48FDF738
:1032B000C7F84FF48050329002203390349035900C
:1032C0000720369032A92F48FDF7BAF853E033496A
:1032D000206888424FD102210020CDE902102090C1
:1032E00002A8FDF775FD08B1FDF781F800BF24487D
:1032F000006840F40030224908600846006800F485
:103300000030019000BF00BF00BF1D4808380068B2
:1033100040F001001A49083908600846006800F0CA
:103320000100019000BF00BF022032903390349022
:1033300035900720369032A91248FDF781F8042015
:1033400032900220339000203490022035900720E4
:10335000369032A90B48FDF773F80820329002200E
:10336000339001203490022035900720369032A906
:103370000448FDF765F838B010BD0000004C00406F
:10338000E844025800000258007C0040000C02583B
:103390000010025800100140000402580044004090
:1033A0002DE9F84F04460E4617469A46D4F88C008D
:1033B00020287CD106B117B90120BDE8F88F002084
:1033C0005C3460632220206300202061FDF744F913
:1033D0008346278067805C3C00BFA068B0F5805FB3
:1033E0000AD1206920B940F2FF10A4F8600020E063
:1033F000FF20A4F860001CE0A06848B9206918B953
:10340000FF20A4F8600014E07F20A4F8600010E022
:10341000A068B0F1805F09D1206918B97F20A4F8B5
:10342000600006E03F20A4F8600002E00020A4F85D
:10343000600000BFB4F86090A068B0F5805F04D170
:10344000206910B90025B04602E035464FF000086B
:1034500023E05B46002220212046CDF800A002F0A8
:10346000C7F820B12020C4F88C000320A5E745B997
:103470002068406A00EA0900A8F8000008F1020884
:1034800006E02068406A09F0FF01084028706D1CC2
:10349000B4F85E00401EA4F85E00B4F85E00002898
:1034A000D7D12020C4F88C00002086E7FFE7022057
:1034B00083E72DE9F84F04460E4617469946D4F89F
:1034C0008800202854D106B117B90120BDE8F88F33
:1034D00000205434E06321206063FDF7BDF882468C
:1034E00027806780543CA068B0F5805F04D12069D4
:1034F00010B90025B04602E035464FF0000820E044
:103500005346002280212046CDF8009002F070F84A
:1035100020B12020C4F888000320D7E745B9B8F8C7
:103520000000C0F308002168886208F1020803E087
:103530002878216888626D1CB4F85600401EA4F8F3
:103540005600B4F856000028DAD153460022402134
:103550002046CDF8009002F04BF820B12020C4F8AE
:1035600088000320B2E72020C4F888000020ADE7DF
:103570000220ABE700BFFEE738B50446DFED2C0ABA
:103580009FED2C0A2C4B2D4A00210120009400F0C5
:10359000C3F8DFED270A9FED270A274B274A0121B1
:1035A0000846009400F0B8F8DFED210A9FED210AEB
:1035B000214B224A00210220009400F0ADF8DFEDFB
:1035C0001C0A9FED1C0A1C4B1C4A0121022000947E
:1035D00000F0A2F8DFED160A9FED160A164B174A07
:1035E00000210320009400F097F8DFED110A9FED11
:1035F000110A114B114A01210320009400F08CF8AC
:10360000DFED0F0A9FED0F0A0B4B0C4A002104203F
:10361000009400F081F8DFED0A0A9FED0A0A064BDC
:10362000064A01210420009400F076F838BD00001D
:10363000CDCCCC3D5839B43C0C260024AC0600243B
:103640006F12833A3D0A573E38B50446DFED2C0A27
:103650009FED2C0A2C4B2D4A00210120009400F0F4
:10366000E5FBDFED270A9FED270A274B274A0121BB
:103670000846009400F0DAFBDFED210A9FED210AF5
:10368000214B224A00210220009400F0CFFBDFED05
:103690001C0A9FED1C0A1C4B1C4A012102200094AD
:1036A00000F0C4FBDFED160A9FED160A164B174A11
:1036B00000210320009400F0B9FBDFED110A9FED1B
:1036C000110A114B114A01210320009400F0AEFBB6
:1036D000DFED0F0A9FED0F0A0B4B0C4A002104206F
:1036E000009400F0A3FBDFED0A0A9FED0A0A064BE7
:1036F000064A01210420009400F098FB38BD000028
:10370000CDCCCC3D5839B43C5C650024FC4500244C
:103710006F12833A3D0A573E2DE9F05F2DED048B81
:103720000746884615461E46B0EE408B0E9C9FED20
:103730009D0AB0EE409A9FED9B0AF0EE409A4FF042
:103740000009CA46CB46012F06D0022F09D0032F0D
:103750000CD0042F14D10EE0DFF84C92DFF84CA20D
:1037600012E0DFF84C92DFF84CA20DE0DFF848924F
:10377000DFF848A208E0DFF848B2DFF848A203E02B
:10378000BDEC048BBDE8F09F00BFB8F1000F76D10F
:10379000012F06D0022F1ED0032F36D0042F6CD15C
:1037A0004FE041F29C30284400EB8400D0ED000A49
:1037B000854890ED000AB7EE001A01EE200AB0EE3F
:1037C000409A41F29C30304400EB840090ED000AB6
:1037D000F0EE409A51E041F67430284400EB84004A
:1037E000D0ED000A794890ED000AB7EE001A01EE1C
:1037F000200AB0EE409A41F67430304400EB840069
:1038000090ED000AF0EE409A37E005F57B7000EB92
:103810008400D0ED000A6E4890ED000ABFEE001A59
:1038200001EE200AB0EE409A06F57B7000EB8400B2
:1038300090ED000AFFEE000A20EE200AF0EE409A1A
:103840001BE005F6C43000EB8400D0ED000A6148AF
:1038500090ED000ABFEE001A01EE200AB0EE409A89
:1038600006F6C43000EB840090ED000AFFEE000A7B
:1038700020EE200AF0EE409A00BF71E0FFE7B8F1B9
:10388000010F6DD1012F06D0022F20D0032F3CD085
:10389000042F64D14DE005F57B6000EB8400D0ED92
:1038A000000A4D4890ED000ABFEE001A01EE200A12
:1038B000B0EE409A06F57B6000EB840090ED000AC4
:1038C000FFEE000A20EE200AF0EE409A47E041F2B7
:1038D0008870284400EB8400D0ED000A3F4890ED4A
:1038E000000ABFEE001A01EE200AB0EE409A41F243
:1038F0008870304400EB840090ED000AFFEE000A6F
:1039000020EE200AF0EE409A29E005EB8400D0ED8D
:10391000000A334890ED000AB7EE001A01EE200AC3
:10392000B0EE409A06EB840090ED000AF0EE409A6B
:1039300015E005F5FB6000EB840090ED000A2948D6
:10394000D0ED000A30EE200AB0EE409A06F5FB609A
:1039500000EB840090ED000AF0EE409A00BF00BF3B
:10396000042F0CD1F0EE681AB0EE481AF0EE690A96
:10397000B0EE490A4146584602F000FF0BE0F0EE77
:10398000681AB0EE481AF0EE690AB0EE490A4146EC
:10399000484603F01DF83946504603F0A1FA00BF2F
:1039A000EEE6000000000000DC0000243087002468
:1039B0001E010024C4870024600100249C8600248A
:1039C000A40100240886002410000024180000240C
:1039D0002000002428000024140000241C000024DF
:1039E000240000242C00002410B5324890ED000A79
:1039F00002F0A8FADFED300AB4EEE00AF1EE10FAB8
:103A000053D92E4890ED000A02F09CFADFED2A0A05
:103A1000B4EEE00AF1EE10FA47D9294890ED000A19
:103A200002F090FADFED240AB4EEE00AF1EE10FAAB
:103A30003BD9244890ED000A02F084FADFED1E0A1B
:103A4000B4EEE00AF1EE10FA2FD91F4890ED000A0B
:103A500002F078FADFED180AB4EEE00AF1EE10FA9F
:103A600023D91A4890ED000A02F06CFADFED120A31
:103A7000B4EEE00AF1EE10FA17D9154890ED000AFD
:103A800002F060FADFED0C0AB4EEE00AF1EE10FA93
:103A90000BD9104890ED000A02F054FADFED060A47
:103AA000B4EEE00AF1EE10FA01D8002010BD0120BA
:103AB000FCE7000010000024BD3786351400002408
:103AC000180000241C0000242000002424000024EE
:103AD000280000242C00002410B58BE09FED600A24
:103AE0000021604803F0E2F801215F4803F0F8F993
:103AF0005E48406E5E4908600520FCF78DFC9FED36
:103B0000580A0121574803F0D1F80121564803F023
:103B1000E7F95848406E584908600520FCF77CFCDE
:103B20009FED4F0A0021554803F0C0F80221544888
:103B300003F0D6F95348406E534908600520FCF75E
:103B40006BFC9FED470A01214C4803F0AFF80221BE
:103B50004B4803F0C5F94D48406E4D4908600520BB
:103B6000FCF75AFC9FED3E0A00214A4803F09EF8FC
:103B70000321494803F0B4F94848406E48490860B9
:103B80000520FCF749FC9FED360A0121414803F06E
:103B90008DF80321404803F0A3F94248406E4249A2
:103BA00008600520FCF738FC9FED2D0A00213F48F6
:103BB00002F02CFE04213E4803F092F93D4890EDBE
:103BC000050A3D4880ED000A0520FCF725FC9FED25
:103BD000240A0121354802F019FE0421344803F07B
:103BE0007FF9364890ED050A354880ED000A05203A
:103BF000FCF712FCFFF7F8FE00283FF46FAF1C48FB
:103C000090ED000A2F4880ED000A1B4890ED000A55
:103C10002C4880ED010A1C4890ED000A294880EDEF
:103C2000020A1B4890ED000A264880ED030A1C4852
:103C300090ED000A234880ED040A1B4890ED000A2D
:103C4000204880ED050A1C4890ED000A1D4880EDD3
:103C5000060A1B4890ED000A1A4880ED070A10BDBD
:103C600000000000DC00002430870024480200240B
:103C700010000024D4020024140000241E0100249B
:103C8000C48700246003002418000024EC030024EF
:103C90001C000024600100249C8600247804002479
:103CA000200000240405002424000024A401002492
:103CB00008860024D0010024280000240C020024DF
:103CC0002C0000249C85002410B59FED460A00219D
:103CD000454802F0C3FF0121444803F001F944487C
:103CE000406E444908600520FCF796FB9FED3D0AB5
:103CF00001213D4802F0B2FF01213C4803F0F0F8F9
:103D00003D48406E3B4948600520FCF785FB9FED30
:103D1000350A0021394802F0A1FF0221384803F09A
:103D2000DFF83848406E334988600520FCF774FBA3
:103D30009FED2C0A0121314802F090FF022130480A
:103D400003F0CEF83048406E2A49C8600520FCF7E1
:103D500063FB9FED240A00212C4802F07FFF032122
:103D60002B4803F0BDF82B48406E2249086105201E
:103D7000FCF752FB9FED1B0A0121244802F06EFF65
:103D80000321234803F0ACF82348406E19494861E9
:103D90000520FCF741FB9FED130A00211F4802F0AC
:103DA00015FD04211E4803F09BF81E4890ED050AFE
:103DB000104880ED060A0520FCF72EFB9FED090A4E
:103DC0000121164802F002FD0421154803F088F88D
:103DD000154890ED050A074880ED070A0520FCF715
:103DE0001BFB10BD00000000DC0000243087002415
:103DF000480200247C850024D40200241E010024F3
:103E0000C487002460030024EC0300246001002424
:103E10009C8600247804002404050024A4010024C6
:103E200008860024D00100240C0200242DE9F05F54
:103E30002DED048B0746884615461E46B0EE408B96
:103E40000E9C9FED8F0AB0EE409A9FED8D0AF0EE2A
:103E5000409A4FF00009CA46CB46012F06D0022FE8
:103E600009D0032F0CD0042F14D10EE0DFF81492E8
:103E7000DFF814A212E0DFF81492DFF814A20DE0CC
:103E8000DFF81092DFF810A208E0DFF810B2DFF8D8
:103E900010A203E0BDEC048BBDE8F09F00BFB8F1B9
:103EA000000F63D1012F06D0022F15D0032F28D089
:103EB000042F5AD13EE005EB840090ED000AF7EEA6
:103EC000000A20EE200AB0EE409A06EB840090ED46
:103ED000000AF0EE409A48E005F5FB6000EB840034
:103EE00090ED000AF7EE000A20EE200AB0EE409AAC
:103EF00006F5FB6000EB840090ED000AF0EE409ABE
:103F000033E005F57B6000EB840090ED000AFFEEE6
:103F1000000A20EE200AB0EE409A06F57B6000EB26
:103F2000840090ED000AFFEE000A20EE200AF0EE79
:103F3000409A1AE041F28870284400EB840090ED2A
:103F4000000AFFEE000A20EE200AB0EE409A41F28D
:103F50008870304400EB840090ED000AFFEE000A08
:103F600020EE200AF0EE409A00BF68E0B8F1010FA1
:103F700065D1012F06D0022F1DD0032F34D0042F7E
:103F80005CD148E005F57B7000EB840090ED000A01
:103F9000FFEE000A20EE200AB0EE409A06F57B7094
:103FA00000EB840090ED000AFFEE000A20EE200AEC
:103FB000F0EE409A42E005F6C43000EB840090ED4C
:103FC000000AFFEE000A20EE200AB0EE409A06F644
:103FD000C43000EB840090ED000AFFEE000A20EEF2
:103FE000200AF0EE409A29E041F29C30284400EB90
:103FF000840090ED000AF7EE000A20EE200AB0EEF1
:10400000409A41F29C30304400EB840090ED000A6D
:10401000F0EE409A12E041F67430284400EB840040
:1040200090ED000AB0EE409A41F67430304400EB57
:10403000840090ED000AF0EE409A00BF00BF042F0C
:104040000CD1F0EE681AB0EE481AF0EE690AB0EE44
:10405000490A4146584602F091FB0BE0F0EE681A1F
:10406000B0EE481AF0EE690AB0EE490A41464846F9
:1040700002F0AEFC3946504602F032FF00BF09E7BD
:1040800000000000DC000024308700241E01002412
:10409000C4870024600100249C860024A40100241D
:1040A000088600242148807C01281DD12048007802
:1040B00058B100201E4908701E4908701E4908802A
:1040C0001E4908801E4908800EE00120184908702A
:1040D00000201849087018490880184908801849B4
:1040E00008800120174908701148007868B1164807
:1040F000807C012802D10F49087006E01348807CBB
:10410000012802D102200B4908701148807C012847
:104110000BD10320074908700020054908700649A3
:1041200008800649088006490880704788000024F6
:10413000A4000024A5000024A6000024A800002458
:10414000AA000024AC000024340000245000002405
:104150006C00002410B5074800F01FF8064800F076
:104160001CF8064800F019F8054800F016F8FFF7AB
:1041700099FF10BD34000024500000246C0000247E
:104180008800002410B50446A1882068FCF756FA80
:1041900008B9012010BD0020FCE72DE9F0410446DC
:1041A0002046FFF7EFFF0746FCF756FA05460020CA
:1041B000A074207EB8420BD0606908B9656109E03F
:1041C0006069281A142805D327760020606101E071
:1041D00000206061267EA07930B101280CD0022831
:1041E0001FD003283AD134E02EB10120A071A56080
:1041F00000202074607434E0A068281A40F2DC517A
:10420000884206D30320A071012060740320A074AB
:1042100006E02EB90220A071E560207C401C2074CD
:104220001FE0E068281AB0F5967F0DD3207C0128A6
:1042300001D1A07403E0207C022800D1A0740020EA
:10424000A0712074E06003E016B10120A071A560A8
:1042500007E016B90020A071207402E00020A071D0
:1042600000BF00BFBDE8F0811FB5002000900190A5
:1042700002900390FCF78CFA01208DF800000020DA
:104280008DF8010001901F208DF8080087208DF81F
:10429000090000208DF80A008DF80B0001208DF830
:1042A0000C008DF80D0000208DF80E008DF80F0029
:1042B0006846FCF73FFA0420FCF780FA1FBD0000B7
:1042C00000B587B0142102A8FCF752F800BF2648B9
:1042D000006840F01000244908600846006800F0BB
:1042E0001000019000BF00BF00BF0846006840F00A
:1042F000800008600846006800F08000019000BF60
:1043000000BF00BF0846006840F001000860084692
:10431000006800F00100019000BF00BF00BF084628
:10432000006840F0020008600846006800F00200E3
:10433000019000BF00BF00BF0846006840F00800C1
:1043400008600846006800F00800019000BF00BF48
:104350003C200290002003900120049002A9034811
:10436000FCF76EF807B000BDE04402580010025898
:1043700000B587B00020039004900590069000904F
:10438000019002904FF0804014490860EF2048608F
:1043900000211248816044F61F61C1600021016163
:1043A00080218161FEF7B4FB08B1FCF720F84FF4DF
:1043B0008050039003A90948FEF75CFC08B1FCF7A4
:1043C00016F800200090029069460448FEF73AFB78
:1043D00008B1FCF70CF807B000BD0000BC85002454
:1043E00010B5194819490860194848600021174854
:1043F0008160C16001610C21416100218161C16165
:104400000162416200201149886200231A46194660
:104410000E48FEF7ADFA08B1FBF7E9FF00210B48A3
:10442000FEF7F3FD08B1FBF7E2FF00210748FEF7B6
:10443000BDFD08B1FBF7DBFF0448FEF790FD08B1B6
:10444000FBF7D5FF10BD0000004C0040088600249B
:1044500000093D0010B51B481B4908601B48486017
:10446000002119488160C16001610C214161002176
:104470008161C161016241623020134988624FF459
:1044800080511148C1634900016400231A4619464E
:10449000FEF76EFA08B1FBF7AAFF00210A48FEF703
:1044A000B4FD08B1FBF7A3FF00210748FEF77EFD2E
:1044B00008B1FBF79CFF0448FEF751FD08B1FBF77C
:1044C00096FF10BD007C00409C860024003E490001
:1044D00010B5194819490860194848600021174863
:1044E0008160C16001610C21416100218161C16174
:1044F0000162416200201149886200231A46194670
:104500000E48FEF735FA08B1FBF771FF00210B48A2
:10451000FEF77BFD08B1FBF76AFF00210748FEF7B5
:1045200045FD08B1FBF763FF0448FEF718FD08B12D
:10453000FBF75DFF10BD0000001001403087002434
:10454000003E490010B519481949086019484860EB
:10455000002117488160C16001610C214161002187
:104560008161C161016241620020114988620023BA
:104570001A4619460E48FEF7FBF908B1FBF737FF5C
:1045800000210B48FEF741FD08B1FBF730FF002189
:104590000748FEF70BFD08B1FBF729FF0448FEF7BB
:1045A000DEFC08B1FBF723FF10BD00000044004013
:1045B000C4870024003E490000BFFEE700BFFEE7BD
:1045C000704700002DE9F04104460E46002755488B
:1045D000006800F00300032802D10120BDE8F0814B
:1045E00050482838006820F080604E49283908601B
:1045F000FCF732F8054606E0FCF72EF8401B0228CF
:1046000001D90320EAE7474828380068C0F3C060B2
:104610000028F1D100BF4348006820F47C302168B5
:1046200040EA01303F490860A088401EC0F30800FE
:10463000A168491E4FF47E4202EA41210843A18944
:10464000491ED20102EA01410843217C491E12029F
:1046500002EA0161084333491031086000BF314864
:10466000001D006820F0C000616908432D49091D44
:1046700008600846006820F02000A1690843294925
:10468000091D08600846006820F0100008602548F1
:10469000143000684FF6F8718843E16940EAC100C0
:1046A0002049143108601F48001D006840F01000C8
:1046B0001C49091D08602EB90846006840F4002016
:1046C000086012E0012E08D11648001D006840F471
:1046D00080101449091D086007E01248001D006899
:1046E00040F400100F49091D08600E482838006882
:1046F00040F080600B4928390860FBF7ADFF0546A4
:1047000006E0FBF7A9FF401B022801D9032065E75B
:10471000044828380068C0F3C0600028F1D038464B
:104720005CE70000284402582DE9F04104460E469B
:1047300000275548006800F00300032802D101203B
:10474000BDE8F08150482838006820F080504E497C
:1047500028390860FBF780FF054606E0FBF77CFF81
:10476000401B022801D90320EAE74748283800689F
:10477000C0F340700028F1D100BF4348006820F02A
:104780007C70218840EA01503F490860A088401EA3
:10479000C0F30800A168491E4FF47E4202EA41219D
:1047A0000843A189491ED20102EA01410843217C44
:1047B000491E120202EA01610843334918310860B8
:1047C00000BF3148001D006820F440606169084363
:1047D0002D49091D08600846006820F40070A16991
:1047E00008432949091D08600846006820F48070C4
:1047F000086025481C3000684FF6F8718843E1696D
:1048000040EAC10020491C3108601F48001D0068B3
:1048100040F480701C49091D08602EB908460068E4
:1048200040F48000086012E0012E08D11648001DF7
:10483000006840F400001449091D086007E01248B0
:10484000001D006840F080700F49091D08600E4887
:104850002838006840F080500B4928390860FBF781
:10486000FBFE054606E0FBF7F7FE401B022801D9D8
:10487000032065E7044828380068C0F3407000282A
:10488000F1D038465CE7000028440258704710B564
:10489000FBF7E8FE10BD000000B59DB04C210AA852
:1048A000FBF766FD202102A8FBF762FD0220FCF762
:1048B0001DF800BF002001902948006840F44040E6
:1048C000274908600846006800F4404001902548E8
:1048D000006840F00100234908600846006800F0C5
:1048E0000100019000BF00BF00BF1D48006800F438
:1048F0000050B0F5005FF8D101200A9000040B9041
:10490000022013900221149105211591C0211691C6
:10491000022117911891199108211A9100211B91D8
:104920001C910AA8FDF7F8FB08B1FBF760FD3F20DA
:10493000029003200390002004900820059040205E
:10494000069007900001089040200990042102A8D9
:10495000FDF7F2F808B1FBF74AFD1DB000BD0000FD
:10496000184802582C0400583F48006840F4700072
:104970003D4908603D48006800F00F00072806D256
:104980003A48006820F00F00C01D384908603848D8
:10499000006840F0010036490860002034491031B9
:1049A00008603348006833490840314908602F489F
:1049B000006800F00F00072806D92C48006820F096
:1049C0000F00C01D294908600020294918310860DE
:1049D000091D0860091D086027482549283108601D
:1049E0002648091D08602648091D08600020091D89
:1049F00008602348091D08600020091D0860204840
:104A0000091D08600020091D08601948006820F48D
:104A10008020174908600020154960310860194856
:104A200000686FF30F00B0F1005F02D20120164959
:104A300008600F48D430006800F4805098B90C48E2
:104A4000D430006840F480500949D431086043F202
:104A5000D2000E4908600648D430006820F4805027
:104A60000349D4310860704788ED00E0002000520F
:104A7000004402587FEDF6EA000202020000FF0146
:104A8000800201010010005C0881005100400052CA
:104A900010B50248FEF789F910BD0000BC8500245E
:104AA00010B502682B4B98420ED0B0F1804F0BD05E
:104AB000294B984208D0294B984205D0284B984260
:104AC00002D0284B984203D122F070024B681A435F
:104AD000204B984217D0B0F1804F14D01E4B984213
:104AE00011D01E4B98420ED01D4B98420BD01D4B3F
:104AF000984208D01C4B984205D01C4B984202D0DB
:104B00001B4B984203D122F44072CB681A4322F027
:104B100080034C6943EA04028B68C3620B688362BA
:104B20000C4B98420BD00F4B984208D00E4B98423A
:104B300005D00E4B984202D00D4B984201D10B6923
:104B40000363036843F004030360012343610260CD
:104B500010BD0000000001400004004000080040BB
:104B6000000C0040000401400040014000440140AE
:104B70000048014030B50C46816821F47F4142EA8B
:104B8000032525432943816030BD00000A46816822
:104B9000034B194042F0070319438160704700003E
:104BA0008FFFCFFF30B50B461446026A056A25F029
:104BB00001050562816921F0F00141EA041122F04A
:104BC0000A021A438161026230BD30B50B461446B9
:104BD000026A056A25F010050562816921F47041B9
:104BE00041EA043122F0A00242EA0312816102622A
:104BF00030BD000000B5A7B06848007800287DD01F
:104C000067480078012802D0022878D14DE0654835
:104C10000088002846D164480088002842D16348B3
:104C2000008838BB1822624921A8FBF788FB1822AC
:104C30005F4918311BA8FBF782FB182115A8FBF769
:104C400097FB18210FA8FBF793FB182109A8FBF786
:104C50008FFB182103A8FBF78BFB03A80FA9B1EE6C
:104C6000040A1BAB09AACDE9001015A921A801F07F
:104C70004FF800BF4D480088FB280CDA4748007801
:104C800048B14A480088FEF777FC48480088401C35
:104C90004649088008E045490988491E88B2FEF760
:104CA0006BFC01E002F046F852E040480088002822
:104CB0004AD13D480088002846D13A48008858BB70
:104CC00018223B49303121A8FBF739FB182238491B
:104CD00048311BA8FBF733FB182115A8FBF748FB4D
:104CE00018210FA8FBF744FB182109A8FBF740FB8C
:104CF000182103A8FBF73CFB03A801E029E026E00C
:104D00000FA9B1EE040A1BAB09AACDE9001015A941
:104D100021A800F0FDFF00BF22480088FB280CDA24
:104D20001E48007848B11F480088FEF725FC1D4842
:104D30000088401C1B49088008E01A490988491E60
:104D400088B2FEF719FC01E001F0F4FF00E000BFBB
:104D500000BF1348007803281ED11348008838B9D3
:104D6000FEF7B2FFB1EE040A1249134801F0D2FF78
:104D70000D480088FB2809DA0B480088FEF764FC20
:104D800009480088401C0849088005E00649098850
:104D9000491E88B2FEF758FC27B000BDA4000024CD
:104DA000A5000024A8000024AA000024A6000024D6
:104DB000547600089C8500247C85002470B5456EDF
:104DC0002DB90125A0F86A50A0F868501CE0102306
:104DD00010240568AD68C5F342610568AD686A0FC7
:104DE0000A4DAD5C15FB04F5094EB65C95FBF6F576
:104DF000A0F86A50054D6D5C15FB03F5044E765C1A
:104E000095FBF6F5A0F8685070BD0000CC76000860
:104E1000D476000890F8281001F00801082907D17D
:104E20000168496821F40041826B114302685160B6
:104E300090F8281001F0010139B10168496821F4A6
:104E40000031C26A11430268516090F8281001F0E5
:104E50000201022907D10168496821F48031026BFF
:104E600011430268516090F8281001F004010429F0
:104E700007D10168496821F48021426B114302681F
:104E8000516090F8281001F01001102907D1016835
:104E9000896821F48051C26B11430268916090F8D7
:104EA000281001F02001202907D10168896821F428
:104EB0000051026C11430268916090F8281001F0D3
:104EC0004001402913D10168496821F48011426CE6
:104ED000114302685160416CB1F5801F07D1016830
:104EE000496821F4C001826C11430268516090F856
:104EF000281001F08001802907D10168496821F458
:104F00000021C26C114302685160704738B50446F5
:104F10000020C4F89000FBF79FFB0546206800685E
:104F200000F00800082821D16FF07E402B460022B7
:104F30004FF400110090204600F05AFBB0B100BFC2
:104F400000BF216851E8001F21F08000226842E87C
:104F500000010029F5D100BF2020C4F8880000BF5F
:104F6000002084F8840000BF032038BD206800685A
:104F700000F00400042830D16FF07E402B46002260
:104F80004FF480010090204600F032FB28B300BFB0
:104F900000BF216851E8001F21F49070226842E8A8
:104FA00000010029F5D100BF00BF00BF2168083112
:104FB00051E8001F21F001002168083141E800029A
:104FC000002AF3D100BF2020C4F88C0000BF0020CD
:104FD00084F8840000BF0320C7E72020C4F88800BD
:104FE000C4F88C000020E066206700BF84F88400CD
:104FF00000BF00BFB9E7000000BF00BF026852E871
:10500000002F22F49071036843E80012002AF5D1C2
:1050100000BF00BF00BF0268083252E8002F104BEB
:1050200002EA03010268083242E80013002BF2D1C1
:1050300000BFC16E01290CD100BF00BF026852E859
:10504000002F22F01001036843E80012002AF5D176
:1050500000BF2021C0F88C100021C1664167704755
:10506000FEFFFFEF2DE9F04F89B0054600200890C4
:10507000F8492868884200D100E000BF2969A86883
:10508000084369690843E96940EA0108286800683B
:10509000F149084040EA080029680860286840682B
:1050A00020F44050E968084329684860D5F8188022
:1050B000E8492868884202D0286A40EA0808286837
:1050C0008068E649084040EA080029688860286846
:1050D000C06A20F00F00696A08432968C86200BFEF
:1050E000DF492868884220D1DE48006800F0380097
:1050F000182811D005DC48B1082809D0102811D192
:1051000008E020280AD028280CD109E001240BE06F
:10511000042409E0082407E0102405E0202403E02B
:10512000402401E0802400BFF8E0CF49286888428D
:1051300019D1CC48006800F00700062810D2DFE83B
:1051400000F0030507090B0D00240BE0042409E01F
:10515000082407E0102405E0202403E0402401E0B7
:10516000802400BFDAE0C1492868884219D1BD48CF
:10517000006800F00700062810D2DFE800F0030501
:1051800007090B0D00240BE0042409E0082407E0C4
:10519000102405E0202403E0402401E0802400BF27
:1051A000BCE0B3492868884219D1AE48006800F0D5
:1051B0000700062810D2DFE800F0030507090B0DF1
:1051C00000240BE0042409E0082407E0102405E093
:1051D000202403E0402401E0802400BF9EE0A54994
:1051E0002868884219D19F48006800F00700062807
:1051F00010D2DFE800F0030507090B0D00240BE0D7
:10520000042409E0082407E0102405E0202403E03A
:10521000402401E0802400BF80E09749286888424C
:1052200020D19048006800F03800182811D005DC23
:1052300048B1082809D0102811D108E020280AD048
:1052400028280CD109E001240BE0042409E00824FB
:1052500007E0102405E0202403E0402401E080243E
:1052600000BF5BE085492868884219D17D48006805
:1052700000F00700062810D2DFE800F00305070958
:105280000B0D00240BE0042409E0082407E010249F
:1052900005E0202403E0402401E0802400BF3DE03D
:1052A00077492868884219D16E48006800F00700E5
:1052B000062810D2DFE800F0030507090B0D0024D3
:1052C0000BE0042409E0082407E0102405E0202472
:1052D00003E0402401E0802400BF1FE05D4928680E
:1052E00088421AD15F48001D006800F007000628B8
:1052F00010D2DFE800F0030507090B0D02240BE0D4
:10530000042409E0082407E0102405E0202403E039
:10531000402401E0802400BF00E0802400BF4D490C
:10532000286888427DD1102C1AD006DC022C09D0C6
:10533000042C0BD0082C29D10DE0202C21D0402C9E
:1053400024D120E0FBF702FB064623E005A8FBF78B
:105350000FFB069E1EE002A8FBF722FC039E19E04D
:10536000404854380068C0F3401040B13D485438BC
:105370000068C0F3C101434820FA01F600E0414E45
:1053800008E0414E06E04FF4004603E0002601200D
:10539000089000BF00BF002E10D03C49686A31F869
:1053A0001000B6FBF0F9686800EB4000484503D8F0
:1053B00068680003484502D20120089003E13349A0
:1053C000686A31F810C06246002330461946FAF781
:1053D00085FF4FF4807300228446ACFB030B01FB76
:1053E00003B10CFB021C69684908034659184CEBD1
:1053F0000200CDE90010D5F804C06246002308463B
:105400000199FAF76BFF0746B7F5407F06D3B7F56A
:10541000801F03D22868C760D5E002E00120089011
:10542000D1E0E869B0F5004F7BD1082C39D005DC1C
:105430005CB1012C2CD0042C4CD12DE0102C35D09B
:10544000202C42D0402C45D141E0FCF72BFD0646F4
:1054500044E00000000C0058F369FFCFFFF4FF1197
:1054600000100140544402580044004000480040ED
:10547000004C004000500040001401400078004003
:10548000007C00400090D00300093D00B476000885
:10549000FCF71AFD064621E005A8FBF769FA069E0F
:1054A0001CE002A8FBF77CFB039E17E04C48006859
:1054B000C0F3401038B14A480068C0F3C101494800
:1054C00020FA01F600E0474E08E0474E06E04FF4B0
:1054D000004603E000260120089000BF00BFFEB197
:1054E0004249686A31F81000B6FBF0F04000696884
:1054F00000EB5100B0FBF1F7102F0FD3B7F5803F51
:105500000CD24FF6F07007EA000AC7F342004AEAED
:10551000000A2868C0F80CA055E002E001200890BD
:1055200051E0082C1AD005DC5CB1012C0DD0042C04
:105530002DD10EE0102C16D0202C23D0402C26D1BB
:1055400022E0FCF7AFFC064625E0FCF7BDFC064672
:1055500021E005A8FBF70CFA069E1CE002A8FBF769
:105560001FFB039E17E01E480068C0F3401038B1CF
:105570001B480068C0F3C1011A4820FA01F600E098
:10558000184E08E0184E06E04FF4004603E00026EF
:105590000120089000BF00BFAEB11449686A31F81D
:1055A0001000B6FBF0F0696800EB5100B0FBF1F7BA
:1055B000102F06D3B7F5803F03D2B8B22968C86070
:1055C00001E0012008900120A5F86A00A5F8680014
:1055D00000206867A867089809B0BDE8F08F000050
:1055E000004402580090D00300093D00B476000842
:1055F0002DE9F04104460D4617469846069E41E0C7
:10560000701C00283ED0FBF727F8A0EB0800B04242
:1056100000D816B90320BDE8F0812068006800F0CA
:10562000040070B3802D2DD0402D2BD02068C06990
:10563000C0F3C00078B10820216808622046FFF757
:10564000DBFC0820C4F8900000BF002084F8840030
:1056500000BF0120DFE72068C069C0F3C02080B12F
:105660004FF40060216808622046FFF7C5FC202047
:10567000C4F8900000BF002084F8840000BF03201D
:10568000C9E7FFE72068C0692840A84201D101208E
:1056900000E00020B842B3D00020BCE700BFFEE726
:1056A0004100080218BF04200A0E18BF40F0010094
:1056B0004FF07F4232EA010108BF40F002000128AA
:1056C00008BF05207047000002480068C0F30220B0
:1056D000704700000CED00E010B5002804DB0A075D
:1056E000130E054A135406E00A07140E034A00F08D
:1056F0000F031B1FD45410BD00E400E018ED00E0C0
:1057000010EE101A08B5434A6846B2EB410F26D98D
:105710004FF0E640B0EB410F94BF00204FF0FF3058
:1057200000900098DFED3C0A002860DB10F0010FCC
:1057300046D060EE000ADFED391A9FED391A10F0FD
:10574000020F00EEE11ADFED371A40EE811A21EE6A
:10575000A01AF0EE400A40EE010A2ED041E0324B92
:1057600021F0004293423FD911F0004FDFED2F0AA4
:1057700020EE201ADFED2E0A19BF31EE601A71EE0D
:10578000200A31EE201A71EE600ABDEEE01A11EE29
:10579000100A9FED281A00F0030000EEC10A9FEDE9
:1057A000261A009000EEC10A9FED241A00EEC10AED
:1057B0009FED231A00EEC10AB3E7F1EE600A10E094
:1057C00020EE000A9FED1F1ADFED1F1A10F0020FE6
:1057D00040EE011A9FED1D1A00EE211A40EE010A5B
:1057E000EBD1B0EE600A08BD00F02CF999E710EE9D
:1057F000100A4000B0F17F4FF3D307D14FF0010002
:1058000000F0DAF9BDE8084000F00CB9BDE8084046
:1058100000F005B9B61F927E0000803F336D4C3911
:10582000DA82083CA0AA2ABE490E494683F9223FE3
:105830000000004B0000C93F00A0FD390020A2334A
:105840001A61342CB93AB2BACA9F2A3DDDFFFFBEB5
:1058500000B510EE101A2DED028B81B0524A684649
:10586000B2EB410F2ED94FF0E640B0EB410F94BFA1
:1058700000204FF0FF3000900098B0EE408A0028E2
:105880006ADB10F0010F4BD068EE080A9FED471A53
:105890009FED470A00EE810A9FED461A00EE801A3E
:1058A0009FED450A10F0020F00EE810A02BF01B021
:1058B000BDEC028B00BD00BF01B0B1EE400ABDECF3
:1058C000028B00BD3D4B21F00042934241D911F0C3
:1058D000004FDFED3B0A20EE201ADFED3A0A19BF38
:1058E00031EE601A71EE200A31EE201A71EE600A74
:1058F000BDEEE01A11EE100A9FED331A00F003001E
:1059000000EEC10A9FED311A009000EEC10A9FED32
:10591000301A00EEC10A9FED2F1A00EEC10AABE764
:1059200028EE080A9FED2C1ADFED2C0A10F0020F6A
:1059300040EE410A9FED2A1A00EE201A61EE000A9D
:10594000B0EE480A08EE200AB6D101B0BDEC028BD9
:1059500000BD00F077F88FE718EE100A4000B0F1B4
:105960007F4F0DD218EE100AFFF79AFE042808BFE9
:1059700000F060F8B0EE480A01B0BDEC028B00BD4B
:1059800009D1012000F018F901B0BDEC028B5DF8DF
:1059900004EB00F047B801B0B0EE480ABDEC028B52
:1059A0005DF804EB00F03BB8B61F927EB93AB2BA8C
:1059B000CA9F2A3DDDFFFFBE0000803F490E4946D9
:1059C00083F9223F0000004B0000C93F00A0FD39D1
:1059D0000020A2331A61342C336D4C39DA82083C32
:1059E000A0AA2ABE10B52DED028BB1EEC08A18EE2A
:1059F000100A20F00040C0F1FF40C00F0AD010EEA6
:105A0000100A20F00040C0F1FF40C00F04BF012089
:105A100000F0D2F8B0EE480ABDEC028B10BD30EEBB
:105A2000000A7047DFED020A80EEA00A704700000E
:105A3000000000009FED020A20EE000A70470000FF
:105A4000000000102DE9F0014FF07F42B2EB410F52
:105A50009FBF4FF0FF310160BDE8F00170474FF08C
:105A6000004242EA0123C1F3C752783A551112F0BD
:105A70001F0C434CCCF120067C44C1F3C752A2F169
:105A800078024FEA621204EB820254F8254008BF04
:105A9000D2E9015612D0556804FA0CF425FA06F73B
:105AA0003C43976805FA0CF527FA06F8D26807FA1E
:105AB0000CFCF24045EA08054CEA0206A4FB034C44
:105AC000A5FB0352A6FB03631D449D4234BF012680
:105AD00000261319334416B1934202D903E09342CE
