:020000040800F2
:1000000008440124B10200086B2E000819280008DA
:10001000692E0008E9030008913B00080000000079
:10002000000000000000000000000000B1300008E7
:10003000EB030008000000006D2E0008B33000083C
:10004000CF020008CF020008CF020008CF0200084C
:10005000CF020008CF020008CF020008CF0200083C
:10006000CF020008CF020008CF020008CF0200082C
:10007000CF020008CF020008CF020008CF0200081C
:10008000CF020008CF020008CF020008CF0200080C
:10009000CF020008CF020008CF020008CF020008FC
:1000A000CF020008CF020008CF020008CF020008EC
:1000B00059320008CF020008CF020008CF02000822
:1000C000CF020008CF020008CF020008CF020008CC
:1000D000CF020008CF020008CF020008CF020008BC
:1000E000CF020008CF02000800000000CF02000885
:1000F000CF020008CF020008CF020008CF0200089C
:10010000CF020008CF020008CF020008CF0200088B
:10011000CF020008CF020008CF020008CF0200087B
:10012000CF020008CF020008CF020008CF0200086B
:10013000CF020008CF020008CF020008CF0200085B
:1001400000000000000000000000000000000000AF
:10015000CF020008CF020008CF020008CF0200083B
:10016000CF020008CF020008CF020008CF0200082B
:10017000CF020008CF020008CF02000800000000F4
:10018000CF020008CF020008CF020008CF0200080B
:10019000CF020008CF020008CF020008CF020008FB
:1001A000CF020008CF020008CF020008CF020008EB
:1001B000CF020008CF020008CF020008CF020008DB
:1001C000CF020008CF020008CF020008CF020008CB
:1001D000CF020008CF020008CF020008CF020008BB
:1001E000CF020008CF020008CF020008CF020008AB
:1001F000CF020008CF020008CF020008CF0200089B
:10020000CF020008CF020008CF020008CF0200088A
:10021000CF020008CF020008CF020008CF0200087A
:10022000CF020008CF020008CF0200080000000043
:10023000CF020008CF02000800000000CF02000833
:10024000CF020008CF020008CF020008CF0200084A
:10025000CF020008CF020008CF020008CF0200083A
:10026000CF020008CF020008CF020008CF0200082A
:10027000CF020008CF020008CF02000800000000F3
:10028000CF020008CF020008CF02000800000000E3
:1002900000000000CF020008DFF810D000F092F854
:1002A00000480047F5470008AFF3008008440124E8
:1002B000074880470748804707480047FEE7FEE7B2
:1002C000FEE7FEE7FEE7FEE7FEE7FEE7FEE7FEE706
:1002D000F103000861310008990200082DE9F05F80
:1002E0000546002092469B468846064681464024A5
:1002F0001BE0284641464746224600F053F8534645
:100300005A46C01A914110D311461846224600F0B1
:100310003AF82D1A67EB01084F46224601200021CA
:1003200000F031F817EB00094E41201EA4F1010442
:10033000DFDC484631462A464346BDE8F09F40EAA6
:1003400001039B0703D009E008C9121F08C0042A53
:10035000FAD203E011F8013B00F8013B521EF9D23A
:100360007047D2B201E000F8012B491EFBD2704762
:100370000022F6E710B513460A4604461946FFF771
:10038000F0FF204610BD202A04DB203A00FA02F1DB
:10039000002070479140C2F1200320FA03F3194373
:1003A00090407047202A04DB203A21FA02F0002115
:1003B000704721FA02F3D040C2F120029140084375
:1003C00019467047064C074D06E0E06840F001030F
:1003D00094E8070098471034AC42F6D3FFF760FF6B
:1003E000EC5400080C550008FEE7704772B6FEE7B3
:1003F000054805490839026842F0020202600868AF
:100400008004FCD5704700000C48025870B50446C3
:1004100000F030F90546601C02D00448007804441E
:1004200000F028F9401BA042FAD370BDB0000024B0
:100430002DE9F84F03247D4D00234FF001094FF0C3
:10044000B04B4FF00F0AE9E009FA03F73A4076D0D3
:100450000E7906F00306012E01D0022E18D1D0F835
:1004600008C04FEA430ECE6804FA0EF82CEA080CD6
:1004700006FA0EF646EA0C068660D0F804C00E793D
:100480002CEA070CC6F300169E4046EA0C064660AE
:100490000E79F643B6070BD0C6684FEA43088F685B
:1004A00004FA08FC26EA0C0607FA08F73743C76087
:1004B0000E7906F00306022E12D1DE080F694FEA0C
:1004C000437C00EB8606B646366A4FEADC6C0AFAD5
:1004D0000CF807FA0CF726EA08063743CEF8207026
:1004E0000F7906684FEA430807F0030704FA08FC8F
:1004F00007FA08F726EA0C06374307604E6816F439
:10050000403F1CD04A4E376847F0020737603668D4
:100510009F0706F00206009623F0030606F1B04698
:10052000B6463F0FD6F80864DFF808810AFA07FCE0
:10053000404526EA0C0603D14FF0000C41E06CE088
:10054000DFF8F4C0604502D14FF0010C39E0DFF86C
:10055000ECC0604502D14FF0020C32E0DFF8E0C0A1
:10056000604502D14FF0030C2BE0DFF8D8C06045A6
:1005700002D14FF0040C24E0DFF8CCC0604502D17A
:100580004FF0050C1DE0DFF8C4C0604502D14FF00C
:10059000060C16E0DFF8B8C0604502D14FF0070C3A
:1005A0000FE0DFF8B0C0604502D14FF0080C08E062
:1005B000DFF8A4C0604502D14FF0090C01E04FF014
:1005C0000A0C0CFA07FC4CEA060CCEF808C44F687B
:1005D000DBF80060FF0226EA020600D516435F46FC
:1005E000CBF80060D1F804C0DBF804605FEA8C2C23
:1005F00026EA020600D516437E606E684F6826EA3A
:100600000206BF0300D516436E602E684F6826EAC7
:100610000206FF0300D516432E605B1C0A6832FAFF
:1006200003F67FF411AFBDE8F88F0000800000589A
:10063000F44402580000025800040258000802580E
:10064000000C0258001002580014025800180258FA
:10065000001C02580020025800240258006908407B
:1006600000D001207047000001480068000C70476E
:100670000010005C0148806870470000B000002452
:10068000024881680278114481607047B0000024FC
:10069000032010B500F0D4F801F0AEF80F4A10496D
:1006A00014681368C4F3032203F00F038A5CC95C67
:1006B00002F01F0201F01F01D0400A4A20FA01F1A6
:1006C0001160094908600F2000F010F808B10120FE
:1006D00010BD00F079F8002010BD00001844025849
:1006E000BC540008C0000024BC00002470B50D4DAF
:1006F00004462878A0B14FF47A71B1FBF0F00A49B2
:100700000968B1FBF0F001F01BFC48B9102C07D2CE
:1007100000222146501E00F073F800206C6070BD6E
:10072000012070BDB0000024BC000024154BF0B5C2
:10073000083B427813491A600B680A1F23F0010333
:100740000B6043681360057BC67A827A437B2D0772
:10075000847B45EA0665C77B90F809C0067A90F865
:1007600000E045EAC24040EA834040EA444040EAB3
:10077000074040EA0C2040EA460040EA0E000860CC
:10078000F0BD0000A0ED00E0BFF35F8F0448002142
:100790000368034A23F480330360703211607047AA
:1007A00024ED00E0074A40F0010006497032106075
:1007B000086840F480300860BFF34F8FBFF36F8F3D
:1007C0007047000024ED00E0054808B5016841F0DD
:1007D00002010160006800F00200009008BD000006
:1007E000F4440258002809DB410900F01F02890087
:1007F000012001F1E0219040C1F8000170470000A4
:100800000E4BF0B41B680D46C3F30223C3F1070679
:10081000042E00D90426191D072901D2002300E067
:10082000DB1E012404FA06F19C40491E2940641E87
:10083000994014402143F0BC03F0BEB90CED00E038
:10084000064900F0070210B54FF6FF040868044B94
:10085000204040EA02201843086010BD0CED00E083
:100860000000FA05134970B50A68D243520705D54E
:10087000096801F00701814213D118E00A6822F0EB
:10088000070202430A60FFF7F5FE0A4D4FF47A763D
:100890000446083D07E000BFFFF7ECFE001BB04236
:1008A00001D9012070BD2868C0438004F4D4002021
:1008B00070BD00000C48025810B500F057FF054904
:1008C0000968054AC1F30211515C01F01F01C840DB
:1008D00010BD000020440258BC540008494930B5FE
:1008E000484C0B1D0A68143409681D68246802F01E
:1008F0000303C5F30012C1F30531C4F3CC0400298E
:1009000014FB02F200EE102AF8EE400A75D03F4ABE
:100910009FED3D1AB7EE000A6BB1DFED3D1A012BDA
:1009200001D0022B64D002EE101A1168F8EE422AB0
:1009300081EEA22A21E0334C283C23689B0612D585
:10094000344B246801EE901A1168C4F3C104F8EE28
:10095000612AE34001EE903AC1F30801F8EE611A12
:1009600081EEA22A0BE001EE901ADFED2B2A00BFE8
:10097000F8EE611A116882EEA12AC1F3080101EEB6
:10098000901A1168F8EE611A40EE811A71EE800A31
:1009900062EE200AC1F3462101EE101AB8EE411AA8
:1009A00031EE001AC0EE811ABCEEE11A80ED001A99
:1009B0001168C1F3064101EE101AB8EE411A31EE8A
:1009C000001AC0EE811ABCEEE11A80ED011A11681E
:1009D000C1F3066101EE101AB8EE411A31EE000AB9
:1009E00080EE801ABCEEC10A80ED020A30BD04E040
:1009F00001EE901ADFED092ABAE70021016041609B
:100A00008160F3E728440258000000393844025856
:100A10000024744A0090D0030024744C20BCBE4BC8
:100A2000494930B5484C0B1D0A681C3409681D68DB
:100A3000246802F00303C5F30022C1F30551C4F397
:100A4000CC04002914FB02F200EE102AF8EE400A52
:100A500075D03F4A9FED3D1AB7EE000A6BB1DFED4E
:100A60003D1A012B01D0022B64D002EE101A11683E
:100A7000F8EE422A81EEA22A21E0334C283C23687A
:100A80009B0612D5344B246801EE901A1168C4F30A
:100A9000C104F8EE612AE34001EE903AC1F3080187
:100AA000F8EE611A81EEA22A0BE001EE901ADFED5A
:100AB0002B2A00BFF8EE611A116882EEA12AC1F359
:100AC000080101EE901A1168F8EE611A40EE811AE1
:100AD00071EE800A62EE200AC1F3462101EE101A7F
:100AE000B8EE411A31EE001AC0EE811ABCEEE11ADE
:100AF00080ED001A1168C1F3064101EE101AB8EE3C
:100B0000411A31EE001AC0EE811ABCEEE11A80EDF6
:100B1000011A1168C1F3066101EE101AB8EE411A0C
:100B200031EE000A80EE801ABCEEC10A80ED020AA6
:100B300030BD04E001EE901ADFED092ABAE700218A
:100B4000016041608160F3E72844025800000039E9
:100B5000404402580024744A0090D0030024744C8E
:100B600020BCBE4B2DE9FE4F0546DFF8E48350F86C
:100B7000081B0024F64FC943019005F128002646C2
:100B800008F12408009008011DD4A86E50B1B0F5FA
:100B9000801F0CD0B0F5001F0ED0B0F5401F1ED046
:100BA00001240FE0386840F40030386017E0019805
:100BB000022102F05DF903E00098022102F0E8F959
:100BC00004000CD026462888C043C00523D4A86D55
:100BD00005281ED2DFE800F00C11161B1B00AA6EC0
:100BE000D8F8001021F440111143C8F80010EAE7CA
:100BF000386840F40030386009E00198002102F0C4
:100C000037F903E00098002102F0C2F9044674B1FC
:100C100000E0012426462888C043800528D4E86DDA
:100C200080281ED00CDC90B140280ED114E0AA6DB3
:100C3000D8F8001021F007011143C8F80010EAE7C6
:100C4000C02813D0B0F5807F10D001240FE03868A1
:100C500040F40030386009E00198002102F008F902
:100C600003E00098002102F093F904469CB1264667
:100C70002888DFF8DC92C04309F12C0940052CD408
:100C8000D5F8A800B0F5800F20D00DDCA0B1B0F5EC
:100C9000001F0FD115E0EA6DD8F8001021F4E071C3
:100CA0001143C8F80010E3E7B0F5C00F13D0B0F55A
:100CB000000F10D001240FE0386840F40030386095
:100CC00009E00198002102F0D3F803E00098002128
:100CD00002F05EF904467CB126462888C043000530
:100CE0002DD4D5F8AC00B0F1007F21D00EDCA8B136
:100CF000B0F1807F10D116E0D5F8A820D9F8001007
:100D000021F460011143C9F80010E6E7B0F1407F1B
:100D100013D0B0F1806F10D001240FE0386840F498
:100D20000030386009E00198002102F0A1F803E0EA
:100D30000098002102F02CF9044674B12646286878
:100D4000C04380011FD4E86CD8B110280FD02028F0
:100D500012D0302815D0012414E0D5F8AC20D9F8F1
:100D6000001021F0E0611143C9F80010E7E738688E
:100D700040F40030386004E00198022102F078F875
:100D8000044674B126462888C043C0042BD4286E7C
:100D9000B0F5005F20D00DDCA0B1B0F5805F0FD1C1
:100DA00015E06B48EA6C2030016821F030011143F6
:100DB0000160E8E7B0F5405F13D0B0F5804F10D088
:100DC00001240FE0386840F40030386009E00198F1
:100DD000002102F04DF803E00098002102F0D8F85D
:100DE00004468CB126462888C043800429D4686E06
:100DF000B0F5403F23D010DC08B3B0F5803F14D0ED
:100E0000B0F5003F0FD115E02A6ED8F8001021F49C
:100E1000E0411143C8F80010E5E7B0F5802F0ED08F
:100E2000B0F5A02F0BD001240AE00198012102F0B7
:100E30001FF803E00098012102F0AAF8044694B1DB
:100E400026462888C04340042AD4D5F8B000B0F123
:100E5000405F23D010DC08B3B0F1805F14D0B0F154
:100E6000005F0FD115E06A6ED8F8001021F4E02180
:100E70001143C8F80010E4E7B0F1804F0ED0B0F194
:100E8000A04F0BD001240AE00198012101F0F0FFEE
:100E900003E00098012102F07BF8044674B1264675
:100EA0002888C04300041FD4286FD8B1B0F1805FF8
:100EB0000ED0B0F1005F10D0012414E0D5F8B020BE
:100EC000D9F8001021F0E0411143C9F80010E7E71C
:100ED000386840F40030386004E00198012101F0E6
:100EE000C7FF044674B126462868C043C0011ED41B
:100EF000A86CD0B101280ED0022811D0032814D03C
:100F0000012413E02A6FD8F8001021F0405111435A
:100F1000C8F80010E8E7386840F40030386004E0B2
:100F20000198022101F0A4FF0446ACB126462868CE
:100F3000DFF81CB0C043ABF11C0B400252D4054893
:100F4000016841F480710160FFF794FB824611E073
:100F50002C44025800480258FA48AA6C016821F053
:100F6000030111430160E2E7FFF784FBA0EB0A00F5
:100F7000642835D8F4480068C005F5D58CBBDFF887
:100F8000C4A3B5F8B4100AF1240ADAF8000001F499
:100F9000407100F44070884211D0DAF80010DAF89D
:100FA000002021F4407142F48032CAF80020DAF8BF
:100FB000002022F48032CAF80020CAF80010D5F8C8
:100FC000B400B0F5807F1AD1FFF754FB029012E015
:100FD000FFF750FB0299411A41F2883081420AD949
:100FE000032426462878DFF85CA3C0430AF1080AE8
:100FF000C00721D03CE0DAF800008007E8D5D5F83A
:10100000B410C1F30120032858460DD0016821F423
:101010007C510160B5F8B420DAF80010C2F30B027D
:101020001143CAF80010DDE7C84A036802EA11124A
:1010300023F47C511143ECE7E86F182816D005DC47
:10104000A0B1082808D0102804D10AE020280DD02B
:1010500028280BD001240AE00198012101F008FFA3
:1010600003E00098012101F093FF044664B1264695
:101070002878C04380071ED4A86F062819D2DFE85D
:1010800000F0160C11161616EA6FDAF8001021F0AF
:1010900038011143CAF80010EAE70198012101F074
:1010A000E7FE03E00098012101F072FF04467CB1E5
:1010B00000E0012426462878C04340071FD4D5F815
:1010C0009400062819D2DFE800F0160C1116161647
:1010D000AA6FDAF8001021F007011143CAF80010D6
:1010E000E9E70198012101F0C3FE03E00098012126
:1010F00001F04EFF0446A4B100E001242646287802
:10110000C04380062BD4D5F89000B0F1405F24D0C6
:1011100011DC10B3B0F1805F15D0B0F1005F10D1D9
:1011200016E0D5F89420D9F8001021F007011143FA
:10113000C9F80010E3E7B0F1804F0ED0B0F1A04F36
:101140000BD001240AE00198002101F091FE03E098
:101150000098022101F01CFF044694B1264628782D
:10116000C04340062BD4D5F89C00B0F5406F24D086
:1011700011DC10B3B0F5806F15D0B0F5006F10D151
:1011800016E0D5F89020DAF8001021F0E041114384
:10119000CAF80010E3E7B0F5805F0ED0B0F5A05FAD
:1011A0000BD001240AE00198002101F061FE03E068
:1011B0000098022101F0ECFE044694B126462878FE
:1011C000C04300062BD4D5F8A000B0F5C04F24D002
:1011D00011DC10B3B0F5005F15D0B0F5804F10D121
:1011E00016E0D5F89C20D9F8001021F4E051114305
:1011F000C9F80010E3E7B0F5004F0ED0B0F5204F6E
:101200000BD001240AE00198002101F031FE03E037
:101210000098022101F0BCFE044654B1264628780D
:10122000C04300071ED4D5F88400B0F5805F0AD013
:101230000FE0D5F8A020D9F8001021F46041114347
:10124000C9F80010EBE70098022101F0A1FE00B1FF
:101250000126D5F88420DAF8001021F4405111431A
:10126000CAF800102878C043C00613D4D5F89800F7
:10127000B0F5807F05D10098022101F089FE00B110
:101280000126D5F89820D9F8001021F440711143B7
:10129000C9F800102868C043000316D4D5F8A4008C
:1012A00038B1B0F5803F09D0B0F5003F0BD0012434
:1012B0000AE00198002101F0DBFD03E00098022123
:1012C00001F066FE04468CB126462868C043400300
:1012D00022D4D5F88800B0F5801F11D0B0F5001FDA
:1012E00013D0B0F5401F15D0012414E0D5F8A42088
:1012F000D9F8001021F440311143C9F80010E4E797
:10130000386840F40030386004E00098012101F0B2
:101310003FFE04465CB126462868C043C00323D480
:10132000286DA8B1B0F5803F17D001241BE0D5F897
:101330008820DAF8001021F440111143CAF8001097
:10134000EAE700004C44025800480258CFFFFF0073
:10135000386840F40030386004E00198022101F060
:1013600087FD0446E4B126462868C043800005D4C2
:101370000098022101F00CFE00B101262868C0434C
:1013800080031BD4D5F88000B0B1B0F5807F0FD0BA
:10139000B0F5007F10D0B0F5407F0DD001240CE0F7
:1013A0005A482A6D016821F4803111430160DBE75E
:1013B000386840F400303860ECB326462868C043F3
:1013C000C00207D46A6FD8F8001021F00041114321
:1013D000C8F800102868C043C00008D4D5F8B82069
:1013E000DBF8001021F480411143CBF8001028688D
:1013F000C043800207D4EA6ED8F8001021F0807153
:101400001143C8F800102868C04340000CD4DBF832
:10141000001021F40041CBF80010DBF80010D5F8E3
:10142000BC201143CBF800102868C04308D43748CB
:101430006A6D016800E018E021F04051114301603D
:101440002868C043000208D4D5F88C20DAF80010D0
:1014500021F440011143CAF8001028790024C04348
:1014600000F0010020430AD00FE0D5F88020DAF820
:10147000001021F440711143CAF800109EE7019852
:10148000002101F0F5FC00B106462879C04300F0C8
:101490000200204305D10198012101F0E9FC00B1CF
:1014A00006462879C04300F00400204305D1019886
:1014B000022101F0DDFC00B106462879C04300F0AE
:1014C0000800204305D10098002101F061FD00B122
:1014D00006462879C04300F01000204305D100984B
:1014E000012101F055FD00B106462879C04300F006
:1014F0002000044304D10098022101F049FD00B905
:1015000016B10120BDE8FE8F0020FBE74C440258D5
:101510002DE9F05F04000F467ED0DFF83882D8F85E
:10152000000000F00F00B8420CD2D8F8001021F0F3
:101530000F013943C8F80010D8F8000000F00F0080
:10154000B84269D12078844D40070AD520692968BE
:1015500001F07001884204D9296821F0700101432B
:10156000296020787C4E361D00070AD560693168F5
:1015700001F07001884204D9316821F07001014303
:1015800031602078C0060AD5A069316801F4E061B5
:10159000884204D9316821F4E06101433160207848
:1015A000DFF8B4B180060BF1080B0CD5E1695846A1
:1015B000DBF8002002F07002914204D9026822F0A8
:1015C00070020A430260207880070AD5E068296823
:1015D00001F00F01884204D9296821F00F0101436D
:1015E00029602078C0073ED05B49A2682868183976
:1015F00020F47060104328606068022818D0032827
:1016000019D00968012819D0490700294ADADFF8FA
:1016100048A1AAF1080A00E044E0DAF8002022F02C
:1016200007020243CAF80020FFF724F8814612E0BF
:1016300009688903E9E709688901E6E7C905E4E77C
:10164000FFF718F8A0EB090141F28830814202D976
:101650000320BDE8F09F6168DAF8000000F0380070
:10166000B0EBC10FECD1207880070AD5E06829687B
:1016700001F00F01884204D2296821F00F010143D3
:101680002960D8F80010404601F00F01B9420BD98B
:10169000016821F00F0139430160006800F00F007C
:1016A000B84201D00120D4E7207840070AD520694C
:1016B000296801F07001884204D2296821F0700184
:1016C00001432960207800070AD56069316801F07C
:1016D0007001884204D2316821F070010143316009
:1016E0002078C0060AD5A069316801F4E06188421B
:1016F00004D2316821F4E061014331602078800632
:101700000CD5E1695846DBF8002002F070029142E6
:1017100004D2026822F070020A43026000F06CF802
:101720000E492A682B68C2F3032203F00F038A5C78
:10173000C95C02F01F0201F01F01D040084A20FAE4
:1017400001F111600749086007480068BDE8F05FD3
:10175000FEF7CCBF0020005218440258BC540008C9
:10176000C0000024BC000024B400002430B500F008
:1017700043F80B4A0B490C4B15681468C5F3032258
:1017800004F00F048A5C095D02F01F0201F01F01E2
:10179000D040064A20FA01F119601060084630BDB9
:1017A00018440258BC540008C0000024BC000024A7
:1017B00000B5FFF7DBFF05490968054AC1F30211CF
:1017C000515C01F01F01C84000BD00001C440258DC
:1017D000BC54000800B5FFF7C9FF05490968054A70
:1017E000C1F30221515C01F01F01C84000BD00009F
:1017F0001C440258BC540008454970B54548096866
:10180000434B103B11F0380208D00111082A03D0D5
:10181000102A0BD0182A0BD0084670BD196889060B
:10182000FBD51968C1F3C101C84070BD3A4870BD0D
:101830003749374D18310C1D24350A680968266868
:101840002D6802F0030406F00102C1F30511C5F38F
:10185000CC0515FB02F200EE102AB8EE400AE9B3FF
:101860002F4ADFED2E0AB7EE001A6CB1DFED2D1A0C
:10187000012C01D0022C43D002EE101A1068F8EEB1
:10188000422A81EEA22A1EE01C68A40611D51B681C
:1018900001EE901A1168C3F3C103F8EE612AD84033
:1018A00001EE900AC1F30800F8EE611A81EEA22A57
:1018B0000BE001EE901ADFED1C2A00BFF8EE611A72
:1018C000106882EEA12AC0F3080001EE900AF8EE3B
:1018D000611A40EE201A31EE810A00E015E022EE96
:1018E000000A1068C0F34620401C00EE900AF8EE93
:1018F000600A80EE201ABCEEC10A10EE100A70BD1C
:1019000001EE901ADFED092AD8E7002070BD000033
:10191000104402580090D00340787D010000003947
:10192000304402580024744A0024744C20BCBE4B3E
:101930002DE9F05F04007DD0FF4F2078FE4D183771
:10194000DFF8F493103DC00748D0D9F8000039689B
:1019500000F03800102815D0182803D101F003003A
:1019600002280FD06068B0F5803F12D010B1B0F5FA
:10197000A02F18D0286820F480302860286820F430
:10198000802009E02868800328D560680028D2D02C
:1019900024E0286840F480302860606888B1FEF751
:1019A00069FE064609E0286840F480202860F0E7D8
:1019B000FEF760FE801B64286FD828688003F7D587
:1019C0000CE0FEF757FE064605E000BFFEF752FEAC
:1019D000801B6428F0D828688003F7D4207841F26F
:1019E0000308D54E0C3E800769D5D9F80000396848
:1019F00010F038000ED0182801D188070AD0E0680E
:101A000090B3296821F0190101432960FEF732FEE5
:101A1000824631E02868400702D5E06800288AD075
:101A2000E168286820F0190008432860FEF722FECC
:101A3000824607E0DFE000BFFEF71CFEA0EB0A00D5
:101A40000228B9D828684007F6D500BFFEF70CFE7B
:101A500040451BD82069402812D0316821F47C31E0
:101A600041EA003030602AE018E000BFFEF702FED5
:101A7000A0EB0A0002289FD828684007F6D5E5E7C2
:101A8000306820F47C3040F40030EBE7207C316893
:101A900021F0FE4141EA0060E4E70DE1286820F012
:101AA00001002860FEF7E6FD824605E0FEF7E2FD54
:101AB000A0EB0A0002288DD828684007F6D42078C9
:101AC000C0065DD5D9F80000DFF86CB2396800F0C7
:101AD0003800ABF1040B082810D0182803D101F00E
:101AE000030001280AD0E0690028286838D040F0B7
:101AF00080002860FEF7BEFD824623E02868C0050E
:101B000023D5E069802876D11FE0206A202821D0E3
:101B1000316821F0F84141EA8060306030E000BF78
:101B200094F82010DBF8002022F07C5242EA016198
:101B3000CBF8001024E000BFFEF79CFDA0EB0A00EC
:101B4000022898D82868C005F6D5FEF78DFD4045D7
:101B5000E6D8DAE7306820F0F84040F08040DCE773
:101B600020F080002860FEF785FD064605E000BFF6
:101B7000FEF780FD801B02289DD82868C005F7D499
:101B80002078000729D56C486169643000298046B7
:101B9000016811D041F001010160FEF76BFD0646BE
:101BA00005E000BFFEF766FD801B0228C9D8D8F803
:101BB00000008007F6D510E021F001010160FEF77A
:101BC00059FD064605E000BFFEF754FD801B0228C4
:101BD00072D8D8F800008007F6D42078800623D584
:101BE000A0690028286810D040F480502860FEF7D3
:101BF00041FD064605E036E1FEF73CFD801B02286C
:101C00005AD828688004F7D50EE020F48050286068
:101C1000FEF730FD064604E0FEF72CFD801B02288F
:101C20004AD828688004F7D4207840074FD5DFF8D9
:101C30000C81D8F8001041F48071C8F80010FEF74C
:101C400019FD064605E000BFFEF714FD801B642861
:101C500032D8D8F80000C005F6D5374EA0686036F7
:101C600001280AD008B1052813D0306820F00100FF
:101C70003060306820F0040002E0306840F001007D
:101C80003060A06841F2883A90B1FEF7F3FC8046DC
:101C90000AE0306840F004003060EEE7FEF7EAFC4E
:101CA000A0EB0801514507D830688007F6D50EE053
:101CB000FEF7E0FC804607E084E000BFFEF7DAFCB8
:101CC000A0EB080151457DD830688007F6D4606AE2
:101CD000B0B3DFF86480D9F8001008F120084FF69F
:101CE000F87B08F10409C1F3C2010329A8F1040A31
:101CF00069D00228286820F08070286003D0FEF7A1
:101D0000B9FC044684E0FEF7B5FC064605E000BFDA
:101D1000FEF7B0FC801B022877D828688001F7D432
:101D2000E26A40F2F331386854F8283F884340EAC9
:101D300002101843386004E010440258004802586A
:101D4000B5E0217B434622894FF4FE0C208A4FF0F8
:101D5000FE474902267D521E401EA1F50071C2F3C6
:101D600008088AB2761E0CEA004042EA08020243E2
:101D7000504607EA06610A431A60DAF8002022F0AA
:101D80000102CAF80020D9F80020266A22EA0B02D4
:101D900042EAC602C9F80020DAF80010A26921F070
:101DA0000C011143CAF800100168E26921F0020138
:101DB00011430160016841F480310160016841F420
:101DC000003101E021E027E00160016841F4802159
:101DD0000160016841F001010160286840F08070F5
:101DE0002860FEF747FC044605E000BFFEF742FC12
:101DF000001B022809D828688001F7D557E000BFEA
:101E0000FEF738FC001B022802D90320BDE8F09F32
:101E100028688001F4D44AE039680128D8F8000025
:101E200021D0A26A01F0030393421CD1E26AC1F3FC
:101E300005118A4217D1216BC0F30802491E8A425C
:101E400011D1616BC0F34622491E91420BD1A16BA7
:101E5000C0F30642491E914205D1E16BC0F3066012
:101E6000491E814201D00120D0E7A16C4E46D9F82D
:101E70000000C0F3CC00814219D0DAF800005546CA
:101E800020F00100CAF80000FEF7F4FB4FEA00075B
:101E9000FEF7F0FBB842FBD0A26C306820EA0B00E2
:101EA00040EAC2003060286840F00100286000204D
:101EB000ACE700002DE9F04104001D4616460F4630
:101EC00003D0D4F8880018B108E00120BDE8F08103
:101ED000002084F88400204600F0CAFA2420C4F8C8
:101EE00088002068016821F001010160A06A10B13A
:101EF000204601F049FB204601F02AFC0128E5D0EC
:101F0000206871050D4A41EA0541836843F4804326
:101F100083602068836823F400433B438360206828
:101F2000036813400B4303602068016841F001011E
:101F300001602046BDE8F04101F08ABBFFFF00FCD4
:101F4000401EB0F1807F10B501D3012010BD4FF0CD
:101F5000E02460610F21601701F02EFE0020A061D7
:101F60000721216110BD704770477047F0B590F8A8
:101F70003C20012A3BD01F4E012480F83C40022225
:101F800080F83D2002681C4D5368B242D2F808C068
:101F900001D0AA4203D14F6823F470033B430F687A
:101FA00023F070031F4357600268B24213D0B2F1AE
:101FB000804F10D0114B9A420DD0114B9A420AD04B
:101FC000104B9A4207D0AA4205D00F4B9A4202D03A
:101FD0000E4B9A4204D189682CF08003194391601A
:101FE000002180F83D4080F83C100846F0BD0220FA
:101FF000F0BD00000000014000040140000400406A
:1020000000080040000C0040001800400040014063
:1020100010B5040003D094F83D0010B107E0012092
:1020200010BD002084F83C00204600F023F8022078
:1020300084F83D002068211D01F014F9012084F886
:10204000480084F83E0084F83F0084F8400084F89B
:10205000410084F8420084F8430084F8440084F886
:10206000450084F8460084F8470084F83D000020CD
:1020700010BD000008B50068B0F1804F12D10A48C9
:10208000016841F00101016000680022052100F0B3
:10209000010000901C20FEF7B3FBBDE808401C20A7
:1020A000FEF7A0BB08BD0000E844025890F83D10C0
:1020B000012901D001207047174A022180F83D1004
:1020C0000168CB6843F00103CB600068904214D0F4
:1020D000B0F1804F11D0114988420ED0104988428A
:1020E0000BD01049884208D00F49884205D00F49CB
:1020F000884202D00E49884207D181680D4A1140BA
:10210000062906D0B1F5803F03D0016841F00101F6
:102110000160002070470000000001400004004002
:1021200000080040000C004000040140001800407E
:10213000004001400700010070B5044690F83C00E3
:102140000025012814D03A4B012684F83C60022077
:1021500084F83D0022689068184020F47F40906029
:10216000086870282FD010DC10F00F0F03D022E089
:102170004FF0020070BD4FEA2012072A1BD2DFE8A1
:1021800002F0535353534B394100B0F1101F4BD061
:1021900009DCB0F5805F0FD0B0F5005F1ED0B0F560
:1021A000801F08D140E0A0F5801120393CD01029D3
:1021B0003AD0202938D0012584F83D60002084F8E9
:1021C0003C00284670BD4A682068D1E9021301F03E
:1021D000AFF82068816841F0770109E04A6820681B
:1021E000D1E9021301F0A4F82068816841F480412C
:1021F0008160E1E7CA684968206801F0ADF82068AD
:10220000502106E0CA684968206801F0B6F82068E5
:10221000602101F097F8CFE7CA684968206801F0AB
:102220009BF820684021F4E7226801461046F0E759
:1022300088FFCEFF70472DE9F04104460068002773
:10224000C6680569A90713D5B10711D5FA1E026141
:1022500001212177206880698007204602D0FFF79E
:10226000E9FF04E000F08BF8204600F089F82777BA
:10227000680716D5700714D5226802206FF0040194
:10228000116120772068806910F4407F204602D0D9
:10229000FFF7D0FF04E000F072F8204600F070F87D
:1022A0002777280715D5300713D5226804206FF04B
:1022B0000801116120772068C0698007204602D09C
:1022C000FFF7B8FF04E000F05AF8204600F058F895
:1022D0002777E80616D5F00614D5226808206FF097
:1022E0001001116120772068C06910F4407F2046FA
:1022F00002D0FFF79FFF04E000F041F8204600F015
:102300003FF82777E80708D0F00706D021686FF07C
:1023100001000861204600F034F8280601D4A80422
:1023200008D5300606D521686FF4025008612046B2
:10233000FFF71AFEE80508D5300606D521686FF4C8
:10234000807008612046FFF70EFE680608D570060B
:1023500006D521686FF040000861204600F018F8AB
:10236000A8060AD5B00608D521686FF020000861DC
:102370002046BDE8F041FFF7F8BDBDE8F0817047A9
:1023800070470068B0F1804F01D100F0AFBB7047DB
:10239000704730B590F88410012918D0012280F8D8
:1023A00084202421C0F888100022202401680B68B2
:1023B0000D6823F0005325F001050D6042660168A9
:1023C0000B60C0F8884080F88420104630BD0220A1
:1023D00030BD70B5044690F8840001281DD001225C
:1023E00084F884202420C4F88800206805680268E6
:1023F00022F0010202602068826822F060620A43D3
:102400008260204601F09EF822682021002015609D
:10241000C4F8881084F8840070BD022070BD70B5C7
:10242000044690F8840001281DD0012284F88420FD
:102430002420C4F8880020680568026822F00102A0
:1024400002602068826822F060420A43826020466F
:1024500001F078F82268202100201560C4F8881067
:1024600084F8840070BD022070BDD0F890007047E1
:102470002DE9F04FB7B00746142130A8FDF778FFDB
:10248000C0216846FDF774FF754C022676494FF06F
:1024900000083868083C724DDFF8C8A1884233D183
:1024A0000020CDF878800221CDE900106846FEF7C3
:1024B00059FB08B1FDF79AFF286840F40020286016
:1024C000286800F400203590206840F0010020606A
:1024D000206830AA0821544600F00100359048F2E7
:1024E000010082E84101CDE9338130A95046FDF772
:1024F0009FFF30AA06214FF4006082E84101CDE938
:10250000338130A9204642E058494FF48059DFF822
:1025100060B14FF0070788423ED10021CDF87C80A2
:102520000120CDE900016846FEF71CFB08B1FDF76C
:102530005DFF4B480830016841F010010160006800
:1025400000F010003590206840F002002060206804
:1025500000F002003590206840F001002060206803
:1025600030AA042100F0010035904FF4404082E889
:102570004101CDE9338130A95846FDF759FFCDF827
:10258000C09030A9CDE93168CDE933875046FDF7D9
:102590004FFF37B0BDE8F08F3649884224D1002084
:1025A000CDF878800221CDE900106846FEF7DAFA0E
:1025B00008B1FDF71BFF286840F400302860286848
:1025C00000F400303590206840F001002060206861
:1025D0000E21309130A900F001003590CDE931682D
:1025E000CDE933875046D2E723498842D1D1002034
:1025F000CDF878800221CDE900106846FEF7B2FAE6
:1026000008B1FDF7F3FE286840F4802028602868B0
:1026100000F480203590206840F00200206020689F
:1026200000F002003590206840F00800206020682B
:1026300030A9444600F0080035904FF440603090D7
:10264000CDE93168CDE933875846FDF7F1FECDF885
:10265000C09030A9CDE931640848CDE9334796E709
:10266000E844025800000258004C004000100140AD
:10267000000402580044004000480040000C02588A
:102680002DE9F84F0446D0F88C009B4616460D46BF
:10269000202802D00220BDE8F88FC5B1BEB10027C6
:1026A000C4F890702220C4F88C00E7662034FDF74F
:1026B000E1FF824654F8180CA6874FF48053E68752
:1026C000FF21203C984207D1226912B119E0012074
:1026D000E1E740F2FF1114E04FF07F0278B1B0F172
:1026E000805F11D0A4F860709842B4F860704FF029
:1026F000200801D1206970B12E4600250CE0266922
:1027000036B9A4F86010EFE7216909B13F21F8E775
:10271000A4F86020E8E7002607F0FF09B4F85E009F
:10272000F0B10022534620212046CDF800B001F040
:10273000E5F918B1C4F88C800320ACE72068406A42
:1027400056B100EA090006F8010B00BFB4F85E00BC
:10275000401EA4F85E00E1E7384025F8020BF5E7DB
:10276000C4F88C80002096E72DE9F8430446D0F8A1
:102770008800984616460D46202802D00220BDE863
:10278000F883A5B19EB10021C4F890102120C4F8AF
:1027900088001834FDF76EFF814654F8100CA687A8
:1027A000E6872027183CB0F5805F02D003E00120C7
:1027B000E5E7206910B12E46002510E000260EE066
:1027C0008021204601F09AF9C0B9DEB116F8010B5C
:1027D00021688862B4F85600401EA4F85600B4F888
:1027E00056004B464FF00002CDF800800028E7D19C
:1027F0004FF04001204601F081F948B1C4F88870DB
:102800000320BCE735F8020B2168C0F30800E0E7BD
:10281000C4F888700020B2E7FEE7000010B5364B20
:102820000021364A04462DED028B82B09FED308A9E
:10283000DFED308A00900120F0EE480AB0EE680A21
:1028400000F062F801212C4B2C4A0846F0EE480AB1
:10285000B0EE680A009400F057F8274B0021274A91
:102860000220F0EE480AB0EE680A009400F04CF83E
:10287000214B0121214A0220F0EE480AB0EE680AFD
:10288000009400F041F81C4B00211C4A0320F0EE9C
:10289000480AB0EE680A009400F036F8164B0121A1
:1028A000164A0320F0EE480AB0EE680A009400F0E1
:1028B0002BF89FED138ADFED138A0F4B00210F4A8F
:1028C0000420F0EE480AB0EE680A009400F01CF80C
:1028D000094B0121094A0420F0EE480AB0EE680ACB
:1028E000009400F011F802B0BDEC028B10BD0000A6
:1028F000CDCCCC3D5839B43CB88300249806002494
:102900006F12833A3D0A573E2DE9F047F0EE601A08
:10291000B0EE401A04469FED4F0A08984FF00006AB
:10292000012CB246F0EE400A1CD0022C1CD0032C25
:102930001DD0042C7DD1DFF820A1484D03EB80038E
:1029400002EB8002DFF818C102F5D84702F5B84063
:1029500003F5D84903F5B84859B1012938D0042CFA
:1029600071D05CE03F4E00E03F4E3C4DE6E73F4E0D
:10297000FBE7012C06D0022C0BD0032C16D0042C24
:102980004DD11EE097ED5F0A9CED002AD9ED5F0A5C
:1029900043E002F59842DCED020A92ED8D0A03F560
:1029A000984330EE200AD3ED8D0A38E002F530521C
:1029B00003F5305392EDBB0A9CED042AD3EDBB0A1C
:1029C00020E090ED760A9CED062AD8ED760A38E0F4
:1029D000012C06D0022C0BD0032C18D0042C1ED1B5
:1029E00026E090ED760AD8ED760A9CED012A09E002
:1029F00002F5705203F5705392EDA40A9CED032A80
:102A0000D3EDA40A32EE400AF1EE600A07E092ED3F
:102A1000000A9CED052AD3ED000A30EE020A30468A
:102A200001F0C0FF21462846BDE8F04702F09EB9FC
:102A300001E00CE007E097ED5F0A9CED072AD9ED75
:102A40005F0A30EE020A504601F09CFEEAE7BDE85C
:102A5000F0870000000000009001002448020124DB
:102A600010000024C80000240A0100244C010024A6
:102A70000148407870470000300000240148007889
:102A8000704700003000002417480122837C603822
:102A9000012B017813D0002910D013495439897CB7
:102AA00001291DD010493839897C01291AD00E49D5
:102AB0001C39897C012901D103214170704700290B
:102AC0004FF0000106D0017041708180C18001810A
:102AD00082707047027041708180C1800181DCE7A3
:102AE000427070470221E8E790000024094810B5C1
:102AF00000F012F807481C3000F00EF80548383096
:102B000000F00AF80348543000F006F8BDE8104021
:102B1000FFF7BABF3C00002470B581880446006806
:102B2000FDF79CFDE0B10025FDF7A4FD227E0146E6
:102B30000020A074AA4205D062699AB18A1A142AA8
:102B400001D3257660610123A679227E66B1022534
:102B5000012E10D0022E20D0032E35D0A07170BDD2
:102B60000125E1E76161EEE7002AF8D0A160A371D9
:102B70002074607470BDA66840F2DC508E1B8642E3
:102B800004D30320A0716374A07470BD002AFCD12B
:102B9000207CE160401CA57119E0E6688E1BB6F54B
:102BA000967F0CD3217C012902D0022902D002E0B9
:102BB000A37400E0A574A0712074E06070BD002AC9
:102BC000FCD0A160A37170BD002AFCD1A07120745B
:102BD00070BD000000B587B014216846FDF7C8FB42
:102BE0001948016841F010010160016801F010010D
:102BF0000591016841F080010160016801F08001E8
:102C00000591016841F001010160016801F00101D5
:102C10000591016841F002010160016801F00201C3
:102C20000591016841F0080101600068002101225E
:102C300000F0080005903C208DE807000348694635
:102C4000FDF7F6FB07B000BDE04402580010025843
:102C500030B587B01748002440F65F124FF080412E
:102C600040F2E73300948025019402940394049485
:102C70000594069480E816008561C0E90334FFF7E7
:102C8000C7F908B1FDF7B2FB4FF480500090094836
:102C90006946FFF751FA08B1FDF7A8FB054804A9FA
:102CA00004940694FFF762F9002801D0FDF79EFB1B
:102CB00007B030BD680101241948002110B5174C38
:102CC0004FF4E1330C220460C0E90131C1600B46CE
:102CD000C0E9041281610A46C161016241628162F8
:102CE000FFF7E8F808B1FDF781FB0D480021FFF779
:102CF00096FB08B1FDF77AFB09480021FFF769FB55
:102D000008B1FDF773FB0648FFF743FB002803D02B
:102D1000BDE81040FDF76ABB10BD0000004C00404C
:102D2000B40101241848002110B5164C0C22174B91
:102D30000460C0E90131C1600B46C0E90412816141
:102D40000A46C161016241628162FFF7B3F808B1CE
:102D5000FDF74CFB0C480021FFF761FB08B1FDF7C4
:102D600045FB09480021FFF734FB08B1FDF73EFBA6
:102D70000548FFF70EFB002803D0BDE81040FDF723
:102D800035BB10BD001001404802012400093D0080
:102D90001948002110B5174C4FF4E1330C220460A0
:102DA000C0E90131C1600B46C0E9041281610A46E5
:102DB000C161016241628162FFF77CF808B1FDF7F1
:102DC00015FB0D480021FFF72AFB08B1FDF70EFBAC
:102DD00009480021FFF7FDFA08B1FDF707FB064897
:102DE000FFF7D7FA002803D0BDE81040FDF7FEBA80
:102DF00010BD000000440040DC02012419480021FD
:102E000010B5174C4FF4E1330C220460C0E90131D6
:102E1000C1600B46C0E9041281610A46C1610162CA
:102E200041628162FFF746F808B1FDF7DFFA0D480D
:102E30000021FFF7F4FA08B1FDF7D8FA094800219C
:102E4000FFF7C7FA08B1FDF7D1FA0648FFF7A1FA74
:102E5000002803D0BDE81040FDF7C8BA10BD00003F
:102E60000048004070030124FEE7FEE770470000C1
:102E70002DE9F047454D044689464FF0000A286881
:102E8000C04380070AD0414E283E306820F0806061
:102E90003060FDF7EFFB0746B04608E00120BDE8D3
:102EA000F08700BFFDF7E6FBC01B022867D8D8F803
:102EB00000000001F6D4206829684FF4FE0721F4D1
:102EC0007C313E0241EA00302860207AA389B4F8C0
:102ED00004C040022D4D2D495B1E227CACF1010C3B
:102EE0001035091DA0F5007080B2521ECCF3080CFD
:102EF00007EA034340EA0C00184306EA0262104363
:102F000028600868626920F0C000104308600A6801
:102F1000A06922F0200202430A60281D0A6822F0FC
:102F200010020A6002684FF6F873E4699A4342EAB5
:102F3000C40202600868B9F1000F40F010020A6094
:102F400011D00868B9F1010F11D040F400100860E9
:102F5000D8F80000444640F08060C8F80000FDF753
:102F600089FB05460DE0086840F40020EFE740F4D7
:102F70008010ECE7FDF77EFB401B022801D90320FF
:102F80008DE720680001F5D5504688E728440258AF
:102F90002DE9F047454D044689464FF0000A286860
:102FA000C04380070AD0414E283E306820F0805050
:102FB0003060FDF75FFB0746B04608E00120BDE842
:102FC000F08700BFFDF756FBC01B022867D8D8F872
:102FD00000008000F6D4208829684FF4FE0721F015
:102FE0007C713E0241EA00502860207AA389B4F83F
:102FF00004C040022D4D2D495B1E227CACF1010C1A
:103000001835091DA0F5007080B2521ECCF3080CD3
:1030100007EA034340EA0C00184306EA0262104341
:1030200028600868626920F44060104308600A68FC
:10303000A06922F4007202430A60281D0A6822F483
:1030400080720A6002684FF6F873E4699A4342EAB4
:10305000C40202600868B9F1000F40F480720A608F
:1030600011D00868B9F1010F11D040F080700860EC
:10307000D8F80000444640F08050C8F80000FDF742
:10308000F9FA05460DE0086840F48000EFE740F4E7
:103090000000ECE7FDF7EEFA401B022801D90320FF
:1030A0008DE720688000F5D5504688E7284402580F
:1030B0007047FDF7E5BA000070B59CB04C2168463A
:1030C000FDF756F9202113A8FDF752F90220FDF76C
:1030D000C9FB214800242149026842F440420260B1
:1030E00002680A6842F001020A60096801F0010101
:1030F0001B9101688904FCD50DF1280C0220099070
:103100000521C0228CE80700C6030F9008250D900A
:1031100001230E90CDE91054CDE900366846129493
:10312000FEF706FC08B172B6FEE740201A903F2178
:103130000301CDE916500322CDE9180313AB13A800
:1031400083E816000421FEF7E3F9002801D072B6E7
:10315000FEE71CB070BD0000184802582C0400584F
:103160003348F0B5334A016841F4700101601068DA
:1031700000F00F00072804D2106820F00F00C01DD7
:1031800010602D4900202C4C10340B682B4D43F05F
:1031900001030B6020600B682B400B60136803F089
:1031A0000F03072B04D9136823F00F03DB1D1360F3
:1031B000214C234A1834234B261D371D20601E4CFA
:1031C000214D28343060261D3860371D23603B1D9B
:1031D00035601C1D3A60251D2E1D1860331D2260B0
:1031E0002860326018600A68134B184C22F4802261
:1031F00060330A60186020686FF30F00B0F1005F61
:1032000003D213490120C1F808010B48D4300168EA
:10321000C9040BD4026843F2D2010E4B42F480522F
:1032200002601960016821F480510160F0BD000066
:1032300088ED00E000200052004402587FEDF6EADD
:1032400080020101000202020000FF010010005C88
:1032500000800051004000520148FEF7ECBF000022
:10326000680101242DE9F047294B4FF0804A294D90
:1032700002689842284E294F294C09D0504507D062
:10328000A84205D0B04203D0B84201D0A04205D137
:10329000D1F804C022F070024CEA0202DFF884C0C8
:1032A000DFF884809842DFF884900FD050450DD02D
:1032B000A8420BD0B04209D0B84207D0A04205D0F6
:1032C000604503D0404501D0484503D1CD6822F484
:1032D00040722A438E684D6922F08002C6620E68F1
:1032E0002A439842866207D0A04205D0604503D0A9
:1032F000404501D0484501D10969016303680121B6
:1033000043F00403036041610260BDE8F087000000
:10331000000001400004004000080040000C004094
:1033200000040140004001400044014000480140C9
:1033300042EA032283680A4323F47F410A438260FE
:1033400070470000034B82681A400A4342F00701AD
:10335000816070478FFFCFFF10B5036A046A23F0C6
:103360000A0324F00104046284690B4324F0F00191
:1033700041EA02118161036210BD10B5036A046A5B
:1033800023F0A00324F010040462846943EA0111CD
:1033900024F4704343EA02328261016210BD0000EE
:1033A00030B5664CA7B0207800280AD060784FF47A
:1033B0007A75012807D0022844D003287DD0002048
:1033C000607027B030BDE0882189084374D1A0889F
:1033D00030BB5B49182202A8FCF7B1FF58491822FC
:1033E00008A81831FCF7ABFF18210EA8FCF7C0FFA6
:1033F000182114A8FCF7BCFF18211AA8FCF7B8FF85
:10340000182120A8FCF7B4FF20A914A8B2EE040AE2
:10341000CDE9000108AB1AAA0EA902A800F0A4FE8B
:10342000A088A84207D8217829B1FFF7F7F9A0882A
:10343000401CA080C5E727B0401E80B2BDE83040E8
:10344000FFF7ECB9A0882189084371D1E08838BB27
:103450003B49182202A83031FCF771FF3849182285
:1034600008A84831FCF76BFF18210EA8FCF780FF75
:10347000182114A8FCF77CFF18211AA8FCF778FF84
:10348000182120A8FCF774FF20A914A8B2EE040AA2
:10349000CDE9000108AB1AAA0EA902A800F064FE4B
:1034A000E088A84244D8217831B1FFF7B7F9E08825
:1034B000401CE08085E700E03AE0A088E18808430E
:1034C00036D1208948BB1E4901201822E0706031A6
:1034D00002A8FCF734FF1A49182208A87831FCF733
:1034E0002EFF18210EA8FCF743FF182114A8FCF7A3
:1034F0003FFF18211AA8FCF73BFF182120A8FCF772
:1035000037FF20A914A8B2EE040ACDE9000108ABE8
:103510001AAA0EA902A800F027FE2089A84207D8FF
:10352000217829B1FFF77AF92089401C208148E7EA
:1035300027B0BDE8304001F065BB0000300000243A
:103540000454000830B5416EB9B101680D4B03F168
:1035500008048A688968C2F34262490F5D5C615C55
:103560002D01B5FBF1F1A0F86A10995CA25C09018C
:10357000B1FBF2F1A0F8681030BD0121A0F86A108B
:10358000F8E70000AC54000890F82810090706D5A9
:103590000168836B4A6822F400421A434A6090F83B
:1035A0002810C90706D00168C36A4A6822F40032AD
:1035B0001A434A6090F82810890706D50168036B02
:1035C0004A6822F480321A434A6090F8281049076A
:1035D00006D50168436B4A6822F480221A434A6088
:1035E00090F82810C90606D50168C36B8A6822F4D2
:1035F00080521A438A6090F82810890606D501681F
:10360000036C8A6822F400521A438A6090F82810EA
:10361000490611D50168436C4A6822F480121A43A6
:103620004A60416CB1F5801F06D10168836C4A681D
:1036300022F4C0021A434A6090F82810090606D501
:103640000168C26C486820F400201043486070474D
:103650002DE9F84300250446C0F89050FDF70AF81C
:103660008046206820266FF07E470068000713D54B
:103670000022434631042046009700F03FFA58B13B
:10368000216851E8000F20F0800041E80002002A84
:10369000F6D1C4F8886021E020680068400722D590
:1036A000002243464FF480012046009700F026FA9E
:1036B000C8B1206850E8001F21F4907140E8001262
:1036C000002AF6D12068083050E8001F21F00101DF
:1036D00040E80012002AF5D1C4F88C60032084F879
:1036E0008450BDE8F883C4F88860C4F88C60E5664F
:1036F0002567002084F88450F3E7000010B50268C5
:1037000052E8001F21F4907142E80013002BF6D11B
:103710000E4B0268083252E8001F194042E80014BC
:10372000002CF6D1C16E012908D1026852E8001FB1
:1037300021F0100142E80013002BF6D100212022D5
:10374000C0F88C20C166416710BD0000FEFFFFEF8E
:103750002DE9F04304468068D84E87B0D84B2168E5
:10376000D4E90427D4F81CC010430A68002547EAAE
:103770000C073843324002430A602068E26841681F
:1037800021F44051114341602268A1699A4201D05D
:10379000206A01439768DFF82CC3CB4ECB4807EA79
:1037A0000C070F4397602168676ACA6A22F00F020C
:1037B0003A43CA622268B2420ED1006800F0380073
:1037C000182873D047DCB8B3082879D010286FD1F7
:1037D00078E028287ED17BE0BD498A4209D1006883
:1037E00000F00700062875D2DFE800F0546A6C6E1E
:1037F0007072B8498A4209D1006800F007000628B3
:1038000068D2DFE800F0475D5F616365B2498A42D4
:1038100009D1006800F0070006285BD2DFE800F05D
:103820003A5052545658AD498A420BD1006800F0C4
:10383000070006284ED200E010E0DFE800F02B4140
:1038400043454749A6498A420AD1006800F038003A
:10385000182839D0B7DD2028BBD13CE001203AE060
:10386000A0498A4209D1006800F00700062831D239
:10387000DFE800F01026282A2C2E9B498A420BD123
:10388000006800F00700062824D2DFE800F00319E2
:103890001B1D1F2100201EE09A421BD18B48001DDA
:1038A000006800F00700062814D202E00CE007E0F0
:1038B00010E0DFE800F0030507090B0D02200AE025
:1038C000042008E0082006E0102004E0202002E0A8
:1038D000402000E080208549DFF814829A42854A22
:1038E0004FF400434FEA21174FF000064ED1102845
:1038F0001AD006DC022809D004280BD008287CD175
:103900000DE020283ED0402877D13DE0FCF7D4FFE1
:10391000014610E06846FCF7E1FF01990BE003A8BF
:10392000FDF77EF8049906E01068800605D510685A
:10393000C0F3C100C140002970D0606A676838F8E0
:10394000102007EB4703B1FBF2F0834255D8B0EBF0
:10395000073F52D8002308461946FCF7BFFC024631
:103960007808130E120243EA012110183A467141F9
:103970000023FCF7B3FC604AA0F5407191423CD8AB
:1039800021688FE03946D8E71946D6E7D4F81CC03D
:103990004FF6EF799C4546D1082819D005DC58B17F
:1039A00001280CD0042875D10DE0102815D020284E
:1039B00035D040286ED134E0FDF7FAFE01E0FDF786
:1039C00009FF014610E06846FCF788FF01990BE00B
:1039D00003A8FDF725F8049906E01068800604D5D1
:1039E0001068C0F3C100C140C1B1636A606838F8B3
:1039F0001330B1FBF3F1490000E04BE001EB500163
:103A0000B1FBF0F0A0F11001494543D84FF6F07337
:103A10002168C0F342021840104343E043E03946B6
:103A2000E3E71946E1E7082819D005DC58B1012879
:103A30000CD004282ED10DE0102815D020282BD032
:103A4000402827D12AE0FDF7B3FE01E0FDF7C2FED2
:103A5000014610E06846FCF741FF01990BE003A81E
:103A6000FCF7DEFF049906E01068800604D51068B4
:103A7000C0F3C100C140B1B1636A606838F8133067
:103A8000B1FBF3F101EB5001B1FBF0F0A0F110013B
:103A9000494505D9012506E03946EDE71946EBE72A
:103AA000216880B2C8600120A4F86A00A4F8680008
:103AB00028466667A66707B0BDE8F083F369FFCFC5
:103AC000000C0058FFF4FF1100100140544402584C
:103AD0000044004000480040004C004000500040BE
:103AE0000014014000780040007C00400090D003AA
:103AF0009454000800440258FFFC0F002DE9F047E1
:103B0000994617460D460446089E4FF0000833E0DC
:103B1000701C31D0FCF7AEFDA0EB0900B04218D804
:103B2000BEB120680168490726D5802D24D0402DDC
:103B300022D0C169C94309070DD408250562204672
:103B4000FFF7DCFDC4F89050012084F88480BDE8C4
:103B5000F0870320FBE7C069C04300050CD421684F
:103B60004FF4006008622046FFF7C8FD2021C4F82A
:103B7000901084F88480ECE72068C06935EA000082
:103B800004D00020B842C3D00020E0E70120F9E7CC
:103B9000FEE74100080218BF04200A0E18BF40F0DB
:103BA00001004FF07F4232EA010108BF40F00200FD
:103BB000012808BF05207047090700284FEA116156
:103BC00004DB00F1E02080F80014704700F00F00E3
:103BD00000F1E02080F8141D7047000010EE101A6C
:103BE00008B5434A6846B2EB410F26D94FF0E6408C
:103BF000B0EB410F94BF00204FF0FF3000900098D1
:103C0000DFED3C0A002860DB10F0010F46D060EECB
:103C1000000ADFED391A9FED391A10F0020F00EE9D
:103C2000E11ADFED371A40EE811A21EEA01AF0EE0C
:103C3000400A40EE010A2ED041E0324B21F0004212
:103C400093423FD911F0004FDFED2F0A20EE201AEA
:103C5000DFED2E0A19BF31EE601A71EE200A31EE47
:103C6000201A71EE600ABDEEE01A11EE100A9FED07
:103C7000281A00F0030000EEC10A9FED261A0090FA
:103C800000EEC10A9FED241A00EEC10A9FED231A2F
:103C900000EEC10AB3E7F1EE600A10E020EE000A80
:103CA0009FED1F1ADFED1F1A10F0020F40EE011AF0
:103CB0009FED1D1A00EE211A40EE010AEBD1B0EE85
:103CC000600A08BD00F02CF999E710EE100A4000D8
:103CD000B0F17F4FF3D307D14FF0010000F0DAF9D4
:103CE000BDE8084000F00CB9BDE8084000F005B997
:103CF000B61F927E0000803F336D4C39DA82083C5B
:103D0000A0AA2ABE490E494683F9223F0000004B73
:103D10000000C93F00A0FD390020A2331A61342CF5
:103D2000B93AB2BACA9F2A3DDDFFFFBE00B510EE18
:103D3000101A2DED028B81B0524A6846B2EB410F4A
:103D40002ED94FF0E640B0EB410F94BF00204FF06A
:103D5000FF3000900098B0EE408A00286ADB10F037
:103D6000010F4BD068EE080A9FED471A9FED470AF6
:103D700000EE810A9FED461A00EE801A9FED450A7B
:103D800010F0020F00EE810A02BF01B0BDEC028B01
:103D900000BD00BF01B0B1EE400ABDEC028B00BD1A
:103DA0003D4B21F00042934241D911F0004FDFED2D
:103DB0003B0A20EE201ADFED3A0A19BF31EE601AF5
:103DC00071EE200A31EE201A71EE600ABDEEE01AA3
:103DD00011EE100A9FED331A00F0030000EEC10A45
:103DE0009FED311A009000EEC10A9FED301A00EEEF
:103DF000C10A9FED2F1A00EEC10AABE728EE080AB0
:103E00009FED2C1ADFED2C0A10F0020F40EE410A54
:103E10009FED2A1A00EE201A61EE000AB0EE480A61
:103E200008EE200AB6D101B0BDEC028B00BD00F057
:103E300077F88FE718EE100A4000B0F17F4F0DD2EF
:103E400018EE100AFFF7A5FE042808BF00F060F87E
:103E5000B0EE480A01B0BDEC028B00BD09D10120D3
:103E600000F018F901B0BDEC028B5DF804EB00F036
:103E700047B801B0B0EE480ABDEC028B5DF804EB28
:103E800000F03BB8B61F927EB93AB2BACA9F2A3D3B
:103E9000DDFFFFBE0000803F490E494683F9223F07
:103EA0000000004B0000C93F00A0FD390020A233F4
:103EB0001A61342C336D4C39DA82083CA0AA2ABE30
:103EC00010B52DED028BB1EEC08A18EE100A20F06D
:103ED0000040C0F1FF40C00F0AD010EE100A20F0E1
:103EE0000040C0F1FF40C00F04BF012000F0D2F835
:103EF000B0EE480ABDEC028B10BD30EE000A7047F0
:103F0000DFED020A80EEA00A70470000000000000A
:103F10009FED020A20EE000A70470000000000102A
:103F20002DE9F0014FF07F42B2EB410F9FBF4FF000
:103F3000FF310160BDE8F00170474FF0004242EAF6
:103F40000123C1F3C752783A551112F01F0C434CAC
:103F5000CCF120067C44C1F3C752A2F178024FEAAB
:103F6000621204EB820254F8254008BFD2E90156E0
:103F700012D0556804FA0CF425FA06F73C4397680A
:103F800005FA0CF527FA06F8D26807FA0CFCF2409D
:103F900045EA08054CEA0206A4FB034CA5FB0352C4
:103FA000A6FB03631D449D4234BF0126002613195E
:103FB000334416B1934202D903E0934201D2012265
:103FC00000E00022624402F1200C9206DC0C42EA7E
:103FD000443200EE102A5B03DFED210AF8EEC01A2E
:103FE00000EE103A4FEA9C1C11F0004FB8EE400A68
:103FF000C0F800C020EE201A00EE105ADFED190ABA
:10400000B8EE400A20EE200A71EE810A70EE800AB6
:1040100010EE902A02F500626FF30B0200EE902A78
:1040200070EEE11A31EEC11ADFED101A30EE411ACE
:104030009FED0D0A20EE800A01EE210A9FED0C1A79
:1040400000EE810A04BFBDE8F0017047CCF1805159
:104050000160BDE8F001B1EE400A70477415000040
:10406000000000360000802C22AAFD29DB0FC92F9A
:104070000000C92F02E008C8121F08C1002AFAD1A7
:1040800070477047002001E001C1121F002AFBD1D8
:10409000704700000149086070470000C400002418
:1040A000B1EE007AF1EE0C6AF2EE003A62EE077AB7
:1040B000F2EE045A22EE267A60EEA36A61EEA53A89
:1040C000BAEE0E4AF1EE084A21EE844A40EE653A15
:1040D00061EEA41A2DED028BF2EE0E8AB0EE086AA4
:1040E00000EE284A40EE641A47EEC33A22EE068AF2
:1040F00020EEA42AB6EE005A07EE034A48EE431A11
:1041000080EC020A42EE433A20EE866A61EE050A2E
:1041100023EE030A06EE834A46EE431A62EE854A10
:1041200040EEC03A20EE031AC0ED020A00EE804ACB
:1041300040EEC01A21EE032A44EE803A02EEC04A55
:1041400044EE801A62EE030A83EE810A84EE021ABC
:1041500080ED030A81EEA02A80ED041A80ED052A85
:10416000BDEC028B704700007CB5F0EE400A9FED7D
:10417000051ADDE906459FED040ACDE9004500F08A
:10418000D9F87CBD0AD7233C00000000F0B50D4DE6
:104190008646EF07F817002311E000BF5EF82360A2
:1041A00000243A4600284FEA400000DA68401642F0
:1041B00000D068405208641C202CF3D35B1C8B4257
:1041C000ECD3F0BDB71DC10410B514460B4603E097
:1041D00013F8011B00F004F8641EF9D210BD0000B2
:1041E000034A4140C9B232F8111081EA10207047E9
:1041F0000452000891ED010AD2ED021AD1ED020A33
:1042000092ED011A20EE210A00EEC10A80ED000AAB
:1042100091ED020AD2ED001AD1ED000A92ED021AD8
:1042200020EE210A00EEC10A80ED010A91ED000A9C
:10423000D2ED011AD1ED010A92ED001A20EE210A09
:1042400000EEC10A80ED020A7047000070B5044616
:1042500090F82C000025FD2803D194F82D00EE28BD
:1042600001D0A56170BD0E22002004F12C01FFF7E2
:10427000ABFF618F2084814208D0A06AE56225638C
:10428000401C6563A563A561A06270BD94F83810F9
:1042900094F82E0001F0070694F93750228F00F0B1
:1042A0000F03C0F30210C4E901562370C2F3CB021E
:1042B00060700121B4F93100DFED190A01EE900AB6
:1042C0009FED180A9FED181AF8EEE11A9FED172AD4
:1042D000DFED172A61EEA01A61EE801A61EE811AF5
:1042E000C4ED041AB4F92F0001EE900AF8EEE11AB9
:1042F00061EEA00AC0EE811AC4ED031AD4F83300AF
:10430000C4E9061200EE900AF8EEE00A20EE800AF8
:1043100020EE020A20EE220A84ED050A70BD00009C
:104320000000803BD00FC9405C8FCA4000000038BD
:10433000CFD210412DE9F04FBF4C00271D469246C9
:104340000E4681462DED0E8BF0EE408AFFB030EE2A
:10435000E88AF0EE41AADDF85CB200BF0BEB870003
:10436000969905EB8702D0ED002A01EB87010AEB55
:10437000870306EB870809EB870C07EB470091EDF5
:10438000002AD2ED001A93ED001AD8ED000A9CED38
:10439000000AB0EE483A04EBC000FFF781FE7F1C34
:1043A000FFB2062FDAD3A54F0025B0EE00BAF0EE2B
:1043B00008BAB1EE00CAF1EE04CA9FEDA19ADFED92
:1043C000A19A07F120089FEDA0DA40AEE9469FEDE3
:1043D0009FAADFF87CA200BF00EE105AB0EE688AF8
:1043E000954A5FF00000B8EE400A32AC00EE2A8A2F
:1043F00068EE082A22EE882A62EE081A21EE884A20
:1044000000EB400106EB800C02EBC101431CD1ED37
:10441000000A91ED010A91ED021A91ED033A40EE86
:10442000080A21EE0B5A63EE2B5AD1ED043AD1ED76
:10443000054A05EE080A41EE220A23EE8C6A64EE74
:10444000AC6A04EB8001D8B205EEA20A43EE020A80
:10445000062806EE020A43EEA10A06EEA10A44EE81
:10446000840AC1ED000A8CED000AC9D332A890EC91
:10447000030A5EA800F05EF935A890EC030A6EA866
:1044800000F0ECF86EAA5EA946A800F059FADFF831
:10449000C4B10024DFED70EA6E4846A9803000EB1D
:1044A000041000F015FC0BEB0410F0EE40DAD0ED38
:1044B000001AB0EE608AB0EE41EA31EEC00A8DED2E
:1044C0003D0A90ED010A30EE600A8DED3E0A90ED56
:1044D000020A3DA830EE410A8DED3F0A00F0A4FD2E
:1044E0001DB907EB840080ED000A07EB8400D0EDD6
:1044F000000A70EE600A34B1032C04D080EE8D1AED
:1045000040F2E93003E080EE8A1A40F2E93057AA1F
:1045100004FB00F108EB810000EB85005BA9C1EE14
:10452000090A60EEA90AC0ED000ADDED3D0A3AA8CD
:1045300080EE801A8DED571ADDED3E0A80EE801A6E
:104540008DED581ADDED3F0A80EE801A8DED591A77
:104550009DED320A3DEEC00A8DED5B0A9DED330AFA
:1045600038EE400A8DED5C0A9DED340A3EEE400ABD
:104570008DED5D0AFFF73EFE04EB440140F2E933A6
:104580009DED570A09EBC10104FB03F081ED000A20
:104590009DED580A0AEB800081ED010A9DED590A54
:1045A00000EB850281ED020A9DED3A0A002081EDC3
:1045B000030A9DED3B0A81ED040A9DED3C0A81ED65
:1045C000050AC2ED00EA84B1032C0ED001EB800392
:1045D00006EB800CD3ED000A9CED001A92ED000A68
:1045E00060EE810A80EE8D1A0DE001EB800306EB90
:1045F000800CD3ED000A9CED001A92ED000A60EEEB
:10460000810A80EE8A1A401CC0B2062830EE410AA8
:1046100082ED000AD7D3641CE4B2082CFFF43CAF4F
:104620006D1CADB2B5F57A7F7FF6D6AE7FB0BDEC2E
:104630000E8BBDE8F08F0000D8000124780600241E
:10464000DA0F4940000034435C8F423D60E5503D45
:10465000B8830024445000080000000010B5044650
:104660002DED068BF0EE41AAF0EE609AF0EE408A56
:10467000C0B0FFF7B3FAB0EE408AB0EE680AFFF7B9
:1046800055FBF0EE408AB0EE690AFFF7A7FAB0EEEC
:10469000409AB0EE690AFFF749FBF0EE409AB0EE9F
:1046A0006A0AFFF79BFAB0EE40AAB0EE6A0AFFF77B
:1046B0003DFB1F494022F0EE40AA6846FBF73FFE53
:1046C000B1EE6A0A8DED00AA194940228DED010A6A
:1046D000CDED04AA40318DED05AA10A8FBF72FFE01
:1046E0008DED109A12494022B1EE690ACDED129A71
:1046F0008DED180A80318DED1A9A20A8FBF71FFE68
:10470000B1EE680A8DED258A8DED260ACDED298A58
:104710008DED2A8A10AA694630A800F011F920AA66
:10472000204630A900F00CF940B0BDEC068B10BD5E
:104730004451000880ED030AC0ED070AB7EE002AD5
:10474000DFED0F1A80ED0B1A80ED002AC0ED011A83
:10475000C0ED021AC0ED041A80ED052AC0ED061A5C
:10476000C0ED081AC0ED091A80ED0A2AC0ED0C1A36
:10477000C0ED0D1AC0ED0E1A80ED0F2A7047000033
:10478000000000009FED0E2ADFED0E2A01800122BD
:1047900020EE020A80ED041A9FED0B3ADFED0B3A92
:1047A00080EE221AC0ED051A60EE820A4280C0ED4A
:1047B000013AC0ED020A21EE030A80ED030A7047B8
:1047C0005C8FCA4000003443DA0F4940000000000B
:1047D00001800122DFED060A80ED010A4280C0ED72
:1047E000040AC0ED050AC0ED030AC0ED020A7047D5
:1047F000000000002DED028B84B000240094019491
:1048000002940394FBF7C0FF01208DF80C001F21D8
:104810008DF8081087228DF809208DF80D008DF88D
:10482000000068468DF80A408DF80E408DF8014072
:1048300001948DF80B408DF80F40FBF777FF0420B3
:10484000FBF7B0FFFBF724FFFEF736FCFEF7C2F9DB
:10485000FEF7FEF9FEF766FAFEF79AFAFEF7CEFAD1
:10486000FEF72AFADFF8B4802D4C2E4D9FED2A8AF0
:1048700011E000BF2C480121B0EE480AFFF7A8FF65
:104880002A48042100F072FA98ED050A012084ED0F
:10489000000AFBF7BBFD94ED000AB0EEC00A10EE73
:1048A000100AA842E6DD2248FDF700FC214E224F07
:1048B000FEF7E4F83070FEF7DBF87070317841B342
:1048C000C8B91E480078012815D187ED008A84ED0B
:1048D000008A10E014480121B0EE480AFFF778FF83
:1048E0001248042100F042FA98ED050A012084EDF7
:1048F000000AFBF78BFDD7ED000AF0EEE00A10EEA0
:10490000900AA842E6DDFEF74BFD0A20FBF77EFD8C
:10491000CEE700F077F9CBE700000000F8010024B3
:104920002C000024BD378635900100244802012464
:1049300068010124AC000024280000243200002477
:104940002DE9F0439FED160A002489465FF000032D
:1049500009EB041600EB041707EB83055FF0000179
:1049600085ED000A02EB011806EB810C08EB8308C9
:10497000D5ED000A9CED001AD8ED001A491CC9B209
:1049800041EE210A0429C5ED000AEBD35B1CDBB222
:10499000042BE1D3641CE4B2042CD7D3BDE8F0832C
:1049A00000000000B7EEC02A9FED103B10EE902AE9
:1049B000F0B52227C0F8227022EE030B0A250585E8
:1049C000C184002611EE103A11EE904AB7EEC00BEA
:1049D00010EE105AC0F83250C0F82E20C0F82A60ED
:1049E000C0F83630C0F83A40F0BD0000F9978C3876
:1049F0005F54C43F10B504460188FE20EE222076A5
:104A000000206276C1B10F2901D30F212180618876
:104A100011B1072901D30720608094ED040ADFED6E
:104A2000510A51489FED511AB5EEC00AF1EE10FA45
:104A300004D8C4ED040A07E02080E8E710EE101A5D
:104A4000814201DB84ED041A94ED050AB5EEC00A3B
:104A5000F1EE10FA02D8C4ED050A05E010EE101AC6
:104A6000814201DB84ED051A41496068884202D326
:104A70009FED400A04E04049884203DB9FED3F0A76
:104A800084ED010A3E49A068884202D39FED3D0AA9
:104A900004E03D49884203DB9FED3C0A84ED020AB5
:104AA0003B49E068884202D39FED3A0A04E03A4964
:104AB000884203DB9FED390A84ED030AD4ED042A12
:104AC000DFED370A9FED370A2278C2EEA01AA07EEA
:104AD000A1789FED351A62F303009FED342A61F34C
:104AE0000610A0760F2261EE801AFDEEE11A11EE9B
:104AF000901AA4F8231004F11801D4ED051AC1EEA0
:104B0000A02A62EE800AFDEEE00A10EE900AA4F8F8
:104B10002500D4ED030AC0EE811A21EE800ABDEE15
:104B2000C00A10EE100AC4F81F0094ED020AC0EE8D
:104B3000010A20EE820ABDEEC00A10EE100AA4F8A7
:104B40001D0094ED010A20EE020ABDEEC00A10EE2F
:104B5000100AA4F81B000020FFF736FBA4F827007A
:104B600010BD000000000000C1CACC41C1CACC4148
:104B7000E1FAFFC2E1FAFFC2E1FAFF42E1FAFF42C5
:104B8000000049C4000049C40000494400004944F1
:104B9000C00FC9C8C00FC9C8C00FC948C00FC94895
:104BA000CDCCCC4100000047D00FC940000080436D
:104BB00070B52224C0F822400A25058522300E4E09
:104BC00010EE103A00228180DFED0C0A0261B34240
:104BD000C260A0F1220001DDB0EE600A9FED081A6C
:104BE000C0EE010A10EE901AC0F82A10C0F8362064
:104BF000C0F83A2070BD0000000020410000000015
:104C00009A99114110B5304800212DED028B9FED8E
:104C10002D8AB0EE480AFFF7CBFF2C48012100F0A7
:104C2000A5F829480121B0EE480AFFF7C1FF27483F
:104C3000012100F09BF824480021B0EE480A4230E0
:104C4000FFF7B6FF2148022100F090F81E4801212D
:104C5000B0EE480A4230FFF7ABFF1C48022100F0DB
:104C600085F819480021B0EE480A8430FFF7A0FF0C
:104C70001648032100F07AF813480121B0EE480AE3
:104C80008430FFF795FF1148032100F06FF80E48BC
:104C90000021B0EE480AC830FFF79AFD0B48042106
:104CA00000F064F808480121B0EE480AC830FFF768
:104CB0008FFDBDEC028B04210448BDE8104000F0DC
:104CC00055B8000000000000C8000024480201247C
:104CD0002DED048BD0ED001A91ED000AD1ED040A00
:104CE00091ED081AD1ED0C9A90ED013A21EE800A6F
:104CF00061EEA00A21EE811A61EEA91A91ED019AE6
:104D0000D1ED058A91ED098AD1ED0D7A90ED022A57
:104D100003EE090A43EE280A03EE081A43EE271AA7
:104D200091ED027AD1ED066A91ED0A6AD1ED0E5A43
:104D3000D0ED032A02EE070A42EE260A02EE061A18
:104D400042EE251A91ED035AD1ED074A91ED0B4A37
:104D5000D1ED0F3A02EE850A42EEA40A02EE841A61
:104D600042EEA31ABDEC048B704700002DE9F34F0F
:104D7000DFF878820429A3B00E46A8F1040B7DD099
:104D8000012E7CD0022E7BD1994C04F24221274681
:104D900004F5986501F18C008A468146FE2020705A
:104DA000EE22627094F826200020A270FF21E070AD
:104DB00094F8282022716171A071E071A0609FEDCC
:104DC0008D3ADFED8D2A9FED8D2A9FED8D1ADFED57
:104DD0008D1ADFED8D0AD4F82A1000EE101A20EE9D
:104DE000030ABDEEC00A10EE101AA181D4F82E10ED
:104DF00000EE101A20EE220ABDEEC00A10EE101AC4
:104E0000E181D4F8321000EE101AC0EE022A22EE30
:104E1000810ABDEEC00A10EE101A2161D4F83610D6
:104E200000EE101A20EE210ABDEEC00A10EE101A94
:104E3000A182D4F83A1000EE101A20EE200ABDEE3E
:104E4000C00A10EE101AE182072120766076D4F8AD
:104E50003E00C4F81A002046FFF798F9C4F81E0077
:104E60000123239822223946FDF77EFC08EB060138
:104E700001234E2201F8010C294602E08BE07CE080
:104E800078E02398FDF7FCFB0BEB060101F8010C21
:104E90002398FDF7EAFA5549091F9FED5C1ADFEDEB
:104EA0005C0ADFED5C1A9FED5C2B9FED5D3B88603B
:104EB0002398B0F85E00C0F14E00C860A8788DF865
:104EC00002002C798DF8044095F906208DF8062013
:104ED000EB798DF80730B5F90C10ADF80C1000EE39
:104EE000101AB5F90E10ADF80E10B8EEC04A00EE6B
:104EF000101AB5F91A10ADF81A10F8EEC04A24EEDF
:104F0000210A95F8206095F821C064EE811A95F881
:104F10001F803604AF7F20EE200A81EEA01A47EAF8
:104F20000C6546EA08263543CDF81E508DF8520030
:104F30008DF85340CDE915238DED170A8DED181A24
:104F4000DDF81E2000EE102AB8EEC00AB7EEC00A47
:104F500080EE021B21EE030BB7EEC00B8DED190A9C
:104F60001B91A0B1012805D18C2269464FEA0900A6
:104F7000FBF7E5F925B0BDE8F08F1D4C423C04F588
:104F8000B671274604F2B44501F18C0004E78C2287
:104F900069465046ECE71648863000F12C0600F1D1
:104FA000680500F11804FFF725FD2398012311225D
:104FB0002146FDF7D9FB88F803000123239810222E
:104FC0000BA9FDF75DFB8BF803006846FFF73EF980
:104FD0009DF800004FF03C026946012803D030469E
:104FE000FBF7ADF9C6E72846FAE700000400002405
:104FF0000A0100240000804300000043F90FC9406B
:105000000000804600000045000080440000003C95
:105010009A9911410000803BF5DA7A8E315FA44005
:10502000E2FBF7BB5A2F194090ED000AD0ED010AC0
:1050300090ED021A20EE000A00EEA00A01EE010A2D
:10504000FEF73EBF9643CBBE54E3A53E85EB513FF2
:105050000000803F9643CBBE54E3A5BE85EB513F95
:105060000000803F9643CB3E54E3A5BE85EB513F05
:105070000000803F9643CB3E54E3A53E85EB513F75
:105080000000803F9643CBBE54E3A53E560E2D3E16
:105090000000803F9643CBBE54E3A5BE560E2D3E86
:1050A0000000803F9643CB3E54E3A5BE560E2D3EF6
:1050B0000000803F9643CB3E54E3A53E560E2D3E66
:1050C0000000803FCDCC4CBDCDCC4C3DCDCC4CBDBB
:1050D0000000803FCDCC4CBDCDCC4CBDCDCC4CBD2B
:1050E0000000803FCDCC4C3DCDCC4CBDCDCC4CBD9B
:1050F0000000803FCDCC4C3DCDCC4C3DCDCC4CBD0B
:105100000000803FCDCC4CBDCDCC4C3DCDCC4C3DFA
:105110000000803FCDCC4CBDCDCC4CBDCDCC4C3D6A
:105120000000803FCDCC4C3DCDCC4CBDCDCC4C3DDA
:105130000000803FCDCC4C3DCDCC4C3DCDCC4C3D4A
:105140000000803F000000000000000000000000A0
:10515000000000000000000000000000000000004F
:105160000000000000000000000000000000803F80
:10517000000000000000000000000000000000002F
:105180000000803F00000000000000000000000060
:1051900000000000000000000000803F0000000050
:1051A00000000000000000000000000000000000FF
:1051B00000000000000000000000000000000000EF
:1051C0000000803F0000803F000000000000000061
:1051D00000000000000000000000000000000000CF
:1051E00000000000000000000000000000000000BF
:1051F00000000000000000000000000000000000AF
:105200000000803F0000891112239B322446AD57D5
:105210003665BF74488CC19D5AAFD3BE6CCAE5DBFE
:105220007EE9F7F88110080193331A22A5562C471E
:10523000B7753E64C99C408DDBBF52AEEDDA64CBDE
:10524000FFF976E802218B30100299132667AF76BA
:105250003444BD554AADC3BC588ED19F6EEBE7FABE
:105260007CC8F5D983310A2091121803A7772E66DE
:10527000B5543C45CBBD42ACD99E508FEFFB66EA9E
:10528000FDD874C904428D5316619F702004A9157E
:105290003227BB364CCEC5DF5EEDD7FC6888E1997E
:1052A0007AABF3BA85520C4397711E60A11428059E
:1052B000B3373A26CDDE44CFDFFD56ECE99860895E
:1052C000FBBB72AA06638F7214409D512225AB343A
:1052D0003006B9174EEFC7FE5CCCD5DD6AA9E3B83E
:1052E000788AF19B87730E6295501C41A3352A245E
:1052F000B1163807CFFF46EEDDDC54CDEBB962A81E
:10530000F99A708B088481951AA793B62CC2A5D3FD
:105310003EE1B7F04008C919522BDB3A644EED5F0D
:10532000766DFF7C899400859BB712A6ADD224C30D
:10533000BFF136E0C1184809D33B5A2AE55E6C4FED
:10534000F77D7E6C0AA583B4188691972EE3A7F2A9
:105350003CC0B5D14229CB38500AD91B666FEF7ECD
:10536000744CFD5D8BB502A499961087AFF326E2CD
:10537000BDD034C1C3394A28D11A580BE77F6E6EAD
:10538000F55C7C4D0CC685D71EE597F42880A1916D
:105390003AA3B3B2444ACD5B5669DF78600CE91D8D
:1053A000722FFB3E8DD604C79FF516E4A99020818D
:1053B000BBB332A2C55A4C4BD7795E68E11C680D6D
:1053C000F33F7A2E0EE787F61CC495D52AA1A3B029
:1053D0003882B193466BCF7A5448DD59622DEB3C4D
:1053E000700EF91F8FF706E69DD414C5ABB122A04D
:1053F000B9923083C77B4E6AD5585C49E33D6A2C2D
:10540000F11E780F0000000000000000713D0A3E10
:105410000000000000000000000000000000803ECE
:105420000000803E1F85AB3E000000000000000031
:10543000000000000000000000000000713D0A3E76
:10544000000000000000000000000000000080BE1E
:10545000000080BE1F85AB3E000000000000000081
:10546000000000000000000000000000713D0A3E46
:10547000000000000000000000000000000080BEEE
:10548000000080BE5C8F223F000000000000000092
:1054900000000000010002000400060008000A00ED
:1054A0000C001000200040008000000101010103F9
:1054B00007010000080402040801010100000000C7
:1054C00001020304010203040607080900000000AA
:1054D0006E83F9A22915444ED15727FCC0DD34F55F
:1054E000999562DB4190433CAB6351FE0C5500083B
:1054F00000000024C800000074400008D4550008D3
:10550000C80000244043010084400008000000005F
:10551000000000000000000000000000000000008B
:10552000000000000000000000000000000000007B
:10553000000000000000000000000000000001006A
:1055400000000000000000000010025804000000ED
:10555000000000000000000000000000000000004B
:1055600000000000001002580800000000000000C9
:10557000000000000000000000000000000000002B
:1055800000100258100000000000000000000000A1
:1055900000000000000000000000000000100258A1
:1055A00020000000000000000000000000000000DB
:1055B00000000000000000000000000001000000EA
:1055C00010000000000000000090D0030090D00305
:0455D00000000000D7
:040000050800029954
:00000001FF
