:020000040800F2
:1000000090B30424B102000803370008CD2800088B
:10001000013700083F040008D14600080000000036
:100020000000000000000000000000004939000846
:100030004104000800000000053700084B390008A3
:10004000CF020008CF020008CF020008CF0200084C
:10005000CF020008CF020008CF020008CF0200083C
:10006000CF020008CF020008CF020008CF0200082C
:10007000CF020008CF020008CF020008CF0200081C
:10008000CF020008CF020008CF020008CF0200080C
:10009000CF020008CF020008CF020008CF020008FC
:1000A000CF020008CF020008CF020008CF020008EC
:1000B000F13A0008CF020008CF020008CF02000882
:1000C000CF020008CF020008CF020008CF020008CC
:1000D000CF020008CF020008CF020008CF020008BC
:1000E000CF020008CF02000800000000CF02000885
:1000F000CF020008CF020008CF020008CF0200089C
:10010000CF020008CF020008CF020008CF0200088B
:10011000CF020008CF020008CF020008CF0200087B
:10012000CF020008CF020008CF020008CF0200086B
:10013000CF020008CF020008CF020008CF0200085B
:1001400000000000000000000000000000000000AF
:10015000CF020008CF020008CF020008CF0200083B
:10016000CF020008CF020008CF020008CF0200082B
:10017000CF020008CF020008CF02000800000000F4
:10018000CF020008CF020008CF020008CF0200080B
:10019000CF020008CF020008CF020008CF020008FB
:1001A000CF020008CF020008CF020008CF020008EB
:1001B000CF020008CF020008CF020008CF020008DB
:1001C000CF020008CF020008CF020008CF020008CB
:1001D000CF020008CF020008CF020008CF020008BB
:1001E000CF020008CF020008CF020008CF020008AB
:1001F000CF020008CF020008CF020008CF0200089B
:10020000CF020008CF020008CF020008CF0200088A
:10021000CF020008CF020008CF020008CF0200087A
:10022000CF020008CF020008CF0200080000000043
:10023000CF020008CF02000800000000CF02000833
:10024000CF020008CF020008CF020008CF0200084A
:10025000CF020008CF020008CF020008CF0200083A
:10026000CF020008CF020008CF020008CF0200082A
:10027000CF020008CF020008CF02000800000000F3
:10028000CF020008CF020008CF02000800000000E3
:1002900000000000CF020008DFF810D000F092F854
:1002A00000480047B95B0008AFF3008090B3042416
:1002B000074880470748804707480047FEE7FEE7B2
:1002C000FEE7FEE7FEE7FEE7FEE7FEE7FEE7FEE706
:1002D00049040008F9390008990200082DE9F05F87
:1002E0000546002092469B468846064681464024A5
:1002F0001BE0284641464746224600F053F8534645
:100300005A46C01A914110D311461846224600F0B1
:100310003AF82D1A67EB01084F46224601200021CA
:1003200000F031F817EB00094E41201EA4F1010442
:10033000DFDC484631462A464346BDE8F09F40EAA6
:1003400001039B0703D009E008C9121F08C0042A53
:10035000FAD203E011F8013B00F8013B521EF9D23A
:100360007047D2B201E000F8012B491EFBD2704762
:100370000022F6E710B513460A4604461946FFF771
:10038000F0FF204610BD202A04DB203A00FA02F1DB
:10039000002070479140C2F1200320FA03F3194373
:1003A00090407047202A04DB203A21FA02F0002115
:1003B000704721FA02F3D040C2F120029140084375
:1003C00019467047064C074D06E0E06840F001030F
:1003D00094E8070098471034AC42F6D3FFF760FF6B
:1003E000786900089869000870B58C1810F8015BEE
:1003F00015F0070301D110F8013B2A1106D110F8BE
:10040000012B03E010F8016B01F8016B5B1EF9D1C1
:100410002B0705D40023521E0DD401F8013BFAE747
:1004200010F8013BCB1A921C03E013F8015B01F8B2
:10043000015B521EF9D5A142D8D3002070BDFEE762
:10044000704772B6FEE700000548054908390268A2
:1004500042F00202026008688004FCD57047000088
:100460000C48025870B5044600F030F90546601C8F
:1004700002D004480078044400F028F9401BA04250
:10048000FAD370BDE80100242DE9F84F03247D4D17
:1004900000234FF001094FF0B04B4FF00F0AE9E095
:1004A00009FA03F73A4076D00E7906F00306012EDA
:1004B00001D0022E18D1D0F808C04FEA430ECE6802
:1004C00004FA0EF82CEA080C06FA0EF646EA0C06B8
:1004D0008660D0F804C00E792CEA070CC6F300162B
:1004E0009E4046EA0C0646600E79F643B6070BD0EE
:1004F000C6684FEA43088F6804FA08FC26EA0C062F
:1005000007FA08F73743C7600E7906F00306022E94
:1005100012D1DE080F694FEA437C00EB8606B6462F
:10052000366A4FEADC6C0AFA0CF807FA0CF726EA8E
:1005300008063743CEF820700F7906684FEA430863
:1005400007F0030704FA08FC07FA08F726EA0C0686
:10055000374307604E6816F4403F1CD04A4E376858
:1005600047F00207376036689F0706F002060096DC
:1005700023F0030606F1B046B6463F0FD6F80864EE
:10058000DFF808810AFA07FC404526EA0C0603D189
:100590004FF0000C41E06CE0DFF8F4C0604502D1A0
:1005A0004FF0010C39E0DFF8ECC0604502D14FF0AC
:1005B000020C32E0DFF8E0C0604502D14FF0030CDE
:1005C0002BE0DFF8D8C0604502D14FF0040C24E0E6
:1005D000DFF8CCC0604502D14FF0050C1DE0DFF81C
:1005E000C4C0604502D14FF0060C16E0DFF8B8C079
:1005F000604502D14FF0070C0FE0DFF8B0C0604556
:1006000002D14FF0080C08E0DFF8A4C0604502D129
:100610004FF0090C01E04FF00A0C0CFA07FC4CEA11
:10062000060CCEF808C44F68DBF80060FF0226EA2B
:10063000020600D516435F46CBF80060D1F804C02F
:10064000DBF804605FEA8C2C26EA020600D516432C
:100650007E606E684F6826EA0206BF0300D5164327
:100660006E602E684F6826EA0206FF0300D5164327
:100670002E605B1C0A6832FA03F67FF411AFBDE806
:10068000F88F000080000058F4440258000002581F
:100690000004025800080258000C025800100258CA
:1006A0000014025800180258001C0258002002587A
:1006B000002402580069084000D001207047000063
:1006C00001480068000C70470010005C0148806819
:1006D00070470000E8010024024881680278114454
:1006E00081607047E8010024032010B500F0D4F8C1
:1006F00001F0AEF80F4A104914681368C4F30322DE
:1007000003F00F038A5CC95C02F01F0201F01F01B5
:10071000D0400A4A20FA01F11160094908600E2010
:1007200000F010F808B1012010BD00F079F80020A9
:1007300010BD00001844025848690008F801002460
:10074000F401002470B50D4D04462878A0B14FF493
:100750007A71B1FBF0F00A490968B1FBF0F001F0E1
:100760001BFC48B9102C07D200222146501E00F075
:1007700073F800206C6070BD012070BDE80100249A
:10078000F4010024154BF0B5083B427813491A6078
:100790000B680A1F23F001030B6043681360057B9D
:1007A000C67A827A437B2D07847B45EA0665C77B40
:1007B00090F809C0067A90F800E045EAC24040EAA5
:1007C000834040EA444040EA074040EA0C2040EAC7
:1007D000460040EA0E000860F0BD0000A0ED00E019
:1007E000BFF35F8F044800210368034A23F480337A
:1007F000036070321160704724ED00E0074A40F05A
:100800000100064970321060086840F480300860CA
:10081000BFF34F8FBFF36F8F7047000024ED00E0F0
:10082000054808B5016841F002010160006800F068
:100830000200009008BD0000F4440258002809DBC3
:10084000410900F01F028900012001F1E0219040E0
:10085000C1F80001704700000E4BF0B41B680D4654
:10086000C3F30223C3F10706042E00D90426191D81
:10087000072901D2002300E0DB1E012404FA06F15F
:100880009C40491E2940641E994014402143F0BCFD
:1008900003F032BF0CED00E0064900F0070210B58E
:1008A0004FF6FF040868044B204040EA022018433A
:1008B000086010BD0CED00E00000FA05134970B5AA
:1008C0000A68D243520705D5096801F00701814241
:1008D00013D118E00A6822F0070202430A60FFF70A
:1008E000F5FE0A4D4FF47A760446083D07E000BF56
:1008F000FFF7ECFE001BB04201D9012070BD286853
:10090000C0438004F4D4002070BD00000C4802589D
:1009100010B500F057FF05490968054AC1F30211F7
:10092000515C01F01F01C84010BD00002044025876
:1009300048690008494930B5484C0B1D0A68143411
:1009400009681D68246802F00303C5F30012C1F3AF
:100950000531C4F3CC04002914FB02F200EE102A86
:10096000F8EE400A75D03F4A9FED3D1AB7EE000AF7
:100970006BB1DFED3D1A012B01D0022B64D002EEEA
:10098000101A1168F8EE422A81EEA22A21E0334CB7
:10099000283C23689B0612D5344B246801EE901A3C
:1009A0001168C4F3C104F8EE612AE34001EE903A05
:1009B000C1F30801F8EE611A81EEA22A0BE001EE04
:1009C000901ADFED2B2A00BFF8EE611A116882EE53
:1009D000A12AC1F3080101EE901A1168F8EE611A1C
:1009E00040EE811A71EE800A62EE200AC1F34621C0
:1009F00001EE101AB8EE411A31EE001AC0EE811A5B
:100A0000BCEEE11A80ED001A1168C1F3064101EE57
:100A1000101AB8EE411A31EE001AC0EE811ABCEE7F
:100A2000E11A80ED011A1168C1F3066101EE101A96
:100A3000B8EE411A31EE000A80EE801ABCEEC10A0F
:100A400080ED020A30BD04E001EE901ADFED092AC4
:100A5000BAE70021016041608160F3E72844025851
:100A600000000039384402580024744A0090D00332
:100A70000024744C20BCBE4B494930B5484C0B1D7A
:100A80000A681C3409681D68246802F00303C5F372
:100A90000022C1F30551C4F3CC04002914FB02F277
:100AA00000EE102AF8EE400A75D03F4A9FED3D1A3D
:100AB000B7EE000A6BB1DFED3D1A012B01D0022B1E
:100AC00064D002EE101A1168F8EE422A81EEA22AD2
:100AD00021E0334C283C23689B0612D5344B246814
:100AE00001EE901A1168C4F3C104F8EE612AE340E4
:100AF00001EE903AC1F30801F8EE611A81EEA22AE4
:100B00000BE001EE901ADFED2B2A00BFF8EE611A20
:100B1000116882EEA12AC1F3080101EE901A116852
:100B2000F8EE611A40EE811A71EE800A62EE200A38
:100B3000C1F3462101EE101AB8EE411A31EE001A47
:100B4000C0EE811ABCEEE11A80ED001A1168C1F303
:100B5000064101EE101AB8EE411A31EE001AC0EE4D
:100B6000811ABCEEE11A80ED011A1168C1F3066129
:100B700001EE101AB8EE411A31EE000A80EE801A2A
:100B8000BCEEC10A80ED020A30BD04E001EE901A0D
:100B9000DFED092ABAE70021016041608160F3E7D7
:100BA0002844025800000039404402580024744A86
:100BB0000090D0030024744C20BCBE4B2DE9FE4FA6
:100BC0000546DFF8E48350F8081B0024F64FC943BC
:100BD000019005F12800264608F12408009008013C
:100BE0001DD4A86E50B1B0F5801F0CD0B0F5001F19
:100BF0000ED0B0F5401F1ED001240FE0386840F43D
:100C00000030386017E00198022102F07DFD03E01A
:100C10000098022102F008FE04000CD02646288825
:100C2000C043C00523D4A86D05281ED2DFE800F01C
:100C30000C11161B1B00AA6ED8F8001021F44011ED
:100C40001143C8F80010EAE7386840F40030386013
:100C500009E00198002102F057FD03E0009800210F
:100C600002F0E2FD044674B100E001242646288823
:100C7000C043800528D4E86D80281ED00CDC90B1DC
:100C800040280ED114E0AA6DD8F8001021F0070119
:100C90001143C8F80010EAE7C02813D0B0F5807FF0
:100CA00010D001240FE0386840F40030386009E0CB
:100CB0000198002102F028FD03E00098002102F0D5
:100CC000B3FD04469CB126462888DFF8DC92C04379
:100CD00009F12C0940052CD4D5F8A800B0F5800FF7
:100CE00020D00DDCA0B1B0F5001F0FD115E0EA6DEA
:100CF000D8F8001021F4E0711143C8F80010E3E7C0
:100D0000B0F5C00F13D0B0F5000F10D001240FE0E4
:100D1000386840F40030386009E00198002102F0A2
:100D2000F3FC03E00098002102F07EFD04467CB154
:100D300026462888C04300052DD4D5F8AC00B0F174
:100D4000007F21D00EDCA8B1B0F1807F10D116E079
:100D5000D5F8A820D9F8001021F460011143C9F892
:100D60000010E6E7B0F1407F13D0B0F1806F10D0F3
:100D700001240FE0386840F40030386009E0019841
:100D8000002102F0C1FC03E00098002102F04CFDBC
:100D9000044674B126462868C04380011FD4E86C1D
:100DA000D8B110280FD0202812D0302815D0012417
:100DB00014E0D5F8AC20D9F8001021F0E06111431F
:100DC000C9F80010E7E7386840F40030386004E004
:100DD0000198022102F098FC044674B12646288846
:100DE000C043C0042BD4286EB0F5005F20D00DDCCA
:100DF000A0B1B0F5805F0FD115E06B48EA6C2030F0
:100E0000016821F0300111430160E8E7B0F5405F6F
:100E100013D0B0F5804F10D001240FE0386840F4B3
:100E20000030386009E00198002102F06DFC03E019
:100E30000098002102F0F8FC04468CB12646288870
:100E4000C043800429D4686EB0F5403F23D010DC45
:100E500008B3B0F5803F14D0B0F5003F0FD115E0D6
:100E60002A6ED8F8001021F4E0411143C8F80010B0
:100E7000E5E7B0F5802F0ED0B0F5A02F0BD0012400
:100E80000AE00198012102F03FFC03E000980121F3
:100E900002F0CAFC044694B126462888C0434004A8
:100EA0002AD4D5F8B000B0F1405F23D010DC08B3ED
:100EB000B0F1805F14D0B0F1005F0FD115E06A6E21
:100EC000D8F8001021F4E0211143C8F80010E4E73D
:100ED000B0F1804F0ED0B0F1A04F0BD001240AE04A
:100EE0000198012102F010FC03E00098012102F0BA
:100EF0009BFC044674B126462888C04300041FD4D6
:100F0000286FD8B1B0F1805F0ED0B0F1005F10D083
:100F1000012414E0D5F8B020D9F8001021F0E04108
:100F20001143C9F80010E7E7386840F40030386032
:100F300004E00198012102F0E7FB044674B1264663
:100F40002868C043C0011ED4A86CD0B101280ED0BF
:100F5000022811D0032814D0012413E02A6FD8F8F6
:100F6000001021F040511143C8F80010E8E738683C
:100F700040F40030386004E00198022102F0C4FB24
:100F80000446ACB126462868DFF81CB0C043ABF17C
:100F90001C0B400252D40548016841F48071016085
:100FA000FFF794FB824611E02C4402580048025897
:100FB000FA48AA6C016821F0030111430160E2E7DD
:100FC000FFF784FBA0EB0A00642835D8F4480068DA
:100FD000C005F5D58CBBDFF8C4A3B5F8B4100AF191
:100FE000240ADAF8000001F4407100F440708842ED
:100FF00011D0DAF80010DAF8002021F4407142F440
:101000008032CAF80020DAF8002022F48032CAF8D0
:101010000020CAF80010D5F8B400B0F5807F1AD1CE
:10102000FFF754FB029012E0FFF750FB0299411AC0
:1010300041F2883081420AD9032426462878DFF815
:101040005CA3C0430AF1080AC00721D03CE0DAF8EB
:1010500000008007E8D5D5F8B410C1F301200328BB
:1010600058460DD0016821F47C510160B5F8B420D8
:10107000DAF80010C2F30B021143CAF80010DDE7E2
:10108000C84A036802EA111223F47C511143ECE7C9
:10109000E86F182816D005DCA0B1082808D0102861
:1010A00004D10AE020280DD028280BD001240AE022
:1010B0000198012102F028FB03E00098012102F0D1
:1010C000B3FB044664B126462878C04380071ED48B
:1010D000A86F062819D2DFE800F0160C11161616B4
:1010E000EA6FDAF8001021F038011143CAF8001055
:1010F000EAE70198012102F007FB03E000980121D3
:1011000002F092FB04467CB100E0012426462878D8
:10111000C04340071FD4D5F89400062819D2DFE851
:1011200000F0160C11161616AA6FDAF8001021F04E
:1011300007011143CAF80010E9E70198012102F004
:10114000E3FA03E00098012102F06EFB0446A4B12B
:1011500000E0012426462878C04380062BD4D5F829
:101160009000B0F1405F24D011DC10B3B0F1805F8B
:1011700015D0B0F1005F10D116E0D5F89420D9F861
:10118000001021F007011143C9F80010E3E7B0F1A6
:10119000804F0ED0B0F1A04F0BD001240AE001988F
:1011A000002102F0B1FA03E00098022102F03CFBBA
:1011B000044694B126462878C04340062BD4D5F87F
:1011C0009C00B0F5406F24D011DC10B3B0F5806FF7
:1011D00015D0B0F5006F10D116E0D5F89020DAF8F0
:1011E000001021F0E0411143CAF80010E3E7B0F528
:1011F000805F0ED0B0F5A05F0BD001240AE001980B
:10120000002102F081FA03E00098022102F00CFBB9
:10121000044694B126462878C04300062BD4D5F85E
:10122000A000B0F5C04F24D011DC10B3B0F5005FC2
:1012300015D0B0F5804F10D116E0D5F89C20D9F824
:10124000001021F4E0511143C9F80010E3E7B0F5B4
:10125000004F0ED0B0F5204F0BD001240AE00198CA
:10126000002102F051FA03E00098022102F0DCFABA
:10127000044654B126462878C04300071ED4D5F84A
:101280008400B0F5805F0AD00FE0D5F8A020D9F82F
:10129000001021F460411143C9F80010EBE70098F9
:1012A000022102F0C1FA00B10126D5F88420DAF853
:1012B000001021F440511143CAF800102878C043AF
:1012C000C00613D4D5F89800B0F5807F05D10098FA
:1012D000022102F0A9FA00B10126D5F89820D9F828
:1012E000001021F440711143C9F800102868C04370
:1012F000000316D4D5F8A40038B1B0F5803F09D06A
:10130000B0F5003F0BD001240AE00198002102F063
:10131000FBF903E00098022102F086FA04468CB142
:1013200026462868C043400322D4D5F88800B0F58B
:10133000801F11D0B0F5001F13D0B0F5401F15D09D
:10134000012414E0D5F8A420D9F8001021F440318C
:101350001143C9F80010E4E7386840F40030386001
:1013600004E00098012102F05FFA04465CB12646D1
:101370002868C043C00323D4286DA8B1B0F5803FCE
:1013800017D001241BE0D5F88820DAF8001021F4EA
:1013900040111143CAF80010EAE700004C4402581B
:1013A00000480258CFFFFF00386840F40030386032
:1013B00004E00198022102F0A7F90446E4B12646B0
:1013C0002868C043800005D40098022102F02CFA5E
:1013D00000B101262868C04380031BD4D5F88000E3
:1013E000B0B1B0F5807F0FD0B0F5007F10D0B0F570
:1013F000407F0DD001240CE05A482A6D016821F489
:10140000803111430160DBE7386840F40030386018
:10141000ECB326462868C043C00207D46A6FD8F8E8
:10142000001021F000411143C8F800102868C043A3
:10143000C00008D4D5F8B820DBF8001021F48041B2
:101440001143CBF800102868C043800207D4EA6E2D
:10145000D8F8001021F080711143C8F800102868F6
:10146000C04340000CD4DBF8001021F40041CBF85D
:101470000010DBF80010D5F8BC201143CBF80010A9
:101480002868C04308D437486A6D016800E018E056
:1014900021F04051114301602868C043000208D484
:1014A000D5F88C20DAF8001021F440011143CAF875
:1014B000001028790024C04300F0010020430AD026
:1014C0000FE0D5F88020DAF8001021F440711143C4
:1014D000CAF800109EE70198002102F015F900B14A
:1014E00006462879C04300F00200204305D1019848
:1014F000012102F009F900B106462879C04300F045
:101500000400204305D10198022102F0FDF800B14A
:1015100006462879C04300F00800204305D1009812
:10152000002102F081F900B106462879C04300F09D
:101530001000204305D10098012102F075F900B197
:1015400006462879C04300F02000044304D10098E7
:10155000022102F069F900B916B10120BDE8FE8F41
:101560000020FBE74C4402582DE9F05F04000F46D1
:101570007ED0DFF83882D8F8000000F00F00B842C3
:101580000CD2D8F8001021F00F013943C8F8001030
:10159000D8F8000000F00F00B84269D12078844DDF
:1015A00040070AD52069296801F07001884204D9F2
:1015B000296821F070010143296020787C4E361D96
:1015C00000070AD56069316801F07001884204D9CA
:1015D000316821F07001014331602078C0060AD5DE
:1015E000A069316801F4E061884204D9316821F4CE
:1015F000E061014331602078DFF8B4B180060BF17F
:10160000080B0CD5E1695846DBF8002002F07002A7
:10161000914204D9026822F070020A4302602078E5
:1016200080070AD5E068296801F00F01884204D9D3
:10163000296821F00F01014329602078C0073ED0BE
:101640005B49A2682868183920F47060104328604C
:101650006068022818D0032819D00968012819D019
:10166000490700294ADADFF848A1AAF1080A00E090
:1016700044E0DAF8002022F007020243CAF8002012
:10168000FFF724F8814612E009688903E9E7096851
:101690008901E6E7C905E4E7FFF718F8A0EB0901BF
:1016A00041F28830814202D90320BDE8F09F616891
:1016B000DAF8000000F03800B0EBC10FECD1207870
:1016C00080070AD5E068296801F00F01884204D23A
:1016D000296821F00F0101432960D8F80010404625
:1016E00001F00F01B9420BD9016821F00F01394314
:1016F0000160006800F00F00B84201D00120D4E77B
:10170000207840070AD52069296801F070018842D5
:1017100004D2296821F07001014329602078000774
:101720000AD56069316801F07001884204D23168DD
:1017300021F07001014331602078C0060AD5A0690C
:10174000316801F4E061884204D2316821F4E0613B
:1017500001433160207880060CD5E1695846DBF8FA
:10176000002002F07002914204D2026822F070025E
:101770000A43026000F06CF80E492A682B68C2F335
:10178000032203F00F038A5CC95C02F01F0201F020
:101790001F01D040084A20FA01F111600749086092
:1017A00007480068BDE8F05FFEF7CCBF002000529C
:1017B0001844025848690008F8010024F401002484
:1017C000EC01002430B500F043F80B4A0B490C4BF8
:1017D00015681468C5F3032204F00F048A5C095DE0
:1017E00002F01F0201F01F01D040064A20FA01F169
:1017F00019601060084630BD184402584869000856
:10180000F8010024F401002400B5FFF7DBFF0549CF
:101810000968054AC1F30211515C01F01F01C8407B
:1018200000BD00001C4402584869000800B5FFF7DD
:10183000C9FF05490968054AC1F30221515C01F05D
:101840001F01C84000BD00001C4402584869000840
:10185000454970B545480968434B103B11F03802C3
:1018600008D00111082A03D0102A0BD0182A0BD057
:10187000084670BD19688906FBD51968C1F3C10116
:10188000C84070BD3A4870BD3749374D18310C1DFE
:1018900024350A68096826682D6802F0030406F0FA
:1018A0000102C1F30511C5F3CC0515FB02F200EEF0
:1018B000102AB8EE400AE9B32F4ADFED2E0AB7EE40
:1018C000001A6CB1DFED2D1A012C01D0022C43D08F
:1018D00002EE101A1068F8EE422A81EEA22A1EE0EB
:1018E0001C68A40611D51B6801EE901A1168C3F399
:1018F000C103F8EE612AD84001EE900AC1F3080056
:10190000F8EE611A81EEA22A0BE001EE901ADFEDEB
:101910001C2A00BFF8EE611A106882EEA12AC0F3FB
:10192000080001EE900AF8EE611A40EE201A31EE3E
:10193000810A00E015E022EE000A1068C0F346209C
:10194000401C00EE900AF8EE600A80EE201ABCEE11
:10195000C10A10EE100A70BD01EE901ADFED092ADF
:10196000D8E7002070BD0000104402580090D0035A
:1019700040787D0100000039304402580024744A48
:101980000024744C20BCBE4B2DE9F05F04007DD0D8
:10199000FF4F2078FE4D1837DFF8F493103DC00755
:1019A00048D0D9F80000396800F03800102815D068
:1019B000182803D101F0030002280FD06068B0F5A9
:1019C000803F12D010B1B0F5A02F18D0286820F4B5
:1019D00080302860286820F4802009E0286880038F
:1019E00028D560680028D2D024E0286840F48030F0
:1019F0002860606888B1FEF769FE064609E028683D
:101A000040F480202860F0E7FEF760FE801B642829
:101A10006FD828688003F7D50CE0FEF757FE06461E
:101A200005E000BFFEF752FE801B6428F0D828684E
:101A30008003F7D4207841F20308D54E0C3E80078E
:101A400069D5D9F80000396810F038000ED0182890
:101A500001D188070AD0E06890B3296821F0190104
:101A600001432960FEF732FE824631E028684007D4
:101A700002D5E06800288AD0E168286820F01900C3
:101A800008432860FEF722FE824607E0DFE000BF41
:101A9000FEF71CFEA0EB0A000228B9D82868400710
:101AA000F6D500BFFEF70CFE40451BD82069402844
:101AB00012D0316821F47C3141EA003030602AE0F4
:101AC00018E000BFFEF702FEA0EB0A0002289FD834
:101AD00028684007F6D5E5E7306820F47C3040F40C
:101AE0000030EBE7207C316821F0FE4141EA0060E4
:101AF000E4E70DE1286820F001002860FEF7E6FD2C
:101B0000824605E0FEF7E2FDA0EB0A0002288DD830
:101B100028684007F6D42078C0065DD5D9F80000C3
:101B2000DFF86CB2396800F03800ABF1040B08281C
:101B300010D0182803D101F0030001280AD0E06971
:101B40000028286838D040F080002860FEF7BEFDED
:101B5000824623E02868C00523D5E069802876D135
:101B60001FE0206A202821D0316821F0F84141EAA5
:101B70008060306030E000BF94F82010DBF8002077
:101B800022F07C5242EA0161CBF8001024E000BF51
:101B9000FEF79CFDA0EB0A00022898D82868C00533
:101BA000F6D5FEF78DFD4045E6D8DAE7306820F03F
:101BB000F84040F08040DCE720F080002860FEF72D
:101BC00085FD064605E000BFFEF780FD801B02286C
:101BD0009DD82868C005F7D42078000729D56C481F
:101BE0006169643000298046016811D041F001012B
:101BF0000160FEF76BFD064605E000BFFEF766FDDF
:101C0000801B0228C9D8D8F800008007F6D510E05C
:101C100021F001010160FEF759FD064605E000BF15
:101C2000FEF754FD801B022872D8D8F80000800708
:101C3000F6D42078800623D5A0690028286810D023
:101C400040F480502860FEF741FD064605E036E18D
:101C5000FEF73CFD801B02285AD828688004F7D57F
:101C60000EE020F480502860FEF730FD064604E0C8
:101C7000FEF72CFD801B02284AD828688004F7D480
:101C8000207840074FD5DFF80C81D8F8001041F4D8
:101C90008071C8F80010FEF719FD064605E000BF88
:101CA000FEF714FD801B642832D8D8F80000C00568
:101CB000F6D5374EA068603601280AD008B105284D
:101CC00013D0306820F001003060306820F004004C
:101CD00002E0306840F001003060A06841F2883ACC
:101CE00090B1FEF7F3FC80460AE0306840F0040053
:101CF0003060EEE7FEF7EAFCA0EB0801514507D89B
:101D000030688007F6D50EE0FEF7E0FC804607E07D
:101D100084E000BFFEF7DAFCA0EB080151457DD856
:101D200030688007F6D4606AB0B3DFF86480D9F811
:101D3000001008F120084FF6F87B08F10409C1F300
:101D4000C2010329A8F1040A69D00228286820F0FA
:101D50008070286003D0FEF7B9FC044684E0FEF7EB
:101D6000B5FC064605E000BFFEF7B0FC801B02286C
:101D700077D828688001F7D4E26A40F2F3313868F6
:101D800054F8283F884340EA02101843386004E0C2
:101D90001044025800480258B5E0217B434622898E
:101DA0004FF4FE0C208A4FF0FE474902267D521E5A
:101DB000401EA1F50071C2F308088AB2761E0CEA33
:101DC000004042EA08020243504607EA06610A431D
:101DD0001A60DAF8002022F00102CAF80020D9F8CF
:101DE0000020266A22EA0B0242EAC602C9F8002055
:101DF000DAF80010A26921F00C011143CAF80010B2
:101E00000168E26921F0020111430160016841F4B7
:101E100080310160016841F4003101E021E027E0F8
:101E20000160016841F480210160016841F0010115
:101E30000160286840F080702860FEF747FC044687
:101E400005E000BFFEF742FC001B022809D8286805
:101E50008001F7D557E000BFFEF738FC001B0228D1
:101E600002D90320BDE8F09F28688001F4D44AE03D
:101E700039680128D8F8000021D0A26A01F00303D4
:101E800093421CD1E26AC1F305118A4217D1216B3A
:101E9000C0F30802491E8A4211D1616BC0F3462289
:101EA000491E91420BD1A16BC0F30642491E9142DB
:101EB00005D1E16BC0F30660491E814201D00120CB
:101EC000D0E7A16C4E46D9F80000C0F3CC008142A7
:101ED00019D0DAF80000554620F00100CAF80000D9
:101EE000FEF7F4FB4FEA0007FEF7F0FBB842FBD029
:101EF000A26C306820EA0B0040EAC200306028681B
:101F000040F0010028600020ACE700002DE9F0411E
:101F100004001D4616460F4603D0D4F8880018B1B9
:101F200008E00120BDE8F081002084F8840020460C
:101F300000F0D0FA2420C4F888002068016821F05D
:101F400001010160A06A10B1204602F0BDF82046F0
:101F500002F09EF90128E5D0206871050D4A41EA9A
:101F60000541836843F4804383602068836823F4D9
:101F700000433B4383602068036813400B430360C6
:101F80002068016841F0010101602046BDE8F04190
:101F900002F0FEB8FFFF00FC401EB0F1807F10B5DC
:101FA00001D3012010BD4FF0E02460610F216017C4
:101FB00002F0A2FB0020A0610721216110BD704743
:101FC00070477047F0B590F83C20012A3BD01F4E77
:101FD000012480F83C40022280F83D2002681C4D1C
:101FE0005368B242D2F808C001D0AA4203D14F6868
:101FF00023F470033B430F6823F070031F435760C3
:102000000268B24213D0B2F1804F10D0114B9A4205
:102010000DD0114B9A420AD0104B9A4207D0AA42D7
:1020200005D00F4B9A4202D00E4B9A4204D18968D8
:102030002CF0800319439160002180F83D4080F826
:102040003C100846F0BD0220F0BD00000000014039
:10205000000401400004004000080040000C004063
:10206000001800400040014010B5040003D094F86F
:102070003D0010B107E0012010BD002084F83C00B5
:10208000204600F023F8022084F83D002068211D3E
:1020900001F034FD012084F8480084F83E0084F803
:1020A0003F0084F8400084F8410084F8420084F83E
:1020B000430084F8440084F8450084F8460084F81E
:1020C000470084F83D00002010BD000008B50068FE
:1020D000B0F1804F12D10A48016841F0010101605E
:1020E000006800220F2100F0010000901C20FEF784
:1020F000B3FBBDE808401C20FEF7A0BB08BD0000F4
:10210000E844025890F83D10012901D001207047A1
:10211000174A022180F83D100168CB6843F00103A3
:10212000CB600068904214D0B0F1804F11D01149BB
:1021300088420ED0104988420BD01049884208D0FE
:102140000F49884205D00F49884202D00E49884283
:1021500007D181680D4A1140062906D0B1F5803FAC
:1021600003D0016841F001010160002070470000C8
:10217000000001400004004000080040000C004046
:102180000004014000180040004001400700010029
:1021900070B5044690F83C000025012814D03A4B55
:1021A000012684F83C60022084F83D002268906893
:1021B000184020F47F409060086870282FD010DC11
:1021C00010F00F0F03D022E04FF0020070BD4FEA75
:1021D0002012072A1BD2DFE802F0535353534B3926
:1021E0004100B0F1101F4BD009DCB0F5805F0FD07B
:1021F000B0F5005F1ED0B0F5801F08D140E0A0F51B
:10220000801120393CD010293AD0202938D001251E
:1022100084F83D60002084F83C00284670BD4A6880
:102220002068D1E9021301F0CFFC2068816841F0F9
:10223000770109E04A682068D1E9021301F0C4FC83
:102240002068816841F480418160E1E7CA6849689B
:10225000206801F0CDFC2068502106E0CA6849687A
:10226000206801F0D6FC2068602101F0B7FCCFE7C0
:10227000CA684968206801F0BBFC20684021F4E787
:10228000226801461046F0E788FFCEFF70472DE92F
:10229000F041044600680027C6680569A90713D500
:1022A000B10711D5FA1E02610121217720688069EA
:1022B0008007204602D0FFF7E9FF04E000F08BF82A
:1022C000204600F089F82777680716D5700714D5DF
:1022D000226802206FF00401116120772068806974
:1022E00010F4407F204602D0FFF7D0FF04E000F05A
:1022F00072F8204600F070F82777280715D53007C8
:1023000013D5226804206FF008011161207720683E
:10231000C0698007204602D0FFF7B8FF04E000F054
:102320005AF8204600F058F82777E80616D5F00648
:1023300014D5226808206FF0100111612077206801
:10234000C06910F4407F204602D0FFF79FFF04E0F1
:1023500000F041F8204600F03FF82777E80708D062
:10236000F00706D021686FF001000861204600F0F8
:1023700034F8280601D4A80408D5300606D521680B
:102380006FF4025008612046FFF71AFEE80508D5F1
:10239000300606D521686FF4807008612046FFF78B
:1023A0000EFE680608D5700606D521686FF040005D
:1023B0000861204600F01DF8A8060AD5B00608D529
:1023C00021686FF0200008612046BDE8F041FFF76A
:1023D000F8BDBDE8F0817047704710B50068B0F1F6
:1023E000804F05D100F0C8FFBDE8104001F024BCCB
:1023F00010BD704730B590F88410012918D0012223
:1024000080F884202421C0F888100022202401684C
:102410000B680D6823F0005325F001050D6042663E
:1024200001680B60C0F8884080F88420104630BDF9
:10243000022030BD70B5044690F8840001281DD0FC
:10244000012284F884202420C4F8880020680568CC
:10245000026822F0010202602068826822F0606255
:102460000A438260204601F00DFE226820210020F0
:102470001560C4F8881084F8840070BD022070BD17
:1024800070B5044690F8840001281DD0012284F81C
:1024900084202420C4F8880020680568026822F09F
:1024A000010202602068826822F060420A43826072
:1024B000204601F0E7FD2268202100201560C4F8C5
:1024C000881084F8840070BD022070BDD0F89000A0
:1024D000704700002DE9F04FB7B08046142130A8B6
:1024E000FDF746FFC0216846FDF742FF884D0127F2
:1024F00089490224D8F80000083D854E4FF4004A6F
:10250000DFF810B288424FF008094FF0000836D1CA
:102510000020CDF878800222CDE900206846FEF741
:102520004DFB08B1FDF78DFF306840F400203060AE
:10253000306800F400203590286840F001002860E1
:10254000286830A9CDE9307400F001004D46CDE98E
:1025500032845E46CDE934905846FDF795FF30AAA7
:1025600006214FF4006082E89100CDE9334130A9A3
:102570003046FDF789FFCDE930A432943DE067494C
:10258000884244D10021CDF8788002226846CDE906
:102590000021FEF713FB08B1FDF753FF306840F050
:1025A00000403060306800F000403590286840F00E
:1025B00008002860286800F008003590286840F07E
:1025C00010002860286830A9CDE930A400F0100080
:1025D0004D4632943394CDE934905148FDF754FF81
:1025E000504E30A9CDE9307432973046CDE93345AD
:1025F000FDF74AFF3094CDE93148CDE9334530A9A4
:10260000304600BFFDF740FF37B0BDE8F08F4649C8
:10261000884244D10020CDF87C800121CDE9001012
:102620006846FEF7CBFA08B1FDF70BFF38480830D3
:10263000016841F010010160006800F01000359061
:10264000286840F002002860286800F002003590F9
:10265000286840F0010028602868042530A9334E1E
:1026600000F001003590280381E81101CDE93345E0
:102670003046FDF709FFCDF8C0A030A9CDE93147BC
:10268000CDE933453046FDF7FFFEA902329407201D
:10269000CDE9301430A9CDE933405846B2E724499A
:1026A0008842B1D10021CDF8788002226846CDE978
:1026B0000021FEF783FA08B1FDF7C3FE306840F44D
:1026C00000303060306800F400303590286840F009
:1026D0000100286028680725309430A900F0010027
:1026E0005E4631943294CDE9345058463394FDF728
:1026F000CBFE30A9042081E81101CDE933453046F5
:10270000FDF7C2FECDF8C090CDE9314775E7000076
:10271000E844025800000258004C0040007C004091
:10272000000C02580010025800100140000402582A
:10273000004400402DE9F84F0446D0F88C009B4639
:1027400016460D46202802D00220BDE8F88FC5B1FC
:10275000BEB10027C4F890702220C4F88C00E76650
:102760002034FDF7B3FF824654F8180CA6874FF4C7
:102770008053E687FF21203C984207D1226912B19D
:1027800019E00120E1E740F2FF1114E04FF07F0271
:1027900078B1B0F1805F11D0A4F860709842B4F8BD
:1027A00060704FF0200801D1206970B12E460025DD
:1027B0000CE0266936B9A4F86010EFE7216909B189
:1027C0003F21F8E7A4F86020E8E7002607F0FF09BA
:1027D000B4F85E00F0B10022534620212046CDF827
:1027E00000B001F02BFF18B1C4F88C800320ACE7D7
:1027F0002068406A56B100EA090006F8010B00BFE4
:10280000B4F85E00401EA4F85E00E1E7384025F809
:10281000020BF5E7C4F88C80002096E72DE9F84319
:102820000446D0F88800984616460D46202802D067
:102830000220BDE8F883A5B19EB10021C4F8901034
:102840002120C4F888001834FDF740FF814654F871
:10285000100CA687E6872027183CB0F5805F02D0D1
:1028600003E00120E5E7206910B12E46002510E0C5
:1028700000260EE08021204601F0E0FEC0B9DEB166
:1028800016F8010B21688862B4F85600401EA4F8BF
:102890005600B4F856004B464FF00002CDF80080C9
:1028A0000028E7D14FF04001204601F0C7FE48B1B3
:1028B000C4F888700320BCE735F8020B2168C0F328
:1028C0000800E0E7C4F888700020B2E7FEE70000E7
:1028D00010B5364B0021364A04462DED028B82B0EE
:1028E0009FED308ADFED308A00900120F0EE480A3B
:1028F000B0EE680A00F0D8F801212C4B2C4A0846AB
:10290000F0EE480AB0EE680A009400F0CDF8274BCC
:102910000021274A0220F0EE480AB0EE680A00942F
:1029200000F0C2F8214B0121214A0220F0EE480AB2
:10293000B0EE680A009400F0B7F81C4B00211C4A66
:102940000320F0EE480AB0EE680A009400F0ACF8FC
:10295000164B0121164A0320F0EE480AB0EE680A31
:10296000009400F0A1F89FED138ADFED138A0F4B5E
:1029700000210F4A0420F0EE480AB0EE680A0094E5
:1029800000F092F8094B0121094A0420F0EE480AB0
:10299000B0EE680A009400F087F802B0BDEC028B3C
:1029A00010BD0000CDCCCC3DCDCCCC3C703A022447
:1029B000D00700246F12833A9A99993E10B5364B8E
:1029C0000021364A04462DED028B82B09FED308AFD
:1029D000DFED308A00900120F0EE480AB0EE680A80
:1029E00000F0BCFB01212C4B2C4A0846F0EE480AB3
:1029F000B0EE680A009400F0B1FB274B0021274A93
:102A00000220F0EE480AB0EE680A009400F0A6FB3F
:102A1000214B0121214A0220F0EE480AB0EE680A5B
:102A2000009400F09BFB1C4B00211C4A0320F0EE9D
:102A3000480AB0EE680A009400F090FB164B0121A2
:102A4000164A0320F0EE480AB0EE680A009400F03F
:102A500085FB9FED138ADFED138A0F4B00210F4A90
:102A60000420F0EE480AB0EE680A009400F076FB0D
:102A7000094B0121094A0420F0EE480AB0EE680A29
:102A8000009400F06BFB02B0BDEC028B10BD0000A7
:102A9000CDCCCC3D5839B43CA06E0424A06D0424A8
:102AA0006F12833A3D0A573E2DE9F041F0EE601A6D
:102AB000B0EE401A04469FED550A0128069F4FF0DC
:102AC0000000F0EE400A064613D0022C14D0032C6E
:102AD00015D0042C76D14E4E4E4D00BF02EB87022E
:102AE00003EB87034C4F69B1012948D0042C45D032
:102AF00071E04A484A4DF1E74A484B4DEEE74B48F2
:102B00004B4DEBE7012C06D0022C11D0032C1CD02E
:102B1000042C60D124E002F5AE32D7ED010A92ED2B
:102B2000E90A03F5AE3330EE200AD3EDE90A52E0AC
:102B300002F5F632D7ED030A92ED130A03F5F633E8
:102B400030EE200AD3ED130A45E002F5884203F582
:102B5000884392ED950A97ED052AD3ED950A2CE06E
:102B600002F5504203F5504392EDBF0A97ED072A54
:102B7000D3EDBF0A32EE400AF1EE600A3FE0012CCD
:102B800006D0022C0FD0032C1DD0042C23D12AE018
:102B900002F58C3203F58C3392ED540A97ED022A3C
:102BA000D3ED540A09E002F5D23203F5D23392EDA7
:102BB0007E0A97ED042AD3ED7E0A32EE400AF1EE4A
:102BC000600A08E01FE092ED000A97ED062AD3EDB7
:102BD000000A30EE020A03F0EFF821462846BDE86D
:102BE000F04103F011BB02F50C42D7ED080A92ED5B
:102BF0002A0A03F50C4330EE200AD3ED2A0A3046A8
:102C000002F080FFE9E7BDE8F0810000000000006D
:102C1000C8020024407104241C0100240002002486
:102C20006872042442020024FC72042484020024FA
:102C3000D471042470B5234C94ED010A02F0CAFA51
:102C400010EE100A204DA84237DD94ED020A02F082
:102C5000C1FA10EE100AA8422FDD94ED030A02F02B
:102C6000B9FA10EE100AA84227DD94ED040A02F02A
:102C7000B1FA10EE100AA8421FDD94ED050A02F029
:102C8000A9FA10EE100AA84217DD94ED060A02F028
:102C9000A1FA10EE100AA8420FDD94ED070A02F027
:102CA00099FA10EE100AA84207DD94ED080A02F026
:102CB00091FA10EE100AA84201DC002070BD01203C
:102CC00070BD00001C010024BD37863510B52DED08
:102CD000028B86E09FED478A47480021B0EE480A04
:102CE00003F094F94548012103F08EFA4448454C1D
:102CF000406E60600520FDF7B5FB3F480121B0EE56
:102D0000480A03F083F93D48012103F07DFA3E486B
:102D1000406EA0600520FDF7A5FB3C480021B0EE09
:102D2000480A03F073F93A48022103F06DFA394872
:102D3000406EE0600520FDF795FB34480121B0EEC0
:102D4000480A03F063F93248022103F05DFA324881
:102D5000406E20610520FDF785FB30480021B0EE74
:102D6000480A03F053F92E48032103F04DFA2D4889
:102D7000406E60610520FDF775FB28480121B0EE2B
:102D8000480A03F043F92648032103F03DFA264898
:102D9000406EA0610520FDF765FB24480021B0EEE0
:102DA000480A02F0F1FE2248042103F02DFA2148DE
:102DB00090ED050A052084ED070AFDF753FB1B483B
:102DC0000121B0EE480A02F0DFFE1948042103F0A9
:102DD0001BFA194890ED050A052084ED080AFDF755
:102DE00041FBFFF727FF00283FF474AFBDEC028BD7
:102DF00010BD0000000000000002002468720424DE
:102E00006C0300241C010024F80300244202002467
:102E1000FC7204248404002410050024840200248D
:102E2000D47104249C05002428060024C802002430
:102E300040710424F40200243003002410B52DED69
:102E4000028B86E09FED478A47480021B0EE480A92
:102E500003F0BEF84548012103F0D6F94448454C3B
:102E6000406E60600520FDF7FDFA3F480121B0EE9D
:102E7000480A03F0ADF83D48012103F0C5F93E488A
:102E8000406EA0600520FDF7EDFA3C480021B0EE51
:102E9000480A03F09DF83A48022103F0B5F9394891
:102EA000406EE0600520FDF7DDFA34480121B0EE08
:102EB000480A03F08DF83248022103F0A5F93248A0
:102EC000406E20610520FDF7CDFA30480021B0EEBC
:102ED000480A03F07DF82E48032103F095F92D48A8
:102EE000406E60610520FDF7BDFA28480121B0EE73
:102EF000480A03F06DF82648032103F085F92648B7
:102F0000406EA0610520FDF7ADFA24480021B0EE27
:102F1000480A02F01DFE2248042103F075F92148F9
:102F200090ED050A052084ED070AFDF79BFA1B4882
:102F30000121B0EE480A02F00BFE1948042103F00B
:102F400063F9194890ED050A052084ED080AFDF79C
:102F500089FAFFF76FFE00283FF474AFBDEC028BD7
:102F600010BD00000000000000020024687204246C
:102F70006C0300241C010024F803002442020024F6
:102F8000FC7204248404002410050024840200241C
:102F9000D47104249C05002428060024C8020024BF
:102FA00040710424F4020024300300242DE9F05F72
:102FB000584F594C594D5A4EDFF86881DFF86891E7
:102FC000DFF868A1DFF868B12DED028BD8B1786E1B
:102FD0002060686E6060706EA060D8F86400E06089
:102FE000D9F864002061DAF86400606151489BED13
:102FF000050A84ED060A90ED050A84ED070ABDEC8A
:10300000028BBDE8F09F9FED4C8A4C480021B0EE4A
:10301000480A02F0DDFF4A48012103F0F5F8786E16
:1030200020600520FDF71EFA44480121B0EE480A51
:1030300002F0CEFF4248012103F0E6F8686E6060BE
:103040000520FDF70FFA3F480021B0EE480A02F0D4
:10305000BFFF3D48022103F0D7F8706EA060052045
:10306000FDF700FA37480121B0EE480A02F0B0FF40
:103070003548022103F0C8F8D8F86400E060052064
:10308000FDF7F0F931480021B0EE480A02F0A0FF48
:103090002F48032103F0B8F8D9F864002061052017
:1030A000FDF7E0F929480121B0EE480A02F090FF4F
:1030B0002748032103F0A8F8DAF8640060610520CE
:1030C000FDF7D0F923480021B0EE480A02F040FD98
:1030D0002148042103F098F89BED050A052084EDB2
:1030E000060AFDF7BFF91B480121B0EE480A02F0BD
:1030F0002FFD1948042103F087F80E4890ED050ACA
:10310000052084ED070ABDEC028BBDE8F05FFDF7FA
:10311000A9B900006C03002498700424F80300246B
:1031200084040024100500249C05002428060024A3
:10313000F4020024300300240000000000020024F8
:103140006872042442020024FC72042484020024D5
:10315000D4710424C8020024407104242DE9F041F4
:10316000F0EE601AB0EE401A04469FED550A0128B1
:10317000069F4FF00000F0EE400A064613D0022CE6
:1031800014D0032C15D0042C72D14E4E4E4D00BFDE
:1031900002EB870203EB87034C4F69B1012944D04E
:1031A000042C41D071E04A484A4DF1E74A484B4D62
:1031B000EEE74B484B4DEBE7012C06D0022C0DD02F
:1031C000032C18D0042C60D122E092ED000A97ED78
:1031D000002AD3ED000A30EE020A56E002F50C4256
:1031E000D7ED020A92ED2A0A03F50C4330EE200ACD
:1031F000D3ED2A0A49E002F58C32D7ED040A92EDAC
:10320000540A03F58C3330EE200AD3ED540A3CE027
:1032100002F5D232D7ED060A92ED7E0A03F5D233DB
:1032200030EE200AD3ED7E0A43E0012C06D0022CBA
:1032300011D0032C1DD0042C27D12EE002F588429A
:10324000D7ED010A92ED950A03F5884330EE200A86
:10325000D3ED950A19E002F55042D7ED030A92ED3D
:10326000BF0A03F5504330EE200AD3EDBF0A0CE04D
:1032700023E002F5AE32D7ED050A92EDE90A03F537
:10328000AE3330EE200AD3EDE90A02F095FD214677
:103290002846BDE8F04102F0B7BF02F5F632D7ED9F
:1032A000070A92ED130A03F5F63330EE200AD3ED48
:1032B000130A304602F026FCE9E7BDE8F081000081
:1032C00000000000C802002440710424B8700424E7
:1032D000000200246872042442020024FC720424C8
:1032E00084020024D471042401491C22FDF727B86C
:1032F000500100241E48012310B5A0F16401847C14
:1033000000200A78012C0DD00AB3194A543A927C55
:10331000012A1BD0164B383B9B7C012B18D0032A6B
:1033200018D019E0002A134A07D008704870888026
:10333000C8800881488110700EE00B70487088804A
:10334000C880088148818B701070DEE74B7003E005
:10335000022200E004224A70054A1C3A927C012AAB
:1033600005D103224A708880C8800881488110BD39
:10337000A401002418010024094810B500F012F837
:1033800007481C3000F00EF80548383000F00AF805
:103390000348543000F006F8BDE81040FFF7AABF1C
:1033A0005001002470B5818804460068FDF782F959
:1033B000E0B10025FDF78AF9227E01460020A074C5
:1033C000AA4205D062699AB18A1A142A01D32576D5
:1033D00060610123A679227E66B10225012E10D0FC
:1033E000022E1FD0032E34D0A07170BD0125E1E75D
:1033F0006161EEE7002AF8D0A160A37120746074C7
:1034000070BDA068081AB0F57A7F04D30320A071BC
:103410006374A07470BD002AFCD1207CE160401C64
:10342000A57119E0E6688E1BB6F5967F0CD3217C5A
:10343000012902D0022902D002E0A37400E0A574A1
:10344000A0712074E06070BD002AFCD0A160A3715F
:1034500070BD002AFCD1A071207470BD00B587B08A
:1034600014216846FCF784FF1948016841F01001F7
:103470000160016801F010010591016841F08001CF
:103480000160016801F080010591016841F00101CE
:103490000160016801F001010591016841F002013C
:1034A0000160016801F002010591016841F0080125
:1034B000016000680021012200F0080005903C2016
:1034C0008DE8070003486946FCF7DEFF07B000BD42
:1034D000E04402580010025830B587B01748002465
:1034E00044F61F63EF2200944FF080410194802541
:1034F0000294039404940594069480E81600856170
:10350000C0E90334FEF7B0FD08B1FCF79AFF4FF4B1
:103510008050009009486946FEF73AFE08B1FCF772
:1035200090FF064804A904940694FEF74BFD00287A
:1035300001D0FCF786FF07B030BD0000F470042412
:103540001848002110B5164C0C22174B0460C0E936
:103550000131C1600B46C0E9041281610A46C161B4
:10356000016241628162FEF7D1FC08B1FCF769FF9C
:103570000C480021FEF784FF08B1FCF762FF094800
:103580000021FEF757FF08B1FCF75BFF0548FEF787
:1035900031FF002803D0BDE81040FCF752BF10BD3A
:1035A000004C00404071042400093D0070B51C48E7
:1035B0000C221C4C0021194BC0E9003481603023DF
:1035C000C1604FF48054C0E9041281616500C1619B
:1035D0000162C0E909130023C0E90F451A461946E4
:1035E000FEF794FC08B1FCF72CFF0D480021FEF714
:1035F00047FF08B1FCF725FF09480021FEF71AFF35
:1036000008B1FCF71EFF0648FEF7F4FE002803D0C1
:10361000BDE87040FCF715BF70BD0000007C0040A5
:10362000D4710424003E49001848002110B5164CFE
:103630000C22174B0460C0E90131C1600B46C0E9A0
:10364000041281610A46C161016241628162FEF732
:103650005DFC08B1FCF7F5FE0C480021FEF710FFF9
:1036600008B1FCF7EEFE09480021FEF7E3FE08B1C1
:10367000FCF7E7FE0548FEF7BDFE002803D0BDE8D5
:103680001040FCF7DEBE10BD00100140687204243B
:10369000003E49001848002110B5164C0C22174B6B
:1036A0000460C0E90131C1600B46C0E904128161C8
:1036B0000A46C161016241628162FEF727FC08B1DE
:1036C000FCF7BFFE0C480021FEF7DAFE08B1FCF75C
:1036D000B8FE09480021FEF7ADFE08B1FCF7B1FEC7
:1036E0000548FEF787FE002803D0BDE81040FCF730
:1036F000A8BE10BD00440040FC720424003E4900F6
:10370000FEE7FEE7704700002DE9F047454D04460F
:1037100089464FF0000A2868C04380070AD0414E0E
:10372000283E306820F080603060FCF7CFFF07460D
:10373000B04608E00120BDE8F08700BFFCF7C6FFF7
:10374000C01B022867D8D8F800000001F6D4206812
:1037500029684FF4FE0721F47C313E0241EA003033
:103760002860207AA389B4F804C040022D4D2D4969
:103770005B1E227CACF1010C1035091DA0F5007018
:1037800080B2521ECCF3080C07EA034340EA0C0057
:10379000184306EA0262104328600868626920F054
:1037A000C000104308600A68A06922F020020243AA
:1037B0000A60281D0A6822F010020A6002684FF6AB
:1037C000F873E4699A4342EAC40202600868B9F1F6
:1037D000000F40F010020A6011D00868B9F1010F23
:1037E00011D040F400100860D8F80000444640F0C2
:1037F0008060C8F80000FCF769FF05460DE0086826
:1038000040F40020EFE740F48010ECE7FCF75EFFA7
:10381000401B022801D903208DE720680001F5D55F
:10382000504688E7284402582DE9F047454D0446A4
:1038300089464FF0000A2868C04380070AD0414EED
:10384000283E306820F080503060FCF73FFF07468C
:10385000B04608E00120BDE8F08700BFFCF736FF66
:10386000C01B022867D8D8F800008000F6D4208852
:1038700029684FF4FE0721F07C713E0241EA0050B6
:103880002860207AA389B4F804C040022D4D2D4948
:103890005B1E227CACF1010C1835091DA0F50070EF
:1038A00080B2521ECCF3080C07EA034340EA0C0036
:1038B000184306EA0262104328600868626920F42F
:1038C0004060104308600A68A06922F40072024355
:1038D0000A60281D0A6822F480720A6002684FF6A6
:1038E000F873E4699A4342EAC40202600868B9F1D5
:1038F000000F40F480720A6011D00868B9F1010F1E
:1039000011D040F080700860D8F80000444640F0C4
:103910008050C8F80000FCF7D9FE05460DE00868A5
:1039200040F48000EFE740F40000ECE7FCF7CEFE47
:10393000401B022801D903208DE720688000F5D5BF
:10394000504688E7284402587047FCF7C5BE00007F
:1039500070B59CB04C216846FCF70AFD202113A8E5
:10396000FCF706FD0220FCF7A9FF214800242149AD
:10397000026842F44042026002680A6842F00102B2
:103980000A60096801F001011B9101688904FCD5F6
:103990000DF1280C022009900521C0228CE80700B7
:1039A000C6030F9008250D9001230E90CDE9105409
:1039B000CDE9003668461294FDF7E6FF08B172B60D
:1039C000FEE740201A903F210301CDE91650032263
:1039D000CDE9180313AB13A883E816000421FDF703
:1039E000C3FD002801D072B6FEE71CB070BD000018
:1039F000184802582C0400583348F0B5334A01687F
:103A000041F470010160106800F00F00072804D233
:103A1000106820F00F00C01D10602D4900202C4CB4
:103A200010340B682B4D43F001030B6020600B68D2
:103A30002B400B60136803F00F03072B04D91368A6
:103A400023F00F03DB1D1360214C234A1834234B52
:103A5000261D371D20601E4C214D28343060261D48
:103A60003860371D23603B1D35601C1D3A60251DE5
:103A70002E1D1860331D22602860326018600A68AD
:103A8000134B184C22F4802260330A6018602068BF
:103A90006FF30F00B0F1005F03D213490120C1F8AA
:103AA00008010B48D4300168C9040BD4026843F202
:103AB000D2010E4B42F4805202601960016821F479
:103AC00080510160F0BD000088ED00E00020005250
:103AD000004402587FEDF6EA800201010002020272
:103AE0000000FF010010005C008000510040005207
:103AF0000148FEF7CCBB0000F47004242DE9F04728
:103B0000294B4FF0804A294D02689842284E294F90
:103B1000294C09D0504507D0A84205D0B04203D067
:103B2000B84201D0A04205D1D1F804C022F0700201
:103B30004CEA0202DFF884C0DFF884809842DFF8A4
:103B400084900FD050450DD0A8420BD0B04209D080
:103B5000B84207D0A04205D0604503D0404501D00F
:103B6000484503D1CD6822F440722A438E684D69DE
:103B700022F08002C6620E682A439842866207D00D
:103B8000A04205D0604503D0404501D0484501D151
:103B9000096901630368012143F004030360416183
:103BA0000260BDE8F0870000000001400004004012
:103BB00000080040000C00400004014000400140AB
:103BC000004401400048014042EA032283680A435E
:103BD00023F47F410A43826070470000034B8268F0
:103BE0001A400A4342F00701816070478FFFCFFF00
:103BF00010B5036A046A23F00A0324F00104046286
:103C000084690B4324F0F00141EA021181610362EF
:103C100010BD10B5036A046A23F0A00324F0100459
:103C20000462846943EA011124F4704343EA0232D6
:103C30008261016210BD00002DE9F04FF54C0025B6
:103C400041F295162DED048BA7B02078002870D096
:103C50009FEDF18A6078F14FDFF8C4830128DFF827
:103C6000C493DFF8C4A3DFF8C4B304D0022869D03A
:103C700004285ED133E1E088618908435FD1A088E0
:103C8000E8BBEB48007806287ED287ED008A88EDF5
:103C9000008AE84889ED008A8AED008A8BED008A67
:103CA00080ED008AE44880ED008AE44880ED008AD7
:103CB000FFF7C4F8DE481822E149007800EB400025
:103CC00001EBC00702A83946FCF739FB182207F1BF
:103CD000180108A8FCF733FB18210EA8FCF748FBD5
:103CE000182114A8FCF744FB18211AA8FCF740FB84
:103CF000182120A8FCF73CFB20A914A800E00EE046
:103D0000CDE90001B1EE040A08AB1AAA0EA902A877
:103D100000F0CAFF012000F0D9FF00287BD0A08866
:103D2000B04207D2217829B1FEF7D2FDA088401C0D
:103D3000A08039E1B04227D3BD48A5803EE102F022
:103D400091F931E1A0880028F9D1DFEDBE8AE07851
:103D5000E8B301289FEDBC9ADFEDBC9A7DD0022824
:103D60004ED3E188B1424BD3401CE07041F2941035
:103D7000E580FEF7ADFDB648406E3860B548406E50
:103D8000C8F80000B44800E068E0406EC9F80000E0
:103D9000B248A849F0EE484AB0EE484A406ECAF828
:103DA0000000AF48F0EE493A406ECBF80000AD4855
:103DB000406E0860AC4890ED050A9F4880ED000A0F
:103DC000AA4890ED050A9D4880ED000A00E023E036
:103DD0009048B0EE483A8030F0EE482AB0EE482ADB
:103DE000D4ED031AB0EE691AF0EE680AB0EE480A94
:103DF00001F090FB5FF0020000F068FF00288DD01A
:103E0000E088B04276D2217841B3FEF761FDE088C8
:103E1000401CE080C8E0C6E00120E0709449182210
:103E200002A8E580FCF78BFA9149182208A81831FE
:103E3000FCF785FA18210EA8FCF79AFA182114A8A5
:103E4000FCF796FA18211AA8FCF792FA182120A874
:103E5000FCF78EFA20A914A801E00BE04AE0CDE9B6
:103E60000001B0EE680A08AB1AAA0EA902A800F079
:103E70001BFFC5E7E088B042C2D30220E070E580B6
:103E800087ED008A88ED008A6A4889ED008A8AED0C
:103E9000008A8BED008A80ED008A674880ED008AF9
:103EA000664880ED008AFEF7C9FF5A48F0EE484A9E
:103EB0008030B0EE484AF0EE493AB0EE483AF0EEC3
:103EC000482AB0EE482AD4ED031AB0EE691AF0EE93
:103ED000680AB0EE480A01F01DFB01208CE7E0887B
:103EE000A18808437FF42BAF6089E8BB6148007864
:103EF000032804D341F29410FEF7EAFC54E087ED66
:103F0000008A88ED008A4B4889ED008A8AED008A94
:103F10008BED008A80ED008A474880ED008A474893
:103F200080ED008AFEF78AFF524818225249007835
:103F300000EB400001EBC00702A83946FCF7FFF98F
:103F4000182207F1180108A8FCF7F9F918210EA8A2
:103F5000FCF70EFA182114A8FCF70AFA18211AA87F
:103F6000FCF706FA182100E012E020A8FCF700FA9E
:103F700020A914A8B1EE040ACDE9000108AB1AAAE1
:103F80000EA902A800F090FE012000F09FFE50B1A3
:103F90006089B0420ED2217861B1FEF799FC608948
:103FA000401C608100E025706078032821D12089C1
:103FB00040B116E0B0429DD32E4865810178491C7E
:103FC000017097E7A5800020E580FEF7EFFF2B4901
:103FD0002B48B1EE040A02F043F8032000F076FE0D
:103FE00060B12089B0420BD2FEF7E8FC2089401C6A
:103FF000208127B0BDEC048BBDE8F08F2570F8E779
:1040000027B0401EBDEC048B80B2BDE8F04FFEF738
:10401000D5BC000040010024000000002001002465
:1040200024010024280100242C0100243001002454
:104030001801002434010024380100243C0100242C
:10404000100000240000B442DB0FC9400AD7A33C93
:104050006C030024F80300248404002410050024C9
:104060009C05002428060024F402002430030024C8
:10407000F068000819010024B8000024B870042476
:104080009870042430B5416EB9B101680D4B03F14D
:1040900008048A688968C2F34262490F5D5C615C0A
:1040A0002D01B5FBF1F1A0F86A10995CA25C090141
:1040B000B1FBF2F1A0F8681030BD0121A0F86A1040
:1040C000F8E700003869000890F82810090706D5BD
:1040D0000168836B4A6822F400421A434A6090F8F0
:1040E0002810C90706D00168C36A4A6822F4003262
:1040F0001A434A6090F82810890706D50168036BB7
:104100004A6822F480321A434A6090F8281049071E
:1041100006D50168436B4A6822F480221A434A603C
:1041200090F82810C90606D50168C36B8A6822F486
:1041300080521A438A6090F82810890606D50168D3
:10414000036C8A6822F400521A438A6090F828109F
:10415000490611D50168436C4A6822F480121A435B
:104160004A60416CB1F5801F06D10168836C4A68D2
:1041700022F4C0021A434A6090F82810090606D5B6
:104180000168C26C486820F4002010434860704702
:104190002DE9F84300250446C0F89050FCF796FA44
:1041A0008046206820266FF07E470068000713D500
:1041B0000022434631042046009700F03FFA58B1F0
:1041C000216851E8000F20F0800041E80002002A39
:1041D000F6D1C4F8886021E020680068400722D545
:1041E000002243464FF480012046009700F026FA53
:1041F000C8B1206850E8001F21F4907140E8001217
:10420000002AF6D12068083050E8001F21F0010193
:1042100040E80012002AF5D1C4F88C60032084F82D
:104220008450BDE8F883C4F88860C4F88C60E56603
:104230002567002084F88450F3E7000010B5026879
:1042400052E8001F21F4907142E80013002BF6D1D0
:104250000E4B0268083252E8001F194042E8001471
:10426000002CF6D1C16E012908D1026852E8001F66
:1042700021F0100142E80013002BF6D1002120228A
:10428000C0F88C20C166416710BD0000FEFFFFEF43
:104290002DE9F04304468068D84E87B0D84B21689A
:1042A000D4E90427D4F81CC010430A68002547EA63
:1042B0000C073843324002430A602068E2684168D4
:1042C00021F44051114341602268A1699A4201D012
:1042D000206A01439768DFF82CC3CB4ECB4807EA2E
:1042E0000C070F4397602168676ACA6A22F00F02C1
:1042F0003A43CA622268B2420ED1006800F0380028
:10430000182873D047DCB8B3082879D010286FD1AB
:1043100078E028287ED17BE0BD498A4209D1006837
:1043200000F00700062875D2DFE800F0546A6C6ED2
:104330007072B8498A4209D1006800F00700062867
:1043400068D2DFE800F0475D5F616365B2498A4289
:1043500009D1006800F0070006285BD2DFE800F012
:104360003A5052545658AD498A420BD1006800F079
:10437000070006284ED200E010E0DFE800F02B41F5
:1043800043454749A6498A420AD1006800F03800EF
:10439000182839D0B7DD2028BBD13CE001203AE015
:1043A000A0498A4209D1006800F00700062831D2EE
:1043B000DFE800F01026282A2C2E9B498A420BD1D8
:1043C000006800F00700062824D2DFE800F0031997
:1043D0001B1D1F2100201EE09A421BD18B48001D8F
:1043E000006800F00700062814D202E00CE007E0A5
:1043F00010E0DFE800F0030507090B0D02200AE0DA
:10440000042008E0082006E0102004E0202002E05C
:10441000402000E080208549DFF814829A42854AD6
:104420004FF400434FEA21174FF000064ED11028F9
:104430001AD006DC022809D004280BD008287CD129
:104440000DE020283ED0402877D13DE0FCF760FA0F
:10445000014610E06846FCF76DFA01990BE003A8ED
:10446000FCF70AFB049906E01068800605D5106881
:10447000C0F3C100C140002970D0606A676838F895
:10448000102007EB4703B1FBF2F0834255D8B0EBA5
:10449000073F52D8002308461946FBF71FFF024684
:1044A0007808130E120243EA012110183A467141AE
:1044B0000023FBF713FF604AA0F5407191423CD8FE
:1044C00021688FE03946D8E71946D6E7D4F81CC0F2
:1044D0004FF6EF799C4546D1082819D005DC58B134
:1044E00001280CD0042875D10DE0102815D0202803
:1044F00035D040286ED134E0FDF786F901E0FDF7B4
:1045000095F9014610E06846FCF714FA01990BE0B2
:1045100003A8FCF7B1FA049906E01068800604D5F8
:104520001068C0F3C100C140C1B1636A606838F867
:104530001330B1FBF3F1490000E04BE001EB500117
:10454000B1FBF0F0A0F11001494543D84FF6F073EC
:104550002168C0F342021840104343E043E039466B
:10456000E3E71946E1E7082819D005DC58B101282E
:104570000CD004282ED10DE0102815D020282BD0E7
:10458000402827D12AE0FDF73FF901E0FDF74EF979
:10459000014610E06846FCF7CDF901990BE003A84D
:1045A000FCF76AFA049906E01068800604D51068E2
:1045B000C0F3C100C140B1B1636A606838F813301C
:1045C000B1FBF3F101EB5001B1FBF0F0A0F11001F0
:1045D000494505D9012506E03946EDE71946EBE7DF
:1045E000216880B2C8600120A4F86A00A4F86800BD
:1045F00028466667A66707B0BDE8F083F369FFCF7A
:10460000000C0058FFF4FF11001001405444025800
:104610000044004000480040004C00400050004072
:104620000014014000780040007C00400090D0035E
:104630002069000800440258FFFC0F002DE9F047F4
:10464000994617460D460446089E4FF0000833E091
:10465000701C31D0FCF73AF8A0EB0900B04218D832
:10466000BEB120680168490726D5802D24D0402D91
:1046700022D0C169C94309070DD408250562204627
:10468000FFF7DCFDC4F89050012084F88480BDE879
:10469000F0870320FBE7C069C04300050CD4216804
:1046A0004FF4006008622046FFF7C8FD2021C4F8DF
:1046B000901084F88480ECE72068C06935EA000037
:1046C00004D00020B842C3D00020E0E70120F9E781
:1046D000FEE74100080218BF04200A0E18BF40F090
:1046E00001004FF07F4232EA010108BF40F00200B2
:1046F000012808BF05207047090700284FEA11610B
:1047000004DB00F1E02080F80014704700F00F0097
:1047100000F1E02080F8141D7047000010EE101A20
:1047200008B5434A6846B2EB410F26D94FF0E64040
:10473000B0EB410F94BF00204FF0FF300090009885
:10474000DFED3C0A002860DB10F0010F46D060EE80
:10475000000ADFED391A9FED391A10F0020F00EE52
:10476000E11ADFED371A40EE811A21EEA01AF0EEC1
:10477000400A40EE010A2ED041E0324B21F00042C7
:1047800093423FD911F0004FDFED2F0A20EE201A9F
:10479000DFED2E0A19BF31EE601A71EE200A31EEFC
:1047A000201A71EE600ABDEEE01A11EE100A9FEDBC
:1047B000281A00F0030000EEC10A9FED261A0090AF
:1047C00000EEC10A9FED241A00EEC10A9FED231AE4
:1047D00000EEC10AB3E7F1EE600A10E020EE000A35
:1047E0009FED1F1ADFED1F1A10F0020F40EE011AA5
:1047F0009FED1D1A00EE211A40EE010AEBD1B0EE3A
:10480000600A08BD00F02CF999E710EE100A40008C
:10481000B0F17F4FF3D307D14FF0010000F0DAF988
:10482000BDE8084000F00CB9BDE8084000F005B94B
:10483000B61F927E0000803F336D4C39DA82083C0F
:10484000A0AA2ABE490E494683F9223F0000004B28
:104850000000C93F00A0FD390020A2331A61342CAA
:10486000B93AB2BACA9F2A3DDDFFFFBE00B510EECD
:10487000101A2DED028B81B0524A6846B2EB410FFF
:104880002ED94FF0E640B0EB410F94BF00204FF01F
:10489000FF3000900098B0EE408A00286ADB10F0EC
:1048A000010F4BD068EE080A9FED471A9FED470AAB
:1048B00000EE810A9FED461A00EE801A9FED450A30
:1048C00010F0020F00EE810A02BF01B0BDEC028BB6
:1048D00000BD00BF01B0B1EE400ABDEC028B00BDCF
:1048E0003D4B21F00042934241D911F0004FDFEDE2
:1048F0003B0A20EE201ADFED3A0A19BF31EE601AAA
:1049000071EE200A31EE201A71EE600ABDEEE01A57
:1049100011EE100A9FED331A00F0030000EEC10AF9
:104920009FED311A009000EEC10A9FED301A00EEA3
:10493000C10A9FED2F1A00EEC10AABE728EE080A64
:104940009FED2C1ADFED2C0A10F0020F40EE410A09
:104950009FED2A1A00EE201A61EE000AB0EE480A16
:1049600008EE200AB6D101B0BDEC028B00BD00F00C
:1049700077F88FE718EE100A4000B0F17F4F0DD2A4
:1049800018EE100AFFF7A5FE042808BF00F060F833
:10499000B0EE480A01B0BDEC028B00BD09D1012088
:1049A00000F018F901B0BDEC028B5DF804EB00F0EB
:1049B00047B801B0B0EE480ABDEC028B5DF804EBDD
:1049C00000F03BB8B61F927EB93AB2BACA9F2A3DF0
:1049D000DDFFFFBE0000803F490E494683F9223FBC
:1049E0000000004B0000C93F00A0FD390020A233A9
:1049F0001A61342C336D4C39DA82083CA0AA2ABEE5
:104A000010B52DED028BB1EEC08A18EE100A20F021
:104A10000040C0F1FF40C00F0AD010EE100A20F095
:104A20000040C0F1FF40C00F04BF012000F0D2F8E9
:104A3000B0EE480ABDEC028B10BD30EE000A7047A4
:104A4000DFED020A80EEA00A7047000000000000BF
:104A50009FED020A20EE000A7047000000000010DF
:104A60002DE9F0014FF07F42B2EB410F9FBF4FF0B5
:104A7000FF310160BDE8F00170474FF0004242EAAB
:104A80000123C1F3C752783A551112F01F0C434C61
:104A9000CCF120067C44C1F3C752A2F178024FEA60
:104AA000621204EB820254F8254008BFD2E9015695
:104AB00012D0556804FA0CF425FA06F73C439768BF
:104AC00005FA0CF527FA06F8D26807FA0CFCF24052
:104AD00045EA08054CEA0206A4FB034CA5FB035279
:104AE000A6FB03631D449D4234BF01260026131913
:104AF000334416B1934202D903E0934201D201221A
:104B000000E00022624402F1200C9206DC0C42EA32
:104B1000443200EE102A5B03DFED210AF8EEC01AE2
:104B200000EE103A4FEA9C1C11F0004FB8EE400A1C
:104B3000C0F800C020EE201A00EE105ADFED190A6E
:104B4000B8EE400A20EE200A71EE810A70EE800A6B
:104B500010EE902A02F500626FF30B0200EE902A2D
:104B600070EEE11A31EEC11ADFED101A30EE411A83
:104B70009FED0D0A20EE800A01EE210A9FED0C1A2E
:104B800000EE810A04BFBDE8F0017047CCF180510E
:104B90000160BDE8F001B1EE400A7047C01E0000A0
:104BA000000000360000802C22AAFD29DB0FC92F4F
:104BB0000000C92F02E008C8121F08C1002AFAD15C
:104BC00070477047002001E001C1121F002AFBD18D
:104BD000704700000149086070470000FC01002494
:104BE000B1EE007AF1EE0C6AF2EE003A62EE077A6C
:104BF000F2EE045A22EE267A60EEA36A61EEA53A3E
:104C0000BAEE0E4AF1EE084A21EE844A40EE653AC9
:104C100061EEA41A2DED028BF2EE0E8AB0EE086A58
:104C200000EE284A40EE641A47EEC33A22EE068AA6
:104C300020EEA42AB6EE005A07EE034A48EE431AC5
:104C400080EC020A42EE433A20EE866A61EE050AE3
:104C500023EE030A06EE834A46EE431A62EE854AC5
:104C600040EEC03A20EE031AC0ED020A00EE804A80
:104C700040EEC01A21EE032A44EE803A02EEC04A0A
:104C800044EE801A62EE030A83EE810A84EE021A71
:104C900080ED030A81EEA02A80ED041A80ED052A3A
:104CA000BDEC028B704700007CB5F0EE400A9FED32
:104CB000051ADDE906459FED040ACDE9004500F03F
:104CC0008DFA7CBD0AD7A33C000000002DE9F05FFF
:104CD000CFA1D34CDFF840830128D04D04F1200947
:104CE000D1E90067DFF83CA34FF0000B04D00228A5
:104CF0007ED003287DD129E10020FEF757F941F24B
:104D0000951C4046F1B26346D5ED010A11FB0CF14A
:104D1000C6F3072241F29518C6F3074C00EB810158
:104D200012FB03F291ED000A1CFB08F300EB820278
:104D300030EE200A00EB8303360E84ED000A92ED7C
:104D4000000AD5ED020A16FB08F6F9B2424630EE2B
:104D5000200A00EB860611FB08F184ED010A93EDB1
:104D6000000AD5ED030A00EB81014346C7F3072C87
:104D700030EE200A1CFB02F2C7F3074C84ED020A56
:104D800096ED000AD5ED040A00EB82021CFB03F34A
:104D900030EE200A3F0EC44600EB830384ED030A85
:104DA00091ED000AD5ED050A17FB0CF730EE200A4D
:104DB00000EB870084ED040A92ED000AD5ED060AA7
:104DC0004A4630EE200A84ED050A93ED000AD5ED3F
:104DD000070A534630EE200A84ED060A90ED000AD9
:104DE000D5ED080A002030EE200A84ED070A01E024
:104DF0001AE011E002EB800104EB800691ED000A5D
:104E0000D6ED000A30EE600AB0EEC00A10EE101ABD
:104E1000994204DD85F800B00020BDE8F09F401CF9
:104E2000C0B20828E3D3EFE00120FEF7BFF841F25B
:104E3000951C4046F1B26346D5ED010A11FB0CF119
:104E4000C6F3072241F29518C6F3074C00EB810127
:104E500012FB03F291ED000A1CFB08F300EB820247
:104E600030EE200A00EB8303360E84ED000A92ED4B
:104E7000000AD5ED020A16FB08F6F9B2424630EEFA
:104E8000200A00EB860611FB08F184ED010A93ED80
:104E9000000AD5ED030A00EB81014346C7F3072C56
:104EA00030EE200A1CFB02F2C7F3074C84ED020A25
:104EB00096ED000AD5ED040A00EB82021CFB03F319
:104EC00030EE200A3F0EC44600EB830384ED030A54
:104ED00091ED000AD5ED050A17FB0CF730EE200A1C
:104EE00000EB870084ED040A92ED000AD5ED060A76
:104EF0004A4630EE200A84ED050A93ED000AD5ED0E
:104F0000070A534630EE200A84ED060A90ED000AA7
:104F1000D5ED080A5FF0000030EE200A84ED070AA4
:104F200002EB800104EB800691ED000AD6ED000A49
:104F300030EE600AB0EEC00A10EE101A99423FF748
:104F400069AF401CC0B20828EAD35DE00020FEF73C
:104F50002DF833494A4634485346403190ED000A13
:104F6000D1ED000A30EE200A84ED000A90ED080A27
:104F7000D1ED010A30EE200A84ED010A90ED100A0D
:104F8000D1ED020A30EE200A84ED020A90ED180AF3
:104F9000D1ED030A30EE200A84ED030A90ED200AD9
:104FA000D1ED040A30EE200A84ED040A90ED280ABF
:104FB000D1ED050A30EE200A84ED050A90ED300AA5
:104FC000D1ED060A30EE200A84ED060A90ED380A8B
:104FD000D1ED070A5FF0000030EE200A84ED070AE9
:104FE00002EB800104EB800691ED000AD6ED000A89
:104FF00030EE600AB0EEC00A10EE101A99429EDC44
:10500000401CC0B20828EBD30120287005E700003F
:105010000504070601000302D00700241C01002438
:10502000787004240000A040A06D0424F0B50D4D5C
:105030008646EF07F817002311E000BF5EF82360F3
:1050400000243A4600284FEA400000DA6840164241
:1050500000D068405208641C202CF3D35B1C8B42A8
:10506000ECD3F0BDB71DC10410B514460B4603E0E8
:1050700013F8011B00F004F8641EF9D210BD000003
:10508000034A4140C9B232F8111081EA102070473A
:10509000F066000891ED010AD2ED021AD1ED020A84
:1050A00092ED011A20EE210A00EEC10A80ED000AFD
:1050B00091ED020AD2ED001AD1ED000A92ED021A2A
:1050C00020EE210A00EEC10A80ED010A91ED000AEE
:1050D000D2ED011AD1ED010A92ED001A20EE210A5B
:1050E00000EEC10A80ED020A7047000070B5044668
:1050F00090F82C000025FD2803D194F82D00EE280F
:1051000001D0A56170BD0E22002004F12C01FFF733
:10511000ABFF618F2084814208D0A06AE5622563DD
:10512000401C6563A563A561A06270BD94F838104A
:1051300094F82E0001F0070694F93750228F00F002
:105140000F03C0F30210C4E901562370C2F3CB026F
:1051500060700121B4F93100DFED190A01EE900A07
:105160009FED181A9FED180AF8EEE11A9FED172A25
:10517000DFED172A61EEA01A61EE811A81EE803A06
:1051800084ED043AB4F92F0001EE900AF8EEE11A2A
:1051900061EEA00A20EE800A84ED030AD4F8330001
:1051A000C4E9061200EE100AB8EEC00A20EE010AA9
:1051B00020EE020A20EE220A84ED050A70BD0000EE
:1051C0000000803BD00FC9405C8FCA40000000380F
:1051D000CFD21041B0EEC00A704700002DE9F04F69
:1051E000C34C00271D4692460E4681462DED0E8B80
:1051F000F0EE408AFFB030EEE88AF0EE41AADDF82A
:105200005CB200BF0BEB8700969905EB8702D0EDEF
:10521000002A01EB87010AEB870306EB870809EBFD
:10522000870C07EB470091ED002AD2ED001A93EDB1
:10523000001AD8ED000A9CED000AB0EE483A04EBE3
:10524000C000FFF7CDFC7F1CFFB2062FDAD3A94FB9
:105250000025B0EE00BAF0EE08BAB1EE00CAF1EEE9
:1052600004CA9FEDA59ADFEDA59A07F120089FEDEE
:10527000A4DA40AEE9469FEDA3AADFF88CA200BFF6
:1052800000EE105AB0EE688A994A5FF00000B8EE5E
:10529000400A32AC00EE2A8A68EE082A22EE882AFA
:1052A00062EE081A21EE884A00EB400106EB800C02
:1052B00002EBC101431CD1ED000A91ED010A91ED11
:1052C000021A91ED033A40EE080A21EE0B5A63EE02
:1052D0002B5AD1ED043AD1ED054A05EE080A41EE0C
:1052E000220A23EE8C6A64EEAC6A04EB8001D8B229
:1052F00005EEA20A43EE020A062806EE020A43EE73
:10530000A10A06EEA10A44EE840AC1ED000A8CED62
:10531000000AC9D332A890EC030A5EA800F0CAFBC9
:1053200035A890EC030A6EA800F058FB6EAA5EA99F
:1053300046A800F00FFDDFF8D4B10024DFED74EAD9
:10534000724846A9803000EB041000F00FFF0BEB11
:105350000410B0EE40EAD0ED001AF0EE60DAB0EEE4
:10536000418A31EEC00A8DED3D0A90ED010A30EE22
:10537000600A8DED3E0A90ED020A3DA830EE410A2A
:105380008DED3F0A01F0C6F81DB907EB840080EDF2
:10539000000A07EB8400022CD0ED000A70EE600AD0
:1053A0000CD0032C0AD080EE8D1A41F2951104FB2B
:1053B00001F008EB8000C1EE090A09E080EE8A1ACC
:1053C00041F2951004FB00F108EB8100C1EE090ADF
:1053D00000EB850057AA5BA960EEA90AC0ED000AA0
:1053E000DDED3D0A3AA880EE801A8DED571ADDED0D
:1053F0003E0A80EE801A8DED581ADDED3F0A80EEF0
:10540000801A8DED591A9DED320A3EEE400A8DED5F
:105410005B0A9DED330A3DEEC00A8DED5C0A9DED01
:10542000340A38EE400A8DED5D0AFFF733FE04EBD7
:10543000440141F295139DED570A09EBC10104FBAC
:1054400003F081ED000A9DED580A0AEB800081ED22
:10545000010A9DED590A00EB850281ED020A9DEDDE
:105460003A0A002081ED030A9DED3B0A81ED040A12
:105470009DED3C0A81ED050AC2ED00EA022C10D038
:10548000032C0ED001EB800306EB800CD3ED000A59
:105490009CED001A92ED000A60EE810A80EE8D1AF2
:1054A0000DE001EB800306EB800CD3ED000A9CEDD0
:1054B000001A92ED000A60EE810A80EE8A1A401C02
:1054C000C0B2062830EE410A82ED000AD6D3641C31
:1054D000E4B2082CFFF434AF6D1C41F29510ADB26C
:1054E0008542FFF4CDAE7FB0BDEC0E8BBDE8F08FF2
:1054F000106D0424B0070024DA0F49400000344343
:105500005C8F423D60E5503D703A022430650008F2
:10551000000000002DE9F04F5FF0000406462DED7D
:10552000108BB0EE408AB0EE649A70EEC88AF0EE4E
:10553000449AF0EE63AAB0EE43BAF0EE62BAB0EE6F
:1055400042CAB0EE61AAF0EE41EAFDB0C448B0EE46
:10555000683AF0EE492AB0EE692AF0EE6A1AB0EE27
:105560004B1AF0EE6B0AB0EE4C0AFFF739FB641CE5
:10557000E4B2062CEAD3DFF8ECA20025BA4F9FED87
:10558000BBFADFEDBBFA07F120099FEDBA9A0DF5E2
:10559000B47BDFEDB9DAB1EE4AEA00BF00EE105A93
:1055A000AF48F0EE004AF8EE400AB0EE480AD0EDFF
:1055B000009AD0ED018A00EEAE0AD0ED021A90ED0D
:1055C000031AB0EE084A61EEA44A21EE044A48EEFE
:1055D000809A60EE000A44EE808AD0ED042AF1EE53
:1055E000003A90ED052A41EEA09A60EE801A44EE52
:1055F000208A62EEA33AB1EE043A41EE219A21EEFE
:10560000801A43EEA18A22EE033A21EE000A42EE0E
:10561000819A43EE018A42EE009AB0EE690AFFF7E2
:105620007DF8D6ED00AA4AEE00AAB0EE690AFFF7AF
:105630001DF9D6ED01BA96ED02BA96ED03DA4AEEFF
:1056400000BAD6ED04CA96ED05CAB0EE690AFFF7B6
:105650000DF920EE0E0A20EE280A8DED5A0AB0EE62
:10566000690AFFF75BF820EE0A0AB0EE4B1AF0EE7B
:105670006B0A60A820EE280A8DED5B0A8DED5C9A1E
:105680008DED5D9A8DED5E9A8DED5F9AB0EE6A0AB2
:1056900000F010FAB0EE4C1AF0EE6C0AB0EE4D0AC3
:1056A00036A800F09BF936AA60A946A800F052FB84
:1056B00000246C4846A9803000EB041000F056FD31
:1056C0000AEB0410B0EE40CAD0ED001AF0EE609A7A
:1056D000F0EE418A31EEC00A8DED570A90ED010AD5
:1056E00030EE600A8DED580A90ED020A57A830EEB0
:1056F000410A8DED590A00F00DFF1DB907EB84003A
:1057000080ED000A07EB8400022CD0ED000A70EE59
:10571000600A0BD0032C09D09FED581A41F2951066
:10572000C0EE811A6043C1EE8F0A06E080EEAD1A2A
:1057300041F295106043C1EE0F0A09EB800000EBC7
:10574000850079EEEB1A38EECB2A77AA32A960EE03
:10575000AF0AC0ED000A9DED571A7CEE6A0A71A8E7
:10576000C1EE002ACDED772A9DED581AC1EE002A30
:10577000CDED782A9DED591AC1EE002ACDED792A9A
:10578000CDED320ACDED331A8DED342AFFF782FCD0
:1057900004EB440168469DED770A00EBC10141F23C
:1057A0009513374A81ED000A9DED780A04FB03F05A
:1057B00081ED010A9DED790A02EB80005B4681EDE7
:1057C000020A9DED710A00EB850281ED030A9DED51
:1057D000720A002081ED040A9DED730A81ED050A2D
:1057E00082ED009A022C14D0032C12D001EB800C15
:1057F00003EB80089CED001AD8ED001A9FED1F0AFC
:10580000D2ED000A21EE211AC1EE001A30EEE10AB3
:105810000FE001EB800C03EB8008DCED000A98ED53
:10582000001A92ED000A60EE810A80EEAD1A30EEA9
:10583000410A401CC0B2062882ED000AD2D3641C83
:10584000E4B2082CFFF435AF6D1C41F29510ADB2F7
:105850008542FFF4A3AE7DB0BDEC108BBDE8F08FA8
:105860006070042430650008B0070024DA0F494056
:10587000000034430000000060E5503D5C8F423D75
:10588000703A02242DE9F0410E4607462DED068BB5
:10589000B0EE408AB5EEC08AF1EE10FA7ED9DFEDA7
:1058A000498A494C5FF00005B0EE483A07EB8500A5
:1058B00006EB8502D0ED000A92ED000A05EB4501EA
:1058C000F9EE041A30EEC00AF0EE680A04EBC100EB
:1058D000F0EE602AB0EE602AB0EE601AFFF780F9B1
:1058E0006D1CEDB2082DDFD3394D00209FED370A36
:1058F0009FED385AB0EE007AC8EE003A9FED368A36
:10590000F0EE087AF1EE005AB1EE044A05F5807324
:1059100000EE100A5FF00001B8EE400A60EE230AC4
:1059200060EEA02A22EEA02A62EE201A61EEA06AA2
:1059300001EB410205EB411604EBC20203EB4117F8
:10594000D2ED028A92ED010A92ED001A28EE879AB2
:1059500092ED036A00EE201AD2ED044A09EE200A05
:1059600066EE279A24EEA5AA92ED053A08EEA21A51
:10597000491C09EEA20A63EE04AA06EB8002C9B232
:1059800006EE021A08290AEE020A07EB800604EE68
:10599000A11A0AEEA10AC0EE054A00E00EE003EEED
:1059A000261A24EE880A82ED001A86ED000ABFD37B
:1059B000401C41F2951180B28842A9D3BDEC068B00
:1059C000BDE8F08100000000A06F042400A08C4519
:1059D000A06D042400003443DA0F494010B504469A
:1059E0002DED068BF0EE41AAF0EE609AF0EE408AC3
:1059F000C0B0FEF793FEB0EE408AB0EE680AFEF744
:105A000035FFF0EE408AB0EE690AFEF787FEB0EE91
:105A1000409AB0EE690AFEF729FFF0EE409AB0EE28
:105A20006A0AFEF77BFEB0EE40AAB0EE6A0AFEF705
:105A30001DFF1F494022F0EE40AA6846FAF77FFC9E
:105A4000B1EE6A0A8DED00AA194940228DED010AD6
:105A5000CDED04AA40318DED05AA10A8FAF76FFC30
:105A60008DED109A12494022B1EE690ACDED129ADD
:105A70008DED180A80318DED1A9A20A8FAF75FFC97
:105A8000B1EE680A8DED258A8DED260ACDED298AC5
:105A90008DED2A8A10AA694630A800F05BF920AA89
:105AA000204630A900F056F940B0BDEC068B10BD81
:105AB0003066000880ED030AC0ED070AB7EE002A41
:105AC000DFED0F1A80ED0B1A80ED002AC0ED011AF0
:105AD000C0ED021AC0ED041A80ED052AC0ED061AC9
