:020000040800F2
:10000000A845002439030008AF290008AD260008E0
:10001000AD2900083705000825350008000000005C
:10002000000000000000000000000000F52B0008A8
:100030003905000800000000B1290008F72B00086E
:100040005703000857030008570300085703000828
:100050005703000857030008570300085703000818
:100060005703000857030008570300085703000808
:1000700057030008570300085703000857030008F8
:1000800057030008570300085703000857030008E8
:1000900057030008570300085703000857030008D8
:1000A00057030008570300085703000857030008C8
:1000B00057030008570300085703000857030008B8
:1000C00057030008570300085703000857030008A8
:1000D0005703000857030008570300085703000898
:1000E00057030008570300080000000057030008EA
:1000F0005703000857030008570300085703000878
:100100005703000857030008570300085703000867
:100110005703000857030008570300085703000857
:100120005703000857030008570300085703000847
:100130005703000857030008570300085703000837
:1001400000000000000000000000000000000000AF
:100150005703000857030008570300085703000817
:100160005703000857030008570300085703000807
:100170005703000857030008570300080000000059
:1001800057030008570300085703000857030008E7
:1001900057030008570300085703000857030008D7
:1001A00057030008570300085703000857030008C7
:1001B00057030008570300085703000857030008B7
:1001C00057030008570300085703000857030008A7
:1001D0005703000857030008570300085703000897
:1001E0005703000857030008570300085703000887
:1001F0005703000857030008570300085703000877
:100200005703000857030008570300085703000866
:100210005703000857030008570300085703000856
:1002200057030008570300085703000800000000A8
:100230005703000857030008000000005703000898
:100240005703000857030008570300085703000826
:100250005703000857030008570300085703000816
:100260005703000857030008570300085703000806
:100270005703000857030008570300080000000058
:100280005703000857030008570300080000000048
:10029000000000005703000800F002F800F03CF8EE
:1002A0000AA090E8000C82448344AAF10107DA45D1
:1002B00001D100F031F8AFF2090EBAE80F0013F0E7
:1002C000010F18BFFB1A43F0010318475C3300000D
:1002D0007C330000103A24BF78C878C1FAD852079E
:1002E00024BF30C830C144BF04680C6070470000B0
:1002F0000023002400250026103A28BF78C1FBD82F
:10030000520728BF30C148BF0B6070471FB503F0CC
:1003100069F91FBD10B510BD00F0D3F81146FFF705
:10032000F5FF03F011F900F0F1F803B4FFF7F2FF65
:1003300003BC00F0F9F800000A4880470A488047EB
:100340000A480047FEE7FEE7FEE7FEE7FEE7FEE7B6
:10035000FEE7FEE7FEE7FEE705480649064A074BCB
:100360007047000041050008A52C0008990200080C
:10037000A8030024A8450024A8050024A8050024FB
:1003800053EA020C00F069802DE9F04B4FF00006B3
:10039000002B1FBFB3FA83F503FA05F424FA05F620
:1003A0005E4012BF1643B2FA82F502FA05F4C5F1B7
:1003B00020051EBF22FA05FC44EA0C04203556EA4B
:1003C000044C4FEA144418BF641C4FF000084FF06F
:1003D0000009904271EB030C39D3002919BFB1FA1F
:1003E00081F701FA07F6B0FA80F700FA07F6C7F1CD
:1003F00020071EBF20FA07FC46EA0C062037B6FB92
:10040000F4FCA7EB0507103F07F01F0BCBF120060C
:100410000CFA0BFB2CFA06F644BFB3460026202F3D
:10042000A4BF5E464FF0000B5BEA060C08BF4FF01E
:10043000010B19EB0B09ABFB027C48EB0608C01B58
:1004400006FB02CC0BFB03CC71EB0C01C1E70B46A6
:10045000024641464846BDE8F08B13B54FF0000018
:100460004FF00001AFF30080BDE81C4070474FF033
:10047000000200B5134694469646203922BFA0E8F4
:100480000C50A0E80C50B1F12001BFF4F7AF090700
:1004900028BFA0E80C5048BF0CC05DF804EB8900F1
:1004A00028BF40F8042B08BF704748BF20F8022B34
:1004B00011F0804F18BF00F8012B7047704770474C
:1004C0007047754600F02CF8AE4605006946534665
:1004D00020F00700854618B020B5FFF73DFFBDE8C6
:1004E00020404FF000064FF000074FF000084FF09B
:1004F000000B21F00701AC46ACE8C009ACE8C0092C
:10050000ACE8C009ACE8C0098D46704710B5044698
:10051000AFF300802046BDE81040FFF706BF0000A3
:10052000004870474403002401491820ABBEFEE791
:10053000260002007047FEE7704772B6FEE7000033
:10054000054805490839026842F00202026008685D
:100550008004FCD5704700000C48025870B5044672
:1005600000F02AF90546601C02D0044800780444D3
:1005700000F022F9401BA042FAD370BD0000002415
:100580002DE9F84F03247D4D00234FF001094FF072
:10059000B04B4FF00F0AE9E009FA03F73A4076D082
:1005A0000E7906F00306012E01D0022E18D1D0F8E4
:1005B00008C04FEA430ECE6804FA0EF82CEA080C85
:1005C00006FA0EF646EA0C068660D0F804C00E79EC
:1005D0002CEA070CC6F300169E4046EA0C0646605D
:1005E0000E79F643B6070BD0C6684FEA43088F680A
:1005F00004FA08FC26EA0C0607FA08F73743C76036
:100600000E7906F00306022E12D1DE080F694FEABA
:10061000437C00EB8606B646366A4FEADC6C0AFA83
:100620000CF807FA0CF726EA08063743CEF82070D4
:100630000F7906684FEA430807F0030704FA08FC3D
:1006400007FA08F726EA0C06374307604E6816F4E7
:10065000403F1CD04A4E376847F002073760366883
:100660009F0706F00206009623F0030606F1B04647
:10067000B6463F0FD6F80864DFF808810AFA07FC8F
:10068000404526EA0C0603D14FF0000C41E06CE037
:10069000DFF8F4C0604502D14FF0010C39E0DFF81B
:1006A000ECC0604502D14FF0020C32E0DFF8E0C050
:1006B000604502D14FF0030C2BE0DFF8D8C0604555
:1006C00002D14FF0040C24E0DFF8CCC0604502D129
:1006D0004FF0050C1DE0DFF8C4C0604502D14FF0BB
:1006E000060C16E0DFF8B8C0604502D14FF0070CE9
:1006F0000FE0DFF8B0C0604502D14FF0080C08E011
:10070000DFF8A4C0604502D14FF0090C01E04FF0C2
:100710000A0C0CFA07FC4CEA060CCEF808C44F6829
:10072000DBF80060FF0226EA020600D516435F46AA
:10073000CBF80060D1F804C0DBF804605FEA8C2CD1
:1007400026EA020600D516437E606E684F6826EAE8
:100750000206BF0300D516436E602E684F6826EA76
:100760000206FF0300D516432E605B1C0A6832FAAE
:1007700003F67FF411AFBDE8F88F00008000005849
:10078000F4440258000002580004025800080258BD
:10079000000C0258001002580014025800180258A9
:1007A000001C02580020025800240258014800682A
:1007B000000C70470010005C014880687047000022
:1007C000000000240248816802781144816070476B
:1007D00000000024032010B500F0C6F801F0A0F8D6
:1007E0000F4A104914681368C4F3032203F00F037F
:1007F0008A5CC95C02F01F0201F01F01D0400A4A66
:1008000020FA01F11160094908600F2000F010F88A
:1008100008B1012010BD00F079F8002010BD0000E3
:100820001844025816360008100000240C0000245A
:1008300070B50D4D04462878A0B14FF47A71B1FB24
:10084000F0F00A490968B1FBF0F001F00DFC48B97D
:10085000102C07D200222146501E00F065F800201F
:100860006C6070BD012070BD000000240C000024ED
:10087000154BF0B5083B427813491A600B680A1F04
:1008800023F001030B6043681360057BC67A827A0C
:10089000437B2D07847B45EA0665C77B90F809C03A
:1008A000067A90F800E045EAC24040EA834040EA18
:1008B000444040EA074040EA0C2040EA460040EA53
:1008C0000E000860F0BD0000A0ED00E0BFF35F8FF8
:1008D000044800210368034A23F480330360703224
:1008E0001160704724ED00E0074A40F0010006491E
:1008F00070321060086840F480300860BFF34F8F9A
:10090000BFF36F8F7047000024ED00E0054808B585
:10091000016841F002010160006800F002000090EF
:1009200008BD0000F44402580E4BF0B41B680D469D
:10093000C3F30223C3F10706042E00D90426191DB0
:10094000072901D2002300E0DB1E012404FA06F18E
:100950009C40491E2940641E994014402143F0BC2C
:1009600002F0E1BD0CED00E0064900F0070210B511
:100970004FF6FF040868044B204040EA0220184369
:10098000086010BD0CED00E00000FA05134970B5D9
:100990000A68D243520705D5096801F00701814270
:1009A00013D118E00A6822F0070202430A60FFF739
:1009B00003FF0A4D4FF47A760446083D07E000BF76
:1009C000FFF7FAFE001BB04201D9012070BD286874
:1009D000C0438004F4D4002070BD00000C480258CD
:1009E00010B500F057FF05490968054AC1F3021127
:1009F000515C01F01F01C84010BD000020440258A6
:100A000016360008494930B5484C0B1D0A681434A5
:100A100009681D68246802F00303C5F30012C1F3DE
:100A20000531C4F3CC04002914FB02F200EE102AB5
:100A3000F8EE400A75D03F4A9FED3D1AB7EE000A26
:100A40006BB1DFED3D1A012B01D0022B64D002EE19
:100A5000101A1168F8EE422A81EEA22A21E0334CE6
:100A6000283C23689B0612D5344B246801EE901A6B
:100A70001168C4F3C104F8EE612AE34001EE903A34
:100A8000C1F30801F8EE611A81EEA22A0BE001EE33
:100A9000901ADFED2B2A00BFF8EE611A116882EE82
:100AA000A12AC1F3080101EE901A1168F8EE611A4B
:100AB00040EE811A71EE800A62EE200AC1F34621EF
:100AC00001EE101AB8EE411A31EE001AC0EE811A8A
:100AD000BCEEE11A80ED001A1168C1F3064101EE87
:100AE000101AB8EE411A31EE001AC0EE811ABCEEAF
:100AF000E11A80ED011A1168C1F3066101EE101AC6
:100B0000B8EE411A31EE000A80EE801ABCEEC10A3E
:100B100080ED020A30BD04E001EE901ADFED092AF3
:100B2000BAE70021016041608160F3E72844025880
:100B300000000039384402580024744A0090D00361
:100B40000024744C20BCBE4B494930B5484C0B1DA9
:100B50000A681C3409681D68246802F00303C5F3A1
:100B60000022C1F30551C4F3CC04002914FB02F2A6
:100B700000EE102AF8EE400A75D03F4A9FED3D1A6C
:100B8000B7EE000A6BB1DFED3D1A012B01D0022B4D
:100B900064D002EE101A1168F8EE422A81EEA22A01
:100BA00021E0334C283C23689B0612D5344B246843
:100BB00001EE901A1168C4F3C104F8EE612AE34013
:100BC00001EE903AC1F30801F8EE611A81EEA22A13
:100BD0000BE001EE901ADFED2B2A00BFF8EE611A50
:100BE000116882EEA12AC1F3080101EE901A116882
:100BF000F8EE611A40EE811A71EE800A62EE200A68
:100C0000C1F3462101EE101AB8EE411A31EE001A76
:100C1000C0EE811ABCEEE11A80ED001A1168C1F332
:100C2000064101EE101AB8EE411A31EE001AC0EE7C
:100C3000811ABCEEE11A80ED011A1168C1F3066158
:100C400001EE101AB8EE411A31EE000A80EE801A59
:100C5000BCEEC10A80ED020A30BD04E001EE901A3C
:100C6000DFED092ABAE70021016041608160F3E706
:100C70002844025800000039404402580024744AB5
:100C80000090D0030024744C20BCBE4B2DE9FE4FD5
:100C90000546DFF8E48350F8081B0024F64FC943EB
:100CA000019005F12800264608F12408009008016B
:100CB0001DD4A86E50B1B0F5801F0CD0B0F5001F48
:100CC0000ED0B0F5401F1ED001240FE0386840F46C
:100CD0000030386017E00198022101F06BFE03E05C
:100CE0000098022101F0F6FE04000CD02646288868
:100CF000C043C00523D4A86D05281ED2DFE800F04C
:100D00000C11161B1B00AA6ED8F8001021F440111C
:100D10001143C8F80010EAE7386840F40030386042
:100D200009E00198002101F045FE03E00098002150
:100D300001F0D0FE044674B100E001242646288864
:100D4000C043800528D4E86D80281ED00CDC90B10B
:100D500040280ED114E0AA6DD8F8001021F0070148
:100D60001143C8F80010EAE7C02813D0B0F5807F1F
:100D700010D001240FE0386840F40030386009E0FA
:100D80000198002101F016FE03E00098002101F017
:100D9000A1FE04469CB126462888DFF8DC92C043B9
:100DA00009F12C0940052CD4D5F8A800B0F5800F26
:100DB00020D00DDCA0B1B0F5001F0FD115E0EA6D19
:100DC000D8F8001021F4E0711143C8F80010E3E7EF
:100DD000B0F5C00F13D0B0F5000F10D001240FE014
:100DE000386840F40030386009E00198002101F0D3
:100DF000E1FD03E00098002101F06CFE04467CB1A7
:100E000026462888C04300052DD4D5F8AC00B0F1A3
:100E1000007F21D00EDCA8B1B0F1807F10D116E0A8
:100E2000D5F8A820D9F8001021F460011143C9F8C1
:100E30000010E6E7B0F1407F13D0B0F1806F10D022
:100E400001240FE0386840F40030386009E0019870
:100E5000002101F0AFFD03E00098002101F03AFE0F
:100E6000044674B126462868C04380011FD4E86C4C
:100E7000D8B110280FD0202812D0302815D0012446
:100E800014E0D5F8AC20D9F8001021F0E06111434E
:100E9000C9F80010E7E7386840F40030386004E033
:100EA0000198022101F086FD044674B12646288887
:100EB000C043C0042BD4286EB0F5005F20D00DDCF9
:100EC000A0B1B0F5805F0FD115E06B48EA6C20301F
:100ED000016821F0300111430160E8E7B0F5405F9F
:100EE00013D0B0F5804F10D001240FE0386840F4E3
:100EF0000030386009E00198002101F05BFD03E05B
:100F00000098002101F0E6FD04468CB126462888B1
:100F1000C043800429D4686EB0F5403F23D010DC74
:100F200008B3B0F5803F14D0B0F5003F0FD115E005
:100F30002A6ED8F8001021F4E0411143C8F80010DF
:100F4000E5E7B0F5802F0ED0B0F5A02F0BD001242F
:100F50000AE00198012101F02DFD03E00098012134
:100F600001F0B8FD044694B126462888C0434004E9
:100F70002AD4D5F8B000B0F1405F23D010DC08B31C
:100F8000B0F1805F14D0B0F1005F0FD115E06A6E50
:100F9000D8F8001021F4E0211143C8F80010E4E76C
:100FA000B0F1804F0ED0B0F1A04F0BD001240AE079
:100FB0000198012101F0FEFC03E00098012101F0FD
:100FC00089FD044674B126462888C04300041FD416
:100FD000286FD8B1B0F1805F0ED0B0F1005F10D0B3
:100FE000012414E0D5F8B020D9F8001021F0E04138
:100FF0001143C9F80010E7E7386840F40030386062
:1010000004E00198012101F0D5FC044674B12646A4
:101010002868C043C0011ED4A86CD0B101280ED0EE
:10102000022811D0032814D0012413E02A6FD8F825
:10103000001021F040511143C8F80010E8E738686B
:1010400040F40030386004E00198022101F0B2FC65
:101050000446ACB126462868DFF81CB0C043ABF1AB
:101060001C0B400252D40548016841F480710160B4
:10107000FFF7A2FB824611E02C44025800480258B8
:10108000FA48AA6C016821F0030111430160E2E70C
:10109000FFF792FBA0EB0A00642835D8F4480068FB
:1010A000C005F5D58CBBDFF8C4A3B5F8B4100AF1C0
:1010B000240ADAF8000001F4407100F4407088421C
:1010C00011D0DAF80010DAF8002021F4407142F46F
:1010D0008032CAF80020DAF8002022F48032CAF800
:1010E0000020CAF80010D5F8B400B0F5807F1AD1FE
:1010F000FFF762FB029012E0FFF75EFB0299411AD4
:1011000041F2883081420AD9032426462878DFF844
:101110005CA3C0430AF1080AC00721D03CE0DAF81A
:1011200000008007E8D5D5F8B410C1F301200328EA
:1011300058460DD0016821F47C510160B5F8B42007
:10114000DAF80010C2F30B021143CAF80010DDE711
:10115000C84A036802EA111223F47C511143ECE7F8
:10116000E86F182816D005DCA0B1082808D0102890
:1011700004D10AE020280DD028280BD001240AE051
:101180000198012101F016FC03E00098012101F013
:10119000A1FC044664B126462878C04380071ED4CB
:1011A000A86F062819D2DFE800F0160C11161616E3
:1011B000EA6FDAF8001021F038011143CAF8001084
:1011C000EAE70198012101F0F5FB03E00098012115
:1011D00001F080FC04467CB100E00124264628781A
:1011E000C04340071FD4D5F89400062819D2DFE881
:1011F00000F0160C11161616AA6FDAF8001021F07E
:1012000007011143CAF80010E9E70198012101F034
:10121000D1FB03E00098012101F05CFC0446A4B17D
:1012200000E0012426462878C04380062BD4D5F858
:101230009000B0F1405F24D011DC10B3B0F1805FBA
:1012400015D0B0F1005F10D116E0D5F89420D9F890
:10125000001021F007011143C9F80010E3E7B0F1D5
:10126000804F0ED0B0F1A04F0BD001240AE00198BE
:10127000002101F09FFB03E00098022101F02AFC0D
:10128000044694B126462878C04340062BD4D5F8AE
:101290009C00B0F5406F24D011DC10B3B0F5806F26
:1012A00015D0B0F5006F10D116E0D5F89020DAF81F
:1012B000001021F0E0411143CAF80010E3E7B0F557
:1012C000805F0ED0B0F5A05F0BD001240AE001983A
:1012D000002101F06FFB03E00098022101F0FAFB0E
:1012E000044694B126462878C04300062BD4D5F88E
:1012F000A000B0F5C04F24D011DC10B3B0F5005FF2
:1013000015D0B0F5804F10D116E0D5F89C20D9F853
:10131000001021F4E0511143C9F80010E3E7B0F5E3
:10132000004F0ED0B0F5204F0BD001240AE00198F9
:10133000002101F03FFB03E00098022101F0CAFB0D
:10134000044654B126462878C04300071ED4D5F879
:101350008400B0F5805F0AD00FE0D5F8A020D9F85E
:10136000001021F460411143C9F80010EBE7009828
:10137000022101F0AFFB00B10126D5F88420DAF894
:10138000001021F440511143CAF800102878C043DE
:10139000C00613D4D5F89800B0F5807F05D1009829
:1013A000022101F097FB00B10126D5F89820D9F869
:1013B000001021F440711143C9F800102868C0439F
:1013C000000316D4D5F8A40038B1B0F5803F09D099
:1013D000B0F5003F0BD001240AE00198002101F094
:1013E000E9FA03E00098022101F074FB04468CB195
:1013F00026462868C043400322D4D5F88800B0F5BB
:10140000801F11D0B0F5001F13D0B0F5401F15D0CC
:10141000012414E0D5F8A420D9F8001021F44031BB
:101420001143C9F80010E4E7386840F40030386030
:1014300004E00098012101F04DFB04465CB1264612
:101440002868C043C00323D4286DA8B1B0F5803FFD
:1014500017D001241BE0D5F88820DAF8001021F419
:1014600040111143CAF80010EAE700004C4402584A
:1014700000480258CFFFFF00386840F40030386061
:1014800004E00198022101F095FA0446E4B12646F1
:101490002868C043800005D40098022101F01AFB9F
:1014A00000B101262868C04380031BD4D5F8800012
:1014B000B0B1B0F5807F0FD0B0F5007F10D0B0F59F
:1014C000407F0DD001240CE05A482A6D016821F4B8
:1014D000803111430160DBE7386840F40030386048
:1014E000ECB326462868C043C00207D46A6FD8F818
:1014F000001021F000411143C8F800102868C043D3
:10150000C00008D4D5F8B820DBF8001021F48041E1
:101510001143CBF800102868C043800207D4EA6E5C
:10152000D8F8001021F080711143C8F80010286825
:10153000C04340000CD4DBF8001021F40041CBF88C
:101540000010DBF80010D5F8BC201143CBF80010D8
:101550002868C04308D437486A6D016800E018E085
:1015600021F04051114301602868C043000208D4B3
:10157000D5F88C20DAF8001021F440011143CAF8A4
:10158000001028790024C04300F0010020430AD055
:101590000FE0D5F88020DAF8001021F440711143F3
:1015A000CAF800109EE70198002101F003FA00B18B
:1015B00006462879C04300F00200204305D1019877
:1015C000012101F0F7F900B106462879C04300F087
:1015D0000400204305D10198022101F0EBF900B18C
:1015E00006462879C04300F00800204305D1009842
:1015F000002101F06FFA00B106462879C04300F0DF
:101600001000204305D10098012101F063FA00B1D8
:1016100006462879C04300F02000044304D1009816
:10162000022101F057FA00B916B10120BDE8FE8F82
:101630000020FBE74C4402582DE9F05F04000F4600
:101640007ED0DFF83882D8F8000000F00F00B842F2
:101650000CD2D8F8001021F00F013943C8F800105F
:10166000D8F8000000F00F00B84269D12078844D0E
:1016700040070AD52069296801F07001884204D921
:10168000296821F070010143296020787C4E361DC5
:1016900000070AD56069316801F07001884204D9F9
:1016A000316821F07001014331602078C0060AD50D
:1016B000A069316801F4E061884204D9316821F4FD
:1016C000E061014331602078DFF8B4B180060BF1AE
:1016D000080B0CD5E1695846DBF8002002F07002D7
:1016E000914204D9026822F070020A430260207815
:1016F00080070AD5E068296801F00F01884204D903
:10170000296821F00F01014329602078C0073ED0ED
:101710005B49A2682868183920F47060104328607B
:101720006068022818D0032819D00968012819D048
:10173000490700294ADADFF848A1AAF1080A00E0BF
:1017400044E0DAF8002022F007020243CAF8002041
:10175000FFF732F8814612E009688903E9E7096872
:101760008901E6E7C905E4E7FFF726F8A0EB0901E0
:1017700041F28830814202D90320BDE8F09F6168C0
:10178000DAF8000000F03800B0EBC10FECD120789F
:1017900080070AD5E068296801F00F01884204D269
:1017A000296821F00F0101432960D8F80010404654
:1017B00001F00F01B9420BD9016821F00F01394343
:1017C0000160006800F00F00B84201D00120D4E7AA
:1017D000207840070AD52069296801F07001884205
:1017E00004D2296821F070010143296020780007A4
:1017F0000AD56069316801F07001884204D231680D
:1018000021F07001014331602078C0060AD5A0693B
:10181000316801F4E061884204D2316821F4E0616A
:1018200001433160207880060CD5E1695846DBF829
:10183000002002F07002914204D2026822F070028D
:101840000A43026000F06CF80E492A682B68C2F364
:10185000032203F00F038A5CC95C02F01F0201F04F
:101860001F01D040084A20FA01F1116007490860C1
:1018700007480068BDE8F05FFEF7DABF00200052BD
:101880001844025816360008100000240C000024EA
:101890000400002430B500F043F80B4A0B490C4B10
:1018A00015681468C5F3032204F00F048A5C095D0F
:1018B00002F01F0201F01F01D040064A20FA01F198
:1018C00019601060084630BD1844025816360008EA
:1018D000100000240C00002400B5FFF7DBFF0549D1
:1018E0000968054AC1F30211515C01F01F01C840AB
:1018F00000BD00001C4402581636000800B5FFF772
:10190000C9FF05490968054AC1F30221515C01F08C
:101910001F01C84000BD00001C44025816360008D4
:10192000454970B545480968434B103B11F03802F2
:1019300008D00111082A03D0102A0BD0182A0BD086
:10194000084670BD19688906FBD51968C1F3C10145
:10195000C84070BD3A4870BD3749374D18310C1D2D
:1019600024350A68096826682D6802F0030406F029
:101970000102C1F30511C5F3CC0515FB02F200EE1F
:10198000102AB8EE400AE9B32F4ADFED2E0AB7EE6F
:10199000001A6CB1DFED2D1A012C01D0022C43D0BE
:1019A00002EE101A1068F8EE422A81EEA22A1EE01A
:1019B0001C68A40611D51B6801EE901A1168C3F3C8
:1019C000C103F8EE612AD84001EE900AC1F3080085
:1019D000F8EE611A81EEA22A0BE001EE901ADFED1B
:1019E0001C2A00BFF8EE611A106882EEA12AC0F32B
:1019F000080001EE900AF8EE611A40EE201A31EE6E
:101A0000810A00E015E022EE000A1068C0F34620CB
:101A1000401C00EE900AF8EE600A80EE201ABCEE40
:101A2000C10A10EE100A70BD01EE901ADFED092A0E
:101A3000D8E7002070BD0000104402580090D00389
:101A400040787D0100000039304402580024744A77
:101A50000024744C20BCBE4B2DE9F05F04007DD007
:101A6000FF4F2078FE4D1837DFF8F493103DC00784
:101A700048D0D9F80000396800F03800102815D097
:101A8000182803D101F0030002280FD06068B0F5D8
:101A9000803F12D010B1B0F5A02F18D0286820F4E4
:101AA00080302860286820F4802009E028688003BE
:101AB00028D560680028D2D024E0286840F480301F
:101AC0002860606888B1FEF777FE064609E028685E
:101AD00040F480202860F0E7FEF76EFE801B64284B
:101AE0006FD828688003F7D50CE0FEF765FE064640
:101AF00005E000BFFEF760FE801B6428F0D8286870
:101B00008003F7D4207841F20308D54E0C3E8007BD
:101B100069D5D9F80000396810F038000ED01828BF
:101B200001D188070AD0E06890B3296821F0190133
:101B300001432960FEF740FE824631E028684007F5
:101B400002D5E06800288AD0E168286820F01900F2
:101B500008432860FEF730FE824607E0DFE000BF62
:101B6000FEF72AFEA0EB0A000228B9D82868400731
:101B7000F6D500BFFEF71AFE40451BD82069402865
:101B800012D0316821F47C3141EA003030602AE023
:101B900018E000BFFEF710FEA0EB0A0002289FD855
:101BA00028684007F6D5E5E7306820F47C3040F43B
:101BB0000030EBE7207C316821F0FE4141EA006013
:101BC000E4E70DE1286820F001002860FEF7F4FD4D
:101BD000824605E0FEF7F0FDA0EB0A0002288DD852
:101BE00028684007F6D42078C0065DD5D9F80000F3
:101BF000DFF86CB2396800F03800ABF1040B08284C
:101C000010D0182803D101F0030001280AD0E069A0
:101C10000028286838D040F080002860FEF7CCFD0E
:101C2000824623E02868C00523D5E069802876D164
:101C30001FE0206A202821D0316821F0F84141EAD4
:101C40008060306030E000BF94F82010DBF80020A6
:101C500022F07C5242EA0161CBF8001024E000BF80
:101C6000FEF7AAFDA0EB0A00022898D82868C00554
:101C7000F6D5FEF79BFD4045E6D8DAE7306820F060
:101C8000F84040F08040DCE720F080002860FEF75C
:101C900093FD064605E000BFFEF78EFD801B02287F
:101CA0009DD82868C005F7D42078000729D56C484E
:101CB0006169643000298046016811D041F001015A
:101CC0000160FEF779FD064605E000BFFEF774FDF2
:101CD000801B0228C9D8D8F800008007F6D510E08C
:101CE00021F001010160FEF767FD064605E000BF37
:101CF000FEF762FD801B022872D8D8F8000080072A
:101D0000F6D42078800623D5A0690028286810D052
:101D100040F480502860FEF74FFD064605E036E1AE
:101D2000FEF74AFD801B02285AD828688004F7D5A0
:101D30000EE020F480502860FEF73EFD064604E0E9
:101D4000FEF73AFD801B02284AD828688004F7D4A1
:101D5000207840074FD5DFF80C81D8F8001041F407
:101D60008071C8F80010FEF727FD064605E000BFA9
:101D7000FEF722FD801B642832D8D8F80000C00589
:101D8000F6D5374EA068603601280AD008B105287C
:101D900013D0306820F001003060306820F004007B
:101DA00002E0306840F001003060A06841F2883AFB
:101DB00090B1FEF701FD80460AE0306840F0040073
:101DC0003060EEE7FEF7F8FCA0EB0801514507D8BC
:101DD00030688007F6D50EE0FEF7EEFC804607E09F
:101DE00084E000BFFEF7E8FCA0EB080151457DD878
:101DF00030688007F6D4606AB0B3DFF86480D9F841
:101E0000001008F120084FF6F87B08F10409C1F32F
:101E1000C2010329A8F1040A69D00228286820F029
:101E20008070286003D0FEF7C7FC044684E0FEF70C
:101E3000C3FC064605E000BFFEF7BEFC801B02287F
:101E400077D828688001F7D4E26A40F2F331386825
:101E500054F8283F884340EA02101843386004E0F1
:101E60001044025800480258B5E0217B43462289BD
:101E70004FF4FE0C208A4FF0FE474902267D521E89
:101E8000401EA1F50071C2F308088AB2761E0CEA62
:101E9000004042EA08020243504607EA06610A434C
:101EA0001A60DAF8002022F00102CAF80020D9F8FE
:101EB0000020266A22EA0B0242EAC602C9F8002084
:101EC000DAF80010A26921F00C011143CAF80010E1
:101ED0000168E26921F0020111430160016841F4E7
:101EE00080310160016841F4003101E021E027E028
:101EF0000160016841F480210160016841F0010145
:101F00000160286840F080702860FEF755FC0446A8
:101F100005E000BFFEF750FC001B022809D8286826
:101F20008001F7D557E000BFFEF746FC001B0228F2
:101F300002D90320BDE8F09F28688001F4D44AE06C
:101F400039680128D8F8000021D0A26A01F0030303
:101F500093421CD1E26AC1F305118A4217D1216B69
:101F6000C0F30802491E8A4211D1616BC0F34622B8
:101F7000491E91420BD1A16BC0F30642491E91420A
:101F800005D1E16BC0F30660491E814201D00120FA
:101F9000D0E7A16C4E46D9F80000C0F3CC008142D6
:101FA00019D0DAF80000554620F00100CAF8000008
:101FB000FEF702FC4FEA0007FEF7FEFBB842FBD03B
:101FC000A26C306820EA0B0040EAC200306028684A
:101FD00040F0010028600020ACE700002DE9F0414E
:101FE00004001D4616460F4603D0D4F8880018B1E9
:101FF00008E00120BDE8F081002084F8840020463C
:1020000000F0C6F92420C4F888002068016821F097
:1020100001010160A06A10B1204600F07FFF204658
:1020200001F060F80128E5D0206871050D4A41EA09
:102030000541836843F4804383602068836823F408
:1020400000433B4383602068036813400B430360F5
:102050002068016841F0010101602046BDE8F041BF
:1020600000F0C0BFFFFF00FC401EB0F1807F10B544
:1020700001D3012010BD4FF0E02460610F216017F3
:1020800001F051FA0020A0610721216110BD00007C
:10209000F0B590F83C20012A3BD01F4E012480F877
:1020A0003C40022280F83D2002681C4D5368B24239
:1020B000D2F808C001D0AA4203D14F6823F47003BC
:1020C0003B430F6823F070031F4357600268B2421E
:1020D00013D0B2F1804F10D0114B9A420DD0114B5A
:1020E0009A420AD0104B9A4207D0AA4205D00F4B11
:1020F0009A4202D00E4B9A4204D189682CF0800398
:1021000019439160002180F83D4080F83C1008465A
:10211000F0BD0220F0BD00000000014000040140BD
:102120000004004000080040000C0040001800407F
:102130000040014010B5040003D094F83D0010B1F8
:1021400007E0012010BD002084F83C00204600F08C
:1021500023F8022084F83D002068211D00F01EFEB7
:10216000012084F8480084F83E0084F83F0084F899
:10217000400084F8410084F8420084F8430084F869
:10218000440084F8450084F8460084F8470084F849
:102190003D00002010BD000008B50068B0F1804F80
:1021A00008D10548016841F001010160006800F0B4
:1021B0000100009008BD0000E844025870B50446D4
:1021C00090F83C000025012814D03A4B012684F8F1
:1021D0003C60022084F83D0022689068184020F49A
:1021E0007F409060086870282FD010DC10F00F0F2F
:1021F00003D022E04FF0020070BD4FEA2012072A00
:102200001BD2DFE802F0535353534B394100B0F176
:10221000101F4BD009DCB0F5805F0FD0B0F5005F28
:102220001ED0B0F5801F08D140E0A0F58011203904
:102230003CD010293AD0202938D0012584F83D60BF
:10224000002084F83C00284670BD4A682068D1E927
:10225000021300F009FE2068816841F0770109E06F
:102260004A682068D1E9021300F0FEFD2068816809
:1022700041F480418160E1E7CA684968206800F064
:1022800007FE2068502106E0CA684968206800F00F
:1022900010FE2068602100F0F1FDCFE7CA684968B0
:1022A000206800F0F5FD20684021F4E7226801462F
:1022B0001046F0E788FFCEFF30B590F88410012972
:1022C00018D0012280F884202421C0F88810002230
:1022D000202401680B680D6823F0005325F00105E8
:1022E0000D60426601680B60C0F8884080F8842069
:1022F000104630BD022030BD70B5044690F8840011
:1023000001281DD0012284F884202420C4F88800EC
:1023100020680568026822F0010202602068826875
:1023200022F060620A438260204600F0D5FD2268F8
:10233000202100201560C4F8881084F8840070BD46
:10234000022070BD70B5044690F8840001281DD0AD
:10235000012284F884202420C4F8880020680568BD
:10236000026822F0010202602068826822F0604266
:102370000A438260204600F0AFFD22682021002041
:102380001560C4F8881084F8840070BD022070BD08
:102390002DE9F04FB7B00546142130A8FEF767F8D5
:1023A000C0216846FEF763F88A4C02278B494FF03C
:1023B00007082868083C874E0025DFF81C928842F1
:1023C00024D100201E950221CDE900106846FEF7B9
:1023D0005DFC08B1FEF7B1F8306840F08040306035
:1023E000306800F080403590206840F01000206098
:1023F00020684FF46071309130A900F010003590E2
:10240000CDE93175CDE93358484638E07449884202
:102410003AD100201E950221CDE900106846FEF752
:1024200035FC08B1FEF789F8306840F000403060B4
:10243000306800F000403590206840F008002060CF
:10244000206800F008003590206840F010002060FF
:102450002068082430A900F0100035902003309047
:10246000CDE931755F48CDE93354FEF789F8032093
:102470003090CDE93175CDE9335430A94846FEF7A7
:102480007FF837B0BDE8F08F57494FF48059DFF837
:102490005CB1DFF85CA1884239D100201F95012191
:1024A000CDE900106846FEF7F1FB08B1FEF745F8EC
:1024B00048480830016841F010010160006800F0F0
:1024C00010003590206840F002002060206800F085
:1024D00002003590206840F001002060206804214F
:1024E00000F0010035904FF440403090CDE9317557
:1024F000CDE9335130A95846FEF742F8CDF8C090E7
:1025000030A9CDE93175CDE933585046B7E739499F
:10251000884223D100201E950221CDE90010684693
:10252000FEF7B4FB08B1FEF708F8306840F400305D
:102530003060306800F400303590206840F00100D1
:10254000206020680E21309130A900F00100359004
:10255000CDE93175CDE93358504690E72649884298
:102560008FD100201E950221CDE900106846FEF7AC
:102570008DFB08B1FDF7E1FF306840F4802030604A
:10258000306800F480203590206840F00200206020
:10259000206800F002003590206840F008002060BC
:1025A000206830A92C4600F0080035904FF44060B8
:1025B0003090CDE93175CDE933585846FDF7E0FF4D
:1025C000CDF8C09030A9CDE931740648CDE9334843
:1025D00055E70000E8440258001002580078004017
:1025E000007C0040000C025800100140000402581A
:1025F0000000025800440040004800402DE9F84324
:102600000446D0F88800984616460D46202802D089
:102610000220BDE8F883A5B19EB10021C4F8901056
:102620002120C4F888001834FEF7C6F8814654F813
:10263000100CA687E6872027183CB0F5805F02D0F3
:1026400003E00120E5E7206910B12E46002510E0E7
:1026500000260EE08021204600F01AFFC0B9DEB14E
:1026600016F8010B21688862B4F85600401EA4F8E1
:102670005600B4F856004B464FF00002CDF80080EB
:102680000028E7D14FF04001204600F001FF48B19B
:10269000C4F888700320BCE735F8020B2168C0F34A
:1026A0000800E0E7C4F888700020B2E7FEE7000009
:1026B00000B587B014216846FDF7D9FE19480168B6
:1026C00041F010010160016801F0100105910168FD
:1026D00041F080010160016801F08001059101680D
:1026E00041F001010160016801F0010105910168FB
:1026F00041F002010160016801F0020105910168E9
:1027000041F00801016000680021012200F008008A
:1027100005903C208DE8070003486946FDF730FF2F
:1027200007B000BDE04402580010025810B588B050
:1027300016480024621E00944FF0804101940294D8
:102740000394049405940694C0E90014C0E902427D
:1027500004618461FFF7EEFC08B1FDF7EEFE4FF473
:102760008050009009486946FFF728FD08B1FDF741
:10277000E4FE064804A904940694FFF789FC0028A7
:1027800001D0FDF7DAFE08B010BD000014000024EF
:102790001948002110B5174C4FF4E1330C220460A6
:1027A000C0E90131C1600B46C0E9041281610A46EB
:1027B000C161016241628162FFF710FC08B1FDF75F
:1027C000BCFE0D480021FFF7BDFD08B1FDF7B5FEC9
:1027D00009480021FFF790FD08B1FDF7AEFE06485D
:1027E000FFF76AFD002803D0BDE81040FDF7A5BE45
:1027F00010BD00000078004060000024194800214E
:1028000010B5174C4FF4E1330C220460C0E90131DC
:10281000C1600B46C0E9041281610A46C1610162D0
:1028200041628162FFF7DAFB08B1FDF786FE0D48D1
:102830000021FFF787FD08B1FDF77FFE0948002161
:10284000FFF75AFD08B1FDF778FE0648FFF734FDA3
:10285000002803D0BDE81040FDF76FBE10BD00009A
:10286000007C0040F40000241948002110B5174CEA
:102870004FF4E1330C220460C0E90131C1600B4622
:10288000C0E9041281610A46C1610162416281624C
:10289000FFF7A4FB08B1FDF750FE0D480021FFF73C
:1028A00051FD08B1FDF749FE09480021FFF724FD5D
:1028B00008B1FDF742FE0648FFF7FEFC002803D0F2
:1028C000BDE81040FDF739BE10BD0000001001400A
:1028D000880100241948002110B5174C4FF4E1334A
:1028E0000C220460C0E90131C1600B46C0E904124A
:1028F00081610A46C161016241628162FFF76EFB3C
:1029000008B1FDF71AFE0D480021FFF71BFD08B1C5
:10291000FDF713FE09480021FFF7EEFC08B1FDF7B3
:102920000CFE0648FFF7C8FC002803D0BDE81040A5
:10293000FDF703BE10BD0000004400401C0200244F
:102940001948002110B5174C4FF4E1330C220460F4
:10295000C0E90131C1600B46C0E9041281610A4639
:10296000C161016241628162FFF738FB08B1FDF786
:10297000E4FD0D480021FFF7E5FC08B1FDF7DDFDA2
:1029800009480021FFF7B8FC08B1FDF7D6FD06485D
:10299000FFF792FC002803D0BDE81040FDF7CDBD45
:1029A00010BD000000480040B0020024FEE7FEE732
:1029B000704700002DE9F047454D044689464FF029
:1029C000000A2868C04380070AD0414E283E30687C
:1029D00020F080603060FDF7EFFE0746B04608E06B
:1029E0000120BDE8F08700BFFDF7E6FEC01B02280E
:1029F00067D8D8F800000001F6D4206829684FF4A1
:102A0000FE0721F47C313E0241EA00302860207A42
:102A1000A389B4F804C040022D4D2D495B1E227CD1
:102A2000ACF1010C1035091DA0F5007080B2521EEA
:102A3000CCF3080C07EA034340EA0C00184306EA0B
:102A40000262104328600868626920F0C0001043E9
:102A500008600A68A06922F0200202430A60281D6B
:102A60000A6822F010020A6002684FF6F873E469FF
:102A70009A4342EAC40202600868B9F1000F40F0CC
:102A800010020A6011D00868B9F1010F11D040F4AA
:102A900000100860D8F80000444640F08060C8F894
:102AA0000000FDF789FE05460DE0086840F40020AF
:102AB000EFE740F48010ECE7FDF77EFE401B0228B4
:102AC00001D903208DE720680001F5D5504688E73D
:102AD000284402582DE9F047454D044689464FF0F9
:102AE000000A2868C04380070AD0414E283E30685B
:102AF00020F080503060FDF75FFE0746B04608E0EA
:102B00000120BDE8F08700BFFDF756FEC01B02287C
:102B100067D8D8F800008000F6D4208829684FF4E0
:102B2000FE0721F07C713E0241EA00502860207AC5
:102B3000A389B4F804C040022D4D2D495B1E227CB0
:102B4000ACF1010C1835091DA0F5007080B2521EC1
:102B5000CCF3080C07EA034340EA0C00184306EAEA
:102B60000262104328600868626920F440601043E4
:102B700008600A68A06922F4007202430A60281DF6
:102B80000A6822F480720A6002684FF6F873E469FA
:102B90009A4342EAC40202600868B9F1000F40F4A7
:102BA00080720A6011D00868B9F1010F11D040F0AD
:102BB00080700860D8F80000444640F08050C8F8A3
:102BC0000000FDF7F9FD05460DE0086840F48000BF
:102BD000EFE740F40000ECE7FDF7EEFD401B0228B4
:102BE00001D903208DE720688000F5D5504688E79D
:102BF000284402587047FDF7E5BD000070B59CB051
:102C00004C216846FDF733FC202113A8FDF72FFC6B
:102C10000220FDF7BBFE214800242149026842F44E
:102C20004042026002680A6842F001020A600968D4
:102C300001F001011B9101688904FCD50DF1280CFC
:102C4000022009900521C0228CE80700C6030F90DE
:102C500008250D9001230E90CDE91054CDE90036E2
:102C600068461294FEF7F8FE08B172B6FEE74020FF
:102C70001A903F210301CDE916500322CDE9180334
:102C800013AB13A883E816000421FEF7D5FC002837
:102C900001D072B6FEE71CB070BD000018480258A3
:102CA0002C0400583348F0B5334A016841F47001F0
:102CB0000160106800F00F00072804D2106820F0AF
:102CC0000F00C01D10602D4900202C4C10340B68E3
:102CD0002B4D43F001030B6020600B682B400B6011
:102CE000136803F00F03072B04D9136823F00F03B5
:102CF000DB1D1360214C234A1834234B261D371D3E
:102D000020601E4C214D28343060261D3860371D50
:102D100023603B1D35601C1D3A60251D2E1D18606B
:102D2000331D22602860326018600A68134B184C0B
:102D300022F4802260330A60186020686FF30F006D
:102D4000B0F1005F03D213490120C1F808010B481C
:102D5000D4300168C9040BD4026843F2D2010E4B8F
:102D600042F4805202601960016821F480510160D0
:102D7000F0BD000088ED00E0002000520044025841
:102D80007FEDF6EA80020101000202020000FF016D
:102D90000010005C00800051004000522DE9F04717
:102DA000294B4FF0804A294D02689842284E294FFE
:102DB000294C09D0504507D0A84205D0B04203D0D5
:102DC000B84201D0A04205D1D1F804C022F070026F
:102DD0004CEA0202DFF884C0DFF884809842DFF812
:102DE00084900FD050450DD0A8420BD0B04209D0EE
:102DF000B84207D0A04205D0604503D0404501D07D
:102E0000484503D1CD6822F440722A438E684D694B
:102E100022F08002C6620E682A439842866207D07A
:102E2000A04205D0604503D0404501D0484501D1BE
:102E3000096901630368012143F0040303604161F0
:102E40000260BDE8F087000000000140000400407F
:102E500000080040000C0040000401400040014018
:102E6000004401400048014042EA032283680A43CB
:102E700023F47F410A43826070470000034B82685D
:102E80001A400A4342F00701816070478FFFCFFF6D
:102E900010B5036A046A23F00A0324F001040462F3
:102EA00084690B4324F0F00141EA0211816103625D
:102EB00010BD10B5036A046A23F0A00324F01004C7
:102EC0000462846943EA011124F4704343EA023244
:102ED0008261016210BD000030B5416EB9B1016878
:102EE0000D4B03F108048A688968C2F34262490FF6
:102EF0005D5C615C2D01B5FBF1F1A0F86A10995C95
:102F0000A25C0901B1FBF2F1A0F8681030BD01210B
:102F1000A0F86A10F8E700000636000890F82810BC
:102F2000090706D50168836B4A6822F400421A43F8
:102F30004A6090F82810C90706D00168C36A4A6839
:102F400022F400321A434A6090F82810890706D507
:102F50000168036B4A6822F480321A434A6090F891
:102F60002810490706D50168436B4A6822F480227D
:102F70001A434A6090F82810C90606D50168C36B49
:102F80008A6822F480521A438A6090F828108906D1
:102F900006D50168036C8A6822F400521A438A60DD
:102FA00090F82810490611D50168436C4A6822F44C
:102FB00080121A434A60416CB1F5801F06D1016846
:102FC000836C4A6822F4C0021A434A6090F82810C1
:102FD000090606D50168C26C486820F40020104339
:102FE000486070472DE9F84300250446C0F890502A
:102FF000FDF7E2FB8046206820266FF07E470068E0
:10300000000713D50022434631042046009700F004
:103010003FFA58B1216851E8000F20F0800041E8E4
:103020000002002AF6D1C4F8886021E02068006818
:10303000400722D5002243464FF4800120460097E6
:1030400000F026FAC8B1206850E8001F21F4907102
:1030500040E80012002AF6D12068083050E8001F2E
:1030600021F0010140E80012002AF5D1C4F88C607B
:10307000032084F88450BDE8F883C4F88860C4F85D
:103080008C60E5662567002084F88450F3E7000033
:1030900010B5026852E8001F21F4907142E8001355
:1030A000002BF6D10E4B0268083252E8001F19407F
:1030B00042E80014002CF6D1C16E012908D1026843
:1030C00052E8001F21F0100142E80013002BF6D156
:1030D00000212022C0F88C20C166416710BD00008D
:1030E000FEFFFFEF2DE9F04304468068D84E87B01D
:1030F000D84B2168D4E90427D4F81CC010430A68CF
:10310000002547EA0C073843324002430A60206832
:10311000E268416821F44051114341602268A1698D
:103120009A4201D0206A01439768DFF82CC3CB4E46
:10313000CB4807EA0C070F4397602168676ACA6AA1
:1031400022F00F023A43CA622268B2420ED10068EE
:1031500000F03800182873D047DCB8B3082879D0BD
:1031600010286FD178E028287ED17BE0BD498A42C3
:1031700009D1006800F00700062875D2DFE800F0EA
:10318000546A6C6E7072B8498A4209D1006800F0C6
:103190000700062868D2DFE800F0475D5F616365DD
:1031A000B2498A4209D1006800F0070006285BD2C4
:1031B000DFE800F03A5052545658AD498A420BD1DC
:1031C000006800F0070006284ED200E010E0DFE8BB
:1031D00000F02B4143454749A6498A420AD100687D
:1031E00000F03800182839D0B7DD2028BBD13CE0EA
:1031F00001203AE0A0498A4209D1006800F00700A6
:10320000062831D2DFE800F01026282A2C2E9B4910
:103210008A420BD1006800F00700062824D2DFE8BC
:1032200000F003191B1D1F2100201EE09A421BD134
:103230008B48001D006800F00700062814D202E049
:103240000CE007E010E0DFE800F0030507090B0DD4
:1032500002200AE0042008E0082006E0102004E034
:10326000202002E0402000E080208549DFF8148221
:103270009A42854A4FF400434FEA21174FF0000667
:103280004ED110281AD006DC022809D004280BD011
:1032900008287CD10DE020283ED0402877D13DE0A1
:1032A000FDF79EFB014610E06846FDF7ABFB019978
:1032B0000BE003A8FDF748FC049906E010688006BF
:1032C00005D51068C0F3C100C140002970D0606A04
:1032D000676838F8102007EB4703B1FBF2F0834230
:1032E00055D8B0EB073F52D8002308461946FDF7E2
:1032F00047F802467808130E120243EA012110181B
:103300003A4671410023FDF73BF8604AA0F5407151
:1033100091423CD821688FE03946D8E71946D6E774
:10332000D4F81CC04FF6EF799C4546D1082819D037
:1033300005DC58B101280CD0042875D10DE0102807
:1033400015D0202835D040286ED134E0FEF7C4FADD
:1033500001E0FEF7D3FA014610E06846FDF752FBA4
:1033600001990BE003A8FDF7EFFB049906E0106854
:10337000800604D51068C0F3C100C140C1B1636AC2
:10338000606838F81330B1FBF3F1490000E04BE01E
:1033900001EB5001B1FBF0F0A0F11001494543D819
:1033A0004FF6F0732168C0F342021840104343E027
:1033B00043E03946E3E71946E1E7082819D005DC80
:1033C00058B101280CD004282ED10DE0102815D0BA
:1033D00020282BD0402827D12AE0FEF77DFA01E0F3
:1033E000FEF78CFA014610E06846FDF70BFB0199E9
:1033F0000BE003A8FDF7A8FB049906E0106880061F
:1034000004D51068C0F3C100C140B1B1636A6068FF
:1034100038F81330B1FBF3F101EB5001B1FBF0F0E0
:10342000A0F11001494505D9012506E03946EDE72F
:103430001946EBE7216880B2C8600120A4F86A0051
:10344000A4F8680028466667A66707B0BDE8F08361
:10345000F369FFCF000C0058FFF4FF11001001408A
:10346000544402580044004000480040004C0040D2
:10347000005000400014014000780040007C0040F3
:103480000090D003EE35000800440258FFFC0F0006
:103490002DE9F047994617460D460446089E4FF021
:1034A000000833E0701C31D0FDF786F9A0EB09006D
:1034B000B04218D8BEB120680168490726D5802DD2
:1034C00024D0402D22D0C169C94309070DD4082555
:1034D00005622046FFF7DCFDC4F89050012084F817
:1034E0008480BDE8F0870320FBE7C069C043000586
:1034F0000CD421684FF4006008622046FFF7C8FD35
:103500002021C4F8901084F88480ECE72068C0691A
:1035100035EA000004D00020B842C3D00020E0E724
:103520000120F9E7FEE7090700284FEA116104DBF3
:1035300000F1E02080F80014704700F00F0000F167
:10354000E02080F8141D70471FB5002400940194FA
:1035500002940394FDF7BAF901208DF80C001F21A5
:103560008DF8081087228DF809208DF80D008DF850
:10357000000068468DF80A408DF80E408DF8014035
:1035800001948DF80B408DF80F40FDF771F9042080
:10359000FDF7AAF9FDF71EF9FFF730FBFFF788F8F2
:1035A000FFF7C4F8FFF72AF9FFF75EF9FFF792F982
:1035B000FFF7C6F9FFF7ECF807A101230522D1E9CF
:1035C0000001CDE9000106486946FFF717F8012020
:1035D000FCF7C4FFF0E70000000102030400000054
:1035E000F40000244FF04070E1EE100A7047010033
:1035F00002000400060008000A000C001000200071
:1036000040008000000101010103070100000804DF
:10361000020408010101000000000102030401028C
:1036200003040607080900004836000800000024CB
:1036300014000000D40200085C36000814000024C6
:1036400094450000F0020008010000001000000096
:0C365000000000000090D0030090D003A8
:040000050800029954
:00000001FF
